:10000000DFC00000C6C4000099C400006CC400003A
:100010003FC4000012C40000E5C30000B8C30000E4
:100020008BC30000E1C40000DFC40000DDC4000099
:10003000F7C00000F5C00000F3C00000F1C00000F0
:10004000EFC00000EDC00000EBC00000E9C0000000
:10005000E7C00000E5C00000E3C0000023C30000CB
:10006000DFC00000E9C20000BEC20000D9C000002D
:10007000D7C00000D5C00000D3C00000D1C0000030
:10008000CFC00000CDC00000CBC00000C9C0000040
:10009000C7C00000C5C00000C3C00000C1C0000050
:1000A000BFC00000BDC00000BBC00000B9C0000060
:1000B000B7C00000B5C00000B3C00000B1C0000070
:1000C000AFC00000ADC00000ABC0000056C20000D1
:1000D0002BC20000A5C00000A3C00000A1C000000A
:1000E0009FC00000000020002300260029002C00F3
:1000F0002F00320000010000030106010901000089
:100100002200250028002B002E00310034000201BF
:100110000000050108010B01000021002400270058
:100120002A002D0030003300010100000401070106
:100130000A0105050505070508080808020202026C
:100140000A0A080804040404010101010101010173
:100150000303030303030303040707070C0C0C0C3E
:100160000C0C0C0C02020202060606060606060627
:100170000B0B0B0B0B0B0B0B0102102020080810B4
:100180002040102040800201020108040201010207
:1001900004081020408080402010080402018004E0
:1001A000020180402010080402010804020101023B
:1001B0000408102040800102040810204080EC0850
:1001C00011241FBECFEFD1E2DEBFCDBF00E00CBFD8
:1001D00024E0ACE5B2E001C01D92A938B207E1F716
:1001E00012E0A0E0B2E0E0E8F4E100E00BBF02C002
:1001F00007900D92AC35B107D9F710E0C0EED0E012
:1002000000E006C021970109802FFE010E94320AFA
:10021000CF3DD10780E00807A9F755D50C943E0AD9
:10022000EFCEFC01538D448D252F30E0842F90E0DC
:10023000821B930B541710F0CF96089501970895E1
:10024000FC01918D828D981761F0828DDF01A80FDE
:10025000B11D5D968C91928D9F5F9F73928F90E000
:1002600008958FEF9FEF0895FC01918D828D98176F
:1002700031F0828DE80FF11D858D90E008958FEFAC
:100280009FEF0895FC01918D228D892F90E0805C75
:100290009F4F821B91098F73992708958CE593E0F6
:1002A000F1DF21E0892B09F420E0822F089587E710
:1002B00092E0E8DF21E0892B09F420E0822F089505
:1002C000FC01848DDF01A80FB11DA35ABF4F2C91F3
:1002D000848D90E001968F739927848FA689B789C2
:1002E0002C93A089B1898C91837080648C93938DB9
:1002F000848D981306C00288F389E02D80818F7D5C
:1003000080830895EF92FF920F931F93CF93DF9313
:10031000EC0181E0888F9B8D8C8D981305C0E88956
:10032000F989808185FD25C0F62E0B8D10E00F5FC9
:100330001F4F0F731127E02E8C8DE8120BC00FB6E4
:1003400007FCFACFE889F989808185FFF5CFCE01D6
:10035000B7DFF2CF8B8DFE01E80FF11DE35AFF4F9F
:10036000F0829FB7F8940B8FEA89FB8980818062C5
:100370000AC09FB7F894EE89FF896083E889F989FC
:1003800080818370806480839FBF81E090E0DF91F3
:10039000CF911F910F91FF90EF900895CF93DF932E
:1003A000EC01888D8823C1F0EA89FB89808185FD75
:1003B00005C0A889B9898C9186FD0EC00FB607FCCF
:1003C000F5CF808185FFF2CFA889B9898C9185FF0F
:1003D000EDCFCE0175DFE8CFDF91CF91089580E0BA
:1003E00090E0892B19F063DF811120C080E090E05C
:1003F000892B41F080E090E0892B21F00E940000E1
:10040000811117C080E090E0892B19F047DF81113E
:1004100013C080E090E0892BA1F080E090E0892B70
:1004200081F00E94000081110AC008950E9400001E
:10043000DDCF0E940000E6CF0E940000EACF0C94BE
:10044000000008952FB7F89460916F0270917002C8
:1004500080917102909172022FBF089508950895BE
:1004600080E090E00895DC01ED91FD918081ED91B7
:10047000FD919081ED91FD916C9163708E2309F057
:1004800064609F2309F06860E0E5F2E0E60FF11D8B
:10049000659565956D936D917D918D919D91099473
:1004A00023C01AC012C016C010C01EC009C014C09C
:1004B00013C006C019C009C00DC007C00DC014C0CC
:1004C00062507040804090400BC06150704080404E
:1004D000904006C06E5F01C06F5F7F4F8F4F9F4F90
:1004E0009E938E937E936E93089580916602909171
:1004F0006702B9CF8091640290916502B4CF809178
:10050000620290916302AFCF80916002909161028C
:10051000AACF80915E0290915F02A5CF80915C028C
:1005200090915D02A0CFA6D71F920F920FB60F92A7
:1005300011240BB60F922F933F934F935F936F93BA
:100540007F938F939F93AF93BF93EF93FF938CE52C
:1005500093E0B6DEFF91EF91BF91AF919F918F91A4
:100560007F916F915F914F913F912F910F900BBEB3
:100570000F900FBE0F901F9018951F920F920FB6FD
:100580000F9211240BB60F922F938F939F93EF939B
:10059000FF93E0916C03F0916D038081E091720311
:1005A000F091730382FD12C09081809175038F5F7B
:1005B0008F7320917603821751F0E0917503F0E07C
:1005C000E45AFC4F958F8093750301C08081FF91A1
:1005D000EF919F918F912F910F900BBE0F900FBEB7
:1005E0000F901F9018951F920F920FB60F92112423
:1005F0000BB60F922F933F934F935F936F937F931D
:100600008F939F93AF93BF93EF93FF9387E792E00E
:1006100057DEFF91EF91BF91AF919F918F917F91A5
:100620006F915F914F913F912F910F900BBE0F9063
:100630000FBE0F901F9018951F920F920FB60F923A
:1006400011240BB60F922F938F939F93EF93FF93E9
:10065000E0918702F09188028081E0918D02F09113
:100660008E0282FD12C09081809190028F5F8F7305
:1006700020919102821751F0E0919002F0E0E95848
:10068000FD4F958F8093900201C08081FF91EF9183
:100690009F918F912F910F900BBE0F900FBE0F90D7
:1006A0001F9018951F920F920FB60F9211242F933F
:1006B0003F938F939F93AF93BF9380916F029091DD
:1006C0007002A0917102B091720230916E0223E02B
:1006D000230F2D3720F40196A11DB11D05C026E87A
:1006E000230F0296A11DB11D20936E0280936F020D
:1006F00090937002A0937102B093720280916A028B
:1007000090916B02A0916C02B0916D020196A11DB7
:10071000B11D80936A0290936B02A0936C02B09318
:100720006D02BF91AF919F918F913F912F910F904B
:100730000FBE0F901F9018951F920F920FB60F9239
:1007400011240BB60F922F933F934F935F936F93A8
:100750007F938F939F93AF93BF93EF93FF93E0911A
:100760000E02F0910F021995FF91EF91BF91AF9199
:100770009F918F917F916F915F914F913F912F91B9
:100780000F900BBE0F900FBE0F901F9018951F92E9
:100790000F920FB60F9211240BB60F922F933F9327
:1007A0004F935F936F937F938F939F93AF93BF9379
:1007B000EF93FF93E0910C02F0910D021995FF91D8
:1007C000EF91BF91AF919F918F917F916F915F91C9
:1007D0004F913F912F910F900BBE0F900FBE0F9036
:1007E0001F9018951F920F920FB60F9211240BB6FF
:1007F0000F922F933F934F935F936F937F938F93BA
:100800009F93AF93BF93EF93FF93E0910202F09118
:1008100003021995FF91EF91BF91AF919F918F9135
:100820007F916F915F914F913F912F910F900BBEF0
:100830000F900FBE0F901F9018951F920F920FB63A
:100840000F9211240BB60F922F933F934F935F9308
:100850006F937F938F939F93AF93BF93EF93FF9388
:10086000E0910002F09101021995FF91EF91BF9183
:10087000AF919F918F917F916F915F914F913F9138
:100880002F910F900BBE0F900FBE0F901F901895D9
:100890001F920F920FB60F9211240BB60F922F9347
:1008A0003F934F935F936F937F938F939F93AF93F8
:1008B000BF93EF93FF93E0910A02F0910B02199519
:1008C000FF91EF91BF91AF919F918F917F916F9128
:1008D0005F914F913F912F910F900BBE0F900FBEE4
:1008E0000F901F9018951F920F920FB60F92112420
:1008F0000BB60F922F933F934F935F936F937F931A
:100900008F939F93AF93BF93EF93FF93E091080270
:10091000F09109021995FF91EF91BF91AF919F91CD
:100920008F917F916F915F914F913F912F910F9098
:100930000BBE0F900FBE0F901F9018951F920F9235
:100940000FB60F9211240BB60F922F933F934F9334
:100950005F936F937F938F939F93AF93BF93EF9327
:10096000FF93E0910602F09107021995FF91EF9134
:10097000BF91AF919F918F917F916F915F914F91B7
:100980003F912F910F900BBE0F900FBE0F901F90B5
:1009900018951F920F920FB60F9211240BB60F925B
:1009A0002F933F934F935F936F937F938F939F9377
:1009B000AF93BF93EF93FF93E0910402F091050290
:1009C0001995FF91EF91BF91AF919F918F917F9179
:1009D0006F915F914F913F912F910F900BBE0F90B0
:1009E0000FBE0F901F9018951F920F920FB60F9287
:1009F00011240F900FBE0F901F901895CF92DF9289
:100A0000EF92FF920F931F93CF93DF936C017A01C4
:100A10008B01C0E0D0E0CE15DF0581F0D8016D91EB
:100A20008D01D601ED91FC910190F081E02DC60180
:100A30001995892B11F02196EECF7E01C701DF9128
:100A4000CF911F910F91FF90EF90DF90CF9008957D
:100A5000CF92DF92EF92FF92CF93DF93EC016A0186
:100A60007B01E889F98982E080834115514E610557
:100A70007105A9F060E079E08DE390E0A7019601AF
:100A8000CFD4DA01C9010197A109B109B695A7959B
:100A9000979587959C01211580E13807A0F0E8899A
:100AA000F989108260E874E88EE190E0A701960170
:100AB000B7D4DA01C9010197A109B109B695A79583
:100AC000979587959C01EC85FD853083EE85FF85A4
:100AD0002083188EEC89FD8986E08083EA89FB8972
:100AE000808180618083EA89FB898081886080833E
:100AF000EA89FB89808180688083EA89FB8980811B
:100B00008F7D8083DF91CF91FF90EF90DF90CF902A
:100B100008956115710579F0FB0101900020E9F756
:100B20003197AF01461B570BDC01ED91FC91028020
:100B3000F381E02D199480E090E008958F929F92C8
:100B4000AF92BF92EF92FF920F931F93CF93DF93D9
:100B5000CDB7DEB7A1970FB6F894DEBF0FBECDBFFD
:100B60007C01FA01CB0119A2223008F42AE08E019F
:100B70000F5D1F4F822E912CA12CB12CBF01A5011E
:100B800094014ED4F901CA01015011096A3014F4DC
:100B9000605D01C0695CD8016C93232B242B252B4D
:100BA00069F7B801C701B5DFA1960FB6F894DEBFAB
:100BB0000FBECDBFDF91CF911F910F91FF90EF90AE
:100BC000BF90AF909F908F900895823109F466C0D6
:100BD000B8F4823069F1833009F073C070935F021A
:100BE00060935E0289E892E0909303028093020290
:100BF00080916A00837F846080936A00ED9A5FC071
:100C0000843141F1C8F1853109F05BC07093610214
:100C10006093600284E892E090930502809304025E
:100C2000809169008C7F816080936900E89A47C059
:100C300070935D0260935C028EE892E090930102F3
:100C40008093000280916A008C7F816080936A00AB
:100C5000EC9A35C070936302609362028FE792E072
:100C6000909307028093060280916900837F8460DD
:100C700080936900E99A23C07093650260936402CF
:100C80008AE792E0909309028093080280916900BC
:100C90008F7C806180936900EA9A11C0709367022B
:100CA0006093660285E792E090930B0280930A02BC
:100CB000809169008F73806480936900EB9A81E072
:100CC000089580E00895789484B5826084BD84B5E9
:100CD000816084BD85B5826085BD85B5816085BD37
:100CE00080916E00816080936E00109281008091EF
:100CF0008100826080938100809181008160809377
:100D00008100809180008160809380008091B1009B
:100D100084608093B1008091B00081608093B000C6
:100D20008091910082608093910080919100816018
:100D300080939100809190008160809390008091D9
:100D4000A10082608093A1008091A10081608093C6
:100D5000A1008091A00081608093A000809121017A
:100D60008260809321018091210181608093210123
:100D70008091200181608093200180917A008460BD
:100D800080937A0080917A00826080937A008091CB
:100D90007A00816080937A0080917A0080688093E5
:100DA0007A001092C10010925803109259031092C9
:100DB0005A0310925B0310921603109217031092BD
:100DC0001803109219033EDB6B017C014B015C019F
:100DD00028EB820E2BE0921EA11CB11C33DB6C159C
:100DE0007D058E059F0528F086169706A806B9068C
:100DF000A8F787E792E0909357038093560340E06B
:100E000056E960E070E024DE1DDB6093160370930A
:100E10001703809318039093190362E272E08091A4
:100E200056039091570375DE0DDB6B017C014B017E
:100E30005C013AE0830E911CA11CB11C03DB6C1514
:100E40007D058E059F0528F086169706A806B9062B
:100E5000A8F781E080932A0340E056E960E070E063
:100E600087E792E0F5DD40E855E260E070E08CE570
:100E700093E0EEDD64E372E087E792E04ADE61E34F
:100E800072E087E792E045DE84EF882E9924939400
:100E9000A12CB12CD7DA672B682B692B39F4D2DA65
:100EA000623071058105910508F4FBC0CBDAC09072
:100EB0007302D0907402E0907502F09076026C1587
:100EC0007D058E059F0540F4609373027093740254
:100ED0008093750290937602C0907302D090740252
:100EE000E0907502F09076029B01AC012C193D094F
:100EF0004E095F0969017A013AEFC316D104E10492
:100F0000F10408F4CEC0609373027093740280936E
:100F10007502909376028092220390922303A0920E
:100F20002403B092250310922603109227031092F7
:100F300028031092290380911A0390911B03A0911A
:100F40001C03B0911D0380931E0390931F03A09375
:100F50002003B093210376DA60931A0370931B0386
:100F600080931C0390931D036DDA609316037093B6
:100F70001703809318039093190364DA6B017C01C3
:100F800067E472E08091560390915703C2DD2AE036
:100F900041E050E060E070E080915603909157038B
:100FA000CDDD6EE472E08091560390915703B1DD80
:100FB0002AE0B701A6018091560390915703BEDD48
:100FC00060E572E08091560390915703A2DD809115
:100FD0001A0390911B03A0911C03B0911D03B7014C
:100FE000A601481B590B6A0B7B0B2AE08091560324
:100FF00090915703A3DD60E572E0809156039091D4
:10100000570387DD40911A0350911B0360911C0325
:1010100070911D0380911E0390911F03A0912003E6
:10102000B0912103481B590B6A0B7B0B2AE080917E
:1010300056039091570382DD62E572E0809156037A
:101040009091570366DDFED9AB01BC012AE0809187
:1010500056039091570372DDE0905603F0905703CA
:1010600064E572E0C70155DD61E372E0C70151DD5F
:10107000E9D96B017C012B013C0142E0440E511C7B
:10108000611C711CDFD96C157D058E059F0558F418
:10109000D9D960931A0370931B0380931C03909318
:1010A0001D039DD9F7CE461657066806790650F7F8
:1010B000EFCFCF93DF9390E0FC01E858FE4F2491EF
:1010C000FC01EE5CFE4F8491882361F190E0880F73
:1010D000991FFC01E85EFE4FC591D491FC01E250DE
:1010E000FF4FA591B491611109C09FB7F894888111
:1010F000209582238883EC912E230BC0623061F40B
:101100009FB7F8948881322F309583238883EC91A0
:101110002E2B2C939FBF06C08FB7F894E8812E2BFF
:1011200028838FBFDF91CF9108950F931F93CF93A3
:10113000DF93EC01062F142F62E0802FBADF62E00C
:10114000812FB7DF802F90E0FC01EE5CFE4FE49131
:10115000F0E0EE0FFF1FEC51FF4FA591B491B98362
:10116000A883FC01E858FE4F24912C83812F90E046
:10117000FC01EE5CFE4FE491F0E0EE0FFF1FEC513E
:10118000FF4F459154915B834A83FC01E858FE4F21
:1011900094919D831F82188619861A86EBE3FFE1DE
:1011A0003197F1F7EC91E22331E009F430E0DA0114
:1011B000EC91E92309F032603E83BE01802F05DD0A
:1011C0008B87BE01812F01DD9B85890F8B87DF9186
:1011D000CF911F910F9108950F931F93CF93DF939A
:1011E000CCE5D3E01B821A8248EE53E060E070E069
:1011F0004C835D836E837F8384E192E0998388834F
:1012000025ED30E03D872C8724ED30E03F872E87A9
:1012100020ED30E0398B288B21ED30E03B8B2A8BA1
:1012200022ED30E03D8B2C8B26ED30E03F8B2E8B7A
:10123000198E1A8E1B8E1C8EE7E7F2E01382128243
:1012400044835583668377839183808385EC90E024
:101250009587848784EC90E09787868780EC90E080
:10126000918B808B81EC90E0938B828B82EC90E071
:10127000958B848B86EC90E0978B868B118E128EEB
:10128000138E148EE4E1F3E0168217821086118625
:10129000128613861486158616861786108A118A7A
:1012A000128A138A148A158A8DE090E0909388043C
:1012B000809387048CE090E090938604809385046B
:1012C00061E086E0F6DE61E087E0F3DE61E08AE07F
:1012D000F0DE61E08BE0EDDE61E088E0EADE61E017
:1012E00089E0E7DE09E714E086E090E0F801918309
:1012F000808387E090E0938382838AE090E0958307
:1013000084838BE090E09783868388E090E09187E8
:10131000808789E090E093878287EFE6F4E08FEFA3
:10132000808312821182148217821682158281E0D4
:101330008383D187C08745E164E183E694E0F5DEED
:1013400042E163E187E594E0F0DEE9EFF3E0148643
:10135000158616861786108A118A128A138A148AAD
:10136000158A168A178A108E118E128E138E148E7D
:10137000158E168E178E10A211A212A213A214A2FD
:1013800015A216A217A210A611A612A613A614A69D
:1013900015A616A617A610AA11AA12AA13AA14AA6D
:1013A00015AA16AA17AA10AE11AE12AE13AE14AE3D
:1013B00015AE16AE17AE1092390410923A04109280
:1013C0003B0410923C041092450410924604109283
:1013D0004704109248041092490410924A04109253
:1013E0004B0410924C0410924D0410924E04109233
:1013F0004F041092500483E694E09093520480933B
:10140000510487E594E0909354048093530410931F
:10141000560400935504DF91CF911F910F910895C9
:10142000A1E21A2EAA1BBB1BFD010DC0AA1FBB1FE8
:10143000EE1FFF1FA217B307E407F50720F0A21B5A
:10144000B30BE40BF50B661F771F881F991F1A94C7
:1014500069F760957095809590959B01AC01BD01F1
:10146000CF010895EE0FFF1F881F8BBF0790F691E5
:10147000E02D199481E090E0F89400C0F894FFCF3B
:101480002E022E022E022E022E022E022E022E02DC
:10149000000000008201FE041101CE014201200182
:1014A0003401564D4450565F317C315F564D4450A7
:1014B000560D0A0043757272656E7420506F736921
:1014C00074696F6E3A2000564D4450455F003A32C1
:0C14D0003A007C005F564D44504500007F
:020000023000CC
:10E000000D9489F10D94B2F10D94B2F10D94B2F129
:10E010000D94B2F10D94B2F10D94B2F10D94B2F1F0
:10E020000D94B2F10D94B2F10D94B2F10D94B2F1E0
:10E030000D94B2F10D94B2F10D94B2F10D94B2F1D0
:10E040000D94B2F10D94B2F10D94B2F10D94B2F1C0
:10E050000D94B2F10D94B2F10D94B2F10D94B2F1B0
:10E060000D94B2F10D94B2F10D94B2F10D94B2F1A0
:10E070000D94B2F10D94B2F10D94B2F10D94B2F190
:10E080000D94B2F10D94B2F10D94B2F10D94B2F180
:10E090000D94B2F10D94B2F10D94B2F10D94B2F170
:10E0A0000D94B2F10D94B2F10D94B2F10D94B2F160
:10E0B0000D94B2F10D94B2F10D94B2F10D94B2F150
:10E0C0000D94B2F10D94B2F10D94B2F10D94B2F140
:10E0D0000D94B2F10D94B2F10D94B2F10D94B2F130
:10E0E0000D94B2F141546D656761323536300041AF
:10E0F000726475696E6F206578706C6F72657220DE
:10E1000073746B3530305632206279204D4C530099
:10E11000426F6F746C6F616465723E004875683F52
:10E1200000436F6D70696C6564206F6E203D200048
:10E130004350552054797065202020203D20005FF9
:10E140005F4156525F415243485F5F3D2000415658
:10E1500052204C696243205665723D20004743437C
:10E160002056657273696F6E203D20004350552024
:10E1700049442020202020203D20004C6F7720663D
:10E18000757365202020203D20004869676820665F
:10E190007573652020203D200045787420667573D6
:10E1A00065202020203D20004C6F636B2066757336
:10E1B000652020203D20004D617220203720323024
:10E1C000313300312E362E3800342E332E350056A2
:10E1D00023202020414444522020206F7020636F70
:10E1E00064652020202020696E73747275637469E1
:10E1F0006F6E2061646472202020496E74657272B3
:10E20000757074006E6F20766563746F7200726A49
:10E210006D702020006A6D70200057686174207056
:10E220006F72743A00506F7274206E6F7420737541
:10E2300070706F72746564004D7573742062652030
:10E2400061206C6574746572002000577269747483
:10E25000696E672045450052656164696E672045B7
:10E26000450045452065727220636E743D00504F35
:10E27000525400303D5A65726F2061646472003FF1
:10E280003D43505520737461747300403D454550C3
:10E29000524F4D207465737400423D426C696E6B41
:10E2A000204C454400453D44756D70204545505215
:10E2B0004F4D00463D44756D7020464C415348001B
:10E2C000483D48656C70004C3D4C69737420492F83
:10E2D0004F20506F72747300513D51756974005234
:10E2E0003D44756D702052414D00563D73686F7707
:10E2F00020696E7465727275707420566563746FF0
:10E30000727300593D506F727420626C696E6B00BD
:10E310002A0011241FBECFEFD1E2DEBFCDBF01E046
:10E320000CBF12E0A0E0B2E0EEE1FDEF03E00BBFB6
:10E3300002C007900D92A030B107D9F712E0A0E01B
:10E34000B2E001C01D92AE30B107E1F70F9460F367
:10E350000D948DFE01E20EBF0FEF0DBF11241FBE05
:10E360000D9460F30D9400F020E030E040ED57E0B4
:10E3700005C0FA013197F1F72F5F3F4F2817390792
:10E38000C0F308959C01260F311DC901A0E0B0E043
:10E390002F5F3F4FABBFFC018791882361F08093D3
:10E3A000C6008091C00086FFFCCF8091C0008064D1
:10E3B0008093C000EACF08958DE08093C6008091DD
:10E3C000C00086FFFCCF8091C00080648093C000B5
:10E3D0008AE08093C6008091C00086FFFCCF8091C8
:10E3E000C00080648093C00008950F94C2F10F9420
:10E3F000DCF10895FC019081992359F09093C600B7
:10E400008091C00086FFFCCF8091C0008064809323
:10E41000C0003196992379F70895282F982F929567
:10E420009F70892F805D8A3308F0895F8093C600D2
:10E430008091C00086FFFCCF8091C00080648093F3
:10E44000C000822F8F70982F905D9A3308F0995FEB
:10E450009093C6008091C00086FFFCCF8091C000E1
:10E4600080648093C00008959C01FB01853691056E
:10E470001CF46330710594F0C90164E670E00F94F8
:10E480002EFE605D7F4F6093C6008091C00086FFC6
:10E49000FCCF8091C00080648093C0002B30310598
:10E4A00014F43297B4F0C90164E670E00F942EFEC4
:10E4B0006AE070E00F942EFE605D7F4F6093C600AF
:10E4C0008091C00086FFFCCF8091C0008064809363
:10E4D000C000C9016AE070E00F942EFEC0968093E0
:10E4E000C6008091C00086FFFCCF8091C000806490
:10E4F0008093C00008951F93182F8EE692EE60E07F
:10E500000F94C2F11093C6008091C00086FFFCCF2B
:10E510008091C00080648093C0000F94DCF11F9153
:10E5200008952F923F924F925F926F927F928F92B7
:10E530009F92AF92BF92CF92DF92EF92FF920F9392
:10E540001F93DF93CF93CDB7DEB762970FB6F894E2
:10E55000DEBF0FBECDBF382E622ECA01DB015C01CB
:10E560006D01772420E2222E2E010894411C511CBB
:10E570008BC081E0A81680E0B80681E0C80680E084
:10E58000D80628F0C601AA27BB270F940DF2BB2797
:10E59000AD2D9C2D8B2D0F940DF28A2D0F940DF225
:10E5A0002092C6008091C00086FFFCCF8091C00001
:10E5B00080648093C0009DE29093C6008091C0006B
:10E5C00086FFFCCF8091C00080648093C0002092C1
:10E5D000C6008091C00086FFFCCF8091C00080649F
:10E5E0008093C00019828601750188249924A1E0D6
:10E5F0003A1651F03A1620F0B2E03B1661F409C029
:10E600000BBFF701779007C0C7010F9477FE782EF4
:10E6100002C0F7017080872D0F940DF22092C60082
:10E620008091C00086FFFCCF8091C0008064809301
:10E63000C000872D8052F401EF70F0708F3520F408
:10E64000E40DF51D708204C0E40DF51D8EE280839B
:10E650000894E11CF11C011D111D0894811C911CE2
:10E6600090E18916910409F0C2CF80E190E0A0E02A
:10E67000B0E0A80EB91ECA1EDB1E198AC2010F9493
:10E68000FAF10F94DCF16A94662009F072CF629679
:10E690000FB6F894DEBF0FBECDBFCF91DF911F91B3
:10E6A0000F91FF90EF90DF90CF90BF90AF909F9031
:10E6B0008F907F906F905F904F903F902F90089534
:10E6C0002F923F924F925F926F927F928F929F9282
:10E6D000AF92BF92CF92DF92EF92FF920F931F9370
:10E6E000DF93CF93CDB7DEB7CD53D1400FB6F894BB
:10E6F000DEBF0FBECDBF01E20EBF0FEF0DBF94B75F
:10E70000F894A89514BE80916000886180936000A1
:10E7100010926000789493FF05C0E0910002F091A0
:10E7200001021995279A2F9A8091C00082608093E8
:10E73000C00080E18093C40088E18093C1000000A4
:10E74000EE24FF24870144E0A42EB12CCC24DD2448
:10E7500024C0C5010197F1F70894E11CF11C011DCB
:10E76000111D21E2E2162EE4F20620E0020720E06D
:10E77000120718F031E0C32ED12CC801B70127ECE5
:10E780003BE140E050E00F9441FE611571058105C9
:10E79000910519F485B1805885B98091C00087FD35
:10E7A00003C0C114D104A9F2A6014F5F5F4FC25E3E
:10E7B000DE4F59834883CE51D140C25EDE4F8881FF
:10E7C0009981CE51D140019711F00D9410FEC05D9A
:10E7D000DE4F19821882C053D14060E0C15DDE4F28
:10E7E0001882CF52D14088249924C35DDE4F19820C
:10E7F0001882CD52D140C05EDE4F188219821A8233
:10E800001B82C052D140CE5CDE4F188219821A8220
:10E810001B82C253D140EE24FF2487010BBFF701B6
:10E8200007911691C45CDE4F19830883CC53D14005
:10E830000D940BFEC25EDE4F28813981CE51D1404E
:10E840002130310509F52091C600C25EDE4F1982E4
:10E850001882CE51D14022C02F5F3F4F4F4F5F4FA4
:10E86000213082E138078AE7480780E0580780F0C6
:10E87000C45CDE4FE881F981CC53D140EF5FFF4F9C
:10E8800019F0EE27FF27099420E030E040E050E047
:10E890008091C00087FFE0CF2091C600C35DDE4FAE
:10E8A00048815981CD52D1404F5F5F4FC35DDE4FEC
:10E8B00059834883CD52D140213209F063C64A3092
:10E8C000510508F05FC60894811C911C53E0851621
:10E8D000910409F059C600E010E018C081E280936D
:10E8E000C6008091C00086FFFCCF8091C00080648C
:10E8F0008093C0002F5F3F4F2931310579F70F9486
:10E90000DCF10F5F1F4F0530110519F020E030E0FA
:10E91000E5CF10920A0210920B0210920C02109294
:10E920000D02109206021092070210920802109235
:10E930000902109202021092030210920402109235
:10E9400005028FEE90EE60E00F94F5F180E191EE1C
:10E9500060E00F94C2F18091C00087FFFCCF9091DE
:10E96000C600903608F09F759032B8F09093C600BC
:10E970008091C00086FFFCCF8091C00080648093AE
:10E98000C000A0E2A093C6008091C00086FFFCCF2B
:10E990008091C00080648093C000983409F4D7C18E
:10E9A0009934B8F4923409F459C1933458F490333B
:10E9B00019F1903308F4E3C59F33A1F1903409F0C5
:10E9C000DEC5BDC0953409F470C1963409F0D7C5D1
:10E9D00098C1923509F42BC2933538F49C3409F46C
:10E9E000F5C1913509F0CBC518C2963509F445C279
:10E9F000993509F0C4C567C483E792EE62E00F94CD
:10EA0000F5F110920602109207021092080210927D
:10EA1000090210920A0210920B0210920C0210923C
:10EA20000D0213C18FE792EE62E00F94F5F18FEEC5
:10EA300090EE60E00F94F5F181E291EE60E00F94CA
:10EA4000C2F187EB91EE60E00F94F5F180E391EE77
:10EA500060E00F94C2F184EE90EE60E00F94F5F167
:10EA60008FE391EE60E00F94C2F186E090E061E008
:10EA700070E00F9434F20F94DCF18DE591EE60E0DC
:10EA80000F94C2F189EC91EE60E00F94F5F18EE401
:10EA900091EE60E00F94C2F183EC91EE60E00F9490
:10EAA000F5F18CE691EE60E00F94C2F18EE10F94E7
:10EAB0000DF288E90F940DF281E00F940DF20F949E
:10EAC000DCF18BE791EE60E00F94C2F119E0E0E039
:10EAD000F0E010935700E4918E2F0F940DF20F94F5
:10EAE000DCF18AE891EE60E00F94C2F1E3E0F0E03F
:10EAF00010935700E4918E2F0F940DF20F94DCF1D8
:10EB000089E991EE60E00F94C2F1E2E0F0E0109349
:10EB10005700E4918E2F0F940DF20F94DCF188EAE8
:10EB200091EE60E00F94C2F1E1E0F0E01093570045
:10EB30001491812F0F940DF20F94DCF107CF8BE825
:10EB400092EE62E00F94F5F18BE492EE60E00F94A8
:10EB5000F5F10F94DCF100E010E019C0C8016F2D51
:10EB60000F947FFEFF2031F489E492EE60E00F9471
:10EB7000C2F10BC0F092C6008091C00086FFFCCFAE
:10EB80008091C00080648093C0000F5F1F4FC80158
:10EB900081519F41A0E0B0E0ABBFFC01F790BAE229
:10EBA000FB1621F0E2E000301E07C1F60F94DCF105
:10EBB0000F94DCF187E592EE60E00F94F5F10F948D
:10EBC000DCF1CC24DD2400E010E01EC0C8010F946D
:10EBD00077FEF82E882331F489E492EE60E00F94FA
:10EBE000C2F10BC08093C6008091C00086FFFCCFAD
:10EBF0008091C00080648093C000FE1419F00894D6
:10EC0000C11CD11C0F5F1F4FC80181519F41A0E063
:10EC1000B0E0ABBFFC01E790FAE2EF1621F022E092
:10EC20000030120799F60F94DCF10F94DCF182E6C4
:10EC300092EE60E00F94C2F1C60161E070E00F94C3
:10EC400034F20F94DCF10F94DCF110920202109276
:10EC50000302109204021092050278CE89E992EE26
:10EC600062E00F94F5F1279A2F9A16C02F9880E052
:10EC700090E0E0EDF7E03197F1F7019684369105E9
:10EC8000C1F72F9A80E090E0E0EDF7E03197F1F7DF
:10EC9000019684369105C1F78091C00087FFE6CFC9
:10ECA0008091C00087FFFCCF64C485EA92EE62E0E9
:10ECB0000F94F5F140910202509103026091040219
:10ECC0007091050281E020E10F9491F2809102029F
:10ECD00090910302A0910402B091050280509F4FD1
:10ECE000AF4FBF4F8093020290930302A0930402A0
:10ECF000B093050280509041A040B04008F426CE69
:10ED0000A4CF83EB92EE62E00F94F5F140910602FE
:10ED100050910702609108027091090280E020E1A1
:10ED20000F9491F28091060290910702A09108023F
:10ED3000B091090280509F4FAF4FBF4F80930602A2
:10ED400090930702A0930802B0930902FFCD80ECD4
:10ED500092EE62E00F94F5F183E792EE60E00F949B
:10ED6000F5F18FE792EE60E00F94F5F18BE892EE0B
:10ED700060E00F94F5F189E992EE60E00F94F5F10F
:10ED800085EA92EE60E00F94F5F183EB92EE60E09D
:10ED90000F94F5F180EC92EE60E00F94F5F187ECC2
:10EDA00092EE60E00F94F5F188ED92EE60E00F9442
:10EDB000F5F18FED92EE60E00F94F5F18AEE92EEB0
:10EDC00060E00F94F5F183E093EEBDCD87EC92EE19
:10EDD00062E00F94F5F181E40F947BF282E40F94EA
:10EDE0007BF283E40F947BF284E40F947BF285E45E
:10EDF0000F947BF286E40F947BF287E40F947BF20E
:10EE000088E40F947BF28AE40F947BF28BE40F94F6
:10EE10007BF28CE40F947BF299CD88ED92EE62E068
:10EE20000F94F5F1772473948824992409C48FED05
:10EE300092EE62E00F94F5F140910A0250910B02BC
:10EE400060910C0270910D0282E020E10F9491F22A
:10EE500080910A0290910B02A0910C02B0910D02D8
:10EE600080509F4FAF4FBF4F80930A0290930B0289
:10EE7000A0930C02B0930D0269CD8AEE92EE62E08F
:10EE80000F94F5F184EE90EE60E00F94F5F18FECC5
:10EE900091EE60E00F94F5F1662477244301CC5D98
:10EEA000DE4F19821882C452D140D401C301B695F5
:10EEB000A79597958795CA5DDE4F88839983AA8326
:10EEC000BB83C652D140CC5DDE4FA881B981C4520C
:10EED000D1401196CC5DDE4FB983A883C452D14096
:10EEE000CD0162E070E00F9434F2B0E2B093C6005E
:10EEF0008091C00086FFFCCF8091C0008064809329
:10EF0000C000EDE2E093C6008091C00086FFFCCF18
:10EF10008091C00080648093C000F0E2F093C6004E
:10EF20008091C00086FFFCCF8091C00080648093F8
:10EF3000C000CA5DDE4FE880F9800A811B81C6529D
:10EF4000D140BB27A12F902F8F2D0F940DF2CA5DBA
:10EF5000DE4F8881C652D1400F940DF2B0E2FB2EF5
:10EF6000F092C6008091C00086FFFCCF8091C00067
:10EF700080648093C0000DE30093C6008091C000C0
:10EF800086FFFCCF8091C00080648093C00010E2B7
:10EF90001093C6008091C00086FFFCCF8091C00016
:10EFA00080648093C0008BBEF3012791C65DDE4F65
:10EFB0002883CA52D140A22EBB24CC24DD2408943D
:10EFC000611C711C811C911C8BBEF3018791282E42
:10EFD0003324442455240894611C711C811C911C09
:10EFE0008BBEF3013791C55DDE4F3883CB52D140E4
:10EFF0000894611C711C811C911C8BBEF30147910C
:10F00000C45DDE4F4883CC52D140ADEFEA2EAFEF66
:10F01000FA2EAFEF0A2FAFEF1A2F6E0C7F1C801E57
:10F02000911E142D032DF22CEE24EA0CFB1C0C1D5A
:10F030001D1D0F940DF220E22093C6008091C000A8
:10F0400086FFFCCF8091C00080648093C000C65DC5
:10F05000DE4F8881CA52D1400F940DF230E23093D6
:10F06000C6008091C00086FFFCCF8091C000806404
:10F070008093C000C45DDE4F8881CC52D1400F9494
:10F080000DF240E24093C6008091C00086FFFCCFA5
:10F090008091C00080648093C000C55DDE4F888190
:10F0A000CB52D1400F940DF250E25093C6008091A4
:10F0B000C00086FFFCCF8091C00080648093C000B8
:10F0C0008FEFE8168FEFF80680E0080780E018075A
:10F0D00031F484E092EE60E00F94C2F1DFC0D80119
:10F0E000C7018070907CA070B0708050904CA040A0
:10F0F000B040D1F52FEF3FE340E050E0E222F322B1
:10F1000004231523CA5DDE4FA880B980CA80DB8046
:10F11000C652D140AE0CBF1CC01ED11EAA0CBB1CD7
:10F12000CC1CDD1C8EE092EE60E00F94C2F1BB2798
:10F13000A12F902F8F2D0F940DF28E2D0F940DF285
:10F1400030E23093C6008091C00086FFFCCF8091F2
:10F15000C00080648093C0004EE34093C60080915D
:10F16000C00086FFFCCF87C08EE09EEFA0E0B0E03D
:10F17000E822F9220A231B239CE0E91694E9F90608
:10F1800090E0090790E0190709F088C0C45DDE4FE0
:10F19000A881CC52D140EA2EFF2400E010E0102FCD
:10F1A0000F2DFE2CEE24C55DDE4FB881CB52D14031
:10F1B000EB0EF11C011D111DD601C501817090706F
:10F1C000A070B070DC0199278827E80EF91E0A1F8D
:10F1D0001B1F20EF30E040E050E0A222B322C42207
:10F1E000D52241E1AA0CBB1CCC1CDD1C4A95D1F7F1
:10F1F000EA0CFB1C0C1D1D1D81E090E0A0E0B0E0BE
:10F20000282239224A225B2235E1220C331C441C7D
:10F21000551C3A95D1F7E20CF31C041D151D57013E
:10F220006801AA0CBB1CCC1CDD1C85E192EE60E0E1
:10F230000F94C2F1C801AA27BB270F940DF2BB2778
:10F24000A12F902F8F2D0F940DF28E2D0F940DF274
:10F2500090E29093C6008091C00086FFFCCF809121
:10F26000C00080648093C000AEE3A093C60080918C
:10F27000C00086FFFCCF8091C00080648093C000F6
:10F28000C601AA27BB270F940DF2BB27AD2D9C2DDD
:10F290008B2D0F940DF28A2D0F940DF20F94DCF14B
:10F2A000CC5DDE4FE881F981C452D140F99709F471
:10F2B0004DCBF4E0EF2EF12C012D112D6E0C7F1CA7
:10F2C000801E911EF2CD83E093EE62E00F94F5F183
:10F2D0008AE192EE60E00F94C2F18091C00087FF56
:10F2E000FCCF1091C6001F751093C6008091C0001E
:10F2F00086FFFCCF8091C00080648093C0000F9493
:10F30000DCF1812F81548A3108F036C1163409F4BA
:10F3100095C0173490F4133409F44EC0143430F40B
:10F320001134F1F0123409F01DC130C0143409F465
:10F3300059C0153409F016C16BC01A3409F4C4C0A1
:10F340001B3438F4173409F48FC0183409F00AC19B
:10F35000A1C01B3409F4D2C01C3409F003C1E8C0B9
:10F360008FEF81B90DC082B1809582B980E090E0C5
:10F37000E0EDF7E03197F1F70196883C9105C1F790
:10F380008091C00087FFEFCF12B8EFC08FEF84B934
:10F390000DC085B1809585B980E090E0E0EDF7E0A3
:10F3A0003197F1F70196883C9105C1F78091C00033
:10F3B00087FFEFCF15B8D9C08FEF87B90DC088B1DF
:10F3C000809588B980E090E0E0EDF7E03197F1F7C3
:10F3D0000196883C9105C1F78091C00087FFEFCF6F
:10F3E00018B8C3C08FEF8AB90DC08BB180958BB9A7
:10F3F00080E090E0E0EDF7E03197F1F70196883C8E
:10F400009105C1F78091C00087FFEFCF1BB8ADC059
:10F410008FEF8DB90DC08EB180958EB980E090E0F0
:10F42000E0EDF7E03197F1F70196883C9105C1F7DF
:10F430008091C00087FFEFCF1EB897C08FEF80BBD1
:10F440000DC081B3809581BB80E090E0E0EDF7E0F6
:10F450003197F1F70196883C9105C1F78091C00082
:10F4600087FFEFCF11BA81C08FEF83BB0DC084B38C
:10F47000809584BB80E090E0E0EDF7E03197F1F714
:10F480000196883C9105C1F78091C00087FFEFCFBE
:10F4900014BA6BC08FEF809301010FC080910201FD
:10F4A00080958093020180E090E0E0EDF7E03197F5
:10F4B000F1F70196883C9105C1F78091C00087FF64
:10F4C000EDCF1092020151C08FEF809304010FC065
:10F4D0008091050180958093050180E090E0E0ED4A
:10F4E000F7E03197F1F70196883C9105C1F78091DB
:10F4F000C00087FFEDCF1092050137C08FEF8093DA
:10F5000007010FC08091080180958093080180E079
:10F5100090E0E0EDF7E03197F1F70196883C910536
:10F52000C1F78091C00087FFEDCF109208011DC088
:10F530008FEF80930A010FC080910B01809580931B
:10F540000B0180E090E0E0EDF7E03197F1F70196F4
:10F55000883C9105C1F78091C00087FFEDCF1092E4
:10F560000B0103C085E292EEEEC98091C00087FFD7
:10F57000FCCF8091C600EAC988E392EEE4C98CE131
:10F5800091EEE1C988249924933011F1943028F444
:10F59000913089F09230B8F408C0953061F195301F
:10F5A000F0F0963009F048C043C02B3109F042C951
:10F5B00091E06BE13FC96227C15DDE4F2883CF52E6
:10F5C000D14092E037C9B22FA0E0622793E032C960
:10F5D000822F90E0A82BB92B622794E02BC92E3004
:10F5E00009F039C3622795E0C05DDE4F19821882A9
:10F5F000C053D1401FC9E1E0F0E0EC0FFD1FC05D3A
:10F60000DE4F08811981C053D140E00FF11F2083E4
:10F610000F5F1F4FC05DDE4F19830883C053D14079
:10F6200062270A171B0709F005C9D80196E002C92D
:10F63000261709F010C303C0973009F0FBC87724E0
:10F640009981933109F412C19431C8F4963009F4C8
:10F65000D8C0973050F4923009F406C1933009F4C1
:10F660006DC0913009F059C253C0913109F477C08F
:10F67000923108F0BBC0903109F04FC2F5C098310B
:10F6800009F487C0993150F4953109F4EFC09531F0
:10F6900008F4C6C1963109F040C2C2C19A3109F4DA
:10F6A0006CC09A3108F491C09B3109F45BC09D3164
:10F6B00009F033C29D81903359F48F81882311F46E
:10F6C0009EE11CC0813011F091E018C098E916C08D
:10F6D000892F807591F0903539F4E0E0F0E089E011
:10F6E0008093570094910AC0983539F4E3E0F0E034
:10F6F00089E080935700949101C090E01A821B82A8
:10F700008D818C831D829E831F8227E030E009C299
:10F710001A8288E08B8381E48C8386E58D8382E581
:10F720008E8389E48F8383E5888780E589878FE5E9
:10F730008A8782E38B872BE030E0F3C18A818139AD
:10F7400041F0823941F0803911F48FE005C080E04A
:10F7500003C082E001C08AE01A828B8344C0772410
:10F76000739482C08D81882311F48EE12CC0813086
:10F7700011F081E028C088E926C01A82E1E0F0E0BB
:10F7800089E08093570084918B831C8224E030E0D1
:10F79000C8C18B81803589F48C81883039F4E2E0EE
:10F7A000F0E089E08093570084910DC0E0E0F0E044
:10F7B00089E080935700849106C0E3E0F0E089E09F
:10F7C0008093570084911A82DFCF8D81836C99E0FA
:10F7D000E1E0F0E0082E90935700E89507B600FCB2
:10F7E000FDCF1A821B8223E030E09BC180EC8A832C
:10F7F000CE5CDE4F188219821A821B82C253D1401E
:10F800008EC18A8190E0A0E0B0E0582F44273327D2
:10F8100022278B8190E0A0E0B0E0DC0199278827C7
:10F82000282B392B4A2B5B2B8D8190E0A0E0B0E098
:10F83000282B392B4A2B5B2B8C8190E0A0E0B0E089
:10F84000BA2FA92F982F8827282B392B4A2B5B2BCF
:10F85000220F331F441F551FC05EDE4F288339839C
:10F860004A835B83C052D1401A8259C13A81C95C34
:10F87000DE4F3883C753D140CA5CDE4F1882C6536F
:10F88000D1408B81C82EDD24CA5CDE4F488159816E
:10F89000C653D140C42AD52A933109F082C0CE5C28
:10F8A000DE4F88819981AA81BB81C253D1408050AB
:10F8B000904CA340B04030F583E0CE5CDE4FE88052
:10F8C000F9800A811B81C253D140F70100935B008C
:10F8D00080935700E89507B600FCFDCFCE5CDE4F65
:10F8E000088119812A813B81C253D14000501F4FAA
:10F8F0002F4F3F4FCE5CDE4F088319832A833B8313
:10F90000C253D140C05EDE4F488159816A817B81FC
:10F91000C052D140DE011B9631E08C9111962C91A2
:10F9200011971296C75CDE4F2883C953D140C85C3B
:10F93000DE4F1882C853D14090E0C85CDE4FE881AA
:10F94000F981C853D1408E2B9F2B0C01FA01609393
:10F950005B0030935700E89511244E5F5F4F6F4F67
:10F960007F4F0EEFE02E0FEFF02ECE0CDF1CC114F8
:10F97000D10499F685E0C05EDE4F088119812A81A5
:10F980003B81C052D140F80120935B008093570027
:10F99000E89507B600FCFDCF81E180935700E8951C
:10F9A00035C0C05EDE4F88819981AA81BB81C0527B
:10F9B000D140B695A795979587957C018601ABE0D8
:10F9C000AA2EB12CAC0EBD1E0BC0D5016D915D01F0
:10F9D000C7010F947FFE0894E11CF11C01501040F8
:10F9E0000115110591F7A60160E070E0440F551F65
:10F9F000661F771FC05EDE4FE880F9800A811B8199
:10FA0000C052D1404E0D5F1D601F711F1A82C05E33
:10FA1000DE4F488359836A837B83C052D1407FC0C5
:10FA2000FA80C55CDE4FF882CB53D140C65CDE4F16
:10FA30001882CA53D1408B81C82EDD24C65CDE4FAC
:10FA400008811981CA53D140C02AD12A1A828981DA
:10FA5000BE016D5F7F4F843121F59601C05EDE4FA0
:10FA6000E880F9800A811B81C052D1400BBFF701A9
:10FA700087919691DB018C9311969C936E5F7F4FDB
:10FA8000D801C7010296A11DB11DC05EDE4F88835B
:10FA90009983AA83BB83C052D14022503040F1F6F3
:10FAA00036C0C05EDE4F288139814A815B81C052F9
:10FAB000D1400894C108D108760100E010E0089414
:10FAC000C11CD11C0894E11CF11C011D111DE20E8A
:10FAD000F31E041F151F21BDBB27A52F942F832FB5
:10FAE00082BD2F5F3F4F4F4F5F4FF89A80B5DB01CC
:10FAF0008D93BD012E153F054007510761F7C05E8C
:10FB0000DE4F288339834A835B83C052D1409601FC
:10FB10002D5F3F4FFB01108204C080EC8A8322E0FE
:10FB200030E08BE18093C6008091C00086FFFCCF5F
:10FB30008091C00080648093C000C15DDE4FF88179
:10FB4000CF52D140F093C6008091C00086FFFCCF19
:10FB50008091C00080648093C000432F3093C60022
:10FB60008091C00086FFFCCF8091C00080648093AC
:10FB7000C000922F2093C6008091C00086FFFCCF6A
:10FB80008091C00080648093C0008EE08093C600A6
:10FB90008091C00086FFFCCF8091C000806480937C
:10FBA000C00065E1C15DDE4FE880CF52D1406E25D7
:10FBB00069276427FE01319610C090819093C6009A
:10FBC0008091C00086FFFCCF31968091C000806498
:10FBD0008093C0006927215030402115310569F715
:10FBE0006093C6008091C00086FFFCCF8091C0006A
:10FBF00080648093C00085B1805885B9772081F4F6
:10FC0000C15DDE4F0881CF52D1400F5FC15DDE4F35
:10FC10000883CF52D14090E0A0E0B0E00D941AF4F8
:10FC200027982F9880E090E020ED37E0F901319798
:10FC3000F1F7019684369105C9F700008091C00064
:10FC40008D7F8093C00081E180935700E895EE2777
:10FC5000FF270994FFCF90E00D941AF497FB092E2B
:10FC600007260AD077FD04D02ED006D000201AF443
:10FC7000709561957F4F0895F6F7909581959F4F08
:10FC80000895A1E21A2EAA1BBB1BFD010DC0AA1FDD
:10FC9000BB1FEE1FFF1FA217B307E407F50720F0F5
:10FCA000A21BB30BE40BF50B661F771F881F991F70
:10FCB0001A9469F760957095809590959B01AC01B9
:10FCC000BD01CF010895AA1BBB1B51E107C0AA1FAC
:10FCD000BB1FA617B70710F0A61BB70B881F991FED
:10FCE0005A95A9F780959095BC01CD010895F99991
:10FCF000FECF92BD81BDF89A992780B50895262F31
:10FD0000F999FECF1FBA92BD81BD20BD0FB6F89400
:0EFD1000FA9AF99A0FBE01960895F894FFCF63
:040000033000E000E9
:00000001FF