:1000000054C10000E9C60000BCC600008FC6000055
:1000100062C6000035C6000008C60000DBC500004F
:10002000AEC5000004C7000002C7000000C7000002
:100030006DC100006BC1000069C1000067C1000014
:1000400065C1000063C1000061C100005FC1000024
:100050005DC100005BC1000059C1000046C5000041
:1000600055C100004AC300001FC300004FC100007B
:100070004DC100004BC1000049C1000047C1000054
:1000800045C1000043C1000041C100003FC1000064
:100090003DC100003BC1000039C1000037C1000074
:1000A00035C1000033C1000031C100002FC1000084
:1000B0002DC100002BC1000029C1000027C1000094
:1000C00025C1000023C1000021C10000B7C200000B
:1000D0008CC200001BC1000019C1000017C1000044
:1000E00015C100006411D4113412BF1285136613B8
:1000F0007C14D314B302B602A502A902AF02ED022A
:10010000BA02BE02C402C802CC02D202D602DA028D
:10011000ED02E002E402E8026C047104760480045B
:100120008A04030594049C04A404AE04B804C20425
:10013000D104DB040305E504EF04F904084AD73BC6
:100140003BCE016E84BCBFFDC12F3D6C74319ABDA6
:1001500056833DDA3D00C77F11BED9E4BB4C3E91CA
:100160006BAAAABE000000803F05A84CCDB2D44EB9
:10017000B93836A9020C50B9918688083CA6AAAABB
:100180002ABE000000803F0000002100240027005C
:100190002A002D0030003300010100000401070196
:1001A0000A0100002200250028002B002E0031004B
:1001B000340002010000050108010B0100002000CD
:1001C0002300260029002C002F003200000100002F
:1001D00003010601090105050505070508080808CA
:1001E000020202020A0A08080404040401010101CF
:1001F00001010101030303030303030304070707CA
:100200000C0C0C0C0C0C0C0C02020202060606066E
:10021000060606060B0B0B0B0B0B0B0B010210203B
:10022000200808102040102040800201020108042C
:1002300002010102040810204080804020100804C0
:100240000201800402018040201008040201080419
:10025000020101020408102040800102040810205D
:10026000408000000A0B02090C0D0E080703040170
:10027000000000000000000000000000000000007E
:10028000000000000000000000000000000012114B
:10029000100000000000000000000000000000004E
:1002A0000000000000000000D81511241FBECFEF91
:1002B000D1E2DEBFCDBF00E00CBF24E0A2E6B2E099
:1002C00001C01D92A93AB207E1F712E0A0E0B2E046
:1002D000E6EBF4E300E00BBF02C007900D92A236FC
:1002E000B107D9F711E0C5E5D1E000E006C02197DC
:1002F0000109802FFE010E944D1AC435D10780E00C
:100300000807A9F70E94A80E0C94591A79CEFC018F
:10031000538D448D252F30E0842F90E0821B930B6A
:10032000541710F0CF96089501970895FC01918D10
:10033000828D981761F0828DDF01A80FB11D5D9647
:100340008C91928D9F5F9F73928F90E008958FEFB5
:100350009FEF0895FC01918D828D981731F0828D69
:10036000E80FF11D858D90E008958FEF9FEF0895C0
:10037000FC01918D228D892F90E0805C9F4F821B24
:1003800091098F73992708958AED93E0F1DF21E0B9
:10039000892B09F420E0822F08958FE992E0E8DFAD
:1003A00021E0892B09F420E0822F0895FC01848D3F
:1003B000DF01A80FB11DA35ABF4F2C91848D90E08F
:1003C00001968F739927848FA689B7892C93A0896A
:1003D000B1898C91837080648C93938D848D9813F4
:1003E00006C00288F389E02D80818F7D8083089587
:1003F000EF92FF920F931F93CF93DF93EC0181E075
:10040000888F9B8D8C8D981305C0E889F989808130
:1004100085FD25C0F62E0B8D10E00F5F1F4F0F736B
:100420001127E02E8C8DE8120BC00FB607FCFACF17
:10043000E889F989808185FFF5CFCE01B7DFF2CF5A
:100440008B8DFE01E80FF11DE35AFF4FF0829FB73D
:10045000F8940B8FEA89FB89808180620AC09FB77C
:10046000F894EE89FF896083E889F9898081837037
:10047000806480839FBF81E090E0DF91CF911F91E6
:100480000F91FF90EF900895CF93DF93EC01888D4B
:100490008823C1F0EA89FB89808185FD05C0A88990
:1004A000B9898C9186FD0EC00FB607FCF5CF80810F
:1004B00085FFF2CFA889B9898C9185FFEDCFCE0158
:1004C00075DFE8CFDF91CF91089580E090E0892B30
:1004D00019F063DF811120C080E090E0892B41F0AA
:1004E00080E090E0892B21F00E940000811117C06C
:1004F00080E090E0892B19F047DF811113C080E084
:1005000090E0892BA1F080E090E0892B81F00E949F
:10051000000081110AC008950E940000DDCF0E94F2
:100520000000E6CF0E940000EACF0C94000008957E
:1005300090E0FC013197E231F10508F04EC08827C8
:10054000E658FF4F8F4F0C944D1A809180008F77A3
:1005500003C0809180008F7D8093800008958091FA
:100560008000877FF9CF84B58F7702C084B58F7DF7
:1005700084BD08958091B0008F7703C08091B00052
:100580008F7D8093B0000895809190008F7707C091
:10059000809190008F7D03C080919000877F809331
:1005A000900008958091A0008F7707C08091A000EF
:1005B0008F7D03C08091A000877F8093A000089565
:1005C000809120018F7707C0809120018F7D03C02B
:1005D00080912001877F80932001089508950895D8
:1005E00080E090E008950E94551A1F920F920FB676
:1005F0000F9211240BB60F922F933F934F935F935B
:100600006F937F938F939F93AF93BF93EF93FF93DA
:100610008AED93E0CBDEFF91EF91BF91AF919F9177
:100620008F917F916F915F914F913F912F910F909B
:100630000BBE0F900FBE0F901F9018951F920F9238
:100640000FB60F9211240BB60F922F938F939F9397
:10065000EF93FF93E091EA03F091EB038081E09147
:10066000F003F091F10382FD12C090818091F303B9
:100670008F5F8F732091F403821751F0E091F303A1
:10068000F0E0E652FC4F958F8093F30301C0808128
:10069000FF91EF919F918F912F910F900BBE0F9033
:1006A0000FBE0F901F9018951F920F920FB60F92CA
:1006B00011240BB60F922F933F934F935F936F9339
:1006C0007F938F939F93AF93BF93EF93FF938FE9A4
:1006D00092E06CDEFF91EF91BF91AF919F918F916E
:1006E0007F916F915F914F913F912F910F900BBE32
:1006F0000F900FBE0F901F9018951F920F920FB67C
:100700000F9211240BB60F922F938F939F93EF9319
:10071000FF93E091AF02F091B0028081E091B502C9
:10072000F091B60282FD12C090818091B8028F5F75
:100730008F732091B902821751F0E091B802F0E076
:10074000E156FD4F958F8093B80201C08081FF91E3
:10075000EF919F918F912F910F900BBE0F900FBE35
:100760000F901F901895CF93DF93282F30E0F90159
:10077000EE59FD4F8491F901E45EFD4FD491F901EA
:10078000EA52FE4FC491CC2389F08111D1DEEC2FC7
:10079000F0E0EE0FFF1FE454FE4FA591B491EC91F1
:1007A000ED2381E090E021F480E002C080E090E061
:1007B000DF91CF9108951F93CF93DF93282F30E0DF
:1007C000F901EE59FD4F8491F901E45EFD4FD4919A
:1007D000F901EA52FE4FC491CC23B9F0162F8111D2
:1007E000A7DEEC2FF0E0EE0FFF1FEE55FE4FA591B8
:1007F000B4919FB7F894111104C08C91D095D8236F
:1008000002C0EC91DE2BDC939FBFDF91CF911F9153
:100810000895CF93DF9390E0FC01E45EFD4F2491B7
:10082000FC01EA52FE4F8491882361F190E0880F29
:10083000991FFC01E857FE4FC591D491FC01EE557C
:10084000FE4FA591B491611109C09FB7F8948881BA
:10085000209582238883EC912E230BC0623061F4B3
:100860009FB7F8948881322F309583238883EC9149
:100870002E2B2C939FBF06C08FB7F894E8812E2BA8
:1008800028838FBFDF91CF9108951F93CF93DF937C
:10089000182FEB0161E0BDDF209711F460E004C088
:1008A000CF3FD10531F461E0812FDF91CF911F91CE
:1008B00082CFE12FF0E0EE59FD4FE4918E2F90E0D2
:1008C000FC013197E231F10508F09DC08827E4571B
:1008D000FF4F8F4F0C944D1A84B5806884BDC7BDFF
:1008E00097C084B5806284BDC8BD92C080918000ED
:1008F000806880938000D0938900C093880088C06E
:1009000080918000806280938000D0938B00C093A0
:100910008A007EC080918000886080938000D093A0
:100920008D00C0938C0074C08091B000806880936B
:10093000B000C093B3006CC08091B000806280931F
:10094000B000C093B40064C0809190008068809330
:100950009000D0939900C09398005AC08091900065
:10096000806280939000D0939B00C0939A0050C007
:1009700080919000886080939000D0939D00C093F8
:100980009C0046C08091A00080688093A000809168
:10099000A0008F7B8093A000D093A900C093A800F3
:1009A00037C08091A00080628093A000D093AB00FC
:1009B000C093AA002DC08091A00088608093A00001
:1009C000D093AD00C093AC0023C08091200180681B
:1009D00080932001D0932901C093280119C08091F0
:1009E0002001806280932001D0932B01C0932A01C3
:1009F0000FC080912001886080932001D0932D0149
:100A0000C0932C0105C0C038D1050CF04CCF46CFA7
:100A1000DF91CF911F9108953FB7F89480918F0295
:100A200090919002A0919102B091920226B5A89B5C
:100A300005C02F3F19F00196A11DB11D3FBFBA2F70
:100A4000A92F982F8827820F911DA11DB11DBC01D0
:100A5000CD0142E0660F771F881F991F4A95D1F795
:100A600008958F929F92AF92BF92CF92DF92EF92B2
:100A7000FF926B017C01D0DF4B015C01C114D104FA
:100A8000E104F104E9F0C8DFDC01CB018819990920
:100A9000AA09BB09883E9340A105B10578F321E07E
:100AA000C21AD108E108F10888EE880E83E0981E8A
:100AB000A11CB11CC114D104E104F10421F7DECF63
:100AC000FF90EF90DF90CF90BF90AF909F908F906E
:100AD00008952FB7F89460918B0270918C028091E9
:100AE0008D0290918E022FBF08951F920F920FB624
:100AF0000F9211242F933F938F939F93AF93BF93A4
:100B000080918B0290918C02A0918D02B0918E0207
:100B100030918A0223E0230F2D3720F40196A11D86
:100B2000B11D05C026E8230F0296A11DB11D20931B
:100B30008A0280938B0290938C02A0938D02B093D3
:100B40008E0280918F0290919002A0919102B091BB
:100B500092020196A11DB11D80938F029093900285
:100B6000A0939102B0939202BF91AF919F918F9108
:100B70003F912F910F900FBE0F901F9018951F92CD
:100B80000F920FB60F9211240BB60F922F933F9333
:100B90004F935F936F937F938F939F93AF93BF9385
:100BA000EF93FF93E0910E02F0910F021995FF91E0
:100BB000EF91BF91AF919F918F917F916F915F91D5
:100BC0004F913F912F910F900BBE0F900FBE0F9042
:100BD0001F9018951F920F920FB60F9211240BB60B
:100BE0000F922F933F934F935F936F937F938F93C6
:100BF0009F93AF93BF93EF93FF93E0910C02F0911B
:100C00000D021995FF91EF91BF91AF919F918F9137
:100C10007F916F915F914F913F912F910F900BBEFC
:100C20000F900FBE0F901F9018951F920F920FB646
:100C30000F9211240BB60F922F933F934F935F9314
:100C40006F937F938F939F93AF93BF93EF93FF9394
:100C5000E0910202F09103021995FF91EF91BF918B
:100C6000AF919F918F917F916F915F914F913F9144
:100C70002F910F900BBE0F900FBE0F901F901895E5
:100C80001F920F920FB60F9211240BB60F922F9353
:100C90003F934F935F936F937F938F939F93AF9304
:100CA000BF93EF93FF93E0910002F0910102199539
:100CB000FF91EF91BF91AF919F918F917F916F9134
:100CC0005F914F913F912F910F900BBE0F900FBEF0
:100CD0000F901F9018951F920F920FB60F9211242C
:100CE0000BB60F922F933F934F935F936F937F9326
:100CF0008F939F93AF93BF93EF93FF93E0910A027B
:100D0000F0910B021995FF91EF91BF91AF919F91D7
:100D10008F917F916F915F914F913F912F910F90A4
:100D20000BBE0F900FBE0F901F9018951F920F9241
:100D30000FB60F9211240BB60F922F933F934F9340
:100D40005F936F937F938F939F93AF93BF93EF9333
:100D5000FF93E0910802F09109021995FF91EF913C
:100D6000BF91AF919F918F917F916F915F914F91C3
:100D70003F912F910F900BBE0F900FBE0F901F90C1
:100D800018951F920F920FB60F9211240BB60F9267
:100D90002F933F934F935F936F937F938F939F9383
:100DA000AF93BF93EF93FF93E0910602F091070298
:100DB0001995FF91EF91BF91AF919F918F917F9185
:100DC0006F915F914F913F912F910F900BBE0F90BC
:100DD0000FBE0F901F9018951F920F920FB60F9293
:100DE00011240BB60F922F933F934F935F936F9302
:100DF0007F938F939F93AF93BF93EF93FF93E09174
:100E00000402F09105021995FF91EF91BF91AF9106
:100E10009F918F917F916F915F914F913F912F9112
:100E20000F900BBE0F900FBE0F901F9018951F9242
:100E30000F920FB60F9211240F900FBE0F901F90BC
:100E40001895CF93DF93EC016FE572E08FE992E0A4
:100E50006AD78FE992E08CDA181619060CF045C0B3
:100E60008FE992E077DACA9709F039C08FE992E00A
:100E70005DDA8FE992E07CDA18161906D4F75FD6AE
:100E800097FD17C08D32910549F0C0970A9730F051
:100E90008FE992E04BDAF3CF019759F48FE992E0B2
:100EA00045DA4DD69C01205331092A303105B0F383
:100EB000F3CF8FE992E05CDA18161906D4F79DD6C5
:100EC0008FE992E055DA18161906D4F796D68FE90D
:100ED00092E04EDA18161906D4F78FD606C08FE9BD
:100EE00092E046DA18161906D4F3CE01DF91CF91BD
:100EF0000895CF93DF93EC0160E088815CDC60E0D3
:100F00008A8159DC60E08C8156DC60E08E8153DCA4
:100F100060E0888550DC60E08A85DF91CF914BCC22
:100F2000CF93DF93EC0160E0888545DC88851BDC8E
:100F300061E068278A853FDC8A8115DC892B39F5D9
:100F400060E470E08A81A1DC64E170E080E090E020
:100F500088DD60E870E08A8198DC64E170E080E020
:100F600090E07FDD60EC70E08A818FDC62E070E011
:100F700080E090E076DD6FEF70E08A8186DC62E0F1
:100F800070E080E090E06DDD61E08A8114DC61E07A
:100F90008A81DF91CF910FCCCF93DF93EC0160E09A
:100FA0008C8109DC8C81DFDB61E068278E8103DCCA
:100FB0008881D9DB892B21F560E470E0888165DCCC
:100FC00064E170E080E090E04CDD60E870E08881F2
:100FD0005CDC64E170E080E090E043DD60EC70E0B8
:100FE000888153DC62E070E080E090E03ADD6FEFF2
:100FF00070E088814ADC62E070E080E090E031DD02
:1010000061E08881DF91CF91D6CBCF93DF93EC0164
:1010100061E08885D0DB8885A6DB61E068278A856A
:10102000CADB8A81A0DB892B39F560E470E08A8114
:101030002CDC64E170E080E090E013DD60E870E0BB
:101040008A8123DC64E170E080E090E00ADD60ECFE
:1010500070E08A811ADC62E070E080E090E001DDFF
:101060006FEF70E08A8111DC62E070E080E090E078
:10107000F8DC61E08A819FDB61E08A81DF91CF91BA
:101080009ACBCF93DF93EC0161E08C8194DB8C8170
:101090006ADB61E068278E818EDB888164DB892BC7
:1010A00021F560E470E08881F0DB64E170E080E0CD
:1010B00090E0D7DC60E870E08881E7DB64E170E015
:1010C00080E090E0CEDC60EC70E08881DEDB62E006
:1010D00070E080E090E0C5DC6FEF70E08881D5DBE8
:1010E00062E070E080E090E0BCDC61E08881DF914C
:1010F000CF9161CBCF92DF92EF92FF92CF93DF93AC
:10110000EC0161E0888185DB61E0888154DB8BE85C
:1011100091E00197F1F780DC6B017C0160E0888150
:1011200078DB888120DB019761F076DC6C197D0922
:101130008E099F09DF91CF91FF90EF90DF90CF90C4
:1011400008956ADCDC01CB018C199D09AE09BF0949
:10115000883E9340A105B10520F3E7CFDC01ED9176
:10116000FD918081ED91FD919081ED91FD916C91CA
:1011700063708E2309F064609F2309F06860EBECD4
:10118000F8E0E60FF11D659565956D936D917D9184
:101190008D919D91099423C01AC012C016C010C031
:1011A0001EC009C014C013C006C019C009C00DC0BC
:1011B00007C00DC014C062507040804090400BC00A
:1011C000615070408040904006C06E5F01C06F5F0C
:1011D0007F4F8F4F9F4F9E938E937E936E93089574
:1011E00080919D0290919E02B9CF80919B02909137
:1011F0009C02B4CF8091990290919A02AFCF8091D6
:10120000970290919802AACF8091950290919602B0
:10121000A5CF8091930290919402A0CFCF92DF92BC
:10122000EF92FF92CF93DF93EC016A017B01E88993
:10123000F98982E080834115514E61057105B1F055
:1012400060E079E08DE390E0A70196010E940F181D
:10125000DA01C9010197A109B109B695A79597953A
:1012600087959C01211580E13807A8F0E889F98964
:10127000108260E874E88EE190E0A70196010E9478
:101280000F18DA01C9010197A109B109B695A7950F
:10129000979587959C01EC85FD853083EE85FF85CC
:1012A0002083188EEC89FD8986E08083EA89FB899A
:1012B000808180618083EA89FB8980818860808366
:1012C000EA89FB89808180688083EA89FB89808143
:1012D0008F7D8083DF91CF91FF90EF90DF90CF9053
:1012E00008954F925F926F927F928F929F92AF92EA
:1012F000BF92CF92DF92EF92FF920F931F93CF9303
:10130000DF93C091D403D091D5038B85823020F434
:10131000F894CE0123DF01C0F8948F819885A985C8
:10132000BA8578948093A8039093A903A093AA0305
:10133000B093AB03C091D603D091D7038B85823095
:1013400020F4F894CE010ADF01C0F8944F8058844D
:1013500069847A8478944092AC035092AD03609291
:10136000AE037092AF03C090A803D090A903E090A1
:10137000AA03F090AB034091B8035091B903609178
:10138000BA037091BB0397018601041B150B260B52
:10139000370BC901B8010093B0031093B103209338
:1013A000B2033093B3038090BC039090BD03A09030
:1013B000BE03B090BF03A3019201281939094A095D
:1013C0005B0949015A012093B4033093B50340935C
:1013D000B6035093B703C092B803D092B903E0921A
:1013E000BA03F092BB034092BC035092BD036092DB
:1013F000BE037092BF030E94FC1628E431EE4AE956
:1014000051E40E94DA186B017C016093A003709391
:10141000A1038093A2039093A303C501B4010E948A
:10142000FC162AE037ED49E951E40E94DA182B0155
:101430003C016093A4037093A5038093A60390934B
:10144000A7039B01AC01C701B6010E944B1820E025
:1014500030E040E05FE30E945B174B015C01A301B9
:101460009201C701B6010E944A18209110023091E2
:10147000110240911202509113020E94DA18209139
:1014800090033091910340919203509193030E94F5
:101490004B186B017C012BED3FE049EC50E40E94BE
:1014A000DA180E944219072E000C880B990B0E9433
:1014B000FC162BED3FE049EC50E40E945B179B01CA
:1014C000AC01C701B6010E944A186B017C01609310
:1014D000900370939103809392039093930320E081
:1014E00030E044E353E40E945B172BED3FE049E416
:1014F00050E40E94DA1860939403709395038093EC
:10150000960390939703C701B6010E94D7189B01D9
:10151000AC01C501B4010E945B179B01AC01609155
:101520009C0370919D0380919E0390919F030E9464
:101530004B1860939C0370939D0380939E0390933C
:101540009F03C701B6010E94DC199B01AC01C501D4
:10155000B4010E945B179B01AC01609198037091EC
:10156000990380919A0390919B030E944B1860937A
:1015700098037093990380939A0390939B03DF9150
:10158000CF911F910F91FF90EF90DF90CF90BF9080
:10159000AF909F908F907F906F905F904F90089545
:1015A0008F929F92AF92BF92CF92DF92EF92FF9273
:1015B000CF93DF934B015C01C12CD12C8AE7E82E3D
:1015C00083E4F82E209188033091890340918A03A7
:1015D00050918B03C501B4010E944B189B01AC01D3
:1015E0006091940370919503809196039091970375
:1015F0000E94F616181694F074DEC0921002D09273
:101600001102E0921202F0921302C091D803D0911D
:10161000D903CE01FADCCE01BFDCD4CF80E090E864
:10162000ADE5B3E48093100290931102A0931202EF
:10163000B09313028091D8039091D903DF91CF9199
:10164000FF90EF90DF90CF90BF90AF909F908F90E2
:1016500050CC8F929F92AF92BF92CF92DF92EF9237
:10166000FF92CF93DF934B015C01C12CD12C8AE711
:10167000E82E83E4F82E209188033091890340916D
:101680008A0350918B03C501B4010E944B189B0142
:10169000AC016091940370919503809196039091B1
:1016A00097030E94D11987FD12C01BDEC092100261
:1016B000D0921102E0921202F0921302C091D8036C
:1016C000D091D903CE01DDDCCE012ADCD4CF80E07D
:1016D00090E8ADE5B3E48093100290931102A093DB
:1016E0001202B09313028091D8039091D903DF9135
:1016F000CF91FF90EF90DF90CF90BF90AF909F90F1
:101700008F90F7CB4F925F926F927F928F929F92C2
:10171000AF92BF92CF92DF92EF92FF920F931F93FF
:10172000CF93DF9300D01F92CDB7DEB7E982FA8264
:101730000B831C836093C0037093C1038093C20327
:101740009093C3032093C4033093C5034093C6030F
:101750005093C7038091D8039091D903CADB20919D
:1017600098033091990340919A0350919B036091A3
:10177000C0037091C1038091C2039091C3030E9482
:101780004A186B017C0120919C0330919D0340918C
:101790009E0350919F036091C4037091C503809193
:1017A000C6039091C7030E944A184B015C01A70130
:1017B0009601C701B6010E945B172B013C01A501F0
:1017C0009401C501B4010E945B179B01AC01C301E8
:1017D000B2010E944B180E94E6196093CC037093EB
:1017E000CD038093CE039093CF032CEA35EC47E2F0
:1017F00057E3C701B6010E94D1191816ACF4A7012E
:101800009601C501B4010E94DA180E94AF1826EEB5
:101810003EE245E652E40E945B179B01AC0160E0AA
:1018200070E084EB92E424C02CEA35EC47E257EBFD
:10183000C701B6010E94F61687FF24C0A7019601D2
:10184000C501B4010E94DA180E94AF1826EE3EE2EC
:1018500045E652E40E945B1720E030E044EB52E49E
:101860000E944B189B01AC0160E070E084EB93E4B4
:101870000E944A186093C8037093C9038093CA03F7
:101880009093CB038090C8039090C903A090CA03A3
:10189000B090CB03409094035090950360909603D2
:1018A00070909703A3019201C501B4010E944A18E8
:1018B0006B017C0120E030E044E353E40E94D11945
:1018C00018164CF420E030E044EB53E4C701B601B5
:1018D0000E944A181BC020E030E044E353ECC701EB
:1018E000B6010E94F61687FD09C0C092D003D092BF
:1018F000D103E092D203F092D30310C020E030E095
:1019000044EB53E4C701B6010E944B186093D00327
:101910007093D1038093D2039093D303A3019201D8
:10192000C501B4010E94D119181624F4C501B401EF
:1019300037DE03C0C501B4018CDE20918C033091E9
:101940008D0340918E0350918F0369817A818B8141
:101950009C810E945B172B013C0120E030E0A90133
:10196000609198037091990380919A0390919B03E1
:101970000E944A184B015C0120E030E0A90160910F
:101980009C0370919D0380919E0390919F030E9400
:101990004A186B017C01A5019401C501B4010E94A4
:1019A0005B174B015C01A7019601C701B6010E94BC
:1019B0005B179B01AC01C501B4010E944B180E944A
:1019C000E6199B01AC01C301B2010E94D11987FD48
:1019D0000AC087DCE090D803F090D903C70151DB3F
:1019E000C70113DBBACF8091D8039091D9030F9030
:1019F0000F900F900F90DF91CF911F910F91FF905B
:101A0000EF90DF90CF90BF90AF909F908F907F909E
:101A10006F905F904F906DCACF93DF93CDB7DEB7D5
:101A2000C058D1090FB6F894DEBF0FBECDBFFE017E
:101A3000E557FF4F91F185E589838A8387E18B83A1
:101A400083E08C8396E09D8398EE9E838F83DE01F6
:101A50001196CE018D559F4FBD01208117962C9375
:101A600017973281238118963C93189719962C93D7
:101A7000199734961396E817F90779F780917F0440
:101A8000909180044B8150E04E5F5F4FDC01ED91FF
:101A9000FC910280F381E02D1995C058DF4F0FB6FD
:101AA000F894DEBF0FBECDBFDF91CF9108958F9226
:101AB0009F92AF92BF92EF92FF920F931F93CF939B
:101AC000DF93CDB7DEB7A1970FB6F894DEBF0FBE98
:101AD000CDBF7C01FA01CB0119A2223008F42AE023
:101AE0008E010F5D1F4F822E912CA12CB12CBF01B6
:101AF000A50194010E940F18F901CA0101501109B2
:101B00006A3014F4605D01C0695CD8016C93232BCA
:101B1000242B252B61F7B801C70105D1A1960FB67B
:101B2000F894DEBF0FBECDBFDF91CF911F910F9113
:101B3000FF90EF90BF90AF909F908F9008950F937C
:101B40001F930E9469056093A7027093A802809377
:101B5000A9029093AA028FE992E00E94AA0197FF3E
:101B60001FC00E9469050091A7021091A802209150
:101B7000A9023091AA02DC01CB01801B910BA20BC0
:101B8000B30B0091A3021091A4022091A502309101
:101B9000A60280179107A207B307E8F28FEF9FEF25
:101BA0001F910F910895CF92DF92EF92FF920F93C2
:101BB0001F93CF93DF936C017A018B01C0E0D0E0DB
:101BC000CE15DF0581F0D8016D918D01D601ED9123
:101BD000FC910190F081E02DC6011995892B11F03F
:101BE0002196EECF7E01C701DF91CF911F910F911A
:101BF000FF90EF90DF90CF9008958F929F92AF92D9
:101C0000BF92CF92DF92EF92FF92CF93DF9397DF55
:101C1000FC0197FD0EC08D32910579F0C0970A97AF
:101C200060F0EE32F10549F08FE992E00E949601F2
:101C3000EECF60E070E0CB016BC0812C912C80E88E
:101C4000A82E8FE3B82EC12CD12C7601C0E0D0E0B5
:101C5000E130F10569F1ED32F10539F1EE32F105CE
:101C600031F1CF01C0970A9718F5AAE0B0E0A701BB
:101C700096010E9431186F01FF0FEE08FF08C60E93
:101C8000D71EE81EF91E80E3C81AD108E108F10842
:101C9000CC2371F02DEC3CEC4CEC5DE3C501B401C0
:101CA0000E945B174B015C0103C0D1E001C0C1E0A1
:101CB0008FE992E00E94960142DFFC01C0970A97EB
:101CC00038F2EE32F10519F4C1111FC0C1CFE13075
:101CD000F10509F4BDCFDD2341F0F094E094D094F8
:101CE000C094C11CD11CE11CF11CCC2349F0C701DC
:101CF000B6010E94FC16A50194010E945B1708C062
:101D0000C701B6010E94FC1603C0D111E6CFEFCF88
:101D1000DF91CF91FF90EF90DF90CF90BF90AF9089
:101D20009F908F9008956115710579F0FB010190E6
:101D30000020E9F73197AF01461B570BDC01ED910D
:101D4000FC910280F381E02D199480E090E00895E9
:101D5000CF93DF93CDB7DEB7CF58D1090FB6F89444
:101D6000DEBF0FBECDBF789484B5826084BD84B5DC
:101D7000816084BD85B5826085BD85B5816085BD86
:101D800080916E00816080936E001092810080913E
:101D900081008260809381008091810081608093C6
:101DA0008100809180008160809380008091B100EB
:101DB00084608093B1008091B00081608093B00016
:101DC0008091910082608093910080919100816068
:101DD0008093910080919000816080939000809129
:101DE000A10082608093A1008091A1008160809316
:101DF000A1008091A00081608093A00080912101CA
:101E00008260809321018091210181608093210172
:101E10008091200181608093200180917A0084600C
:101E200080937A0080917A00826080937A0080911A
:101E30007A00816080937A0080917A008068809334
:101E40007A001092C10010928003109281031092C8
:101E500082031092830310923E0310923F0310926C
:101E60004003109241030E9469056B017C014B0104
:101E70005C0128EB820E2BE0921EA11CB11C0E947B
:101E800069056C157D058E059F0528F08616970659
:101E9000A806B906A0F78FE992E090937F0380939C
:101EA0007E0340E056E960E070E0B8D90E94690521
:101EB00060933E0370933F038093400390934103EC
:101EC00066E272E080917E0390917F032CDF0E9496
:101ED00069056B017C014B015C018AE0880E911C55
:101EE000A11CB11C0E9469056C157D058E059F051E
:101EF00028F086169706A806B906A0F7CC24C39446
:101F0000C092520340E056E960E070E08FE992E051
:101F100085D940E855E260E070E08AED93E07ED933
:101F200068E372E08FE992E0FEDE65E372E08FE93C
:101F300092E0F9DE109283021092820210928102E6
:101F40001092800213E01F935CE7752E7F921F9220
:101F500066E0D62EDF9202E00F938FEA8F931F92F6
:101F600075E0872E8F921F9389E58F931F92E4E08F
:101F70009E2E9F921F9284E88F931F921F931F9310
:101F8000FDE6AF2EAF921F920F930F93AFED3A2E57
:101F90003F921F92CF921F93B8EEBB2EBF92DF925B
:101FA00087E7E82E84E0F82EFF92EF9235DD68EEA9
:101FB00073E080E090E00E9431051F937F921F92B2
:101FC000DF920F9399E6492E4F921F928F921F93A3
:101FD00026E4522E5F921F929F921F9232E2632E4E
:101FE0006F921F921F931F93AF921F920F930F93A5
:101FF0003F921F92CF921F93BF92DF92FF92EF9278
:102000000BDD0FB6F894DEBF0FBECDBF68EE73E0F8
:1020100080E090E00E9431051F937F921F92DF9233
:102020000F934F921F928F921F935F921F929F92D6
:102030001F926F921F921F931F93AF921F920F9345
:10204000CF9282EC8F931F92CF921F93BF92DF9219
:10205000FF92EF92E1DC68EE73E080E090E00E9496
:1020600031050FB6F894DEBF0FBECDBFDE0153962B
:10207000CA57DF4FB983A883C658D04046E0242E04
:10208000312C0E946905672B682B692B41F40E9453
:102090006905623071058105910508F407C10E9448
:1020A0006905009184021091850220918602309189
:1020B0008702601771078207930740F460938402D8
:1020C0007093850280938602909387020091840228
:1020D0001091850220918602309187026B017C016C
:1020E000C01AD10AE20AF30A970186010A3F1105D4
:1020F0002105310508F4DAC06093840270938502EB
:10210000809386029093870284EF91E0A0E0B0E094
:1021100080934A0390934B03A0934C03B0934D03D9
:1021200010924E0310924F031092500310925103DD
:102130008091420390914303A0914403B0914503E1
:102140008093460390934703A0934803B0934903B9
:102150000E94690560934203709343038093440394
:10216000909345030E94690560933E0370933F037B
:1021700080934003909341030E9469056B017C01A9
:102180006BE472E080917E0390917F03CCDD2AE0C6
:1021900041E050E060E070E080917E0390917F0329
:1021A00086DC62E572E080917E0390917F03BBDD67
:1021B0002AE0B701A60180917E0390917F0377DC2E
:1021C00064E572E080917E0390917F03ACDD8091A5
:1021D000420390914303A0914403B0914503B7019A
:1021E000A601481B590B6A0B7B0B2AE080917E03EA
:1021F00090917F035CDC64E572E080917E039091B6
:102200007F0391DD40914203509143036091440369
:10221000709145038091460390914703A091480334
:10222000B0914903481B590B6A0B7B0B2AE0809144
:102230007E0390917F033BDC66E572E080917E0334
:1022400090917F0370DD0E946905AB01BC012AE01B
:1022500080917E0390917F032ADC00917E03109190
:102260007F0368E572E0C8015EDD65E372E0C801E6
:102270005ADD0E9469054B015C016B017C0192E013
:10228000C90ED11CE11CF11C0E9469056815790575
:102290008A059B0508F0AEC30E946905609342035E
:1022A000709343038093440390934503E09182022B
:1022B000F0918302E830F10508F099C38827EE58C1
:1022C000FF4F8F4F0C944D1A8CE0E1E8F4E0DE01F3
:1022D000A859BF4F01900D928A95E1F780918F0424
:1022E00090919004E8969FAF8EAFE89780918D040F
:1022F00090918E04E6969FAF8EAFE697CE018A58F6
:102300009F4F0E947A086C3271408105910558F404
:10231000CE0188599F4F0E944108CE0188599F4F96
:102320000E9490071FC0CE018C589F4F0E947A08D0
:102330006C3271408105910558F4CE0188599F4F48
:102340000E940508CE0188599F4F0E94CC070AC001
:10235000CE0188599F4F0E944108CE0188599F4F56
:102360000E9405082091A4033091A5034091A60383
:102370005091A7036091A0037091A1038091A203E3
:102380009091A30388D620E030E040E05FE393D54E
:1023900020E030E04FEA53E40E94D11918160CF007
:1023A0005EC081E090E052C081E894E00E9479072D
:1023B000E091D403F091D503F8941782108611862A
:1023C00012867894E091D603F091D703F89417829F
:1023D00010861186128678941092B8031092B90371
:1023E0001092BA031092BB031092BC031092BD036B
:1023F0001092BE031092BF031092900310929103AB
:10240000109292031092930360E070E084EB92E4E8
:10241000C7D860ED77E080E090E00E943105CE0102
:1024200088589F4F0E9421078EE0FE01E858FF4F19
:10243000A4E7B2E001900D928A95E1F780918002C5
:1024400090918102019739F482E090E090938302A9
:1024500080938202CCC260E070E0CB01A1D81092E0
:10246000830210928202C3C2C0909003D090910365
:10247000E0909203F0909303809174029091750222
:10248000A0917602B0917702C857DF4F8883998375
:10249000AA83BB83C858D04080917C0290917D0272
:1024A000A0917E02B0917F02C457DF4F8883998349
:1024B000AA83BB83CC58D040C701B60178D64B0164
:1024C0005C01C701B60178D76B017C01A5019401BD
:1024D000C857DF4F688179818A819B81C858D04075
:1024E000EAD42B013C01A7019601C457DF4F688154
:1024F00079818A819B81CC58D040DDD49B01AC018D
:10250000C301B201C8D520919C0330919D03409135
:102510009E0350919F03BED52B013C01A501940160
:10252000C457DF4F688179818A819B81CC58D04024
:10253000C2D44B015C01A7019601C857DF4F6881E7
:1025400079818A819B81C858D040B5D49B01AC0168
:10255000C501B4019FD52091980330919903409112
:102560009A0350919B0396D513E3E12EFE2C03E3CF
:102570001FE3A3019201C6D883E090E067CF60ED2E
:1025800077E080E090E00E943105CE0188589F4FAF
:102590000E9421078EE0FE01E858FF4FA4E7B2E059
:1025A00001900D928A95E1F78091800290918102CD
:1025B000892B09F4A7C0C0909003D0909103E090BC
:1025C0009203F09093038091740290917502A09110
:1025D0007602B0917702C857DF4F88839983AA8328
:1025E000BB83C858D04080917C0290917D02A0911D
:1025F0007E02B0917F02C457DF4F88839983AA83FC
:10260000BB83CC58D040C701B601D1D54B015C018A
:10261000C701B601D1D66B017C01A5019401C85751
:10262000DF4F688179818A819B81C858D04043D42B
:102630002B013C01A7019601C457DF4F68817981C6
:102640008A819B81CC58D04036D49B01AC01C30118
:10265000B20121D520919C0330919D0340919E03AE
:1026600050919F0317D52B013C01A5019401C4573C
:10267000DF4F688179818A819B81CC58D0401BD4FF
:102680004B015C01A7019601C857DF4F6881798132
:102690008A819B81C858D0400ED49B01AC01C501F2
:1026A000B401F8D4209198033091990340919A0392
:1026B00050919B03EFD416E6E12EFE2C06E61FE3B5
:1026C000A30192011FD884E090E0C0CE60ED77E0D6
:1026D00080E090E00E943105CE0188589F4F0E9413
:1026E00021078EE0FE01E858FF4FA4E7B2E0019019
:1026F0000D928A95E1F78091800290918102892B59
:1027000009F06EC087E090E0A1CE60ED77E080E058
:1027100090E00E943105CE0188589F4F0E9421070A
:102720008EE0FE01E858FF4FA4E7B2E001900D9261
:102730008A95E1F78091800290918102892B09F0BE
:102740004FC020E030E0A901609198037091990397
:1027500080919A0390919B039DD44B015C0120E0F2
:1027600030E0A90160919C0370919D0380919E03CC
:1027700090919F038FD46B017C01A5019401C50149
:10278000B40199D34B015C01A7019601C701B601C1
:1027900092D39B01AC01C501B4017DD417D620E0D2
:1027A00030E040EA51E422D318166CF00E9471091F
:1027B0000091D8031091D903C8010E94CC07C80129
:1027C0000E949007BECF8091D8039091D9030E94B8
:1027D0007907A5E0B0E0B0938302A093820207C11D
:1027E000C0909003D0909103E0909203F0909303F7
:1027F0008091740290917502A0917602B091770257
:10280000C857DF4F88839983AA83BB83C858D040B9
:1028100080917C0290917D02A0917E02B0917F0216
:10282000C457DF4F88839983AA83BB83CC58D04099
:10283000C701B601BCD44B015C01C701B601BCD5D0
:102840006B017C01A5019401C857DF4F6881798134
:102850008A819B81C858D0402ED32B013C01A7010F
:102860009601C457DF4F688179818A819B81CC585A
:10287000D04021D39B01AC01C301B2010CD4209103
:102880009C0330919D0340919E0350919F0302D47D
:102890002B013C01A5019401C457DF4F6881798168
:1028A0008A819B81CC58D04006D34B015C01A701A3
:1028B0009601C857DF4F688179818A819B81C8580A
:1028C000D040F9D29B01AC01C501B401E3D3209102
:1028D00098033091990340919A0350919B03DAD366
:1028E000E12CF12C8701A30192010E94820B30920E
:1028F0008302209282027BC0A4E6B0E0B09364021F
:10290000A09363029BE8C92ED12CD0927002C09292
:102910006F0225E1E22E23E0F22EF0926D02E092AA
:102920006C028BE692E090936A0280936902A4EFB6
:10293000B1E0B0937302A093720285E589838A8324
:1029400087E18B8383E08C8396E09D8398EE9E8362
:102950008F83A2E6B2E0FE013196BF018C9187839E
:1029600011969C91119712968C911297908781875E
:1029700013963396CA57DF4FC880D980C658D040C7
:10298000EC15FD0559F780917F04909180044B81EF
:1029900050E04E5F5F4FDC01ED91FC910280F381CE
:1029A000E02D199524C0E12CF12C00E81FE320E074
:1029B00030E0A901CA01B9010E94820B20E030E099
:1029C000A901609194037091950380919603909171
:1029D00097030CD287FF06C060E070E0CB010E9435
:1029E000D00A05C060E070E0CB010E94290B0E9474
:1029F000650247CBC616D706E806F90608F044CCB0
:102A00004BCC823109F466C0B8F4823069F183306E
:102A100009F073C0709396026093950284E099E088
:102A2000909303028093020280916A00837F846006
:102A300080936A00ED9A5FC0843141F1C8F185311D
:102A400009F05BC070939802609397028FEF98E053
:102A50009093050280930402809169008C7F8160CD
:102A600080936900E89A47C0709394026093930240
:102A700089E099E0909301028093000280916A00BE
:102A80008C7F816080936A00EC9A35C070939A02C3
:102A9000609399028AEF98E0909307028093060270
:102AA00080916900837F846080936900E99A23C0E4
:102AB00070939C0260939B0285EF98E090930902CB
:102AC00080930802809169008F7C80618093690007
:102AD000EA9A11C070939E0260939D0280EF98E085
:102AE00090930B0280930A02809169008F73806437
:102AF00080936900EB9A81E0089580E008950F9338
:102B00001F93CF93DF93EC01062F142F62E0802FE9
:102B10000E94090462E0812F0E940904802F90E046
:102B2000FC01EA52FE4FE491F0E0EE0FFF1FE45487
:102B3000FE4FA591B491B983A883FC01E45EFD4FDB
:102B400024912C83812F90E0FC01EA52FE4FE49106
:102B5000F0E0EE0FFF1FE454FE4F459154915B836C
:102B60004A83FC01E45EFD4F94919D831F82188689
:102B700019861A86EBE3FFE13197F1F7EC91E22336
:102B800031E009F430E0DA01EC91E92309F0326038
:102B90003E83BE01802F35DF8B87BE01812F31DF61
:102BA0009B85890F8B87DF91CF911F910F9108959E
:102BB0000F931F93CF93DF93CAEDD3E01B821A824A
:102BC00048EE53E060E070E04C835D836E837F836A
:102BD00088E192E09983888325ED30E03D872C875A
:102BE00024ED30E03F872E8720ED30E0398B288BB5
:102BF00021ED30E03B8B2A8B22ED30E03D8B2C8B9E
:102C000026ED30E03F8B2E8B198E1A8E1B8E1C8E7C
:102C1000EFE9F2E01382128244835583668377835F
:102C20009183808385EC90E09587848784EC90E0A5
:102C30009787868780EC90E0918B808B81EC90E089
:102C4000938B828B82EC90E0958B848B86EC90E06A
:102C5000978B868B118E128E138E148EECE3F3E01D
:102C600016821782108611861286138614861586A0
:102C700016861786108A118A128A138A148A158A70
:102C80008DE090E09093900480938F048CE090E02E
:102C900090938E0480938D0461E086E00E94090485
:102CA00061E087E00E94090461E08AE00E94090473
:102CB00061E08BE00E94090461E088E00E94090461
:102CC00061E089E00E94090401E814E086E090E0F8
:102CD000F8019183808387E090E0938382838AE088
:102CE00090E0958384838BE090E09783868388E0EF
:102CF00090E09187808789E090E093878287E7E77B
:102D0000F4E08FEF80831282118214821782168280
:102D1000158281E08383D187C08745E164E18DE935
:102D200094E0EDDE42E163E181E994E0E8DEE4E88D
:102D3000F3E01486158616861786108A118A128A81
:102D4000138A148A158A168A178A108E118E128E8B
:102D5000138E148E158E168E178E10A211A212A22B
:102D600013A214A215A216A217A210A611A612A6AB
:102D700013A614A615A616A617A610AA11AA12AA7B
:102D800013AA14AA15AA16AA17AA10AE11AE12AE4B
:102D900013AE1092C8031092C9031092CA03109286
:102DA000CB031092CC031092CD031092CE0310925D
:102DB000CF031092D0031092D1031092D20310923D
:102DC000D3038DE994E09093D5038093D40381E9F4
:102DD00094E09093D7038093D6031093D903009384
:102DE000D803DF91CF911F910F91089540D008F43F
:102DF00081E00895E89409C097FB3EF49095809592
:102E0000709561957F4F8F4F9F4F9923A9F0F92FB0
:102E100096E9BB279395F695879577956795B7952E
:102E2000F111F8CFFAF4BB0F11F460FF1BC06F5F14
:102E30007F4F8F4F9F4F16C0882311F096E911C026
:102E4000772321F09EE8872F762F05C0662371F047
:102E500096E8862F70E060E02AF09A95660F771F5B
:102E6000881FDAF7880F9695879597F90895990F37
:102E70000008550FAA0BE0E8FEEF16161706E80744
:102E8000F907C0F012161306E407F50798F0621B65
:102E9000730B840B950B39F40A2661F0232B242B3A
:102EA000252B21F408950A2609F4A140A6958FEF59
:102EB000811D811D08950BD078C069D028F06ED097
:102EC00018F0952309F05AC05FC01124A2C07ED02B
:102ED000A0F3959FD1F3950F50E0551F629FF0012D
:102EE000729FBB27F00DB11D639FAA27F00DB11D86
:102EF000AA1F649F6627B00DA11D661F829F22270F
:102F0000B00DA11D621F739FB00DA11D621F839F95
:102F1000A00D611D221F749F3327A00D611D231F6B
:102F2000849F600D211D822F762F6A2F11249F57B9
:102F300050408AF0E1F088234AF0EE0FFF1FBB1FDC
:102F4000661F771F881F91505040A9F79E3F51057B
:102F500070F014C05EC05F3FECF3983EDCF38695E2
:102F600077956795B795F795E7959F5FC1F7FE2B26
:102F7000880F911D9695879597F9089597F99F6702
:102F800080E870E060E008959FEF80EC08950024F1
:102F90000A941616170618060906089500240A94BE
:102FA00012161306140605060895092E0394000C44
:102FB00011F4882352F0BB0F40F4BF2B11F460FFD3
:102FC00004C06F5F7F4F8F4F9F4F089557FD9058FC
:102FD000440F551F59F05F3F71F04795880F97FBDD
:102FE000991F61F09F3F79F0879508951216130697
:102FF0001406551FF2CF4695F1DF08C016161706C6
:103000001806991FF1CF86957105610508940895FA
:10301000E894BB2766277727CB0197F90895A1E2AB
:103020001A2EAA1BBB1BFD010DC0AA1FBB1FEE1F42
:10303000FF1FA217B307E407F50720F0A21BB30B8D
:10304000E40BF50B661F771F881F991F1A9469F709
:1030500060957095809590959B01AC01BD01CF0165
:10306000089509D0A59F900DB49F900DA49F800D49
:10307000911D11240895A29FB001B39FC001A39F89
:10308000700D811D1124911DB29F700D811D1124A1
:10309000911D08955058BB27AA270ED086CF77DF01
:1030A00030F07CDF20F031F49F3F11F41EF46CCF40
:1030B0000EF4E095E7FB62CFE92F88DF80F3BA17C3
:1030C000620773078407950718F071F49EF5A0CF87
:1030D0000EF4E0950B2EBA2FA02D0B01B901900133
:1030E0000C01CA01A0011124FF27591B99F0593F77
:1030F00050F4503E68F11A16F040A22F232F342FBF
:103100004427585FF3CF469537952795A795F0400C
:103110005395C9F77EF41F16BA0B620B730B840B21
:10312000BAF09150A1F0FF0FBB1F661F771F881FD9
:10313000C2F70EC0BA0F621F731F841F48F4879531
:1031400077956795B795F7959E3F08F0B3CF939520
:10315000880F08F09927EE0F979587950895DF93CC
:10316000DD27B92FBF7740E85FE31616170648073B
:103170005B0710F4D92F19D19F938F937F936F938F
:1031800063D1ECE3F1E0AFD010DF2F913F914F918D
:103190005F919DDEDD2349F09058A2EA2AED3FE0E1
:1031A00049EC5FE3D0785D2787DFDF91FECEC1D0A9
:1031B000E395E6C00CD0F9CEF1DE40F0E8DE30F069
:1031C00021F45F3F19F0DACE511123CFDDCEFEDEC0
:1031D00098F39923C9F35523B1F3951B550BBB27DE
:1031E000AA2762177307840738F09F5F5F4F220F8B
:1031F000331F441FAA1FA9F333D00E2E3AF0E0E884
:1032000030D091505040E695001CCAF729D0FE2FCF
:1032100027D0660F771F881FBB1F26173707480761
:10322000AB07B0E809F0BB0B802DBF01FF27935817
:103230005F4F2AF09E3F510568F0A0CEEACE5F3F77
:10324000ECF3983EDCF3869577956795B795F795FF
:103250009F5FC9F7880F911D9695879597F90895F7
:10326000E1E0660F771F881FBB1F62177307840793
:10327000BA0720F0621B730B840BBA0BEE1F88F7A2
:10328000E095089504D06894B111C3CE0895A6DEE8
:1032900088F09F5790F0B92F9927B751A0F0D1F03F
:1032A000660F771F881F991F1AF0BA95C9F712C0C9
:1032B000B13081F0ADDEB1E00895AACE672F782F4E
:1032C0008827B85F39F0B93FCCF386957795679535
:1032D000B395D9F73EF490958095709561957F4FA1
:1032E0008F4F9F4F0895DF93CF931F930F93FF92BC
:1032F000EF92DF927B018C01689405C0DA2EEF011A
:10330000E6DDFE01E894A591259135914591559111
:10331000AEF3EF01D1DEFE019701A801DA9479F74F
:10332000DF90EF90FF900F911F91CF91DF91089563
:103330002BCE54DEE8F3E894E0E0BB279F57F0F093
:103340002AED3FE049EC06C0EE0FBB0F661F771F6A
:10335000881F28F0B23A62077307840728F0B25A30
:10336000620B730B840BE3959A9572F7803830F4F7
:103370009A95BB0F661F771F881FD2F7904869C0C8
:10338000EF93E0FF06C0A2EA2AED3FE049EC5FEBD5
:1033900093DE0BDE0F90039401FC9058E9E6F1E018
:1033A0006BC065DD08F48FEF08959B01AC0160E010
:1033B00070E080E89FE3FECE9F93BBDF0F9007FC99
:1033C000EE5FDECF11F40EF4DFCD41C007DED0F3A7
:1033D0009923D9F3CEF39F57550B87FF46D000248E
:1033E000A0E640EA900180585695979528F4805CB5
:1033F000660F771F881F20F026173707480730F41D
:10340000621B730B840B202931294A2BA695179434
:103410000794202531254A2758F7660F771F881F04
:1034200020F026173707480730F4620B730B840B24
:10343000200D311D411DA09581F7B901842F9158B0
:10344000880F9695879508959B01AC0134CD9F3FD9
:1034500031F0915020F4879577956795B795880F4F
:10346000911D9695879597F9089591505040660F54
:10347000771F881FD2F708959F938F937F936F9341
:10348000FF93EF939B01AC0116DDEF91FF912BDFD2
:103490002F913F914F915F910ECDEE0FFF1F881F2F
:1034A0008BBF0790F691E02D199481E090E0F8949D
:0634B00000C0F894FFCFFC
:1034B600EE02EE02EE02EE02EE02EE02EE02EE0286
:1034C60000805D4300000000F801D30D870144022F
:1034D600B8019601AA01564D4450565F317C315FC2
:1034E600564D4450560D0A0043757272656E74202F
:1034F600506F736974696F6E3A2000564D4450459B
:103506005F003A323A007C005F564D445045005306
:023516000000B3
:020000023000CC
:10E000000D9489F10D94B2F10D94B2F10D94B2F129
:10E010000D94B2F10D94B2F10D94B2F10D94B2F1F0
:10E020000D94B2F10D94B2F10D94B2F10D94B2F1E0
:10E030000D94B2F10D94B2F10D94B2F10D94B2F1D0
:10E040000D94B2F10D94B2F10D94B2F10D94B2F1C0
:10E050000D94B2F10D94B2F10D94B2F10D94B2F1B0
:10E060000D94B2F10D94B2F10D94B2F10D94B2F1A0
:10E070000D94B2F10D94B2F10D94B2F10D94B2F190
:10E080000D94B2F10D94B2F10D94B2F10D94B2F180
:10E090000D94B2F10D94B2F10D94B2F10D94B2F170
:10E0A0000D94B2F10D94B2F10D94B2F10D94B2F160
:10E0B0000D94B2F10D94B2F10D94B2F10D94B2F150
:10E0C0000D94B2F10D94B2F10D94B2F10D94B2F140
:10E0D0000D94B2F10D94B2F10D94B2F10D94B2F130
:10E0E0000D94B2F141546D656761323536300041AF
:10E0F000726475696E6F206578706C6F72657220DE
:10E1000073746B3530305632206279204D4C530099
:10E11000426F6F746C6F616465723E004875683F52
:10E1200000436F6D70696C6564206F6E203D200048
:10E130004350552054797065202020203D20005FF9
:10E140005F4156525F415243485F5F3D2000415658
:10E1500052204C696243205665723D20004743437C
:10E160002056657273696F6E203D20004350552024
:10E1700049442020202020203D20004C6F7720663D
:10E18000757365202020203D20004869676820665F
:10E190007573652020203D200045787420667573D6
:10E1A00065202020203D20004C6F636B2066757336
:10E1B000652020203D20004D617220203720323024
:10E1C000313300312E362E3800342E332E350056A2
:10E1D00023202020414444522020206F7020636F70
:10E1E00064652020202020696E73747275637469E1
:10E1F0006F6E2061646472202020496E74657272B3
:10E20000757074006E6F20766563746F7200726A49
:10E210006D702020006A6D70200057686174207056
:10E220006F72743A00506F7274206E6F7420737541
:10E2300070706F72746564004D7573742062652030
:10E2400061206C6574746572002000577269747483
:10E25000696E672045450052656164696E672045B7
:10E26000450045452065727220636E743D00504F35
:10E27000525400303D5A65726F2061646472003FF1
:10E280003D43505520737461747300403D454550C3
:10E29000524F4D207465737400423D426C696E6B41
:10E2A000204C454400453D44756D70204545505215
:10E2B0004F4D00463D44756D7020464C415348001B
:10E2C000483D48656C70004C3D4C69737420492F83
:10E2D0004F20506F72747300513D51756974005234
:10E2E0003D44756D702052414D00563D73686F7707
:10E2F00020696E7465727275707420566563746FF0
:10E30000727300593D506F727420626C696E6B00BD
:10E310002A0011241FBECFEFD1E2DEBFCDBF01E046
:10E320000CBF12E0A0E0B2E0EEE1FDEF03E00BBFB6
:10E3300002C007900D92A030B107D9F712E0A0E01B
:10E34000B2E001C01D92AE30B107E1F70F9460F367
:10E350000D948DFE01E20EBF0FEF0DBF11241FBE05
:10E360000D9460F30D9400F020E030E040ED57E0B4
:10E3700005C0FA013197F1F72F5F3F4F2817390792
:10E38000C0F308959C01260F311DC901A0E0B0E043
:10E390002F5F3F4FABBFFC018791882361F08093D3
:10E3A000C6008091C00086FFFCCF8091C0008064D1
:10E3B0008093C000EACF08958DE08093C6008091DD
:10E3C000C00086FFFCCF8091C00080648093C000B5
:10E3D0008AE08093C6008091C00086FFFCCF8091C8
:10E3E000C00080648093C00008950F94C2F10F9420
:10E3F000DCF10895FC019081992359F09093C600B7
:10E400008091C00086FFFCCF8091C0008064809323
:10E41000C0003196992379F70895282F982F929567
:10E420009F70892F805D8A3308F0895F8093C600D2
:10E430008091C00086FFFCCF8091C00080648093F3
:10E44000C000822F8F70982F905D9A3308F0995FEB
:10E450009093C6008091C00086FFFCCF8091C000E1
:10E4600080648093C00008959C01FB01853691056E
:10E470001CF46330710594F0C90164E670E00F94F8
:10E480002EFE605D7F4F6093C6008091C00086FFC6
:10E49000FCCF8091C00080648093C0002B30310598
:10E4A00014F43297B4F0C90164E670E00F942EFEC4
:10E4B0006AE070E00F942EFE605D7F4F6093C600AF
:10E4C0008091C00086FFFCCF8091C0008064809363
:10E4D000C000C9016AE070E00F942EFEC0968093E0
:10E4E000C6008091C00086FFFCCF8091C000806490
:10E4F0008093C00008951F93182F8EE692EE60E07F
:10E500000F94C2F11093C6008091C00086FFFCCF2B
:10E510008091C00080648093C0000F94DCF11F9153
:10E5200008952F923F924F925F926F927F928F92B7
:10E530009F92AF92BF92CF92DF92EF92FF920F9392
:10E540001F93DF93CF93CDB7DEB762970FB6F894E2
:10E55000DEBF0FBECDBF382E622ECA01DB015C01CB
:10E560006D01772420E2222E2E010894411C511CBB
:10E570008BC081E0A81680E0B80681E0C80680E084
:10E58000D80628F0C601AA27BB270F940DF2BB2797
:10E59000AD2D9C2D8B2D0F940DF28A2D0F940DF225
:10E5A0002092C6008091C00086FFFCCF8091C00001
:10E5B00080648093C0009DE29093C6008091C0006B
:10E5C00086FFFCCF8091C00080648093C0002092C1
:10E5D000C6008091C00086FFFCCF8091C00080649F
:10E5E0008093C00019828601750188249924A1E0D6
:10E5F0003A1651F03A1620F0B2E03B1661F409C029
:10E600000BBFF701779007C0C7010F9477FE782EF4
:10E6100002C0F7017080872D0F940DF22092C60082
:10E620008091C00086FFFCCF8091C0008064809301
:10E63000C000872D8052F401EF70F0708F3520F408
:10E64000E40DF51D708204C0E40DF51D8EE280839B
:10E650000894E11CF11C011D111D0894811C911CE2
:10E6600090E18916910409F0C2CF80E190E0A0E02A
:10E67000B0E0A80EB91ECA1EDB1E198AC2010F9493
:10E68000FAF10F94DCF16A94662009F072CF629679
:10E690000FB6F894DEBF0FBECDBFCF91DF911F91B3
:10E6A0000F91FF90EF90DF90CF90BF90AF909F9031
:10E6B0008F907F906F905F904F903F902F90089534
:10E6C0002F923F924F925F926F927F928F929F9282
:10E6D000AF92BF92CF92DF92EF92FF920F931F9370
:10E6E000DF93CF93CDB7DEB7CD53D1400FB6F894BB
:10E6F000DEBF0FBECDBF01E20EBF0FEF0DBF94B75F
:10E70000F894A89514BE80916000886180936000A1
:10E7100010926000789493FF05C0E0910002F091A0
:10E7200001021995279A2F9A8091C00082608093E8
:10E73000C00080E18093C40088E18093C1000000A4
:10E74000EE24FF24870144E0A42EB12CCC24DD2448
:10E7500024C0C5010197F1F70894E11CF11C011DCB
:10E76000111D21E2E2162EE4F20620E0020720E06D
:10E77000120718F031E0C32ED12CC801B70127ECE5
:10E780003BE140E050E00F9441FE611571058105C9
:10E79000910519F485B1805885B98091C00087FD35
:10E7A00003C0C114D104A9F2A6014F5F5F4FC25E3E
:10E7B000DE4F59834883CE51D140C25EDE4F8881FF
:10E7C0009981CE51D140019711F00D9410FEC05D9A
:10E7D000DE4F19821882C053D14060E0C15DDE4F28
:10E7E0001882CF52D14088249924C35DDE4F19820C
:10E7F0001882CD52D140C05EDE4F188219821A8233
:10E800001B82C052D140CE5CDE4F188219821A8220
:10E810001B82C253D140EE24FF2487010BBFF701B6
:10E8200007911691C45CDE4F19830883CC53D14005
:10E830000D940BFEC25EDE4F28813981CE51D1404E
:10E840002130310509F52091C600C25EDE4F1982E4
:10E850001882CE51D14022C02F5F3F4F4F4F5F4FA4
:10E86000213082E138078AE7480780E0580780F0C6
:10E87000C45CDE4FE881F981CC53D140EF5FFF4F9C
:10E8800019F0EE27FF27099420E030E040E050E047
:10E890008091C00087FFE0CF2091C600C35DDE4FAE
:10E8A00048815981CD52D1404F5F5F4FC35DDE4FEC
:10E8B00059834883CD52D140213209F063C64A3092
:10E8C000510508F05FC60894811C911C53E0851621
:10E8D000910409F059C600E010E018C081E280936D
:10E8E000C6008091C00086FFFCCF8091C00080648C
:10E8F0008093C0002F5F3F4F2931310579F70F9486
:10E90000DCF10F5F1F4F0530110519F020E030E0FA
:10E91000E5CF10920A0210920B0210920C02109294
:10E920000D02109206021092070210920802109235
:10E930000902109202021092030210920402109235
:10E9400005028FEE90EE60E00F94F5F180E191EE1C
:10E9500060E00F94C2F18091C00087FFFCCF9091DE
:10E96000C600903608F09F759032B8F09093C600BC
:10E970008091C00086FFFCCF8091C00080648093AE
:10E98000C000A0E2A093C6008091C00086FFFCCF2B
:10E990008091C00080648093C000983409F4D7C18E
:10E9A0009934B8F4923409F459C1933458F490333B
:10E9B00019F1903308F4E3C59F33A1F1903409F0C5
:10E9C000DEC5BDC0953409F470C1963409F0D7C5D1
:10E9D00098C1923509F42BC2933538F49C3409F46C
:10E9E000F5C1913509F0CBC518C2963509F445C279
:10E9F000993509F0C4C567C483E792EE62E00F94CD
:10EA0000F5F110920602109207021092080210927D
:10EA1000090210920A0210920B0210920C0210923C
:10EA20000D0213C18FE792EE62E00F94F5F18FEEC5
:10EA300090EE60E00F94F5F181E291EE60E00F94CA
:10EA4000C2F187EB91EE60E00F94F5F180E391EE77
:10EA500060E00F94C2F184EE90EE60E00F94F5F167
:10EA60008FE391EE60E00F94C2F186E090E061E008
:10EA700070E00F9434F20F94DCF18DE591EE60E0DC
:10EA80000F94C2F189EC91EE60E00F94F5F18EE401
:10EA900091EE60E00F94C2F183EC91EE60E00F9490
:10EAA000F5F18CE691EE60E00F94C2F18EE10F94E7
:10EAB0000DF288E90F940DF281E00F940DF20F949E
:10EAC000DCF18BE791EE60E00F94C2F119E0E0E039
:10EAD000F0E010935700E4918E2F0F940DF20F94F5
:10EAE000DCF18AE891EE60E00F94C2F1E3E0F0E03F
:10EAF00010935700E4918E2F0F940DF20F94DCF1D8
:10EB000089E991EE60E00F94C2F1E2E0F0E0109349
:10EB10005700E4918E2F0F940DF20F94DCF188EAE8
:10EB200091EE60E00F94C2F1E1E0F0E01093570045
:10EB30001491812F0F940DF20F94DCF107CF8BE825
:10EB400092EE62E00F94F5F18BE492EE60E00F94A8
:10EB5000F5F10F94DCF100E010E019C0C8016F2D51
:10EB60000F947FFEFF2031F489E492EE60E00F9471
:10EB7000C2F10BC0F092C6008091C00086FFFCCFAE
:10EB80008091C00080648093C0000F5F1F4FC80158
:10EB900081519F41A0E0B0E0ABBFFC01F790BAE229
:10EBA000FB1621F0E2E000301E07C1F60F94DCF105
:10EBB0000F94DCF187E592EE60E00F94F5F10F948D
:10EBC000DCF1CC24DD2400E010E01EC0C8010F946D
:10EBD00077FEF82E882331F489E492EE60E00F94FA
:10EBE000C2F10BC08093C6008091C00086FFFCCFAD
:10EBF0008091C00080648093C000FE1419F00894D6
:10EC0000C11CD11C0F5F1F4FC80181519F41A0E063
:10EC1000B0E0ABBFFC01E790FAE2EF1621F022E092
:10EC20000030120799F60F94DCF10F94DCF182E6C4
:10EC300092EE60E00F94C2F1C60161E070E00F94C3
:10EC400034F20F94DCF10F94DCF110920202109276
:10EC50000302109204021092050278CE89E992EE26
:10EC600062E00F94F5F1279A2F9A16C02F9880E052
:10EC700090E0E0EDF7E03197F1F7019684369105E9
:10EC8000C1F72F9A80E090E0E0EDF7E03197F1F7DF
:10EC9000019684369105C1F78091C00087FFE6CFC9
:10ECA0008091C00087FFFCCF64C485EA92EE62E0E9
:10ECB0000F94F5F140910202509103026091040219
:10ECC0007091050281E020E10F9491F2809102029F
:10ECD00090910302A0910402B091050280509F4FD1
:10ECE000AF4FBF4F8093020290930302A0930402A0
:10ECF000B093050280509041A040B04008F426CE69
:10ED0000A4CF83EB92EE62E00F94F5F140910602FE
:10ED100050910702609108027091090280E020E1A1
:10ED20000F9491F28091060290910702A09108023F
:10ED3000B091090280509F4FAF4FBF4F80930602A2
:10ED400090930702A0930802B0930902FFCD80ECD4
:10ED500092EE62E00F94F5F183E792EE60E00F949B
:10ED6000F5F18FE792EE60E00F94F5F18BE892EE0B
:10ED700060E00F94F5F189E992EE60E00F94F5F10F
:10ED800085EA92EE60E00F94F5F183EB92EE60E09D
:10ED90000F94F5F180EC92EE60E00F94F5F187ECC2
:10EDA00092EE60E00F94F5F188ED92EE60E00F9442
:10EDB000F5F18FED92EE60E00F94F5F18AEE92EEB0
:10EDC00060E00F94F5F183E093EEBDCD87EC92EE19
:10EDD00062E00F94F5F181E40F947BF282E40F94EA
:10EDE0007BF283E40F947BF284E40F947BF285E45E
:10EDF0000F947BF286E40F947BF287E40F947BF20E
:10EE000088E40F947BF28AE40F947BF28BE40F94F6
:10EE10007BF28CE40F947BF299CD88ED92EE62E068
:10EE20000F94F5F1772473948824992409C48FED05
:10EE300092EE62E00F94F5F140910A0250910B02BC
:10EE400060910C0270910D0282E020E10F9491F22A
:10EE500080910A0290910B02A0910C02B0910D02D8
:10EE600080509F4FAF4FBF4F80930A0290930B0289
:10EE7000A0930C02B0930D0269CD8AEE92EE62E08F
:10EE80000F94F5F184EE90EE60E00F94F5F18FECC5
:10EE900091EE60E00F94F5F1662477244301CC5D98
:10EEA000DE4F19821882C452D140D401C301B695F5
:10EEB000A79597958795CA5DDE4F88839983AA8326
:10EEC000BB83C652D140CC5DDE4FA881B981C4520C
:10EED000D1401196CC5DDE4FB983A883C452D14096
:10EEE000CD0162E070E00F9434F2B0E2B093C6005E
:10EEF0008091C00086FFFCCF8091C0008064809329
:10EF0000C000EDE2E093C6008091C00086FFFCCF18
:10EF10008091C00080648093C000F0E2F093C6004E
:10EF20008091C00086FFFCCF8091C00080648093F8
:10EF3000C000CA5DDE4FE880F9800A811B81C6529D
:10EF4000D140BB27A12F902F8F2D0F940DF2CA5DBA
:10EF5000DE4F8881C652D1400F940DF2B0E2FB2EF5
:10EF6000F092C6008091C00086FFFCCF8091C00067
:10EF700080648093C0000DE30093C6008091C000C0
:10EF800086FFFCCF8091C00080648093C00010E2B7
:10EF90001093C6008091C00086FFFCCF8091C00016
:10EFA00080648093C0008BBEF3012791C65DDE4F65
:10EFB0002883CA52D140A22EBB24CC24DD2408943D
:10EFC000611C711C811C911C8BBEF3018791282E42
:10EFD0003324442455240894611C711C811C911C09
:10EFE0008BBEF3013791C55DDE4F3883CB52D140E4
:10EFF0000894611C711C811C911C8BBEF30147910C
:10F00000C45DDE4F4883CC52D140ADEFEA2EAFEF66
:10F01000FA2EAFEF0A2FAFEF1A2F6E0C7F1C801E57
:10F02000911E142D032DF22CEE24EA0CFB1C0C1D5A
:10F030001D1D0F940DF220E22093C6008091C000A8
:10F0400086FFFCCF8091C00080648093C000C65DC5
:10F05000DE4F8881CA52D1400F940DF230E23093D6
:10F06000C6008091C00086FFFCCF8091C000806404
:10F070008093C000C45DDE4F8881CC52D1400F9494
:10F080000DF240E24093C6008091C00086FFFCCFA5
:10F090008091C00080648093C000C55DDE4F888190
:10F0A000CB52D1400F940DF250E25093C6008091A4
:10F0B000C00086FFFCCF8091C00080648093C000B8
:10F0C0008FEFE8168FEFF80680E0080780E018075A
:10F0D00031F484E092EE60E00F94C2F1DFC0D80119
:10F0E000C7018070907CA070B0708050904CA040A0
:10F0F000B040D1F52FEF3FE340E050E0E222F322B1
:10F1000004231523CA5DDE4FA880B980CA80DB8046
:10F11000C652D140AE0CBF1CC01ED11EAA0CBB1CD7
:10F12000CC1CDD1C8EE092EE60E00F94C2F1BB2798
:10F13000A12F902F8F2D0F940DF28E2D0F940DF285
:10F1400030E23093C6008091C00086FFFCCF8091F2
:10F15000C00080648093C0004EE34093C60080915D
:10F16000C00086FFFCCF87C08EE09EEFA0E0B0E03D
:10F17000E822F9220A231B239CE0E91694E9F90608
:10F1800090E0090790E0190709F088C0C45DDE4FE0
:10F19000A881CC52D140EA2EFF2400E010E0102FCD
:10F1A0000F2DFE2CEE24C55DDE4FB881CB52D14031
:10F1B000EB0EF11C011D111DD601C501817090706F
:10F1C000A070B070DC0199278827E80EF91E0A1F8D
:10F1D0001B1F20EF30E040E050E0A222B322C42207
:10F1E000D52241E1AA0CBB1CCC1CDD1C4A95D1F7F1
:10F1F000EA0CFB1C0C1D1D1D81E090E0A0E0B0E0BE
:10F20000282239224A225B2235E1220C331C441C7D
:10F21000551C3A95D1F7E20CF31C041D151D57013E
:10F220006801AA0CBB1CCC1CDD1C85E192EE60E0E1
:10F230000F94C2F1C801AA27BB270F940DF2BB2778
:10F24000A12F902F8F2D0F940DF28E2D0F940DF274
:10F2500090E29093C6008091C00086FFFCCF809121
:10F26000C00080648093C000AEE3A093C60080918C
:10F27000C00086FFFCCF8091C00080648093C000F6
:10F28000C601AA27BB270F940DF2BB27AD2D9C2DDD
:10F290008B2D0F940DF28A2D0F940DF20F94DCF14B
:10F2A000CC5DDE4FE881F981C452D140F99709F471
:10F2B0004DCBF4E0EF2EF12C012D112D6E0C7F1CA7
:10F2C000801E911EF2CD83E093EE62E00F94F5F183
:10F2D0008AE192EE60E00F94C2F18091C00087FF56
:10F2E000FCCF1091C6001F751093C6008091C0001E
:10F2F00086FFFCCF8091C00080648093C0000F9493
:10F30000DCF1812F81548A3108F036C1163409F4BA
:10F3100095C0173490F4133409F44EC0143430F40B
:10F320001134F1F0123409F01DC130C0143409F465
:10F3300059C0153409F016C16BC01A3409F4C4C0A1
:10F340001B3438F4173409F48FC0183409F00AC19B
:10F35000A1C01B3409F4D2C01C3409F003C1E8C0B9
:10F360008FEF81B90DC082B1809582B980E090E0C5
:10F37000E0EDF7E03197F1F70196883C9105C1F790
:10F380008091C00087FFEFCF12B8EFC08FEF84B934
:10F390000DC085B1809585B980E090E0E0EDF7E0A3
:10F3A0003197F1F70196883C9105C1F78091C00033
:10F3B00087FFEFCF15B8D9C08FEF87B90DC088B1DF
:10F3C000809588B980E090E0E0EDF7E03197F1F7C3
:10F3D0000196883C9105C1F78091C00087FFEFCF6F
:10F3E00018B8C3C08FEF8AB90DC08BB180958BB9A7
:10F3F00080E090E0E0EDF7E03197F1F70196883C8E
:10F400009105C1F78091C00087FFEFCF1BB8ADC059
:10F410008FEF8DB90DC08EB180958EB980E090E0F0
:10F42000E0EDF7E03197F1F70196883C9105C1F7DF
:10F430008091C00087FFEFCF1EB897C08FEF80BBD1
:10F440000DC081B3809581BB80E090E0E0EDF7E0F6
:10F450003197F1F70196883C9105C1F78091C00082
:10F4600087FFEFCF11BA81C08FEF83BB0DC084B38C
:10F47000809584BB80E090E0E0EDF7E03197F1F714
:10F480000196883C9105C1F78091C00087FFEFCFBE
:10F4900014BA6BC08FEF809301010FC080910201FD
:10F4A00080958093020180E090E0E0EDF7E03197F5
:10F4B000F1F70196883C9105C1F78091C00087FF64
:10F4C000EDCF1092020151C08FEF809304010FC065
:10F4D0008091050180958093050180E090E0E0ED4A
:10F4E000F7E03197F1F70196883C9105C1F78091DB
:10F4F000C00087FFEDCF1092050137C08FEF8093DA
:10F5000007010FC08091080180958093080180E079
:10F5100090E0E0EDF7E03197F1F70196883C910536
:10F52000C1F78091C00087FFEDCF109208011DC088
:10F530008FEF80930A010FC080910B01809580931B
:10F540000B0180E090E0E0EDF7E03197F1F70196F4
:10F55000883C9105C1F78091C00087FFEDCF1092E4
:10F560000B0103C085E292EEEEC98091C00087FFD7
:10F57000FCCF8091C600EAC988E392EEE4C98CE131
:10F5800091EEE1C988249924933011F1943028F444
:10F59000913089F09230B8F408C0953061F195301F
:10F5A000F0F0963009F048C043C02B3109F042C951
:10F5B00091E06BE13FC96227C15DDE4F2883CF52E6
:10F5C000D14092E037C9B22FA0E0622793E032C960
:10F5D000822F90E0A82BB92B622794E02BC92E3004
:10F5E00009F039C3622795E0C05DDE4F19821882A9
:10F5F000C053D1401FC9E1E0F0E0EC0FFD1FC05D3A
:10F60000DE4F08811981C053D140E00FF11F2083E4
:10F610000F5F1F4FC05DDE4F19830883C053D14079
:10F6200062270A171B0709F005C9D80196E002C92D
:10F63000261709F010C303C0973009F0FBC87724E0
:10F640009981933109F412C19431C8F4963009F4C8
:10F65000D8C0973050F4923009F406C1933009F4C1
:10F660006DC0913009F059C253C0913109F477C08F
:10F67000923108F0BBC0903109F04FC2F5C098310B
:10F6800009F487C0993150F4953109F4EFC09531F0
:10F6900008F4C6C1963109F040C2C2C19A3109F4DA
:10F6A0006CC09A3108F491C09B3109F45BC09D3164
:10F6B00009F033C29D81903359F48F81882311F46E
:10F6C0009EE11CC0813011F091E018C098E916C08D
:10F6D000892F807591F0903539F4E0E0F0E089E011
:10F6E0008093570094910AC0983539F4E3E0F0E034
:10F6F00089E080935700949101C090E01A821B82A8
:10F700008D818C831D829E831F8227E030E009C299
:10F710001A8288E08B8381E48C8386E58D8382E581
:10F720008E8389E48F8383E5888780E589878FE5E9
:10F730008A8782E38B872BE030E0F3C18A818139AD
:10F7400041F0823941F0803911F48FE005C080E04A
:10F7500003C082E001C08AE01A828B8344C0772410
:10F76000739482C08D81882311F48EE12CC0813086
:10F7700011F081E028C088E926C01A82E1E0F0E0BB
:10F7800089E08093570084918B831C8224E030E0D1
:10F79000C8C18B81803589F48C81883039F4E2E0EE
:10F7A000F0E089E08093570084910DC0E0E0F0E044
:10F7B00089E080935700849106C0E3E0F0E089E09F
:10F7C0008093570084911A82DFCF8D81836C99E0FA
:10F7D000E1E0F0E0082E90935700E89507B600FCB2
:10F7E000FDCF1A821B8223E030E09BC180EC8A832C
:10F7F000CE5CDE4F188219821A821B82C253D1401E
:10F800008EC18A8190E0A0E0B0E0582F44273327D2
:10F8100022278B8190E0A0E0B0E0DC0199278827C7
:10F82000282B392B4A2B5B2B8D8190E0A0E0B0E098
:10F83000282B392B4A2B5B2B8C8190E0A0E0B0E089
:10F84000BA2FA92F982F8827282B392B4A2B5B2BCF
:10F85000220F331F441F551FC05EDE4F288339839C
:10F860004A835B83C052D1401A8259C13A81C95C34
:10F87000DE4F3883C753D140CA5CDE4F1882C6536F
:10F88000D1408B81C82EDD24CA5CDE4F488159816E
:10F89000C653D140C42AD52A933109F082C0CE5C28
:10F8A000DE4F88819981AA81BB81C253D1408050AB
:10F8B000904CA340B04030F583E0CE5CDE4FE88052
:10F8C000F9800A811B81C253D140F70100935B008C
:10F8D00080935700E89507B600FCFDCFCE5CDE4F65
:10F8E000088119812A813B81C253D14000501F4FAA
:10F8F0002F4F3F4FCE5CDE4F088319832A833B8313
:10F90000C253D140C05EDE4F488159816A817B81FC
:10F91000C052D140DE011B9631E08C9111962C91A2
:10F9200011971296C75CDE4F2883C953D140C85C3B
:10F93000DE4F1882C853D14090E0C85CDE4FE881AA
:10F94000F981C853D1408E2B9F2B0C01FA01609393
:10F950005B0030935700E89511244E5F5F4F6F4F67
:10F960007F4F0EEFE02E0FEFF02ECE0CDF1CC114F8
:10F97000D10499F685E0C05EDE4F088119812A81A5
:10F980003B81C052D140F80120935B008093570027
:10F99000E89507B600FCFDCF81E180935700E8951C
:10F9A00035C0C05EDE4F88819981AA81BB81C0527B
:10F9B000D140B695A795979587957C018601ABE0D8
:10F9C000AA2EB12CAC0EBD1E0BC0D5016D915D01F0
:10F9D000C7010F947FFE0894E11CF11C01501040F8
:10F9E0000115110591F7A60160E070E0440F551F65
:10F9F000661F771FC05EDE4FE880F9800A811B8199
:10FA0000C052D1404E0D5F1D601F711F1A82C05E33
:10FA1000DE4F488359836A837B83C052D1407FC0C5
:10FA2000FA80C55CDE4FF882CB53D140C65CDE4F16
:10FA30001882CA53D1408B81C82EDD24C65CDE4FAC
:10FA400008811981CA53D140C02AD12A1A828981DA
:10FA5000BE016D5F7F4F843121F59601C05EDE4FA0
:10FA6000E880F9800A811B81C052D1400BBFF701A9
:10FA700087919691DB018C9311969C936E5F7F4FDB
:10FA8000D801C7010296A11DB11DC05EDE4F88835B
:10FA90009983AA83BB83C052D14022503040F1F6F3
:10FAA00036C0C05EDE4F288139814A815B81C052F9
:10FAB000D1400894C108D108760100E010E0089414
:10FAC000C11CD11C0894E11CF11C011D111DE20E8A
:10FAD000F31E041F151F21BDBB27A52F942F832FB5
:10FAE00082BD2F5F3F4F4F4F5F4FF89A80B5DB01CC
:10FAF0008D93BD012E153F054007510761F7C05E8C
:10FB0000DE4F288339834A835B83C052D1409601FC
:10FB10002D5F3F4FFB01108204C080EC8A8322E0FE
:10FB200030E08BE18093C6008091C00086FFFCCF5F
:10FB30008091C00080648093C000C15DDE4FF88179
:10FB4000CF52D140F093C6008091C00086FFFCCF19
:10FB50008091C00080648093C000432F3093C60022
:10FB60008091C00086FFFCCF8091C00080648093AC
:10FB7000C000922F2093C6008091C00086FFFCCF6A
:10FB80008091C00080648093C0008EE08093C600A6
:10FB90008091C00086FFFCCF8091C000806480937C
:10FBA000C00065E1C15DDE4FE880CF52D1406E25D7
:10FBB00069276427FE01319610C090819093C6009A
:10FBC0008091C00086FFFCCF31968091C000806498
:10FBD0008093C0006927215030402115310569F715
:10FBE0006093C6008091C00086FFFCCF8091C0006A
:10FBF00080648093C00085B1805885B9772081F4F6
:10FC0000C15DDE4F0881CF52D1400F5FC15DDE4F35
:10FC10000883CF52D14090E0A0E0B0E00D941AF4F8
:10FC200027982F9880E090E020ED37E0F901319798
:10FC3000F1F7019684369105C9F700008091C00064
:10FC40008D7F8093C00081E180935700E895EE2777
:10FC5000FF270994FFCF90E00D941AF497FB092E2B
:10FC600007260AD077FD04D02ED006D000201AF443
:10FC7000709561957F4F0895F6F7909581959F4F08
:10FC80000895A1E21A2EAA1BBB1BFD010DC0AA1FDD
:10FC9000BB1FEE1FFF1FA217B307E407F50720F0F5
:10FCA000A21BB30BE40BF50B661F771F881F991F70
:10FCB0001A9469F760957095809590959B01AC01B9
:10FCC000BD01CF010895AA1BBB1B51E107C0AA1FAC
:10FCD000BB1FA617B70710F0A61BB70B881F991FED
:10FCE0005A95A9F780959095BC01CD010895F99991
:10FCF000FECF92BD81BDF89A992780B50895262F31
:10FD0000F999FECF1FBA92BD81BD20BD0FB6F89400
:0EFD1000FA9AF99A0FBE01960895F894FFCF63
:040000033000E000E9
:00000001FF