:100000004CC1000047C600001AC60000EDC5000044
:10001000C0C5000093C5000066C5000039C50000DA
:100020000CC5000062C6000060C600005EC600008D
:1000300065C1000063C1000061C100005FC1000034
:100040005DC100005BC1000059C1000057C1000044
:1000500055C1000053C1000051C10000A4C40000FC
:100060004DC100003EC200000C94490847C1000089
:1000700045C1000043C1000041C100003FC1000074
:100080003DC100003BC1000039C1000037C1000084
:1000900035C1000033C1000031C100002FC1000094
:1000A0002DC100002BC1000029C1000027C10000A4
:1000B00025C1000023C1000021C100001FC10000B4
:1000C0001DC100001BC1000019C10000ACC7000029
:1000D00081C7000013C1000011C100000FC1000062
:1000E0000DC100000A020D02FC01000206024402DA
:1000F000110215021B021F02230229022D023102E6
:10010000440237023B023F02EF03F403F903030406
:100110000D04860417041F04270431043B0445041E
:1001200054045E048604680472047C04084AD73BC5
:100130003BCE016E84BCBFFDC12F3D6C74319ABDB6
:1001400056833DDA3D00C77F11BED9E4BB4C3E91DA
:100150006BAAAABE000000803F05A84CCDB2D44EC9
:10016000B93836A9020C50B9918688083CA6AAAACB
:100170002ABE000000803F0000002100240027006C
:100180002A002D00300033000101000004010701A6
:100190000A0100002200250028002B002E0031005B
:1001A000340002010000050108010B0100002000DD
:1001B0002300260029002C002F003200000100003F
:1001C00003010601090105050505070508080808DA
:1001D000020202020A0A08080404040401010101DF
:1001E00001010101030303030303030304070707DA
:1001F0000C0C0C0C0C0C0C0C02020202060606067F
:10020000060606060B0B0B0B0B0B0B0B010210204B
:10021000200808102040102040800201020108043C
:1002200002010102040810204080804020100804D0
:100230000201800402018040201008040201080429
:10024000020101020408102040800102040810206D
:10025000408000000A0B02090C0D0E080703040180
:10026000000000000000000000000000000000008E
:10027000000000000000000000000000000012115B
:10028000100000000000000000000000000000005E
:100290000000000000000000D01111241FBECFEFAD
:1002A000D1E2DEBFCDBF00E00CBF24E0A2E6B2E0A9
:1002B00001C01D92A739B207E1F712E0A0E0B2E059
:1002C000E6EAFCE200E00BBF02C007900D92A23606
:1002D000B107D9F711E0CDE4D1E000E006C02197E5
:1002E0000109802FFE010E944516CC34D10780E021
:1002F0000807A9F70E94B00C0C94511681CEFC019E
:10030000538D448D252F30E0842F90E0821B930B7A
:10031000541710F0CF96089501970895FC01918D20
:10032000828D981761F0828DDF01A80FB11D5D9657
:100330008C91928D9F5F9F73928F90E008958FEFC5
:100340009FEF0895FC01918D828D981731F0828D79
:10035000E80FF11D858D90E008958FEF9FEF0895D0
:10036000FC01918D228D892F90E0805C9F4F821B34
:1003700091098F739927089580E090E0892B19F0F7
:1003800020D6811120C080E090E0892B41F080E0F0
:1003900090E0892B21F00E940000811117C080E0BD
:1003A00090E0892B19F004D6811113C080E090E011
:1003B000892BA1F080E090E0892B81F00E94000061
:1003C00081110AC008950E940000DDCF0E94000044
:1003D000E6CF0E940000EACF0C940000089590E060
:1003E000FC013197E231F10508F04EC08827EE5844
:1003F000FF4F8F4F0C944516809180008F7703C07C
:10040000809180008F7D809380000895809180008E
:10041000877FF9CF84B58F7702C084B58F7D84BD87
:1004200008958091B0008F7703C08091B0008F7DD8
:100430008093B0000895809190008F7707C08091DD
:1004400090008F7D03C080919000877F8093900003
:1004500008958091A0008F7707C08091A0008F7DC4
:1004600003C08091A000877F8093A00008958091B1
:1004700020018F7707C0809120018F7D03C080917C
:100480002001877F8093200108953FB7F8948091E1
:10049000750290917602A0917702B091780226B50C
:1004A000A89B05C02F3F19F00196A11DB11D3FBFAC
:1004B000BA2FA92F982F8827820F911DA11DB11D3A
:1004C000BC01CD0142E0660F771F881F991F4A9536
:1004D000D1F708950895089580E090E008950E946E
:1004E0004D161F920F920FB60F9211240BB60F925A
:1004F0002F938F939F93EF93FF93E0919D02F09141
:100500009E028081E091A302F091A40282FD12C0BC
:1005100090818091A6028F5F8F732091A70282172E
:1005200051F0E091A602F0E0E357FD4F958F8093E4
:10053000A60201C08081FF91EF919F918F912F9131
:100540000F900BBE0F900FBE0F901F901895FC01DF
:10055000848DDF01A80FB11DA35ABF4F2C91848D4C
:1005600090E001968F739927848FA689B7892C9381
:10057000A089B1898C91837080648C93938D848DD4
:10058000981306C00288F389E02D80818F7D8083D7
:100590000895EF92FF920F931F93CF93DF93EC0197
:1005A00081E0888F9B8D8C8D981305C0E889F9892F
:1005B000808185FD25C0F62E0B8D10E00F5F1F4F4B
:1005C0000F731127E02E8C8DE8120BC00FB607FCBD
:1005D000FACFE889F989808185FFF5CFCE01B7DFB1
:1005E000F2CF8B8DFE01E80FF11DE35AFF4FF08231
:1005F0009FB7F8940B8FEA89FB89808180620AC0DB
:100600009FB7F894EE89FF896083E889F989808132
:100610008370806480839FBF81E090E0DF91CF9101
:100620001F910F91FF90EF900895CF93DF93EC010E
:10063000888D8823C1F0EA89FB89808185FD05C00A
:10064000A889B9898C9186FD0EC00FB607FCF5CF3D
:10065000808185FFF2CFA889B9898C9185FFEDCF84
:10066000CE0175DFE8CFDF91CF910895CF93DF936F
:10067000282F30E0F901EE5AFD4F8491F901E45F33
:10068000FD4FD491F901EA53FE4FC491CC2389F078
:100690008111A5DEEC2FF0E0EE0FFF1FE455FE4FB9
:1006A000A591B491EC91ED2381E090E021F480E0FC
:1006B00002C080E090E0DF91CF9108951F93CF9327
:1006C000DF93282F30E0F901EE5AFD4F8491F901B4
:1006D000E45FFD4FD491F901EA53FE4FC491CC235E
:1006E000B9F0162F81117BDEEC2FF0E0EE0FFF1F2B
:1006F000EE56FE4FA591B4919FB7F894111104C026
:100700008C91D095D82302C0EC91DE2BDC939FBF57
:10071000DF91CF911F910895CF93DF9390E0FC017B
:10072000E45FFD4F2491FC01EA53FE4F849188233E
:1007300061F190E0880F991FFC01E858FE4FC591C8
:10074000D491FC01EE56FE4FA591B491611109C000
:100750009FB7F8948881209582238883EC912E237B
:100760000BC0623061F49FB7F8948881322F3095C6
:1007700083238883EC912E2B2C939FBF06C08FB7C9
:10078000F894E8812E2B28838FBFDF91CF910895B5
:100790001F93CF93DF93182FEB0161E0BDDF20970C
:1007A00011F460E004C0CF3FD10531F461E0812F46
:1007B000DF91CF911F9182CFE12FF0E0EE5AFD4FF4
:1007C000E4918E2F90E0FC013197E231F10508F0C1
:1007D0009DC08827EC57FF4F8F4F0C94451684B56A
:1007E000806884BDC7BD97C084B5806284BDC8BD24
:1007F00092C080918000806880938000D0938900AF
:10080000C093880088C080918000806280938000BF
:10081000D0938B00C0938A007EC080918000886056
:1008200080938000D0938D00C0938C0074C0809121
:10083000B00080688093B000C093B3006CC080911A
:10084000B00080628093B000C093B40064C0809117
:100850009000806880939000D0939900C093980096
:100860005AC080919000806280939000D0939B004A
:10087000C0939A0050C0809190008860809390004F
:10088000D0939D00C0939C0046C08091A0008068DA
:100890008093A0008091A0008F7B8093A000D093D4
:1008A000A900C093A80037C08091A0008062809307
:1008B000A000D093AB00C093AA002DC08091A000EF
:1008C00088608093A000D093AD00C093AC0023C09B
:1008D00080912001806880932001D0932901C093EA
:1008E000280119C080912001806280932001D0935B
:1008F0002B01C0932A010FC0809120018860809352
:100900002001D0932D01C0932C0105C0C038D10522
:100910000CF04CCF46CFDF91CF911F9108958F926D
:100920009F92AF92BF92CF92DF92EF92FF926B01B4
:100930007C01ABDD4B015C01C114D104E104F10485
:10094000E9F0A3DDDC01CB0188199909AA09BB09EB
:10095000883E9340A105B10578F321E0C21AD10881
:10096000E108F10888EE880E83E0981EA11CB11CF6
:10097000C114D104E104F10421F7DECFFF90EF9020
:10098000DF90CF90BF90AF909F908F9008952FB73A
:10099000F89460917102709172028091730290914B
:1009A00074022FBF08951F920F920FB60F92112459
:1009B0002F933F938F939F93AF93BF938091710237
:1009C00090917202A0917302B09174023091700202
:1009D00023E0230F2D3720F40196A11DB11D05C082
:1009E00026E8230F0296A11DB11D2093700280936B
:1009F000710290937202A0937302B093740280917B
:100A0000750290917602A0917702B09178020196DA
:100A1000A11DB11D8093750290937602A093770279
:100A2000B0937802BF91AF919F918F913F912F9199
:100A30000F900FBE0F901F9018951F920F920FB638
:100A40000F9211240BB60F922F933F934F935F9306
:100A50006F937F938F939F93AF93BF93EF93FF9386
:100A6000E0910E02F0910F021995FF91EF91BF9165
:100A7000AF919F918F917F916F915F914F913F9136
:100A80002F910F900BBE0F900FBE0F901F901895D7
:100A90001F920F920FB60F9211240BB60F922F9345
:100AA0003F934F935F936F937F938F939F93AF93F6
:100AB000BF93EF93FF93E0910C02F0910D02199513
:100AC000FF91EF91BF91AF919F918F917F916F9126
:100AD0005F914F913F912F910F900BBE0F900FBEE2
:100AE0000F901F9018951F920F920FB60F9211241E
:100AF0000BB60F922F933F934F935F936F937F9318
:100B00008F939F93AF93BF93EF93FF93E091020274
:100B1000F09103021995FF91EF91BF91AF919F91D1
:100B20008F917F916F915F914F913F912F910F9096
:100B30000BBE0F900FBE0F901F9018951F920F9233
:100B40000FB60F9211240BB60F922F933F934F9332
:100B50005F936F937F938F939F93AF93BF93EF9325
:100B6000FF93E0910002F09101021995FF91EF913E
:100B7000BF91AF919F918F917F916F915F914F91B5
:100B80003F912F910F900BBE0F900FBE0F901F90B3
:100B900018951F920F920FB60F9211240BB60F9259
:100BA0002F933F934F935F936F937F938F939F9375
:100BB000AF93BF93EF93FF93E0910A02F0910B0282
:100BC0001995FF91EF91BF91AF919F918F917F9177
:100BD0006F915F914F913F912F910F900BBE0F90AE
:100BE0000FBE0F901F9018951F920F920FB60F9285
:100BF00011240BB60F922F933F934F935F936F93F4
:100C00007F938F939F93AF93BF93EF93FF93E09165
:100C10000802F09109021995FF91EF91BF91AF91F0
:100C20009F918F917F916F915F914F913F912F9104
:100C30000F900BBE0F900FBE0F901F9018951F9234
:100C40000F920FB60F9211240BB60F922F933F9372
:100C50004F935F936F937F938F939F93AF93BF93C4
:100C6000EF93FF93E0910602F09107021995FF912F
:100C7000EF91BF91AF919F918F917F916F915F9114
:100C80004F913F912F910F900BBE0F900FBE0F9081
:100C90001F9018951F920F920FB60F9211240BB64A
:100CA0000F922F933F934F935F936F937F938F9305
:100CB0009F93AF93BF93EF93FF93E0910402F09162
:100CC00005021995FF91EF91BF91AF919F918F917F
:100CD0007F916F915F914F913F912F910F900BBE3C
:100CE0000F900FBE0F901F9018951F920F920FB686
:100CF0000F9211240F900FBE0F901F901895CF9355
:100D0000DF93EC0160E08881D9DC60E08A81D6DC89
:100D100060E08C81D3DC60E08E81D0DC60E088858F
:100D2000CDDC60E08A85DF91CF91C8CCCF93DF9393
:100D3000EC0160E08C81C2DC8C8198DC61E068278A
:100D40008E81BCDC888192DC892B21F560E470E027
:100D500088811EDD64E170E080E090E0E0DD60E825
:100D600070E0888115DD64E170E080E090E0D7DD1F
:100D700060EC70E088810CDD62E070E080E090E083
:100D8000CEDD6FEF70E0888103DD62E070E080E02F
:100D900090E0C5DD61E08881DF91CF918FCCCF936A
:100DA000DF93EC0161E0888589DC88855FDC61E0A8
:100DB00068278A8583DC8A8159DC892B39F560E4D0
:100DC00070E08A81E5DC64E170E080E090E0A7DD1E
:100DD00060E870E08A81DCDC64E170E080E090E053
:100DE0009EDD60EC70E08A81D3DC62E070E080E040
:100DF00090E095DD6FEF70E08A81CADC62E070E020
:100E000080E090E08CDD61E08A8158DC61E08A81DD
:100E1000DF91CF9153CCCF93DF93EC0161E08C81D4
:100E20004DDC8C8123DC61E068278E8147DC888182
:100E30001DDC892B21F560E470E08881A9DC64E188
:100E400070E080E090E06BDD60E870E08881A0DC1D
:100E500064E170E080E090E062DD60EC70E0888149
:100E600097DC62E070E080E090E059DD6FEF70E0C9
:100E700088818EDC62E070E080E090E050DD61E02F
:100E80008881DF91CF911ACCCF92DF92EF92FF92BF
:100E9000CF93DF93EC0161E088813EDC61E08881E3
:100EA0000DDC8BE891E00197F1F7EFDA6B017C0143
:100EB00060E0888131DC8881D9DB019761F0E5DA77
:100EC0006C197D098E099F09DF91CF91FF90EF90FA
:100ED000DF90CF900895D9DADC01CB018C199D0900
:100EE000AE09BF09883E9340A105B10520F3E7CFC5
:100EF000DC01ED91FD918081ED91FD919081ED916D
:100F0000FD916C9163708E2309F064609F2309F05A
:100F10006860E5E9F7E0E60FF11D659565956D936D
:100F20006D917D918D919D91099423C01AC012C03D
:100F300016C010C01EC009C014C013C006C019C01E
:100F400009C00DC007C00DC014C062507040804081
:100F500090400BC0615070408040904006C06E5F72
:100F600001C06F5F7F4F8F4F9F4F9E938E937E93F5
:100F70006E93089580916C0290916D02B9CF80912B
:100F80006A0290916B02B4CF8091680290916902DD
:100F9000AFCF8091660290916702AACF80916402E0
:100FA00090916502A5CF8091620290916302A0CFDB
:100FB00088EC93E0D5D921E0892B09F420E0822F39
:100FC00008958DE892E0CCD921E0892B09F420E046
:100FD000822F08951F920F920FB60F9211240BB615
:100FE0000F922F933F934F935F936F937F938F93C2
:100FF0009F93AF93BF93EF93FF9388EC93E0A7DAAF
:10100000FF91EF91BF91AF919F918F917F916F91E0
:101010005F914F913F912F910F900BBE0F900FBE9C
:101020000F901F9018951F920F920FB60F921124D8
:101030000BB60F922F938F939F93EF93FF93E091B3
:10104000D803F091D9038081E091DE03F091DF03B2
:1010500082FD12C090818091E1038F5F8F73209198
:10106000E203821751F0E091E103F0E0E853FC4F16
:10107000958F8093E10301C08081FF91EF919F9153
:101080008F912F910F900BBE0F900FBE0F901F905E
:1010900018951F920F920FB60F9211240BB60F9254
:1010A0002F933F934F935F936F937F938F939F9370
:1010B000AF93BF93EF93FF938DE892E048DAFF91EF
:1010C000EF91BF91AF919F918F917F916F915F91C0
:1010D0004F913F912F910F900BBE0F900FBE0F902D
:1010E0001F901895CF92DF92EF92FF920F931F936C
:1010F000CF93DF936C017A018B01C0E0D0E0CE1575
:10110000DF0581F0D8016D918D01D601ED91FC9143
:101110000190F081E02DC6011995892B11F02196DF
:10112000EECF7E01C701DF91CF911F910F91FF900C
:10113000EF90DF90CF900895CF92DF92EF92FF92E1
:10114000CF93DF93EC016A017B01E889F98982E0A2
:1011500080834115514E61057105B1F060E079E081
:101160008DE390E0A70196010E940714DA01C901FE
:101170000197A109B109B695A795979587959C0107
:10118000211580E13807A8F0E889F989108260E824
:1011900074E88EE190E0A70196010E940714DA013D
:1011A000C9010197A109B109B695A79597958795AA
:1011B0009C01EC85FD853083EE85FF852083188EAC
:1011C000EC89FD8986E08083EA89FB8980818061E2
:1011D0008083EA89FB89808188608083EA89FB8932
:1011E000808180688083EA89FB8980818F7D80830C
:1011F000DF91CF91FF90EF90DF90CF9008954F92C5
:101200005F926F927F928F929F92AF92BF92CF9296
:10121000DF92EF92FF920F931F93CF93DF93C091D2
:10122000C203D091C3038B85823020F4F894CE01A1
:101230005FDE01C0F8948F819885A985BA8578947E
:101240008093960390939703A0939803B093990388
:10125000C091C403D091C5038B85823020F4F894EB
:10126000CE0146DE01C0F8944F80588469847A84A8
:10127000789440929A0350929B0360929C037092E0
:101280009D03C0909603D0909703E0909803F09050
:1012900099034091A6035091A7036091A803709110
:1012A000A90397018601041B150B260B370BC901F7
:1012B000B80100939E0310939F032093A0033093E3
:1012C000A1038090AA039090AB03A090AC03B090D0
:1012D000AD03A3019201281939094A095B094901A3
:1012E0005A012093A2033093A3034093A403509385
:1012F000A503C092A603D092A703E092A803F092A0
:10130000A9034092AA035092AB036092AC0370927F
:10131000AD030E94F41228E431EE4AE951E40E9440
:10132000D2146B017C0160938E0370938F038093C2
:10133000900390939103C501B4010E94F4122AE036
:1013400037ED49E951E40E94D2142B013C0160932E
:1013500092037093930380939403909395039B015E
:10136000AC01C701B6010E94431420E030E040E028
:101370005FE30E9453134B015C01A3019201C7017B
:10138000B6010E9442142091100230911102409146
:101390001202509113020E94D21420917E033091C8
:1013A0007F0340918003509181030E9443146B019D
:1013B0007C012BED3FE049EC50E40E94D2140E94E6
:1013C0003A15072E000C880B990B0E94F4122BED96
:1013D0003FE049EC50E40E9453139B01AC01C7016C
:1013E000B6010E9442146B017C0160937E037093EE
:1013F0007F03809380039093810320E030E044E3F7
:1014000053E40E9453132BED3FE049E450E40E9463
:10141000D214609382037093830380938403909328
:101420008503C701B6010E94CF149B01AC01C50121
:10143000B4010E9453139B01AC0160918A03709127
:101440008B0380918C0390918D030E9443146093D1
:101450008A0370938B0380938C0390938D03C70151
:10146000B6010E94D4159B01AC01C501B4010E94D4
:1014700053139B01AC0160918603709187038091A7
:101480008803909189030E944314609386037093AC
:1014900087038093880390938903DF91CF911F91F5
:1014A0000F91FF90EF90DF90CF90BF90AF909F9003
:1014B0008F907F906F905F904F9008958F929F9242
:1014C000AF92BF92CF92DF92EF92FF92CF93DF93D2
:1014D0004B015C01C12CD12C8AE7E82E83E4F82E65
:1014E00020917603309177034091780350917903EE
:1014F000C501B4010E9443149B01AC0160918203B9
:101500007091830380918403909185030E94EE1271
:10151000181694F074DEC0921002D0921102E0927C
:101520001202F0921302C091C603D091C703CE01FC
:1015300036DCCE01FBDBD4CF80E090E8ADE5B3E450
:101540008093100290931102A0931202B0931302A1
:101550008091C6039091C703DF91CF91FF90EF90E8
:10156000DF90CF90BF90AF909F908F90C8CB0F939C
:101570001F930DDA60939502709396028093970201
:10158000909398028DE892E00E94A20197FF1EC0FE
:10159000FED9009195021091960220919702309108
:1015A0009802DC01CB01801B910BA20BB30B0091C5
:1015B000910210919202209193023091940280172F
:1015C0009107A207B307F0F28FEF9FEF1F910F91E2
:1015D00008958F929F92AF92BF92CF92DF92EF9237
:1015E000FF92CF93DF93C3DFFC0197FD0EC08D32D6
:1015F000910579F0C0970A9760F0EE32F10549F055
:101600008DE892E00E948E01EECF60E070E0CB01A9
:1016100068C0812C912C80E8A82E8FE3B82EC12CB5
:10162000D12C7601C0E0D0E0E130F10569F1ED3276
:10163000F10539F1EE32F10531F1CF01C0970A978A
:1016400018F5AAE0B0E0A70196010E9429146F01E5
:10165000FF0FEE08FF08C60ED71EE81EF91E80E336
:10166000C81AD108E108F108CC2371F02DEC3CEC4C
:101670004CEC5DE3C501B4010E9453134B015C01C6
:1016800003C0D1E001C0C1E08DE892E00E948E016C
:101690006EDFFC01C0970A9738F2EE32F10519F4BB
:1016A000C1111CC0C1CFE130F10509F4BDCFDD236C
:1016B00041F0F094E094D094C094C11CD11CE11C82
:1016C000F11CCC2339F0C701B6018ED7A5019401D6
:1016D000EAD707C0C701B60187D703C0D111E9CF48
:1016E000F2CFDF91CF91FF90EF90DF90CF90BF903E
:1016F000AF909F908F9008956115710579F0FB016F
:1017000001900020E9F73197AF01461B570BDC0130
:10171000ED91FC910280F381E02D199480E090E03E
:1017200008958F929F92AF92BF92EF92FF920F9384
:101730001F93CF93DF93CDB7DEB7A1970FB6F89481
:10174000DEBF0FBECDBF7C01FA01CB0119A2223052
:1017500008F42AE08E010F5D1F4F822E912CA12CE0
:10176000B12CBF01A50194010E940714F901CA011F
:10177000015011096A3014F4605D01C0695CD80140
:101780006C93232B242B252B61F7B801C701B4DF01
:10179000A1960FB6F894DEBF0FBECDBFDF91CF91FB
:1017A0001F910F91FF90EF90BF90AF909F908F90FF
:1017B0000895823109F466C0B8F4823069F183304B
:1017C00009F073C070936502609364028EEC97E039
:1017D000909303028093020280916A00837F846069
:1017E00080936A00ED9A5FC0843141F1C8F1853180
:1017F00009F05BC0709367026093660289EC97E022
:101800009093050280930402809169008C7F81602F
:1018100080936900E89A47C0709363026093620204
:1018200083ED97E0909301028093000280916A001B
:101830008C7F816080936A00EC9A35C07093690256
:101840006093680284EC97E090930702809306020D
:1018500080916900837F846080936900E99A23C046
:1018600070936B0260936A028FEB97E0909309028A
:1018700080930802809169008F7C80618093690069
:10188000EA9A11C070936D0260936C028AEB97E044
:1018900090930B0280930A02809169008F73806499
:1018A00080936900EB9A81E0089580E008950F939A
:1018B0001F93CF93DF93EC01062F142F62E0802F4C
:1018C0000E948C0362E0812F0E948C03802F90E0A5
:1018D000FC01EA53FE4FE491F0E0EE0FFF1FE455E8
:1018E000FE4FA591B491B983A883FC01E45FFD4F3D
:1018F00024912C83812F90E0FC01EA53FE4FE49168
:10190000F0E0EE0FFF1FE455FE4F459154915B83CD
:101910004A83FC01E45FFD4F94919D831F821886EA
:1019200019861A86EBE3FFE13197F1F7EC91E22398
:1019300031E009F430E0DA01EC91E92309F032609A
:101940003E83BE01802F35DF8B87BE01812F31DFC3
:101950009B85890F8B87DF91CF911F910F91089500
:10196000CF93DF93CDB7DEB7A6970FB6F894DEBF5F
:101970000FBECDBF789484B5826084BD84B581608C
:1019800084BD85B5826085BD85B5816085BD80914A
:101990006E00816080936E001092810080918100C2
:1019A00082608093810080918100816080938100BA
:1019B000809180008160809380008091B10084607C
:1019C0008093B1008091B00081608093B0008091DD
:1019D000910082608093910080919100816080935A
:1019E0009100809190008160809390008091A1008F
:1019F00082608093A1008091A10081608093A1000A
:101A00008091A00081608093A0008091210182607C
:101A10008093210180912101816080932101809137
:101A2000200181608093200180917A0084608093FE
:101A30007A0080917A00826080937A0080917A00A7
:101A4000816080937A0080917A00806880937A0028
:101A50001092C10010926E0310926F0310927003E7
:101A60001092710310922C0310922D0310922E03EA
:101A700010922F030E94C7046B017C014B015C0193
:101A800028EB820E2BE0921EA11CB11C0E94C70401
:101A90006C157D058E059F0528F086169706A8060D
:101AA000B906A0F78DE892E090936D0380936C03E4
:101AB00040E056E960E070E03FDB0E94C7046093BD
:101AC0002C0370932D0380932E0390932F0366E2D3
:101AD00072E080916C0390916D030EDE0E94C7044A
:101AE0006B017C014B015C013AE0830E911CA11C4F
:101AF000B11C0E94C7046C157D058E059F0528F05A
:101B000086169706A806B906A0F781E080934003E1
:101B100040E056E960E070E08DE892E00DDB40E8DF
:101B200055E260E070E088EC93E006DB68E372E089
:101B30008DE892E0E1DD65E372E08DE892E0DCDDC6
:101B400010928802109287021092860210928502EB
:101B500002E010E022242394312C0E94C704672B5A
:101B6000682B692B41F40E94C7046230710581051E
:101B7000910508F408C10E94C704C0908902D09062
:101B80008A02E0908B02F0908C026C157D058E0528
:101B90009F0540F46093890270938A0280938B02C0
:101BA00090938C02C0908902D0908A02E0908B02C0
:101BB000F0908C029B01AC012C193D094E095F0984
:101BC00069017A013AEFC316D104E104F10408F483
:101BD000DAC06093890270938A0280938B0290939B
:101BE0008C0284EF91E0A0E0B0E080933803909302
:101BF0003903A0933A03B0933B0310923C03109235
:101C00003D0310923E0310923F0380913003909168
:101C10003103A0913203B091330380933403909346
:101C20003503A0933603B09337030E94C704609333
:101C300030037093310380933203909333030E94F7
:101C4000C70460932C0370932D0380932E0390930D
:101C50002F030E94C7046B017C016BE472E080914A
:101C60006C0390916D0348DD2AE041E050E060E0B4
:101C700070E080916C0390916D0353DD62E572E03A
:101C800080916C0390916D0337DD2AE0B701A601C6
:101C900080916C0390916D0344DD64E572E0809166
:101CA0006C0390916D0328DD809130039091310396
:101CB000A0913203B0913303B701A601481B590B21
:101CC0006A0B7B0B2AE080916C0390916D0329DDF8
:101CD00064E572E080916C0390916D030DDD40919D
:101CE000300350913103609132037091330380913E
:101CF000340390913503A0913603B0913703481B0C
:101D0000590B6A0B7B0B2AE080916C0390916D0359
:101D100008DD66E572E080916C0390916D03ECDC68
:101D20000E94C704AB01BC012AE080916C03909132
:101D30006D03F7DCE0906C03F0906D0368E572E0F2
:101D4000C701DADC65E372E0C701D6DC0E94C70494
:101D50004B015C016B017C0192E0C90ED11CE11CBE
:101D6000F11C0E94C704681579058A059B0508F0D7
:101D700010C30E94C70460933003709331038093B3
:101D800032039093330380918702909188028130CF
:101D9000910509F4A8C020F0029709F457C1F6C2D2
:101DA0008CE0E5E6F4E0DE011F9601900D928A9545
:101DB000E1F780917304909174049E8F8D8F8091D0
:101DC0007104909172049C8F8B8FCE014D965CD8DC
:101DD0006C3271408105910508F049C0CE010F9623
:101DE0001AD860E08F890E945E038F890E943603B3
:101DF00061E06827898D0E945E0389890E9436030D
:101E0000892B81F560E470E089890E94C80364E150
:101E100070E080E090E00E948F0460E870E08989C3
:101E20000E94C80364E170E080E090E00E948F04AB
:101E300060EC70E089890E94C80362E070E080E095
:101E400090E00E948F046FEF70E089890E94C803C0
:101E500062E070E080E090E00E948F0461E0898998
:101E60000E945E0361E089890E945E0319C0CE0171
:101E70004B960AD86C3271408105910548F4CE0129
:101E80000F960E94CF06CE010F960E94960608C0BC
:101E9000CE010F960E940B07CE010F960E94CF062F
:101EA00020919203309193034091940350919503B4
:101EB00060918E0370918F038091900390919103B4
:101EC000E2D420E030E040E05FE3EDD320E030E01A
:101ED0004FEA53E45ED618160CF0B3C03092880275
:101EE0002092870253C285E694E00E947F06E0912B
:101EF000C203F091C303F8941782108611861286EC
:101F00007894E091C403F091C503F8941782108689
:101F10001186128678941092A6031092A70310924D
:101F2000A8031092A9031092AA031092AB03109277
:101F3000AC031092AD0310927E0310927F031092B7
:101F400080031092810360E070E084EB92E4B6DAE3
:101F500060ED77E080E090E00E948F046FE572E032
:101F60008DE892E0C9DB8DE892E00E94B00118167E
:101F700019060CF04EC08DE892E00E94A201CA97AB
:101F800009F040C08DE892E00E948E018DE892E059
:101F90000E94B00118161906CCF7E9DA97FD19C0AE
:101FA0008D32910551F0C0970A9738F08DE892E094
:101FB0000E948E01F2CF019761F48DE892E00E94B9
:101FC0008E01D5DA9C01205331092A303105A8F35E
:101FD000F2CF8DE892E00E94B00118161906CCF7F6
:101FE000F8DA8DE892E00E94B00118161906CCF7D5
:101FF000F0DA8DE892E00E94B00118161906CCF7CD
:10200000E8DA07C08DE892E00E94B00118161906C0
:10201000CCF38EE0FE013196A9E7B2E001900D927B
:102020008A95E1F78091850290918602019729F4C3
:102030001093880200938702A9C160E070E0CB0191
:102040003DDA1092880210928702A0C140907E0370
:1020500050907F03609080037090810320917902FB
:1020600030917A0240917B0250917C022F8F38A3ED
:1020700049A35AA3C0908102D0908202E0908302CB
:10208000F0908402C301B2018AD44B015C01C30108
:10209000B2018AD56BA37CA38DA39EA3A501940155
:1020A0006F8D78A189A19AA1FED22B013C012BA1B1
:1020B0003CA14DA15EA1C701B601F5D29B01AC01C7
:1020C000C301B201E0D320918A0330918B03409188
:1020D0008C0350918D03D6D32B013C01A5019401B3
:1020E000C701B601E0D26B017C012BA13CA14DA13F
:1020F0005EA16F8D78A189A19AA1D5D29B01AC0177
:10210000C701B601BFD32091860330918703409168
:10211000880350918903B6D36093AE037093AF03E5
:102120008093B0039093B1034092B2035092B303F3
:102130006092B4037092B5038091C6039091C70377
:102140000E947F0620918603309187034091880387
:10215000509189036091AE037091AF038091B003F9
:102160009091B1038FD36B017C0120918A03309150
:102170008B0340918C0350918D036091B203709159
:10218000B3038091B4039091B5037CD34B015C0100
:10219000A7019601C701B60186D22B013C01A5011A
:1021A0009401C501B4017FD29B01AC01C301B2010E
:1021B0006AD304D56093BA037093BB038093BC03C6
:1021C0009093BD032CEA35EC47E257E3C701B60113
:1021D000E0D4181694F4A7019601C501B401E2D326
:1021E000B6D326EE3EE245E652E45DD29B01AC0159
:1021F00060E070E084EB92E41FC02CEA35EC47E22B
:1022000057EBC701B601EAD187FF1FC0A7019601AE
:10221000C501B401C7D39BD326EE3EE245E652E4A6
:1022200042D220E030E044EB52E42DD39B01AC01DC
:1022300060E070E084EB93E425D36093B603709381
:10224000B7038093B8039093B9038090B60390903E
:10225000B703A090B803B090B903209182033091E6
:1022600083034091840350918503C501B4010AD3CF
:102270006B017C0120E030E044E353E48AD418167B
:1022800044F420E030E044EB53E4C701B601FAD255
:1022900019C020E030E044E353ECC701B6019ED101
:1022A00087FD09C0C092BE03D092BF03E092C00375
:1022B000F092C1030FC020E030E044EB53E4C701CB
:1022C000B601E1D26093BE037093BF038093C00355
:1022D0009093C103C501B401F1D823E333E343E391
:1022E0005FE360917A0370917B0380917C0390910E
:1022F0007D03D9D14B015C01609186037091870306
:102300008091880390918903C0908A03D0908B03B9
:10231000E0908C03F0908D039B01AC01C4D12B01A4
:102320003C01A7019601C701B601BDD19B01AC01DB
:10233000C301B201A8D242D49B01AC01C501B401D2
:1023400028D487FD0DC00E94FF08E090C603F090DE
:10235000C703C7010E940B07C7010E94CF06CCCF5D
:102360008091C6039091C7030E947F061092AE032E
:102370001092AF031092B0031092B1031092B20307
:102380001092B3031092B4031092B5030E94BC01E3
:10239000E4CBC616D706E806F90608F0E2CCE9CC8D
:1023A0000F931F93CF93DF93C8ECD3E01B821A8265
:1023B00048EE53E060E070E04C835D836E837F8382
:1023C00088E192E09983888325ED30E03D872C8772
:1023D00024ED30E03F872E8720ED30E0398B288BCD
:1023E00021ED30E03B8B2A8B22ED30E03D8B2C8BB6
:1023F00026ED30E03F8B2E8B198E1A8E1B8E1C8E95
:10240000EDE8F2E01382128244835583668377837A
:102410009183808385EC90E09587848784EC90E0BD
:102420009787868780EC90E0918B808B81EC90E0A1
:10243000938B828B82EC90E0958B848B86EC90E082
:10244000978B868B118E128E138E148EEAE2F3E038
:1024500016821782108611861286138614861586B8
:1024600016861786108A118A128A138A148A158A88
:102470008DE090E090937404809373048CE090E07E
:10248000909372048093710461E086E00E948C0353
:1024900061E087E00E948C0361E08AE00E948C0387
:1024A00061E08BE00E948C0361E088E00E948C0375
:1024B00061E089E00E948C0305E614E086E090E08C
:1024C000F8019183808387E090E0938382838AE0A0
:1024D00090E0958384838BE090E09783868388E007
:1024E00090E09187808789E090E093878287EDE88C
:1024F000F4E08FEF80831282118214821782168299
:10250000158281E08383D187C08745E164E181E85A
:1025100094E0CDD942E163E185E794E0C8D9E2E7F0
:10252000F3E01486158616861786108A118A128A99
:10253000138A148A158A168A178A108E118E128EA3
:10254000138E148E158E168E178E10A211A212A243
:1025500013A214A215A216A217A210A611A612A6C3
:1025600013A614A615A616A617A610AA11AA12AA93
:1025700013AA14AA15AA16AA17AA10AE11AE12AE63
:1025800013AE1092B6031092B7031092B8031092D4
:10259000B9031092BA031092BB031092BC031092BD
:1025A000BD031092BE031092BF031092C00310929D
:1025B000C10381E894E09093C3038093C20385E74D
:1025C00094E09093C5038093C4031093C7030093D2
:1025D000C603DF91CF911F910F91089540D008F469
:1025E00081E00895E89409C097FB3EF490958095AA
:1025F000709561957F4F8F4F9F4F9923A9F0F92FC9
:1026000096E9BB279395F695879577956795B79546
:10261000F111F8CFFAF4BB0F11F460FF1BC06F5F2C
:102620007F4F8F4F9F4F16C0882311F096E911C03E
:10263000772321F09EE8872F762F05C0662371F05F
:1026400096E8862F70E060E02AF09A95660F771F73
:10265000881FDAF7880F9695879597F90895990F4F
:102660000008550FAA0BE0E8FEEF16161706E8075C
:10267000F907C0F012161306E407F50798F0621B7D
:10268000730B840B950B39F40A2661F0232B242B52
:10269000252B21F408950A2609F4A140A6958FEF71
:1026A000811D811D08950BD078C069D028F06ED0AF
:1026B00018F0952309F05AC05FC01124A2C07ED043
:1026C000A0F3959FD1F3950F50E0551F629FF00145
:1026D000729FBB27F00DB11D639FAA27F00DB11D9E
:1026E000AA1F649F6627B00DA11D661F829F222727
:1026F000B00DA11D621F739FB00DA11D621F839FAE
:10270000A00D611D221F749F3327A00D611D231F83
:10271000849F600D211D822F762F6A2F11249F57D1
:1027200050408AF0E1F088234AF0EE0FFF1FBB1FF4
:10273000661F771F881F91505040A9F79E3F510593
:1027400070F014C05EC05F3FECF3983EDCF38695FA
:1027500077956795B795F795E7959F5FC1F7FE2B3E
:10276000880F911D9695879597F9089597F99F671A
:1027700080E870E060E008959FEF80EC0895002409
:102780000A941616170618060906089500240A94D6
:1027900012161306140605060895092E0394000C5C
:1027A00011F4882352F0BB0F40F4BF2B11F460FFEB
:1027B00004C06F5F7F4F8F4F9F4F089557FD905814
:1027C000440F551F59F05F3F71F04795880F97FBF5
:1027D000991F61F09F3F79F08795089512161306AF
:1027E0001406551FF2CF4695F1DF08C016161706DE
:1027F0001806991FF1CF8695710561050894089513
:10280000E894BB2766277727CB0197F90895A1E2C3
:102810001A2EAA1BBB1BFD010DC0AA1FBB1FEE1F5A
:10282000FF1FA217B307E407F50720F0A21BB30BA5
:10283000E40BF50B661F771F881F991F1A9469F721
:1028400060957095809590959B01AC01BD01CF017D
:10285000089509D0A59F900DB49F900DA49F800D61
:10286000911D11240895A29FB001B39FC001A39FA1
:10287000700D811D1124911DB29F700D811D1124B9
:10288000911D08955058BB27AA270ED086CF77DF19
:1028900030F07CDF20F031F49F3F11F41EF46CCF58
:1028A0000EF4E095E7FB62CFE92F88DF80F3BA17DB
:1028B000620773078407950718F071F49EF5A0CF9F
:1028C0000EF4E0950B2EBA2FA02D0B01B90190014B
:1028D0000C01CA01A0011124FF27591B99F0593F8F
:1028E00050F4503E68F11A16F040A22F232F342FD7
:1028F0004427585FF3CF469537952795A795F04025
:102900005395C9F77EF41F16BA0B620B730B840B39
:10291000BAF09150A1F0FF0FBB1F661F771F881FF1
:10292000C2F70EC0BA0F621F731F841F48F4879549
:1029300077956795B795F7959E3F08F0B3CF939538
:10294000880F08F09927EE0F979587950895DF93E4
:10295000DD27B92FBF7740E85FE316161706480753
:102960005B0710F4D92F19D19F938F937F936F93A7
:1029700063D1ECE2F1E0AFD010DF2F913F914F91A6
:102980005F919DDEDD2349F09058A2EA2AED3FE0F9
:1029900049EC5FE3D0785D2787DFDF91FECEC1D0C1
:1029A000E395E6C00CD0F9CEF1DE40F0E8DE30F081
:1029B00021F45F3F19F0DACE511123CFDDCEFEDED8
:1029C00098F39923C9F35523B1F3951B550BBB27F6
:1029D000AA2762177307840738F09F5F5F4F220FA3
:1029E000331F441FAA1FA9F333D00E2E3AF0E0E89C
:1029F00030D091505040E695001CCAF729D0FE2FE8
:102A000027D0660F771F881FBB1F26173707480779
:102A1000AB07B0E809F0BB0B802DBF01FF2793582F
:102A20005F4F2AF09E3F510568F0A0CEEACE5F3F8F
:102A3000ECF3983EDCF3869577956795B795F79517
:102A40009F5FC9F7880F911D9695879597F908950F
:102A5000E1E0660F771F881FBB1F621773078407AB
:102A6000BA0720F0621B730B840BBA0BEE1F88F7BA
:102A7000E095089504D06894B111C3CE0895A6DE00
:102A800088F09F5790F0B92F9927B751A0F0D1F057
:102A9000660F771F881F991F1AF0BA95C9F712C0E1
:102AA000B13081F0ADDEB1E00895AACE672F782F66
:102AB0008827B85F39F0B93FCCF38695779567954D
:102AC000B395D9F73EF490958095709561957F4FB9
:102AD0008F4F9F4F0895DF93CF931F930F93FF92D4
:102AE000EF92DF927B018C01689405C0DA2EEF0132
:102AF000E6DDFE01E894A59125913591459155912A
:102B0000AEF3EF01D1DEFE019701A801DA9479F767
:102B1000DF90EF90FF900F911F91CF91DF9108957B
:102B20002BCE54DEE8F3E894E0E0BB279F57F0F0AB
:102B30002AED3FE049EC06C0EE0FBB0F661F771F82
:102B4000881F28F0B23A62077307840728F0B25A48
:102B5000620B730B840BE3959A9572F7803830F40F
:102B60009A95BB0F661F771F881FD2F7904869C0E0
:102B7000EF93E0FF06C0A2EA2AED3FE049EC5FEBED
:102B800093DE0BDE0F90039401FC9058E9E5F1E031
:102B90006BC065DD08F48FEF08959B01AC0160E028
:102BA00070E080E89FE3FECE9F93BBDF0F9007FCB1
:102BB000EE5FDECF11F40EF4DFCD41C007DED0F3BF
:102BC0009923D9F3CEF39F57550B87FF46D00024A6
:102BD000A0E640EA900180585695979528F4805CCD
:102BE000660F771F881F20F026173707480730F435
:102BF000621B730B840B202931294A2BA69517944D
:102C00000794202531254A2758F7660F771F881F1C
:102C100020F026173707480730F4620B730B840B3C
:102C2000200D311D411DA09581F7B901842F9158C8
:102C3000880F9695879508959B01AC0134CD9F3FF1
:102C400031F0915020F4879577956795B795880F67
:102C5000911D9695879597F9089591505040660F6C
:102C6000771F881FD2F708959F938F937F936F9359
:102C7000FF93EF939B01AC0116DDEF91FF912BDFEA
:102C80002F913F914F915F910ECDEE0FFF1F881F47
:102C90008BBF0790F691E02D199481E090E0F894B5
:062CA00000C0F894FFCF14
:102CA6006A026A026A026A026A026A026A026A02BE
:102CB60000805D4300000000C90272087F01150311
:102CC600B0018E01A201564D4450565F317C315FF2
:102CD600564D4450560D0A0043757272656E742047
:102CE600506F736974696F6E3A2000564D445045B3
:102CF6005F003A323A007C005F564D44504500531F
:022D06000000CB
:020000023000CC
:10E000000D9489F10D94B2F10D94B2F10D94B2F129
:10E010000D94B2F10D94B2F10D94B2F10D94B2F1F0
:10E020000D94B2F10D94B2F10D94B2F10D94B2F1E0
:10E030000D94B2F10D94B2F10D94B2F10D94B2F1D0
:10E040000D94B2F10D94B2F10D94B2F10D94B2F1C0
:10E050000D94B2F10D94B2F10D94B2F10D94B2F1B0
:10E060000D94B2F10D94B2F10D94B2F10D94B2F1A0
:10E070000D94B2F10D94B2F10D94B2F10D94B2F190
:10E080000D94B2F10D94B2F10D94B2F10D94B2F180
:10E090000D94B2F10D94B2F10D94B2F10D94B2F170
:10E0A0000D94B2F10D94B2F10D94B2F10D94B2F160
:10E0B0000D94B2F10D94B2F10D94B2F10D94B2F150
:10E0C0000D94B2F10D94B2F10D94B2F10D94B2F140
:10E0D0000D94B2F10D94B2F10D94B2F10D94B2F130
:10E0E0000D94B2F141546D656761323536300041AF
:10E0F000726475696E6F206578706C6F72657220DE
:10E1000073746B3530305632206279204D4C530099
:10E11000426F6F746C6F616465723E004875683F52
:10E1200000436F6D70696C6564206F6E203D200048
:10E130004350552054797065202020203D20005FF9
:10E140005F4156525F415243485F5F3D2000415658
:10E1500052204C696243205665723D20004743437C
:10E160002056657273696F6E203D20004350552024
:10E1700049442020202020203D20004C6F7720663D
:10E18000757365202020203D20004869676820665F
:10E190007573652020203D200045787420667573D6
:10E1A00065202020203D20004C6F636B2066757336
:10E1B000652020203D20004D617220203720323024
:10E1C000313300312E362E3800342E332E350056A2
:10E1D00023202020414444522020206F7020636F70
:10E1E00064652020202020696E73747275637469E1
:10E1F0006F6E2061646472202020496E74657272B3
:10E20000757074006E6F20766563746F7200726A49
:10E210006D702020006A6D70200057686174207056
:10E220006F72743A00506F7274206E6F7420737541
:10E2300070706F72746564004D7573742062652030
:10E2400061206C6574746572002000577269747483
:10E25000696E672045450052656164696E672045B7
:10E26000450045452065727220636E743D00504F35
:10E27000525400303D5A65726F2061646472003FF1
:10E280003D43505520737461747300403D454550C3
:10E29000524F4D207465737400423D426C696E6B41
:10E2A000204C454400453D44756D70204545505215
:10E2B0004F4D00463D44756D7020464C415348001B
:10E2C000483D48656C70004C3D4C69737420492F83
:10E2D0004F20506F72747300513D51756974005234
:10E2E0003D44756D702052414D00563D73686F7707
:10E2F00020696E7465727275707420566563746FF0
:10E30000727300593D506F727420626C696E6B00BD
:10E310002A0011241FBECFEFD1E2DEBFCDBF01E046
:10E320000CBF12E0A0E0B2E0EEE1FDEF03E00BBFB6
:10E3300002C007900D92A030B107D9F712E0A0E01B
:10E34000B2E001C01D92AE30B107E1F70F9460F367
:10E350000D948DFE01E20EBF0FEF0DBF11241FBE05
:10E360000D9460F30D9400F020E030E040ED57E0B4
:10E3700005C0FA013197F1F72F5F3F4F2817390792
:10E38000C0F308959C01260F311DC901A0E0B0E043
:10E390002F5F3F4FABBFFC018791882361F08093D3
:10E3A000C6008091C00086FFFCCF8091C0008064D1
:10E3B0008093C000EACF08958DE08093C6008091DD
:10E3C000C00086FFFCCF8091C00080648093C000B5
:10E3D0008AE08093C6008091C00086FFFCCF8091C8
:10E3E000C00080648093C00008950F94C2F10F9420
:10E3F000DCF10895FC019081992359F09093C600B7
:10E400008091C00086FFFCCF8091C0008064809323
:10E41000C0003196992379F70895282F982F929567
:10E420009F70892F805D8A3308F0895F8093C600D2
:10E430008091C00086FFFCCF8091C00080648093F3
:10E44000C000822F8F70982F905D9A3308F0995FEB
:10E450009093C6008091C00086FFFCCF8091C000E1
:10E4600080648093C00008959C01FB01853691056E
:10E470001CF46330710594F0C90164E670E00F94F8
:10E480002EFE605D7F4F6093C6008091C00086FFC6
:10E49000FCCF8091C00080648093C0002B30310598
:10E4A00014F43297B4F0C90164E670E00F942EFEC4
:10E4B0006AE070E00F942EFE605D7F4F6093C600AF
:10E4C0008091C00086FFFCCF8091C0008064809363
:10E4D000C000C9016AE070E00F942EFEC0968093E0
:10E4E000C6008091C00086FFFCCF8091C000806490
:10E4F0008093C00008951F93182F8EE692EE60E07F
:10E500000F94C2F11093C6008091C00086FFFCCF2B
:10E510008091C00080648093C0000F94DCF11F9153
:10E5200008952F923F924F925F926F927F928F92B7
:10E530009F92AF92BF92CF92DF92EF92FF920F9392
:10E540001F93DF93CF93CDB7DEB762970FB6F894E2
:10E55000DEBF0FBECDBF382E622ECA01DB015C01CB
:10E560006D01772420E2222E2E010894411C511CBB
:10E570008BC081E0A81680E0B80681E0C80680E084
:10E58000D80628F0C601AA27BB270F940DF2BB2797
:10E59000AD2D9C2D8B2D0F940DF28A2D0F940DF225
:10E5A0002092C6008091C00086FFFCCF8091C00001
:10E5B00080648093C0009DE29093C6008091C0006B
:10E5C00086FFFCCF8091C00080648093C0002092C1
:10E5D000C6008091C00086FFFCCF8091C00080649F
:10E5E0008093C00019828601750188249924A1E0D6
:10E5F0003A1651F03A1620F0B2E03B1661F409C029
:10E600000BBFF701779007C0C7010F9477FE782EF4
:10E6100002C0F7017080872D0F940DF22092C60082
:10E620008091C00086FFFCCF8091C0008064809301
:10E63000C000872D8052F401EF70F0708F3520F408
:10E64000E40DF51D708204C0E40DF51D8EE280839B
:10E650000894E11CF11C011D111D0894811C911CE2
:10E6600090E18916910409F0C2CF80E190E0A0E02A
:10E67000B0E0A80EB91ECA1EDB1E198AC2010F9493
:10E68000FAF10F94DCF16A94662009F072CF629679
:10E690000FB6F894DEBF0FBECDBFCF91DF911F91B3
:10E6A0000F91FF90EF90DF90CF90BF90AF909F9031
:10E6B0008F907F906F905F904F903F902F90089534
:10E6C0002F923F924F925F926F927F928F929F9282
:10E6D000AF92BF92CF92DF92EF92FF920F931F9370
:10E6E000DF93CF93CDB7DEB7CD53D1400FB6F894BB
:10E6F000DEBF0FBECDBF01E20EBF0FEF0DBF94B75F
:10E70000F894A89514BE80916000886180936000A1
:10E7100010926000789493FF05C0E0910002F091A0
:10E7200001021995279A2F9A8091C00082608093E8
:10E73000C00080E18093C40088E18093C1000000A4
:10E74000EE24FF24870144E0A42EB12CCC24DD2448
:10E7500024C0C5010197F1F70894E11CF11C011DCB
:10E76000111D21E2E2162EE4F20620E0020720E06D
:10E77000120718F031E0C32ED12CC801B70127ECE5
:10E780003BE140E050E00F9441FE611571058105C9
:10E79000910519F485B1805885B98091C00087FD35
:10E7A00003C0C114D104A9F2A6014F5F5F4FC25E3E
:10E7B000DE4F59834883CE51D140C25EDE4F8881FF
:10E7C0009981CE51D140019711F00D9410FEC05D9A
:10E7D000DE4F19821882C053D14060E0C15DDE4F28
:10E7E0001882CF52D14088249924C35DDE4F19820C
:10E7F0001882CD52D140C05EDE4F188219821A8233
:10E800001B82C052D140CE5CDE4F188219821A8220
:10E810001B82C253D140EE24FF2487010BBFF701B6
:10E8200007911691C45CDE4F19830883CC53D14005
:10E830000D940BFEC25EDE4F28813981CE51D1404E
:10E840002130310509F52091C600C25EDE4F1982E4
:10E850001882CE51D14022C02F5F3F4F4F4F5F4FA4
:10E86000213082E138078AE7480780E0580780F0C6
:10E87000C45CDE4FE881F981CC53D140EF5FFF4F9C
:10E8800019F0EE27FF27099420E030E040E050E047
:10E890008091C00087FFE0CF2091C600C35DDE4FAE
:10E8A00048815981CD52D1404F5F5F4FC35DDE4FEC
:10E8B00059834883CD52D140213209F063C64A3092
:10E8C000510508F05FC60894811C911C53E0851621
:10E8D000910409F059C600E010E018C081E280936D
:10E8E000C6008091C00086FFFCCF8091C00080648C
:10E8F0008093C0002F5F3F4F2931310579F70F9486
:10E90000DCF10F5F1F4F0530110519F020E030E0FA
:10E91000E5CF10920A0210920B0210920C02109294
:10E920000D02109206021092070210920802109235
:10E930000902109202021092030210920402109235
:10E9400005028FEE90EE60E00F94F5F180E191EE1C
:10E9500060E00F94C2F18091C00087FFFCCF9091DE
:10E96000C600903608F09F759032B8F09093C600BC
:10E970008091C00086FFFCCF8091C00080648093AE
:10E98000C000A0E2A093C6008091C00086FFFCCF2B
:10E990008091C00080648093C000983409F4D7C18E
:10E9A0009934B8F4923409F459C1933458F490333B
:10E9B00019F1903308F4E3C59F33A1F1903409F0C5
:10E9C000DEC5BDC0953409F470C1963409F0D7C5D1
:10E9D00098C1923509F42BC2933538F49C3409F46C
:10E9E000F5C1913509F0CBC518C2963509F445C279
:10E9F000993509F0C4C567C483E792EE62E00F94CD
:10EA0000F5F110920602109207021092080210927D
:10EA1000090210920A0210920B0210920C0210923C
:10EA20000D0213C18FE792EE62E00F94F5F18FEEC5
:10EA300090EE60E00F94F5F181E291EE60E00F94CA
:10EA4000C2F187EB91EE60E00F94F5F180E391EE77
:10EA500060E00F94C2F184EE90EE60E00F94F5F167
:10EA60008FE391EE60E00F94C2F186E090E061E008
:10EA700070E00F9434F20F94DCF18DE591EE60E0DC
:10EA80000F94C2F189EC91EE60E00F94F5F18EE401
:10EA900091EE60E00F94C2F183EC91EE60E00F9490
:10EAA000F5F18CE691EE60E00F94C2F18EE10F94E7
:10EAB0000DF288E90F940DF281E00F940DF20F949E
:10EAC000DCF18BE791EE60E00F94C2F119E0E0E039
:10EAD000F0E010935700E4918E2F0F940DF20F94F5
:10EAE000DCF18AE891EE60E00F94C2F1E3E0F0E03F
:10EAF00010935700E4918E2F0F940DF20F94DCF1D8
:10EB000089E991EE60E00F94C2F1E2E0F0E0109349
:10EB10005700E4918E2F0F940DF20F94DCF188EAE8
:10EB200091EE60E00F94C2F1E1E0F0E01093570045
:10EB30001491812F0F940DF20F94DCF107CF8BE825
:10EB400092EE62E00F94F5F18BE492EE60E00F94A8
:10EB5000F5F10F94DCF100E010E019C0C8016F2D51
:10EB60000F947FFEFF2031F489E492EE60E00F9471
:10EB7000C2F10BC0F092C6008091C00086FFFCCFAE
:10EB80008091C00080648093C0000F5F1F4FC80158
:10EB900081519F41A0E0B0E0ABBFFC01F790BAE229
:10EBA000FB1621F0E2E000301E07C1F60F94DCF105
:10EBB0000F94DCF187E592EE60E00F94F5F10F948D
:10EBC000DCF1CC24DD2400E010E01EC0C8010F946D
:10EBD00077FEF82E882331F489E492EE60E00F94FA
:10EBE000C2F10BC08093C6008091C00086FFFCCFAD
:10EBF0008091C00080648093C000FE1419F00894D6
:10EC0000C11CD11C0F5F1F4FC80181519F41A0E063
:10EC1000B0E0ABBFFC01E790FAE2EF1621F022E092
:10EC20000030120799F60F94DCF10F94DCF182E6C4
:10EC300092EE60E00F94C2F1C60161E070E00F94C3
:10EC400034F20F94DCF10F94DCF110920202109276
:10EC50000302109204021092050278CE89E992EE26
:10EC600062E00F94F5F1279A2F9A16C02F9880E052
:10EC700090E0E0EDF7E03197F1F7019684369105E9
:10EC8000C1F72F9A80E090E0E0EDF7E03197F1F7DF
:10EC9000019684369105C1F78091C00087FFE6CFC9
:10ECA0008091C00087FFFCCF64C485EA92EE62E0E9
:10ECB0000F94F5F140910202509103026091040219
:10ECC0007091050281E020E10F9491F2809102029F
:10ECD00090910302A0910402B091050280509F4FD1
:10ECE000AF4FBF4F8093020290930302A0930402A0
:10ECF000B093050280509041A040B04008F426CE69
:10ED0000A4CF83EB92EE62E00F94F5F140910602FE
:10ED100050910702609108027091090280E020E1A1
:10ED20000F9491F28091060290910702A09108023F
:10ED3000B091090280509F4FAF4FBF4F80930602A2
:10ED400090930702A0930802B0930902FFCD80ECD4
:10ED500092EE62E00F94F5F183E792EE60E00F949B
:10ED6000F5F18FE792EE60E00F94F5F18BE892EE0B
:10ED700060E00F94F5F189E992EE60E00F94F5F10F
:10ED800085EA92EE60E00F94F5F183EB92EE60E09D
:10ED90000F94F5F180EC92EE60E00F94F5F187ECC2
:10EDA00092EE60E00F94F5F188ED92EE60E00F9442
:10EDB000F5F18FED92EE60E00F94F5F18AEE92EEB0
:10EDC00060E00F94F5F183E093EEBDCD87EC92EE19
:10EDD00062E00F94F5F181E40F947BF282E40F94EA
:10EDE0007BF283E40F947BF284E40F947BF285E45E
:10EDF0000F947BF286E40F947BF287E40F947BF20E
:10EE000088E40F947BF28AE40F947BF28BE40F94F6
:10EE10007BF28CE40F947BF299CD88ED92EE62E068
:10EE20000F94F5F1772473948824992409C48FED05
:10EE300092EE62E00F94F5F140910A0250910B02BC
:10EE400060910C0270910D0282E020E10F9491F22A
:10EE500080910A0290910B02A0910C02B0910D02D8
:10EE600080509F4FAF4FBF4F80930A0290930B0289
:10EE7000A0930C02B0930D0269CD8AEE92EE62E08F
:10EE80000F94F5F184EE90EE60E00F94F5F18FECC5
:10EE900091EE60E00F94F5F1662477244301CC5D98
:10EEA000DE4F19821882C452D140D401C301B695F5
:10EEB000A79597958795CA5DDE4F88839983AA8326
:10EEC000BB83C652D140CC5DDE4FA881B981C4520C
:10EED000D1401196CC5DDE4FB983A883C452D14096
:10EEE000CD0162E070E00F9434F2B0E2B093C6005E
:10EEF0008091C00086FFFCCF8091C0008064809329
:10EF0000C000EDE2E093C6008091C00086FFFCCF18
:10EF10008091C00080648093C000F0E2F093C6004E
:10EF20008091C00086FFFCCF8091C00080648093F8
:10EF3000C000CA5DDE4FE880F9800A811B81C6529D
:10EF4000D140BB27A12F902F8F2D0F940DF2CA5DBA
:10EF5000DE4F8881C652D1400F940DF2B0E2FB2EF5
:10EF6000F092C6008091C00086FFFCCF8091C00067
:10EF700080648093C0000DE30093C6008091C000C0
:10EF800086FFFCCF8091C00080648093C00010E2B7
:10EF90001093C6008091C00086FFFCCF8091C00016
:10EFA00080648093C0008BBEF3012791C65DDE4F65
:10EFB0002883CA52D140A22EBB24CC24DD2408943D
:10EFC000611C711C811C911C8BBEF3018791282E42
:10EFD0003324442455240894611C711C811C911C09
:10EFE0008BBEF3013791C55DDE4F3883CB52D140E4
:10EFF0000894611C711C811C911C8BBEF30147910C
:10F00000C45DDE4F4883CC52D140ADEFEA2EAFEF66
:10F01000FA2EAFEF0A2FAFEF1A2F6E0C7F1C801E57
:10F02000911E142D032DF22CEE24EA0CFB1C0C1D5A
:10F030001D1D0F940DF220E22093C6008091C000A8
:10F0400086FFFCCF8091C00080648093C000C65DC5
:10F05000DE4F8881CA52D1400F940DF230E23093D6
:10F06000C6008091C00086FFFCCF8091C000806404
:10F070008093C000C45DDE4F8881CC52D1400F9494
:10F080000DF240E24093C6008091C00086FFFCCFA5
:10F090008091C00080648093C000C55DDE4F888190
:10F0A000CB52D1400F940DF250E25093C6008091A4
:10F0B000C00086FFFCCF8091C00080648093C000B8
:10F0C0008FEFE8168FEFF80680E0080780E018075A
:10F0D00031F484E092EE60E00F94C2F1DFC0D80119
:10F0E000C7018070907CA070B0708050904CA040A0
:10F0F000B040D1F52FEF3FE340E050E0E222F322B1
:10F1000004231523CA5DDE4FA880B980CA80DB8046
:10F11000C652D140AE0CBF1CC01ED11EAA0CBB1CD7
:10F12000CC1CDD1C8EE092EE60E00F94C2F1BB2798
:10F13000A12F902F8F2D0F940DF28E2D0F940DF285
:10F1400030E23093C6008091C00086FFFCCF8091F2
:10F15000C00080648093C0004EE34093C60080915D
:10F16000C00086FFFCCF87C08EE09EEFA0E0B0E03D
:10F17000E822F9220A231B239CE0E91694E9F90608
:10F1800090E0090790E0190709F088C0C45DDE4FE0
:10F19000A881CC52D140EA2EFF2400E010E0102FCD
:10F1A0000F2DFE2CEE24C55DDE4FB881CB52D14031
:10F1B000EB0EF11C011D111DD601C501817090706F
:10F1C000A070B070DC0199278827E80EF91E0A1F8D
:10F1D0001B1F20EF30E040E050E0A222B322C42207
:10F1E000D52241E1AA0CBB1CCC1CDD1C4A95D1F7F1
:10F1F000EA0CFB1C0C1D1D1D81E090E0A0E0B0E0BE
:10F20000282239224A225B2235E1220C331C441C7D
:10F21000551C3A95D1F7E20CF31C041D151D57013E
:10F220006801AA0CBB1CCC1CDD1C85E192EE60E0E1
:10F230000F94C2F1C801AA27BB270F940DF2BB2778
:10F24000A12F902F8F2D0F940DF28E2D0F940DF274
:10F2500090E29093C6008091C00086FFFCCF809121
:10F26000C00080648093C000AEE3A093C60080918C
:10F27000C00086FFFCCF8091C00080648093C000F6
:10F28000C601AA27BB270F940DF2BB27AD2D9C2DDD
:10F290008B2D0F940DF28A2D0F940DF20F94DCF14B
:10F2A000CC5DDE4FE881F981C452D140F99709F471
:10F2B0004DCBF4E0EF2EF12C012D112D6E0C7F1CA7
:10F2C000801E911EF2CD83E093EE62E00F94F5F183
:10F2D0008AE192EE60E00F94C2F18091C00087FF56
:10F2E000FCCF1091C6001F751093C6008091C0001E
:10F2F00086FFFCCF8091C00080648093C0000F9493
:10F30000DCF1812F81548A3108F036C1163409F4BA
:10F3100095C0173490F4133409F44EC0143430F40B
:10F320001134F1F0123409F01DC130C0143409F465
:10F3300059C0153409F016C16BC01A3409F4C4C0A1
:10F340001B3438F4173409F48FC0183409F00AC19B
:10F35000A1C01B3409F4D2C01C3409F003C1E8C0B9
:10F360008FEF81B90DC082B1809582B980E090E0C5
:10F37000E0EDF7E03197F1F70196883C9105C1F790
:10F380008091C00087FFEFCF12B8EFC08FEF84B934
:10F390000DC085B1809585B980E090E0E0EDF7E0A3
:10F3A0003197F1F70196883C9105C1F78091C00033
:10F3B00087FFEFCF15B8D9C08FEF87B90DC088B1DF
:10F3C000809588B980E090E0E0EDF7E03197F1F7C3
:10F3D0000196883C9105C1F78091C00087FFEFCF6F
:10F3E00018B8C3C08FEF8AB90DC08BB180958BB9A7
:10F3F00080E090E0E0EDF7E03197F1F70196883C8E
:10F400009105C1F78091C00087FFEFCF1BB8ADC059
:10F410008FEF8DB90DC08EB180958EB980E090E0F0
:10F42000E0EDF7E03197F1F70196883C9105C1F7DF
:10F430008091C00087FFEFCF1EB897C08FEF80BBD1
:10F440000DC081B3809581BB80E090E0E0EDF7E0F6
:10F450003197F1F70196883C9105C1F78091C00082
:10F4600087FFEFCF11BA81C08FEF83BB0DC084B38C
:10F47000809584BB80E090E0E0EDF7E03197F1F714
:10F480000196883C9105C1F78091C00087FFEFCFBE
:10F4900014BA6BC08FEF809301010FC080910201FD
:10F4A00080958093020180E090E0E0EDF7E03197F5
:10F4B000F1F70196883C9105C1F78091C00087FF64
:10F4C000EDCF1092020151C08FEF809304010FC065
:10F4D0008091050180958093050180E090E0E0ED4A
:10F4E000F7E03197F1F70196883C9105C1F78091DB
:10F4F000C00087FFEDCF1092050137C08FEF8093DA
:10F5000007010FC08091080180958093080180E079
:10F5100090E0E0EDF7E03197F1F70196883C910536
:10F52000C1F78091C00087FFEDCF109208011DC088
:10F530008FEF80930A010FC080910B01809580931B
:10F540000B0180E090E0E0EDF7E03197F1F70196F4
:10F55000883C9105C1F78091C00087FFEDCF1092E4
:10F560000B0103C085E292EEEEC98091C00087FFD7
:10F57000FCCF8091C600EAC988E392EEE4C98CE131
:10F5800091EEE1C988249924933011F1943028F444
:10F59000913089F09230B8F408C0953061F195301F
:10F5A000F0F0963009F048C043C02B3109F042C951
:10F5B00091E06BE13FC96227C15DDE4F2883CF52E6
:10F5C000D14092E037C9B22FA0E0622793E032C960
:10F5D000822F90E0A82BB92B622794E02BC92E3004
:10F5E00009F039C3622795E0C05DDE4F19821882A9
:10F5F000C053D1401FC9E1E0F0E0EC0FFD1FC05D3A
:10F60000DE4F08811981C053D140E00FF11F2083E4
:10F610000F5F1F4FC05DDE4F19830883C053D14079
:10F6200062270A171B0709F005C9D80196E002C92D
:10F63000261709F010C303C0973009F0FBC87724E0
:10F640009981933109F412C19431C8F4963009F4C8
:10F65000D8C0973050F4923009F406C1933009F4C1
:10F660006DC0913009F059C253C0913109F477C08F
:10F67000923108F0BBC0903109F04FC2F5C098310B
:10F6800009F487C0993150F4953109F4EFC09531F0
:10F6900008F4C6C1963109F040C2C2C19A3109F4DA
:10F6A0006CC09A3108F491C09B3109F45BC09D3164
:10F6B00009F033C29D81903359F48F81882311F46E
:10F6C0009EE11CC0813011F091E018C098E916C08D
:10F6D000892F807591F0903539F4E0E0F0E089E011
:10F6E0008093570094910AC0983539F4E3E0F0E034
:10F6F00089E080935700949101C090E01A821B82A8
:10F700008D818C831D829E831F8227E030E009C299
:10F710001A8288E08B8381E48C8386E58D8382E581
:10F720008E8389E48F8383E5888780E589878FE5E9
:10F730008A8782E38B872BE030E0F3C18A818139AD
:10F7400041F0823941F0803911F48FE005C080E04A
:10F7500003C082E001C08AE01A828B8344C0772410
:10F76000739482C08D81882311F48EE12CC0813086
:10F7700011F081E028C088E926C01A82E1E0F0E0BB
:10F7800089E08093570084918B831C8224E030E0D1
:10F79000C8C18B81803589F48C81883039F4E2E0EE
:10F7A000F0E089E08093570084910DC0E0E0F0E044
:10F7B00089E080935700849106C0E3E0F0E089E09F
:10F7C0008093570084911A82DFCF8D81836C99E0FA
:10F7D000E1E0F0E0082E90935700E89507B600FCB2
:10F7E000FDCF1A821B8223E030E09BC180EC8A832C
:10F7F000CE5CDE4F188219821A821B82C253D1401E
:10F800008EC18A8190E0A0E0B0E0582F44273327D2
:10F8100022278B8190E0A0E0B0E0DC0199278827C7
:10F82000282B392B4A2B5B2B8D8190E0A0E0B0E098
:10F83000282B392B4A2B5B2B8C8190E0A0E0B0E089
:10F84000BA2FA92F982F8827282B392B4A2B5B2BCF
:10F85000220F331F441F551FC05EDE4F288339839C
:10F860004A835B83C052D1401A8259C13A81C95C34
:10F87000DE4F3883C753D140CA5CDE4F1882C6536F
:10F88000D1408B81C82EDD24CA5CDE4F488159816E
:10F89000C653D140C42AD52A933109F082C0CE5C28
:10F8A000DE4F88819981AA81BB81C253D1408050AB
:10F8B000904CA340B04030F583E0CE5CDE4FE88052
:10F8C000F9800A811B81C253D140F70100935B008C
:10F8D00080935700E89507B600FCFDCFCE5CDE4F65
:10F8E000088119812A813B81C253D14000501F4FAA
:10F8F0002F4F3F4FCE5CDE4F088319832A833B8313
:10F90000C253D140C05EDE4F488159816A817B81FC
:10F91000C052D140DE011B9631E08C9111962C91A2
:10F9200011971296C75CDE4F2883C953D140C85C3B
:10F93000DE4F1882C853D14090E0C85CDE4FE881AA
:10F94000F981C853D1408E2B9F2B0C01FA01609393
:10F950005B0030935700E89511244E5F5F4F6F4F67
:10F960007F4F0EEFE02E0FEFF02ECE0CDF1CC114F8
:10F97000D10499F685E0C05EDE4F088119812A81A5
:10F980003B81C052D140F80120935B008093570027
:10F99000E89507B600FCFDCF81E180935700E8951C
:10F9A00035C0C05EDE4F88819981AA81BB81C0527B
:10F9B000D140B695A795979587957C018601ABE0D8
:10F9C000AA2EB12CAC0EBD1E0BC0D5016D915D01F0
:10F9D000C7010F947FFE0894E11CF11C01501040F8
:10F9E0000115110591F7A60160E070E0440F551F65
:10F9F000661F771FC05EDE4FE880F9800A811B8199
:10FA0000C052D1404E0D5F1D601F711F1A82C05E33
:10FA1000DE4F488359836A837B83C052D1407FC0C5
:10FA2000FA80C55CDE4FF882CB53D140C65CDE4F16
:10FA30001882CA53D1408B81C82EDD24C65CDE4FAC
:10FA400008811981CA53D140C02AD12A1A828981DA
:10FA5000BE016D5F7F4F843121F59601C05EDE4FA0
:10FA6000E880F9800A811B81C052D1400BBFF701A9
:10FA700087919691DB018C9311969C936E5F7F4FDB
:10FA8000D801C7010296A11DB11DC05EDE4F88835B
:10FA90009983AA83BB83C052D14022503040F1F6F3
:10FAA00036C0C05EDE4F288139814A815B81C052F9
:10FAB000D1400894C108D108760100E010E0089414
:10FAC000C11CD11C0894E11CF11C011D111DE20E8A
:10FAD000F31E041F151F21BDBB27A52F942F832FB5
:10FAE00082BD2F5F3F4F4F4F5F4FF89A80B5DB01CC
:10FAF0008D93BD012E153F054007510761F7C05E8C
:10FB0000DE4F288339834A835B83C052D1409601FC
:10FB10002D5F3F4FFB01108204C080EC8A8322E0FE
:10FB200030E08BE18093C6008091C00086FFFCCF5F
:10FB30008091C00080648093C000C15DDE4FF88179
:10FB4000CF52D140F093C6008091C00086FFFCCF19
:10FB50008091C00080648093C000432F3093C60022
:10FB60008091C00086FFFCCF8091C00080648093AC
:10FB7000C000922F2093C6008091C00086FFFCCF6A
:10FB80008091C00080648093C0008EE08093C600A6
:10FB90008091C00086FFFCCF8091C000806480937C
:10FBA000C00065E1C15DDE4FE880CF52D1406E25D7
:10FBB00069276427FE01319610C090819093C6009A
:10FBC0008091C00086FFFCCF31968091C000806498
:10FBD0008093C0006927215030402115310569F715
:10FBE0006093C6008091C00086FFFCCF8091C0006A
:10FBF00080648093C00085B1805885B9772081F4F6
:10FC0000C15DDE4F0881CF52D1400F5FC15DDE4F35
:10FC10000883CF52D14090E0A0E0B0E00D941AF4F8
:10FC200027982F9880E090E020ED37E0F901319798
:10FC3000F1F7019684369105C9F700008091C00064
:10FC40008D7F8093C00081E180935700E895EE2777
:10FC5000FF270994FFCF90E00D941AF497FB092E2B
:10FC600007260AD077FD04D02ED006D000201AF443
:10FC7000709561957F4F0895F6F7909581959F4F08
:10FC80000895A1E21A2EAA1BBB1BFD010DC0AA1FDD
:10FC9000BB1FEE1FFF1FA217B307E407F50720F0F5
:10FCA000A21BB30BE40BF50B661F771F881F991F70
:10FCB0001A9469F760957095809590959B01AC01B9
:10FCC000BD01CF010895AA1BBB1B51E107C0AA1FAC
:10FCD000BB1FA617B70710F0A61BB70B881F991FED
:10FCE0005A95A9F780959095BC01CD010895F99991
:10FCF000FECF92BD81BDF89A992780B50895262F31
:10FD0000F999FECF1FBA92BD81BD20BD0FB6F89400
:0EFD1000FA9AF99A0FBE01960895F894FFCF63
:040000033000E000E9
:00000001FF