:100000004CC1000067C500003AC500000DC50000E6
:10001000E0C40000B3C4000086C4000059C400005E
:100020002CC4000082C5000080C500007EC5000011
:1000300065C1000063C1000061C100005FC1000034
:100040005DC100005BC1000059C1000057C1000044
:1000500055C1000053C1000051C10000C4C30000DD
:100060004DC100000C9478090C944F0947C1000061
:1000700045C1000043C1000041C100003FC1000074
:100080003DC100003BC1000039C1000037C1000084
:1000900035C1000033C1000031C100002FC1000094
:1000A0002DC100002BC1000029C1000027C10000A4
:1000B00025C1000023C1000021C100001FC10000B4
:1000C0001DC100001BC1000019C1000017C10000C4
:1000D00015C1000013C100000C9419090C94F0081C
:1000E0000DC10000CD01D001BF01C301C90107024C
:1000F000D401D801DE01E201E601EC01F001F401D6
:100100000702FA01FE0102020F031403190323037D
:100110002D03A60337033F03470351035B03650326
:1001200074037E03A603880392039C03084AD73B0B
:100130003BCE016E84BCBFFDC12F3D6C74319ABDB6
:1001400056833DDA3D00C77F11BED9E4BB4C3E91DA
:100150006BAAAABE000000803F05A84CCDB2D44EC9
:10016000B93836A9020C50B9918688083CA6AAAACB
:100170002ABE000000803F0000002100240027006C
:100180002A002D00300033000101000004010701A6
:100190000A0100002200250028002B002E0031005B
:1001A000340002010000050108010B0100002000DD
:1001B0002300260029002C002F003200000100003F
:1001C00003010601090105050505070508080808DA
:1001D000020202020A0A08080404040401010101DF
:1001E00001010101030303030303030304070707DA
:1001F0000C0C0C0C0C0C0C0C02020202060606067F
:10020000060606060B0B0B0B0B0B0B0B010210204B
:10021000200808102040102040800201020108043C
:1002200002010102040810204080804020100804D0
:100230000201800402018040201008040201080429
:10024000020101020408102040800102040810206D
:10025000408000000A0B02090C0D0E080703040180
:10026000000000000000000000000000000000008E
:10027000000000000000000000000000000012115B
:10028000100000000000000000000000000000005E
:1002900000000000000000004A1511241FBECFEF2F
:1002A000D1E2DEBFCDBF00E00CBF24E0A8E2B2E0A7
:1002B00001C01D92A932B207E1F712E0A0E0B2E05E
:1002C000E2E4F3E300E00BBF02C007900D92A83216
:1002D000B107D9F711E0CDE4D1E000E006C02197E5
:1002E0000109802FFE010E949319CC34D10780E0D0
:1002F0000807A9F70E9495100C949F1981CE80E001
:1003000090E0892B19F0F6D6811120C080E090E0B2
:10031000892B41F080E090E0892B21F00E940000C1
:10032000811117C080E090E0892B41F080E090E0DF
:10033000892B21F00E94000081110EC080E090E026
:10034000892B79F0CED681110AC008950E94000051
:10035000DDCF0E940000E6CF0E940000EFCF0C949A
:100360000000089590E0FC013197E231F10508F0BA
:100370004EC08827EE58FF4F8F4F0C9493198091F1
:1003800080008F7703C0809180008F7D80938000F4
:10039000089580918000877FF9CF84B58F7702C060
:1003A00084B58F7D84BD08958091B0008F7703C0A0
:1003B0008091B0008F7D8093B0000895809190006F
:1003C0008F7707C0809190008F7D03C0809190004F
:1003D000877F8093900008958091A0008F7707C059
:1003E0008091A0008F7D03C08091A000877F8093C3
:1003F000A0000895809120018F7707C0809120018F
:100400008F7D03C080912001877F80932001089514
:10041000CF93DF93282F30E0F901EE5AFD4F8491FE
:10042000F901E45FFD4FD491F901EA53FE4FC49105
:10043000CC2389F0811196DFEC2FF0E0EE0FFF1F47
:10044000E455FE4FA591B491EC91ED2381E090E04D
:1004500021F480E002C080E090E0DF91CF91089528
:100460001F93CF93DF93282F30E0F901EE5AFD4F11
:100470008491F901E45FFD4FD491F901EA53FE4FF5
:10048000C491CC23B9F0162F81116CDFEC2FF0E072
:10049000EE0FFF1FEE56FE4FA591B4919FB7F89453
:1004A000111104C08C91D095D82302C0EC91DE2BA1
:1004B000DC939FBFDF91CF911F9108953FB7F894D0
:1004C00080913B0290913C02A0913D02B0913E028E
:1004D00026B5A89B05C02F3F19F00196A11DB11D9F
:1004E0003FBFBA2FA92F982F8827820F911DA11DDA
:1004F000B11DBC01CD0142E0660F771F881F991F17
:100500004A95D1F708950895089580E090E0089500
:100510000E949B19FC01848DDF01A80FB11DA35A15
:10052000BF4F2C91848D90E001968F739927848F13
:10053000A689B7892C93A089B1898C918370806436
:100540008C93938D848D981306C00288F389E02DD7
:1005500080818F7D80830895CF93DF9390E0FC01AD
:10056000E45FFD4F2491FC01EA53FE4F8491882300
:1005700061F190E0880F991FFC01E858FE4FC5918A
:10058000D491FC01EE56FE4FA591B491611109C0C2
:100590009FB7F8948881209582238883EC912E233D
:1005A0000BC0623061F49FB7F8948881322F309588
:1005B00083238883EC912E2B2C939FBF06C08FB78B
:1005C000F894E8812E2B28838FBFDF91CF91089577
:1005D0001F93CF93DF93182FEB0161E0BDDF2097CE
:1005E00011F460E004C0CF3FD10531F461E0812F08
:1005F000DF91CF911F9134CFE12FF0E0EE5AFD4F04
:10060000E4918E2F90E0FC013197E231F10508F082
:100610009DC08827EC57FF4F8F4F0C94931984B5DA
:10062000806884BDC7BD97C084B5806284BDC8BDE5
:1006300092C080918000806880938000D093890070
:10064000C093880088C08091800080628093800081
:10065000D0938B00C0938A007EC080918000886018
:1006600080938000D0938D00C0938C0074C08091E3
:10067000B00080688093B000C093B3006CC08091DC
:10068000B00080628093B000C093B40064C08091D9
:100690009000806880939000D0939900C093980058
:1006A0005AC080919000806280939000D0939B000C
:1006B000C0939A0050C08091900088608093900011
:1006C000D0939D00C0939C0046C08091A00080689C
:1006D0008093A0008091A0008F7B8093A000D09396
:1006E000A900C093A80037C08091A00080628093C9
:1006F000A000D093AB00C093AA002DC08091A000B1
:1007000088608093A000D093AD00C093AC0023C05C
:1007100080912001806880932001D0932901C093AB
:10072000280119C080912001806280932001D0931C
:100730002B01C0932A010FC0809120018860809313
:100740002001D0932D01C0932C0105C0C038D105E4
:100750000CF04CCF46CFDF91CF911F9108958F922F
:100760009F92AF92BF92CF92DF92EF92FF926B0176
:100770007C01A4DE4B015C01C114D104E104F1044D
:10078000E9F09CDEDC01CB0188199909AA09BB09B3
:10079000883E9340A105B10578F321E0C21AD10843
:1007A000E108F10888EE880E83E0981EA11CB11CB8
:1007B000C114D104E104F10421F7DECFFF90EF90E2
:1007C000DF90CF90BF90AF909F908F9008952FB7FC
:1007D000F8946091370270913802809139029091BB
:1007E0003A022FBF08951F920F920FB60F92112455
:1007F0002F933F938F939F93AF93BF938091370233
:1008000090913802A0913902B0913A0230913602AB
:1008100023E0230F2D3720F40196A11DB11D05C043
:1008200026E8230F0296A11DB11D20933602809366
:10083000370290933802A0933902B0933A02809124
:100840003B0290913C02A0913D02B0913E02019684
:10085000A11DB11D80933B0290933C02A0933D02E9
:10086000B0933E02BF91AF919F918F913F912F9195
:100870000F900FBE0F901F9018951F920F920FB6FA
:100880000F9211240BB60F922F933F934F935F93C8
:100890006F937F938F939F93AF93BF93EF93FF9348
:1008A000E0910E02F0910F021995FF91EF91BF9127
:1008B000AF919F918F917F916F915F914F913F91F8
:1008C0002F910F900BBE0F900FBE0F901F90189599
:1008D0001F920F920FB60F9211240BB60F922F9307
:1008E0003F934F935F936F937F938F939F93AF93B8
:1008F000BF93EF93FF93E0910C02F0910D021995D5
:10090000FF91EF91BF91AF919F918F917F916F91E7
:100910005F914F913F912F910F900BBE0F900FBEA3
:100920000F901F9018951F920F920FB60F921124DF
:100930000BB60F922F933F934F935F936F937F93D9
:100940008F939F93AF93BF93EF93FF93E091020236
:10095000F09103021995FF91EF91BF91AF919F9193
:100960008F917F916F915F914F913F912F910F9058
:100970000BBE0F900FBE0F901F9018951F920F92F5
:100980000FB60F9211240BB60F922F933F934F93F4
:100990005F936F937F938F939F93AF93BF93EF93E7
:1009A000FF93E0910002F09101021995FF91EF9100
:1009B000BF91AF919F918F917F916F915F914F9177
:1009C0003F912F910F900BBE0F900FBE0F901F9075
:1009D00018951F920F920FB60F9211240BB60F921B
:1009E0002F933F934F935F936F937F938F939F9337
:1009F000AF93BF93EF93FF93E0910A02F0910B0244
:100A00001995FF91EF91BF91AF919F918F917F9138
:100A10006F915F914F913F912F910F900BBE0F906F
:100A20000FBE0F901F9018951F920F920FB60F9246
:100A300011240BB60F922F933F934F935F936F93B5
:100A40007F938F939F93AF93BF93EF93FF93E09127
:100A50000802F09109021995FF91EF91BF91AF91B2
:100A60009F918F917F916F915F914F913F912F91C6
:100A70000F900BBE0F900FBE0F901F9018951F92F6
:100A80000F920FB60F9211240BB60F922F933F9334
:100A90004F935F936F937F938F939F93AF93BF9386
:100AA000EF93FF93E0910602F09107021995FF91F1
:100AB000EF91BF91AF919F918F917F916F915F91D6
:100AC0004F913F912F910F900BBE0F900FBE0F9043
:100AD0001F9018951F920F920FB60F9211240BB60C
:100AE0000F922F933F934F935F936F937F938F93C7
:100AF0009F93AF93BF93EF93FF93E0910402F09124
:100B000005021995FF91EF91BF91AF919F918F9140
:100B10007F916F915F914F913F912F910F900BBEFD
:100B20000F900FBE0F901F9018951F920F920FB647
:100B30000F9211240F900FBE0F901F901895CF9217
:100B4000DF92EF92FF9243DE6B017C0140DEDC011D
:100B5000CB018C199D09AE09BF09CC97A105B10540
:100B600050F483E692E0B1D2181619067CF783E6BA
:100B700092E089D2F6CFFF90EF90DF90CF9008956A
:100B8000CF93DF93EC0160E088816ADC60E08A81CA
:100B900067DC60E08C8164DC60E08E8161DC60E0B9
:100BA00088855EDC60E08A85DF91CF9159CCCF9358
:100BB000DF93EC0160E0888553DC888529DC61E007
:100BC00068278A854DDC8A8123DC892B39F560E42E
:100BD00070E08A81FDDC64E170E080E090E0BFDDE0
:100BE00060E870E08A81F4DC64E170E080E090E02D
:100BF000B6DD60EC70E08A81EBDC62E070E080E002
:100C000090E0ADDD6FEF70E08A81E2DC62E070E0E1
:100C100080E090E0A4DD61E08A8122DC61E08A81ED
:100C2000DF91CF911DCCCF93DF93EC0160E08C81FD
:100C300017DC8C81EDDB61E068278E8111DC888117
:100C4000E7DB892B21F560E470E08881C1DC64E199
:100C500070E080E090E083DD60E870E08881B8DCDF
:100C600064E170E080E090E07ADD60EC70E0888123
:100C7000AFDC62E070E080E090E071DD6FEF70E08B
:100C80008881A6DC62E070E080E090E068DD61E0F1
:100C90008881DF91CF91E4CBCF93DF93EC0161E0CA
:100CA0008885DEDB8885B4DB61E068278A85D8DB50
:100CB0008A81AEDB892B39F560E470E08A8188DCBB
:100CC00064E170E080E090E04ADD60E870E08A81F5
:100CD0007FDC64E170E080E090E041DD60EC70E09A
:100CE0008A8176DC62E070E080E090E038DD6FEFD2
:100CF00070E08A816DDC62E070E080E090E02FDDE2
:100D000061E08A81ADDB61E08A81DF91CF91A8CB80
:100D1000CF93DF93EC0161E08C81A2DB8C8178DBE7
:100D200061E068278E819CDB888172DB892B21F54D
:100D300060E470E088814CDC64E170E080E090E089
:100D40000EDD60E870E0888143DC64E170E080E003
:100D500090E005DD60EC70E088813ADC62E070E0F4
:100D600080E090E0FCDC6FEF70E0888131DC62E0D5
:100D700070E080E090E0F3DC61E08881DF91CF916A
:100D80006FCBCF92DF92EF92FF92CF93DF93EC0184
:100D900061E08881E1DB61E0888162DB8BE891E0E2
:100DA0000197F1F78BDB6B017C0160E08881D4DB7C
:100DB00088812EDB019761F081DB6C197D098E093A
:100DC0009F09DF91CF91FF90EF90DF90CF90089532
:100DD00075DBDC01CB018C199D09AE09BF09883E8A
:100DE0009340A105B10520F3E7CF5F926F927F9208
:100DF0008F929F92AF92BF92CF92DF92EF92FF922B
:100E00000F931F93CF93DF93C3E0CF938CE7982E7C
:100E10009F921F9296E0F92EFF92D2E0DF938FEA25
:100E20008F931F9225E0A22EAF92CF9389E58F93E7
:100E30001F9234E0B32EBF921F9284E88F931F92CB
:100E4000CF93CF934DE6C42ECF921F92DF93DF93C3
:100E50005FED552E5F921F92EE24E394EF92CF93B5
:100E600068EED62EDF92FF9207EF13E01F930F93E9
:100E700021D768EE73E080E090E071DCCF939F9221
:100E80001F92FF92DF9379E6672E6F921F92AF92C7
:100E9000CF93E6E47E2E7F921F92BF921F92F2E2E2
:100EA0008F2E8F921F92CF93CF93CF921F92DF936B
:100EB000DF935F921F92EF92CF93DF92FF921F9387
:100EC0000F93F8D68DB79EB7CA960FB6F8949EBF0B
:100ED0000FBE8DBF68EE73E080E090E040DCCF9302
:100EE0009F921F92FF92DF936F921F92AF92CF93C8
:100EF0007F921F92BF921F928F921F92CF93CF9398
:100F0000CF921F92DF93EF9282EC8F931F92EF921A
:100F1000CF93DF92FF921F930F93CCD68DB79EB7DE
:100F20004D960FB6F8949EBF0FBE8DBF68EE73E06E
:100F300080E090E0DF91CF911F910F91FF90EF90B3
:100F4000DF90CF90BF90AF909F908F907F906F90E9
:100F50005F9005CCDC01ED91FD918081ED91FD91DB
:100F60009081ED91FD916C9163708E2309F0646026
:100F70009F2309F06860E7ECF7E0E60FF11D659547
:100F800065956D936D917D918D919D91099423C08F
:100F90001AC012C016C010C01EC009C014C013C0B1
:100FA00006C019C009C00DC007C00DC014C06250F2
:100FB0007040804090400BC0615070408040904035
:100FC00006C06E5F01C06F5F7F4F8F4F9F4F9E9334
:100FD0008E937E936E9308958091320290913302A6
:100FE000B9CF8091300290913102B4CF80912E021E
:100FF00090912F02AFCF80912C0290912D02AACF19
:1010000080912A0290912B02A5CF80912802909185
:101010002902A0CFCF92DF92EF92FF920F931F93FE
:10102000CF93DF936C017A018B01C0E0D0E0CE1545
:10103000DF0581F0D8016D918D01D601ED91FC9114
:101040000190F081E02DC6011995892B11F02196B0
:10105000EECF7E01C701DF91CF911F910F91FF90DD
:10106000EF90DF90CF900895FC01538D448D252F94
:1010700030E0842F90E0821B930B541710F0CF9632
:10108000089501970895FC01918D828D981761F064
:10109000828DDF01A80FB11D5D968C91928D9F5FAF
:1010A0009F73928F90E008958FEF9FEF0895FC015A
:1010B000918D828D981731F0828DE80FF11D858D0D
:1010C00090E008958FEF9FEF0895FC01918D228DA0
:1010D000892F90E0805C9F4F821B91098F73992725
:1010E00008958AE593E0F1DF21E0892B09F420E0FF
:1010F000822F089583E692E0E8DF21E0892B09F44E
:1011000020E0822F0895EF92FF920F931F93CF93C9
:10111000DF93EC0181E0888F9B8D8C8D981305C047
:10112000E889F989808185FD25C0F62E0B8D10E0B8
:101130000F5F1F4F0F731127E02E8C8DE8120BC02D
:101140000FB607FCFACFE889F989808185FFF5CFD2
:10115000CE01E0D9F2CF8B8DFE01E80FF11DE35AED
:10116000FF4FF0829FB7F8940B8FEA89FB8980814B
:1011700080620AC09FB7F894EE89FF896083E8898E
:10118000F98980818370806480839FBF81E090E0D3
:10119000DF91CF911F910F91FF90EF900895CF9322
:1011A000DF93EC01888D8823C1F0EA89FB89808177
:1011B00085FD05C0A889B9898C9186FD0EC00FB642
:1011C00007FCF5CF808185FFF2CFA889B9898C9182
:1011D00085FFEDCFCE019ED9E8CFDF91CF91089565
:1011E0001F920F920FB60F9211240BB60F922F93EE
:1011F0003F934F935F936F937F938F939F93AF939F
:10120000BF93EF93FF938AE593E084D9FF91EF9129
:10121000BF91AF919F918F917F916F915F914F910E
:101220003F912F910F900BBE0F900FBE0F901F900C
:1012300018951F920F920FB60F9211240BB60F92B2
:101240002F938F939F93EF93FF93E0916A03F09115
:101250006B038081E0917003F091710382FD12C0F5
:101260009081809173038F5F8F7320917403821735
:1012700051F0E0917303F0E0E65AFC4F958F8093B4
:10128000730301C08081FF91EF919F918F912F9106
:101290000F900BBE0F900FBE0F901F9018951F92CE
:1012A0000F920FB60F9211240BB60F922F933F930C
:1012B0004F935F936F937F938F939F93AF93BF935E
:1012C000EF93FF9383E692E025D9FF91EF91BF91D1
:1012D000AF919F918F917F916F915F914F913F91CE
:1012E0002F910F900BBE0F900FBE0F901F9018956F
:1012F0001F920F920FB60F9211240BB60F922F93DD
:101300008F939F93EF93FF93E0917302F091740298
:101310008081E0917902F0917A0282FD12C0908181
:1013200080917C028F5F8F7320917D02821751F034
:10133000E0917C02F0E0ED59FD4F958F80937C02A7
:1013400001C08081FF91EF919F918F912F910F901C
:101350000BBE0F900FBE0F901F9018950F931F9309
:1013600036DA60936B0270936C0280936D029093F7
:101370006E0283E692E09BDE97FF1EC028DA0091A2
:101380006B0210916C0220916D0230916E02DC01B3
:10139000CB01801B910BA20BB30B00916702109144
:1013A00068022091690230916A0280179107A207B2
:1013B000B307F8F28FEF9FEF1F910F9108958F926F
:1013C0009F92AF92BF92CF92DF92EF92FF92CF9314
:1013D000DF93C4DFFC0197FD0DC08D32910571F0E4
:1013E000C0970A9758F0EE32F10541F083E692E09B
:1013F0004ADEEFCF60E070E0CB016AC0812C912C17
:1014000080E8A82E8FE3B82EC12CD12C7601C0E045
:10141000D0E0E130F10569F1ED32F10539F1EE325C
:10142000F10531F1CF01C0970A9718F5AAE0B0E0B5
:10143000A70196010E9477176F01FF0FEE08FF08C2
:10144000C60ED71EE81EF91E80E3C81AD108E108AF
:10145000F108CC2371F02DEC3CEC4CEC5DE3C501C4
:10146000B4010E94C3164B015C0103C0D1E001C06E
:10147000C1E083E692E007DE71DFFC01C0970A97C6
:1014800040F2EE32F10519F4C1111FC0C2CFE130B4
:10149000F10509F4BECFDD2341F0F094E094D0943F
:1014A000C094C11CD11CE11CF11CCC2349F0C70124
:1014B000B6010E946416A50194010E94C31608C0DB
:1014C000C701B6010E94641603C0D111E6CFEFCF69
:1014D000DF91CF91FF90EF90DF90CF90BF90AF90D2
:1014E0009F908F9008954F925F926F927F928F920C
:1014F0009F92AF92BF92CF92DF92EF92FF920F93A3
:101500001F93CF93DF93C0915003D09151038B85EC
:10151000823020F4F894CE011DDD01C0F8948F8153
:101520009885A985BA8578948093240390932503A0
:10153000A0932603B0932703C0915203D091530385
:101540008B85823020F4F894CE0104DD01C0F8943C
:101550004F80588469847A8478944092280350920A
:10156000290360922A0370922B03809024039090A9
:101570002503A0902603B090270340913403509197
:101580003503609136037091370395018401041B84
:10159000150B260B370BC901B80100932C031093D0
:1015A0002D0320932E0330932F03C0903803D09047
:1015B0003903E0903A03F0903B03A30192012C1908
:1015C0003D094E095F0969017A0120933003309388
:1015D000310340933203509333038092340390924B
:1015E0003503A0923603B0923703409238035092ED
:1015F000390360923A0370923B030E94641628E418
:1016000031EE4AE951E40E9420184B015C016093DD
:101610001C0370931D0380931E0390931F03C70147
:10162000B6010E9464162AE037ED49E951E40E94B0
:1016300020182B013C0160932003709321038093B9
:101640002203909323039B01AC01C501B4010E94C6
:10165000911720E030E040E05FE30E94C3166B0189
:101660007C01A3019201C501B4010E949017209151
:1016700010023091110240911202509113020E9407
:10168000201820910C0330910D0340910E035091CE
:101690000F030E9491174B015C012BED3FE049ECD9
:1016A00050E40E9420180E948818072E000C880B16
:1016B000990B0E9464162BED3FE049EC50E40E9428
:1016C000C3169B01AC01C501B4010E9490174B01E8
:1016D0005C012BED3FE049E450EC0E945E1687FD73
:1016E00009C080920C0390920D03A0920E03B09259
:1016F0000F0310C0A50194016BED7FE089EC90E42D
:101700000E94901760930C0370930D0380930E0357
:1017100090930F0380900C0390900D03A0900E0304
:10172000B0900F032BED3FE049E450E4C501B40154
:101730000E941719181684F42BED3FE049EC50E491
:10174000C501B4010E94901760930C0370930D03C0
:1017500080930E0390930F0380900C0390900D03E1
:10176000A0900E03B0900F0320E030E044E353E478
:10177000C501B4010E94C3162BED3FE049E450E4DB
:101780000E9420186093100370931103809312033A
:1017900090931303C501B4010E941D189B01AC0175
:1017A000C701B6010E94C3169B01AC0160911803EA
:1017B0007091190380911A0390911B030E94911755
:1017C000609318037093190380931A0390931B037B
:1017D000C501B4010E9422199B01AC01C701B601E9
:1017E0000E94C3169B01AC01609114037091150314
:1017F00080911603909117030E9491176093140330
:10180000709315038093160390931703A701960115
:10181000609156037091570380915803909159033A
:101820000E94911760935603709357038093580357
:1018300090935903DF91CF911F910F91FF90EF90FB
:10184000DF90CF90BF90AF909F908F907F906F90E0
:101850005F904F9008958F929F92AF92BF92CF92D8
:10186000DF92EF92FF92CF93DF936B017C0120E038
:1018700030E044E353E40E94171918164CF420E0BA
:1018800030E044EB53E4C701B6010E94901712C048
:1018900020E030E044E353ECC701B6010E945E163D
:1018A00087FF0AC020E030E044E353E4C701B601FB
:1018B0000E9491176B017C01A701960160911003B2
:1018C0007091110380911203909113030E945E1690
:1018D000812C912C9AE7A92E93E4B92E87FF20C082
:1018E0002091100330911103409112035091130382
:1018F000C701B6010E94171987FD32C0F4DD80923E
:10190000100290921102A0921202B0921302C091A2
:101910005403D0915503CE01BFD9CE0184D9E0CF75
:101920002091100330911103409112035091130341
:10193000C701B6010E945E16181694F0D4DD80929D
:10194000100290921102A0921202B0921302C09162
:101950005403D0915503CE01DBD9CE0128D9E0CF75
:1019600080E090E8ADE5B3E480931002909311021B
:10197000A0931202B09313028091540390915503E7
:10198000DF91CF91FF90EF90DF90CF90BF90AF901D
:101990009F908F90F5C84F925F926F927F928F9237
:1019A0009F92AF92BF92CF92DF92EF92FF92809080
:1019B000560390905703A0905803B09059032AE91A
:1019C00039E949E15FE30E94C3162B013C01A501FF
:1019D0009401609156037091570380915803909140
:1019E00059030E9490176B017C0120E030E0A901AF
:1019F0000E941719181624F0F7FAF094F7F8F094EB
:101A0000A7019601C301B2010E941719E090540387
:101A1000F090550387FD06C0C7017AD9C7013CD9AC
:101A200062DDD5CFC701FF90EF90DF90CF90BF90E0
:101A3000AF909F908F907F906F905F904F90A0C8D5
:101A40004F925F926F927F928F929F92AF92BF92CE
:101A5000CF92DF92EF92FF920F931F93CF93DF937A
:101A600000D01F92CDB7DEB7E982FA820B831C83C8
:101A700060933C0370933D0380933E0390933F0338
:101A80002093400330934103409342035093430318
:101A9000809154039091550373D820911403309191
:101AA0001503409116035091170360913C03709108
:101AB0003D0380913E0390913F030E9490174B019C
:101AC0005C01209118033091190340911A03509141
:101AD0001B036091400370914103809142039091F8
:101AE00043030E9490176B017C01A5019401C5017D
:101AF000B4010E94C3162B013C01A7019601C70146
:101B0000B6010E94C3169B01AC01C301B2010E9441
:101B100091170E942C196093480370934903809396
:101B20004A0390934B0320E030E0A901C701B601BE
:101B30000E945E1681110AC02CEA35EC47E257E399
:101B4000C701B6010E9491176B017C0120E030E0D3
:101B5000A901C701B6010E94171918164CF4A70174
:101B60009601C501B4010E9420180E94F51724C0F7
:101B700020E030E0A901C501B4010E945E16A70172
:101B8000960187FF0DC0C501B4010E9420180E9474
:101B9000F5172BED3FE049E450E40E9490170CC08C
:101BA000C501B4010E9420180E94F5172BED3FE0FB
:101BB00049E450E40E94911726EE3EE245E652E4E5
:101BC0000E94C316609344037093450380934603B9
:101BD000909347038090440390904503A090460360
:101BE000B0904703209110033091110340911203EC
:101BF00050911303C501B4010E9490176B017C0141
:101C000020E030E044E353E40E94171918164CF426
:101C100020E030E044EB53E4C701B6010E94901786
:101C20001BC020E030E044E353ECC701B6010E9442
:101C30005E1687FD09C0C0924C03D0924D03E0921E
:101C40004E03F0924F0310C020E030E044EB53E429
:101C5000C701B6010E94911760934C0370934D0326
:101C600080934E0390934F03C501B401F4DD20919E
:101C700048033091490340914A0350914B036981D5
:101C80007A818B819C810E94C3160F900F900F90D8
:101C90000F90DF91CF911F910F91FF90EF90DF9008
:101CA000CF90BF90AF909F908F907F906F905F90FC
:101CB0004F9071CECF93DF93CDB7DEB7C058D10927
:101CC0000FB6F894DEBF0FBECDBFC857DF4F888177
:101CD000C858D040FE01E557FF4F9FEF980F903254
:101CE000A0F5309791F195E599839A83982F990FF4
:101CF000980F9B5F9B8393E09C838D8328EE2E83BC
:101D00009F83DE01119690E0BD01208117962C93F0
:101D100017973281238118963C93189719962C9324
:101D200019979F5F349613968913EFCF8091FF0325
:101D3000909100044B8150E04E5F5F4FDC01ED91CC
:101D4000FC910280F381E02D1995C058DF4F0FB64A
:101D5000F894DEBF0FBECDBFDF91CF910895CF9332
:101D6000DF93CDB7DEB72B970FB6F894DEBF0FBE6B
:101D7000CDBF95E599839A8398E09B8393E09C83FC
:101D800091E09D834E835F83888769877A878091FE
:101D9000FF0390910004DC01ED91FC910280F3813E
:101DA000E02D4AE050E0BE016F5F7F4F19952B9602
:101DB0000FB6F894DEBF0FBECDBFDF91CF9108956F
:101DC000CF92DF92EF92FF921F93CF93DF93EC01BC
:101DD0001092600210925F021092620210926102F1
:101DE00041E050E066E272E083E692E013D90E949F
:101DF000E7036B017C0120EDC20E27E0D21EE11C3F
:101E0000F11C83E692E061D9181619063CF00E9495
:101E1000E7036C157D058E059F0598F383E692E038
:101E200054D9181619060CF098C083E692E03FD9F1
:101E3000CA9709F056C081E090E0909362028093C7
:101E4000610283E692E01FD983E692E03ED918163C
:101E50001906D4F783DAFC0197FD0CC08D32910589
:101E600009F442C0C0970A9708F43EC083E692E0A6
:101E70000AD9F0CFC12CD12C7601D0926002C09249
:101E80005F0283E692E021D90397DCF398DA60934E
:101E9000530270935402809355029093560283E646
:101EA00092E013D90397DCF38ADA609357027093B8
:101EB00058028093590290935A0283E692E005D922
:101EC0000397DCF37CDA60935B0270935C0280938F
:101ED0005D0290935E0261E070E080E090E00E941D
:101EE000AF030E949F0539C0C12CD12C760110E0B0
:101EF000E130F105D9F0ED32F105B9F0CF01C0972D
:101F00000A97A0F4AAE0B0E0A7019601F0D76F010C
:101F1000FF0FEE08FF08C60ED71EE81EF91E80E36D
:101F2000C81AD108E108F10801C011E083E692E087
:101F3000AAD814DAFC01C0970A97D0F2E130F10573
:101F4000B9F2112309F499CFF094E094D094C0949D
:101F5000C11CD11CE11CF11C90CF80E1E3E5F2E053
:101F6000DE0101900D928A95E1F7CE01DF91CF91CC
:101F70001F91FF90EF90DF90CF900895823109F488
:101F800066C0B8F4823069F1833009F073C0709391
:101F90002B0260932A0280E098E0909303028093E2
:101FA000020280916A00837F846080936A00ED9AC8
:101FB0005FC0843141F1C8F1853109F05BC0709395
:101FC0002D0260932C028BEF97E090930502809393
:101FD0000402809169008C7F816080936900E89A97
:101FE00047C0709329026093280285E098E090939F
:101FF00001028093000280916A008C7F816080934F
:102000006A00EC9A35C070932F0260932E0286EF1F
:1020100097E0909307028093060280916900837F86
:10202000846080936900E99A23C0709331026093C1
:10203000300281EF97E0909309028093080280912B
:1020400069008F7C806180936900EA9A11C0709367
:102050003302609332028CEE97E090930B028093F0
:102060000A02809169008F73806480936900EB9A03
:1020700081E0089580E008950F931F93CF93DF933D
:10208000EC01062F142F62E0802F0E94AC0262E068
:10209000812F0E94AC02802F90E0FC01EA53FE4F9A
:1020A000E491F0E0EE0FFF1FE455FE4FA591B491CF
:1020B000B983A883FC01E45FFD4F24912C83812F19
:1020C00090E0FC01EA53FE4FE491F0E0EE0FFF1FB9
:1020D000E455FE4F459154915B834A83FC01E45FD4
:1020E000FD4F94919D831F82188619861A86EBE313
:1020F000FFE13197F1F7EC91E22331E009F430E0B0
:10210000DA01EC91E92309F032603E83BE01802FB1
:1021100035DF8B87BE01812F31DF9B85890F8B8750
:10212000DF91CF911F910F910895CF93DF93CDB79A
:10213000DEB7C559D1090FB6F894DEBF0FBECDBFCB
:10214000789484B5826084BD84B5816084BD85B592
:10215000826085BD85B5816085BD80916E0081609E
:1021600080936E0010928100809181008260809344
:102170008100809181008160809381008091800046
:102180008160809380008091B10084608093B10071
:102190008091B00081608093B00080919100826056
:1021A0008093910080919100816080939100809153
:1021B00090008160809390008091A1008260809364
:1021C000A1008091A10081608093A1008091A00076
:1021D00081608093A0008091210182608093210121
:1021E0008091210181608093210180912001816093
:1021F0008093200180917A00846080937A0080919E
:102200007A00826080937A0080917A008160809366
:102210007A0080917A00806880937A001092C100E1
:1022200081E080933F0282EC91E0909341028093A1
:10223000400232E030934202909344028093430282
:1022400023E020934502909347028093460224E0C6
:102250002093480290934A028093490225E02093FC
:102260004B0290934D0280934C0226E020934E0245
:102270009093500280934F02E0917302F0917402A8
:102280003083E0916F02F09170021082E091710250
:10229000F091720283E3808310927B02E0917702D7
:1022A000F09178022083E0917502F09176028081AE
:1022B00080618083E0917502F09176028081886070
:1022C0008083E0917502F09176028081806880833E
:1022D000E0917502F091760280818F7D8083E0919C
:1022E0006A03F0916B033083E0916603F09167031A
:1022F0001082E0916803F09169038FEC8083109263
:102300007203E0916E03F0916F032083E0916C0300
:10231000F0916D03808180618083E0916C03F09186
:102320006D03808188608083E0916C03F0916D0380
:10233000808180688083E0916C03F0916D038081DF
:102340008F7D808381E090E09093520280935102D0
:102350001092600210925F020E94F506CE01019673
:102360002FDD8F859889892BC9F347E0242E312CE6
:10237000CE014396C857DF4F99838883C858D04011
:10238000E0916102F0916202309709F41995ABD89F
:1023900080915102909152028230910509F443C11B
:1023A00038F4009709F46CC0019709F4DAC03BC314
:1023B0008330910509F4DEC1069709F034C384E641
:1023C00090E09093410280934002A1E1B1E0B0938C
:1023D0004D02A0934C0284E893E090934A028093CC
:1023E0004902A0EAB1E0B0934702A093460284EF0D
:1023F00091E09093500280934F0281E08F9392EC92
:102400009F931F9216E01F938F939F931F9225E037
:102410002F938F939F931F9224E02F938F939F93DB
:102420001F9203E00F938F939F931F9222E02F93AD
:102430008F939F931F928F930F9388EE8F931F9389
:1024400087EF93E09F938F9335DC68EE73E080E035
:1024500090E00E94AF0385E589838A8387E18B83BF
:102460000C831D8380ED8E8387E08F83AFE3B2E022
:10247000FE0131960FB6F894DEBF0FBECDBF46C247
:102480008CE0E1E0F4E0DE01A859BF4F01900D922D
:102490008A95E1F780910F0490911004E8969FAF20
:1024A0008EAFE89780910D0490910E04E6969FAF51
:1024B0008EAFE697CE018A589F4F0E94C1066C32BC
:1024C00071408105910580F4CE0188599F4F0E948B
:1024D000C005CE0188599F4F0E948806CE018859B9
:1024E0009F4F0E94D70519C0CE018C589F4F0E9464
:1024F000C1066C32714081059105B0F4CE01885956
:102500009F4F0E94C005CE0188599F4F0E944C06E4
:10251000CE0188599F4F0E94130664E670E080E068
:1025200090E00E94AF030AC0CE0188599F4F0E94DD
:102530008806CE0188599F4F0E944C0620E030E06B
:1025400041EE53E460915603709157038091580314
:10255000909159036CD618160CF095C281E090E06A
:102560004EC081E094E00E94C00510920C031092CE
:102570000D0310920E0310920F0310921403109289
:10258000150310921603109217031092180310925D
:10259000190310921A0310921B0310925603109203
:1025A0005703109258031092590360E070E084EBD7
:1025B00092E451D960E070E084EB92E44CD981E080
:1025C00094E00E94C00560ED77E080E090E00E941A
:1025D000AF03CE0188589F4FF3DB80E1FE01E8583E
:1025E000FF4FA3E5B2E001900D928A95E1F780914B
:1025F0005F0290916002892B39F082E090E0909325
:1026000052028093510243C260E070E080EA90E49D
:1026100022D960E070E080EF91E4BDD981E094E0E0
:102620000E94C00510C2C0900C03D0900D03E09032
:102630000E03F0900F0320E030E04AE754E460918D
:102640005B0270915C0280915D0290915E029BD36F
:10265000C257DF4F688379838A839B83CE58D040EB
:1026600020E030E04AE754E4609153027091540254
:10267000809155029091560286D34B015C01C701AF
:10268000B601DBD4C657DF4F688379838A839B8387
:10269000CA58D040C701B6019058D4D52B013C018F
:1026A000C701B601CFD5CE56DF4F688379838A83C1
:1026B0009B83C259D040C657DF4F288139814A8158
:1026C0005B81CA58D040C257DF4F688179818A81C7
:1026D0009B81CE58D04057D36B017C01A30192015E
:1026E000C501B40150D39B01AC01C701B60119D497
:1026F000209118033091190340911A0350911B0344
:1027000010D42B013C01C657DF4F288139814A8103
:102710005B81CA58D040C501B40135D36B017C013F
:10272000CE56DF4F288139814A815B81C259D04022
:10273000C257DF4F688179818A819B81CE58D04012
:1027400022D39B01AC01C701B601EBD32091140346
:10275000309115034091160350911703E2D313E310
:10276000E12EFE2C03E31FE3A301920169D983E06C
:1027700090E045CF60ED77E080E090E00E94AF030D
:10278000CE0188589F4F1CDB80E1FE01E858FF4FC7
:10279000A3E5B2E001900D928A95E1F780915F0286
:1027A00090916002892B09F4ACC0C0900C03D090CA
:1027B0000D03E0900E03F0900F0320E030E04AE7B5
:1027C00054E460915B0270915C0280915D02909193
:1027D0005E02D9D2C257DF4F688379838A839B8395
:1027E000CE58D04020E030E04AE754E460915302F4
:1027F000709154028091550290915602C4D24B01BF
:102800005C01C701B60119D4C657DF4F68837983CD
:102810008A839B83CA58D040C701B601905812D50D
:102820002B013C01C701B6010DD5CE56DF4F6883A1
:1028300079838A839B83C259D040C657DF4F288152
:1028400039814A815B81CA58D040C257DF4F6881C5
:1028500079818A819B81CE58D04095D26B017C01D1
:10286000A3019201C501B4018ED29B01AC01C70145
:10287000B60157D3209118033091190340911A03E0
:1028800050911B034ED32B013C01C657DF4F2881CB
:1028900039814A815B81CA58D040C501B40173D2E5
:1028A0006B017C01CE56DF4F288139814A815B81E3
:1028B000C259D040C257DF4F688179818A819B819C
:1028C000CE58D04060D29B01AC01C701B60129D3DC
:1028D0002091140330911503409116035091170372
:1028E00020D31AE9E12E19E9F12E09E91FE3A3012A
:1028F0009201A6D8A6E0B0E0B0935202A093510294
:10290000C6C03092520220925102C1C08C9187837E
:1029100011969C91119712968C91129790878187AE
:1029200013963396C857DF4F88819981C858D04095
:10293000E817F90759F707EF13E08091FF0390912B
:1029400000044B8150E04E5F5F4FDC01ED91FC9144
:102950000280F381E02DBE016F5F7F4F199568E91A
:1029600078E080E090E00E94AF034CE251E060EE3E
:1029700071E086E0F4D96BE371E080E090E00E94C2
:10298000AF0348EC50E06EE571E082E0E8D967ED16
:1029900070E080E090E00E94AF0344EF51E062E518
:1029A00073E081E0DCD963E072E080E090E00E94B7
:1029B000AF0391E09F9382EC8F931F9226E02F93B9
:1029C0009F938F931F9225E02F939F938F931F9236
:1029D00034E03F939F938F931F9233E03F939F93F5
:1029E0008F931F9282E08F933F9388EE8F932F9364
:1029F0001F930F935FD968EE73E080E090E00E9430
:102A0000AF030E94F506309252022092510268E80C
:102A100073E180E090E00E94AF030FB6F894DEBF50
:102A20000FBECDBF34C013E3E12EFE2C03EB1FE33A
:102A300020E030E0A901CA01B90102D860E070E0ED
:102A4000CB010E942B0C10920C0310920D031092DC
:102A50000E0310920F03109214031092150310929C
:102A60001603109217031092180310921903109274
:102A70001A0310921B0310925603109257031092E0
:102A800058031092590310925202109251020E9460
:102A90007F0176CC0F931F93CF93DF93CAE5D3E0EA
:102AA0001B821A8248EE53E060E070E04C835D8345
:102AB0006E837F8388E192E09983888325E331E008
:102AC0003D872C8724E331E03F872E8720E331E0E8
:102AD000398B288B21E331E03B8B2A8B22E331E0D9
:102AE0003D8B2C8B26E331E03F8B2E8B198E1A8E7B
:102AF0001B8E1C8EE3E6F2E0138212824483558320
:102B0000668377839183808385EC90E095878487C3
:102B100084EC90E09787868780EC90E0918B808BA7
:102B200081EC90E0938B828B82EC90E0958B848B90
:102B300086EC90E0978B868B118E128E138E148EFE
:102B400083E090E09093100480930F0482E090E083
:102B500090930E0480930D0461E086E00E94AC0225
:102B600061E087E00E94AC0261E08AE00E94AC0272
:102B700061E08BE00E94AC0261E088E00E94AC0260
:102B800061E089E00E94AC0201E014E086E090E0A0
:102B9000F8019183808387E090E0938382838AE0C9
:102BA00090E0958384838BE090E09783868388E030
:102BB00090E09187808789E090E093878287E7EFB4
:102BC000F3E08FEF808312821182148217821682C3
:102BD000158281E08383D187C08745E164E18DE17F
:102BE00094E04ADA42E163E181E194E045DAE0E031
:102BF000F3E01486158616861786108A118A128AC3
:102C0000138A148A158A168A178A108E118E128ECC
:102C1000138E148E158E168E178E10A211A212A26C
:102C200013A214A215A216A217A210A611A612A6EC
:102C300013A614A615A616A617A610AA11AA12AABC
:102C400013AA14AA15AA16AA17AA10AE11AE12AE8C
:102C500013AE109244031092450310924603109253
:102C60004703109248031092490310924A031092AE
:102C70004B0310924C0310924D0310924E0310928E
:102C80004F0310925603109257031092580310925C
:102C900059038DE194E0909351038093500381E1B7
:102CA00094E0909353038093520310935503009341
:102CB0005403DF91CF911F910F91089540D008F4F4
:102CC00081E00895E89409C097FB3EF490958095C3
:102CD000709561957F4F8F4F9F4F9923A9F0F92FE2
:102CE00096E9BB279395F695879577956795B79560
:102CF000F111F8CFFAF4BB0F11F460FF1BC06F5F46
:102D00007F4F8F4F9F4F16C0882311F096E911C057
:102D1000772321F09EE8872F762F05C0662371F078
:102D200096E8862F70E060E02AF09A95660F771F8C
:102D3000881FDAF7880F9695879597F90895990F68
:102D40000008550FAA0BE0E8FEEF16161706E80775
:102D5000F907C0F012161306E407F50798F0621B96
:102D6000730B840B950B39F40A2661F0232B242B6B
:102D7000252B21F408950A2609F4A140A6958FEF8A
:102D8000811D811D08950BD078C069D028F06ED0C8
:102D900018F0952309F05AC05FC01124A2C07ED05C
:102DA000A0F3959FD1F3950F50E0551F629FF0015E
:102DB000729FBB27F00DB11D639FAA27F00DB11DB7
:102DC000AA1F649F6627B00DA11D661F829F222740
:102DD000B00DA11D621F739FB00DA11D621F839FC7
:102DE000A00D611D221F749F3327A00D611D231F9D
:102DF000849F600D211D822F762F6A2F11249F57EB
:102E000050408AF0E1F088234AF0EE0FFF1FBB1F0D
:102E1000661F771F881F91505040A9F79E3F5105AC
:102E200070F014C05EC05F3FECF3983EDCF3869513
:102E300077956795B795F795E7959F5FC1F7FE2B57
:102E4000880F911D9695879597F9089597F99F6733
:102E500080E870E060E008959FEF80EC0895002422
:102E60000A941616170618060906089500240A94EF
:102E700012161306140605060895092E0394000C75
:102E800011F4882352F0BB0F40F4BF2B11F460FF04
:102E900004C06F5F7F4F8F4F9F4F089557FD90582D
:102EA000440F551F59F05F3F71F04795880F97FB0E
:102EB000991F61F09F3F79F08795089512161306C8
:102EC0001406551FF2CF4695F1DF08C016161706F7
:102ED0001806991FF1CF869571056105089408952C
:102EE000E894BB2766277727CB0197F9089509D087
:102EF000A59F900DB49F900DA49F800D911D11244E
:102F00000895A29FB001B39FC001A39F700D811DC2
:102F10001124911DB29F700D811D1124911D0895E2
:102F20005058BB27AA270ED0A8CF99DF30F09EDFDC
:102F300020F031F49F3F11F41EF48ECF0EF4E09593
:102F4000E7FB84CFE92FAADF80F3BA176207730784
:102F50008407950718F071F49EF5C2CF0EF4E09542
:102F60000B2EBA2FA02D0B01B90190010C01CA0143
:102F7000A0011124FF27591B99F0593F50F4503EEE
:102F800068F11A16F040A22F232F342F4427585FE0
:102F9000F3CF469537952795A795F0405395C9F7F8
:102FA0007EF41F16BA0B620B730B840BBAF09150B0
:102FB000A1F0FF0FBB1F661F771F881FC2F70EC04F
:102FC000BA0F621F731F841F48F487957795679522
:102FD000B795F7959E3F08F0B3CF9395880F08F00B
:102FE0009927EE0F979587950895DF93DD27B92FE1
:102FF000BF7740E85FE31616170648075B0710F433
:10300000D92F19D19F938F937F936F9363D1ECE264
:10301000F1E0AFD032DF2F913F914F915F91BFDE52
:10302000DD2349F09058A2EA2AED3FE049EC5FE346
:10303000D0785D2787DFDF9120CFC1D0E395E6C050
:103040000CD01BCF13DF40F00ADF30F021F45F3FDC
:1030500019F0FCCE511145CFFFCE20DF98F3992314
:10306000C9F35523B1F3951B550BBB27AA2762174C
:103070007307840738F09F5F5F4F220F331F441F91
:10308000AA1FA9F333D00E2E3AF0E0E830D09150C9
:103090005040E695001CCAF729D0FE2F27D0660FB6
:1030A000771F881FBB1F261737074807AB07B0E8F5
:1030B00009F0BB0B802DBF01FF2793585F4F2AF00B
:1030C0009E3F510568F0C2CE0CCF5F3FECF3983EB7
:1030D000DCF3869577956795B795F7959F5FC9F768
:1030E000880F911D9695879597F90895E1E0660FF1
:1030F000771F881FBB1F621773078407BA0720F06A
:10310000621B730B840BBA0BEE1F88F7E0950895D2
:1031100004D06894B111E5CE0895C8DE88F09F57B9
:1031200090F0B92F9927B751A0F0D1F0660F771F13
:10313000881F991F1AF0BA95C9F712C0B13081F0F3
:10314000CFDEB1E00895CCCE672F782F8827B85F07
:1031500039F0B93FCCF3869577956795B395D9F754
:103160003EF490958095709561957F4F8F4F9F4F5E
:103170000895DF93CF931F930F93FF92EF92DF9207
:103180007B018C01689405C0DA2EEF0108DEFE0198
:10319000E894A5912591359145915591AEF3EF01B4
:1031A000D1DEFE019701A801DA9479F7DF90EF9064
:1031B000FF900F911F91CF91DF9108954DCE76DE54
:1031C000E8F3E894E0E0BB279F57F0F02AED3FE0FA
:1031D00049EC06C0EE0FBB0F661F771F881F28F053
:1031E000B23A62077307840728F0B25A620B730B76
:1031F000840BE3959A9572F7803830F49A95BB0F5B
:10320000661F771F881FD2F7904869C0EF93E0FFD1
:1032100006C0A2EA2AED3FE049EC5FEB93DE2DDE2B
:103220000F90039401FC9058E9E5F1E06BC087DD55
:1032300008F48FEF08959B01AC0160E070E080E836
:103240009FE3FECE9F93BBDF0F9007FCEE5FDECFC8
:1032500011F40EF401CE41C029DED0F39923D9F345
:10326000CEF39F57550B87FF46D00024A0E640EAD7
:10327000900180585695979528F4805C660F771FCB
:10328000881F20F026173707480730F4621B730B9E
:10329000840B202931294A2BA695179407942025C1
:1032A00031254A2758F7660F771F881F20F0261709
:1032B0003707480730F4620B730B840B200D311D68
:1032C000411DA09581F7B901842F9158880F9695DB
:1032D000879508959B01AC0156CD9F3F31F09150E9
:1032E00020F4879577956795B795880F911D9695EA
:1032F000879597F9089591505040660F771F881F62
:10330000D2F708959F938F937F936F93FF93EF93DB
:103310009B01AC0138DDEF91FF912BDF2F913F91A5
:103320004F915F9130CDEE0FFF1F881F8BBF07902D
:10333000F691E02D199481E090E0F89400C0F894A3
:02334000FFCFBD
:103342008302830283028302830283028302830253
:1033520000805D430000000083080A083408CF089B
:083362006508430857085300F9
:020000023000CC
:10E000000D9489F10D94B2F10D94B2F10D94B2F129
:10E010000D94B2F10D94B2F10D94B2F10D94B2F1F0
:10E020000D94B2F10D94B2F10D94B2F10D94B2F1E0
:10E030000D94B2F10D94B2F10D94B2F10D94B2F1D0
:10E040000D94B2F10D94B2F10D94B2F10D94B2F1C0
:10E050000D94B2F10D94B2F10D94B2F10D94B2F1B0
:10E060000D94B2F10D94B2F10D94B2F10D94B2F1A0
:10E070000D94B2F10D94B2F10D94B2F10D94B2F190
:10E080000D94B2F10D94B2F10D94B2F10D94B2F180
:10E090000D94B2F10D94B2F10D94B2F10D94B2F170
:10E0A0000D94B2F10D94B2F10D94B2F10D94B2F160
:10E0B0000D94B2F10D94B2F10D94B2F10D94B2F150
:10E0C0000D94B2F10D94B2F10D94B2F10D94B2F140
:10E0D0000D94B2F10D94B2F10D94B2F10D94B2F130
:10E0E0000D94B2F141546D656761323536300041AF
:10E0F000726475696E6F206578706C6F72657220DE
:10E1000073746B3530305632206279204D4C530099
:10E11000426F6F746C6F616465723E004875683F52
:10E1200000436F6D70696C6564206F6E203D200048
:10E130004350552054797065202020203D20005FF9
:10E140005F4156525F415243485F5F3D2000415658
:10E1500052204C696243205665723D20004743437C
:10E160002056657273696F6E203D20004350552024
:10E1700049442020202020203D20004C6F7720663D
:10E18000757365202020203D20004869676820665F
:10E190007573652020203D200045787420667573D6
:10E1A00065202020203D20004C6F636B2066757336
:10E1B000652020203D20004D617220203720323024
:10E1C000313300312E362E3800342E332E350056A2
:10E1D00023202020414444522020206F7020636F70
:10E1E00064652020202020696E73747275637469E1
:10E1F0006F6E2061646472202020496E74657272B3
:10E20000757074006E6F20766563746F7200726A49
:10E210006D702020006A6D70200057686174207056
:10E220006F72743A00506F7274206E6F7420737541
:10E2300070706F72746564004D7573742062652030
:10E2400061206C6574746572002000577269747483
:10E25000696E672045450052656164696E672045B7
:10E26000450045452065727220636E743D00504F35
:10E27000525400303D5A65726F2061646472003FF1
:10E280003D43505520737461747300403D454550C3
:10E29000524F4D207465737400423D426C696E6B41
:10E2A000204C454400453D44756D70204545505215
:10E2B0004F4D00463D44756D7020464C415348001B
:10E2C000483D48656C70004C3D4C69737420492F83
:10E2D0004F20506F72747300513D51756974005234
:10E2E0003D44756D702052414D00563D73686F7707
:10E2F00020696E7465727275707420566563746FF0
:10E30000727300593D506F727420626C696E6B00BD
:10E310002A0011241FBECFEFD1E2DEBFCDBF01E046
:10E320000CBF12E0A0E0B2E0EEE1FDEF03E00BBFB6
:10E3300002C007900D92A030B107D9F712E0A0E01B
:10E34000B2E001C01D92AE30B107E1F70F9460F367
:10E350000D948DFE01E20EBF0FEF0DBF11241FBE05
:10E360000D9460F30D9400F020E030E040ED57E0B4
:10E3700005C0FA013197F1F72F5F3F4F2817390792
:10E38000C0F308959C01260F311DC901A0E0B0E043
:10E390002F5F3F4FABBFFC018791882361F08093D3
:10E3A000C6008091C00086FFFCCF8091C0008064D1
:10E3B0008093C000EACF08958DE08093C6008091DD
:10E3C000C00086FFFCCF8091C00080648093C000B5
:10E3D0008AE08093C6008091C00086FFFCCF8091C8
:10E3E000C00080648093C00008950F94C2F10F9420
:10E3F000DCF10895FC019081992359F09093C600B7
:10E400008091C00086FFFCCF8091C0008064809323
:10E41000C0003196992379F70895282F982F929567
:10E420009F70892F805D8A3308F0895F8093C600D2
:10E430008091C00086FFFCCF8091C00080648093F3
:10E44000C000822F8F70982F905D9A3308F0995FEB
:10E450009093C6008091C00086FFFCCF8091C000E1
:10E4600080648093C00008959C01FB01853691056E
:10E470001CF46330710594F0C90164E670E00F94F8
:10E480002EFE605D7F4F6093C6008091C00086FFC6
:10E49000FCCF8091C00080648093C0002B30310598
:10E4A00014F43297B4F0C90164E670E00F942EFEC4
:10E4B0006AE070E00F942EFE605D7F4F6093C600AF
:10E4C0008091C00086FFFCCF8091C0008064809363
:10E4D000C000C9016AE070E00F942EFEC0968093E0
:10E4E000C6008091C00086FFFCCF8091C000806490
:10E4F0008093C00008951F93182F8EE692EE60E07F
:10E500000F94C2F11093C6008091C00086FFFCCF2B
:10E510008091C00080648093C0000F94DCF11F9153
:10E5200008952F923F924F925F926F927F928F92B7
:10E530009F92AF92BF92CF92DF92EF92FF920F9392
:10E540001F93DF93CF93CDB7DEB762970FB6F894E2
:10E55000DEBF0FBECDBF382E622ECA01DB015C01CB
:10E560006D01772420E2222E2E010894411C511CBB
:10E570008BC081E0A81680E0B80681E0C80680E084
:10E58000D80628F0C601AA27BB270F940DF2BB2797
:10E59000AD2D9C2D8B2D0F940DF28A2D0F940DF225
:10E5A0002092C6008091C00086FFFCCF8091C00001
:10E5B00080648093C0009DE29093C6008091C0006B
:10E5C00086FFFCCF8091C00080648093C0002092C1
:10E5D000C6008091C00086FFFCCF8091C00080649F
:10E5E0008093C00019828601750188249924A1E0D6
:10E5F0003A1651F03A1620F0B2E03B1661F409C029
:10E600000BBFF701779007C0C7010F9477FE782EF4
:10E6100002C0F7017080872D0F940DF22092C60082
:10E620008091C00086FFFCCF8091C0008064809301
:10E63000C000872D8052F401EF70F0708F3520F408
:10E64000E40DF51D708204C0E40DF51D8EE280839B
:10E650000894E11CF11C011D111D0894811C911CE2
:10E6600090E18916910409F0C2CF80E190E0A0E02A
:10E67000B0E0A80EB91ECA1EDB1E198AC2010F9493
:10E68000FAF10F94DCF16A94662009F072CF629679
:10E690000FB6F894DEBF0FBECDBFCF91DF911F91B3
:10E6A0000F91FF90EF90DF90CF90BF90AF909F9031
:10E6B0008F907F906F905F904F903F902F90089534
:10E6C0002F923F924F925F926F927F928F929F9282
:10E6D000AF92BF92CF92DF92EF92FF920F931F9370
:10E6E000DF93CF93CDB7DEB7CD53D1400FB6F894BB
:10E6F000DEBF0FBECDBF01E20EBF0FEF0DBF94B75F
:10E70000F894A89514BE80916000886180936000A1
:10E7100010926000789493FF05C0E0910002F091A0
:10E7200001021995279A2F9A8091C00082608093E8
:10E73000C00080E18093C40088E18093C1000000A4
:10E74000EE24FF24870144E0A42EB12CCC24DD2448
:10E7500024C0C5010197F1F70894E11CF11C011DCB
:10E76000111D21E2E2162EE4F20620E0020720E06D
:10E77000120718F031E0C32ED12CC801B70127ECE5
:10E780003BE140E050E00F9441FE611571058105C9
:10E79000910519F485B1805885B98091C00087FD35
:10E7A00003C0C114D104A9F2A6014F5F5F4FC25E3E
:10E7B000DE4F59834883CE51D140C25EDE4F8881FF
:10E7C0009981CE51D140019711F00D9410FEC05D9A
:10E7D000DE4F19821882C053D14060E0C15DDE4F28
:10E7E0001882CF52D14088249924C35DDE4F19820C
:10E7F0001882CD52D140C05EDE4F188219821A8233
:10E800001B82C052D140CE5CDE4F188219821A8220
:10E810001B82C253D140EE24FF2487010BBFF701B6
:10E8200007911691C45CDE4F19830883CC53D14005
:10E830000D940BFEC25EDE4F28813981CE51D1404E
:10E840002130310509F52091C600C25EDE4F1982E4
:10E850001882CE51D14022C02F5F3F4F4F4F5F4FA4
:10E86000213082E138078AE7480780E0580780F0C6
:10E87000C45CDE4FE881F981CC53D140EF5FFF4F9C
:10E8800019F0EE27FF27099420E030E040E050E047
:10E890008091C00087FFE0CF2091C600C35DDE4FAE
:10E8A00048815981CD52D1404F5F5F4FC35DDE4FEC
:10E8B00059834883CD52D140213209F063C64A3092
:10E8C000510508F05FC60894811C911C53E0851621
:10E8D000910409F059C600E010E018C081E280936D
:10E8E000C6008091C00086FFFCCF8091C00080648C
:10E8F0008093C0002F5F3F4F2931310579F70F9486
:10E90000DCF10F5F1F4F0530110519F020E030E0FA
:10E91000E5CF10920A0210920B0210920C02109294
:10E920000D02109206021092070210920802109235
:10E930000902109202021092030210920402109235
:10E9400005028FEE90EE60E00F94F5F180E191EE1C
:10E9500060E00F94C2F18091C00087FFFCCF9091DE
:10E96000C600903608F09F759032B8F09093C600BC
:10E970008091C00086FFFCCF8091C00080648093AE
:10E98000C000A0E2A093C6008091C00086FFFCCF2B
:10E990008091C00080648093C000983409F4D7C18E
:10E9A0009934B8F4923409F459C1933458F490333B
:10E9B00019F1903308F4E3C59F33A1F1903409F0C5
:10E9C000DEC5BDC0953409F470C1963409F0D7C5D1
:10E9D00098C1923509F42BC2933538F49C3409F46C
:10E9E000F5C1913509F0CBC518C2963509F445C279
:10E9F000993509F0C4C567C483E792EE62E00F94CD
:10EA0000F5F110920602109207021092080210927D
:10EA1000090210920A0210920B0210920C0210923C
:10EA20000D0213C18FE792EE62E00F94F5F18FEEC5
:10EA300090EE60E00F94F5F181E291EE60E00F94CA
:10EA4000C2F187EB91EE60E00F94F5F180E391EE77
:10EA500060E00F94C2F184EE90EE60E00F94F5F167
:10EA60008FE391EE60E00F94C2F186E090E061E008
:10EA700070E00F9434F20F94DCF18DE591EE60E0DC
:10EA80000F94C2F189EC91EE60E00F94F5F18EE401
:10EA900091EE60E00F94C2F183EC91EE60E00F9490
:10EAA000F5F18CE691EE60E00F94C2F18EE10F94E7
:10EAB0000DF288E90F940DF281E00F940DF20F949E
:10EAC000DCF18BE791EE60E00F94C2F119E0E0E039
:10EAD000F0E010935700E4918E2F0F940DF20F94F5
:10EAE000DCF18AE891EE60E00F94C2F1E3E0F0E03F
:10EAF00010935700E4918E2F0F940DF20F94DCF1D8
:10EB000089E991EE60E00F94C2F1E2E0F0E0109349
:10EB10005700E4918E2F0F940DF20F94DCF188EAE8
:10EB200091EE60E00F94C2F1E1E0F0E01093570045
:10EB30001491812F0F940DF20F94DCF107CF8BE825
:10EB400092EE62E00F94F5F18BE492EE60E00F94A8
:10EB5000F5F10F94DCF100E010E019C0C8016F2D51
:10EB60000F947FFEFF2031F489E492EE60E00F9471
:10EB7000C2F10BC0F092C6008091C00086FFFCCFAE
:10EB80008091C00080648093C0000F5F1F4FC80158
:10EB900081519F41A0E0B0E0ABBFFC01F790BAE229
:10EBA000FB1621F0E2E000301E07C1F60F94DCF105
:10EBB0000F94DCF187E592EE60E00F94F5F10F948D
:10EBC000DCF1CC24DD2400E010E01EC0C8010F946D
:10EBD00077FEF82E882331F489E492EE60E00F94FA
:10EBE000C2F10BC08093C6008091C00086FFFCCFAD
:10EBF0008091C00080648093C000FE1419F00894D6
:10EC0000C11CD11C0F5F1F4FC80181519F41A0E063
:10EC1000B0E0ABBFFC01E790FAE2EF1621F022E092
:10EC20000030120799F60F94DCF10F94DCF182E6C4
:10EC300092EE60E00F94C2F1C60161E070E00F94C3
:10EC400034F20F94DCF10F94DCF110920202109276
:10EC50000302109204021092050278CE89E992EE26
:10EC600062E00F94F5F1279A2F9A16C02F9880E052
:10EC700090E0E0EDF7E03197F1F7019684369105E9
:10EC8000C1F72F9A80E090E0E0EDF7E03197F1F7DF
:10EC9000019684369105C1F78091C00087FFE6CFC9
:10ECA0008091C00087FFFCCF64C485EA92EE62E0E9
:10ECB0000F94F5F140910202509103026091040219
:10ECC0007091050281E020E10F9491F2809102029F
:10ECD00090910302A0910402B091050280509F4FD1
:10ECE000AF4FBF4F8093020290930302A0930402A0
:10ECF000B093050280509041A040B04008F426CE69
:10ED0000A4CF83EB92EE62E00F94F5F140910602FE
:10ED100050910702609108027091090280E020E1A1
:10ED20000F9491F28091060290910702A09108023F
:10ED3000B091090280509F4FAF4FBF4F80930602A2
:10ED400090930702A0930802B0930902FFCD80ECD4
:10ED500092EE62E00F94F5F183E792EE60E00F949B
:10ED6000F5F18FE792EE60E00F94F5F18BE892EE0B
:10ED700060E00F94F5F189E992EE60E00F94F5F10F
:10ED800085EA92EE60E00F94F5F183EB92EE60E09D
:10ED90000F94F5F180EC92EE60E00F94F5F187ECC2
:10EDA00092EE60E00F94F5F188ED92EE60E00F9442
:10EDB000F5F18FED92EE60E00F94F5F18AEE92EEB0
:10EDC00060E00F94F5F183E093EEBDCD87EC92EE19
:10EDD00062E00F94F5F181E40F947BF282E40F94EA
:10EDE0007BF283E40F947BF284E40F947BF285E45E
:10EDF0000F947BF286E40F947BF287E40F947BF20E
:10EE000088E40F947BF28AE40F947BF28BE40F94F6
:10EE10007BF28CE40F947BF299CD88ED92EE62E068
:10EE20000F94F5F1772473948824992409C48FED05
:10EE300092EE62E00F94F5F140910A0250910B02BC
:10EE400060910C0270910D0282E020E10F9491F22A
:10EE500080910A0290910B02A0910C02B0910D02D8
:10EE600080509F4FAF4FBF4F80930A0290930B0289
:10EE7000A0930C02B0930D0269CD8AEE92EE62E08F
:10EE80000F94F5F184EE90EE60E00F94F5F18FECC5
:10EE900091EE60E00F94F5F1662477244301CC5D98
:10EEA000DE4F19821882C452D140D401C301B695F5
:10EEB000A79597958795CA5DDE4F88839983AA8326
:10EEC000BB83C652D140CC5DDE4FA881B981C4520C
:10EED000D1401196CC5DDE4FB983A883C452D14096
:10EEE000CD0162E070E00F9434F2B0E2B093C6005E
:10EEF0008091C00086FFFCCF8091C0008064809329
:10EF0000C000EDE2E093C6008091C00086FFFCCF18
:10EF10008091C00080648093C000F0E2F093C6004E
:10EF20008091C00086FFFCCF8091C00080648093F8
:10EF3000C000CA5DDE4FE880F9800A811B81C6529D
:10EF4000D140BB27A12F902F8F2D0F940DF2CA5DBA
:10EF5000DE4F8881C652D1400F940DF2B0E2FB2EF5
:10EF6000F092C6008091C00086FFFCCF8091C00067
:10EF700080648093C0000DE30093C6008091C000C0
:10EF800086FFFCCF8091C00080648093C00010E2B7
:10EF90001093C6008091C00086FFFCCF8091C00016
:10EFA00080648093C0008BBEF3012791C65DDE4F65
:10EFB0002883CA52D140A22EBB24CC24DD2408943D
:10EFC000611C711C811C911C8BBEF3018791282E42
:10EFD0003324442455240894611C711C811C911C09
:10EFE0008BBEF3013791C55DDE4F3883CB52D140E4
:10EFF0000894611C711C811C911C8BBEF30147910C
:10F00000C45DDE4F4883CC52D140ADEFEA2EAFEF66
:10F01000FA2EAFEF0A2FAFEF1A2F6E0C7F1C801E57
:10F02000911E142D032DF22CEE24EA0CFB1C0C1D5A
:10F030001D1D0F940DF220E22093C6008091C000A8
:10F0400086FFFCCF8091C00080648093C000C65DC5
:10F05000DE4F8881CA52D1400F940DF230E23093D6
:10F06000C6008091C00086FFFCCF8091C000806404
:10F070008093C000C45DDE4F8881CC52D1400F9494
:10F080000DF240E24093C6008091C00086FFFCCFA5
:10F090008091C00080648093C000C55DDE4F888190
:10F0A000CB52D1400F940DF250E25093C6008091A4
:10F0B000C00086FFFCCF8091C00080648093C000B8
:10F0C0008FEFE8168FEFF80680E0080780E018075A
:10F0D00031F484E092EE60E00F94C2F1DFC0D80119
:10F0E000C7018070907CA070B0708050904CA040A0
:10F0F000B040D1F52FEF3FE340E050E0E222F322B1
:10F1000004231523CA5DDE4FA880B980CA80DB8046
:10F11000C652D140AE0CBF1CC01ED11EAA0CBB1CD7
:10F12000CC1CDD1C8EE092EE60E00F94C2F1BB2798
:10F13000A12F902F8F2D0F940DF28E2D0F940DF285
:10F1400030E23093C6008091C00086FFFCCF8091F2
:10F15000C00080648093C0004EE34093C60080915D
:10F16000C00086FFFCCF87C08EE09EEFA0E0B0E03D
:10F17000E822F9220A231B239CE0E91694E9F90608
:10F1800090E0090790E0190709F088C0C45DDE4FE0
:10F19000A881CC52D140EA2EFF2400E010E0102FCD
:10F1A0000F2DFE2CEE24C55DDE4FB881CB52D14031
:10F1B000EB0EF11C011D111DD601C501817090706F
:10F1C000A070B070DC0199278827E80EF91E0A1F8D
:10F1D0001B1F20EF30E040E050E0A222B322C42207
:10F1E000D52241E1AA0CBB1CCC1CDD1C4A95D1F7F1
:10F1F000EA0CFB1C0C1D1D1D81E090E0A0E0B0E0BE
:10F20000282239224A225B2235E1220C331C441C7D
:10F21000551C3A95D1F7E20CF31C041D151D57013E
:10F220006801AA0CBB1CCC1CDD1C85E192EE60E0E1
:10F230000F94C2F1C801AA27BB270F940DF2BB2778
:10F24000A12F902F8F2D0F940DF28E2D0F940DF274
:10F2500090E29093C6008091C00086FFFCCF809121
:10F26000C00080648093C000AEE3A093C60080918C
:10F27000C00086FFFCCF8091C00080648093C000F6
:10F28000C601AA27BB270F940DF2BB27AD2D9C2DDD
:10F290008B2D0F940DF28A2D0F940DF20F94DCF14B
:10F2A000CC5DDE4FE881F981C452D140F99709F471
:10F2B0004DCBF4E0EF2EF12C012D112D6E0C7F1CA7
:10F2C000801E911EF2CD83E093EE62E00F94F5F183
:10F2D0008AE192EE60E00F94C2F18091C00087FF56
:10F2E000FCCF1091C6001F751093C6008091C0001E
:10F2F00086FFFCCF8091C00080648093C0000F9493
:10F30000DCF1812F81548A3108F036C1163409F4BA
:10F3100095C0173490F4133409F44EC0143430F40B
:10F320001134F1F0123409F01DC130C0143409F465
:10F3300059C0153409F016C16BC01A3409F4C4C0A1
:10F340001B3438F4173409F48FC0183409F00AC19B
:10F35000A1C01B3409F4D2C01C3409F003C1E8C0B9
:10F360008FEF81B90DC082B1809582B980E090E0C5
:10F37000E0EDF7E03197F1F70196883C9105C1F790
:10F380008091C00087FFEFCF12B8EFC08FEF84B934
:10F390000DC085B1809585B980E090E0E0EDF7E0A3
:10F3A0003197F1F70196883C9105C1F78091C00033
:10F3B00087FFEFCF15B8D9C08FEF87B90DC088B1DF
:10F3C000809588B980E090E0E0EDF7E03197F1F7C3
:10F3D0000196883C9105C1F78091C00087FFEFCF6F
:10F3E00018B8C3C08FEF8AB90DC08BB180958BB9A7
:10F3F00080E090E0E0EDF7E03197F1F70196883C8E
:10F400009105C1F78091C00087FFEFCF1BB8ADC059
:10F410008FEF8DB90DC08EB180958EB980E090E0F0
:10F42000E0EDF7E03197F1F70196883C9105C1F7DF
:10F430008091C00087FFEFCF1EB897C08FEF80BBD1
:10F440000DC081B3809581BB80E090E0E0EDF7E0F6
:10F450003197F1F70196883C9105C1F78091C00082
:10F4600087FFEFCF11BA81C08FEF83BB0DC084B38C
:10F47000809584BB80E090E0E0EDF7E03197F1F714
:10F480000196883C9105C1F78091C00087FFEFCFBE
:10F4900014BA6BC08FEF809301010FC080910201FD
:10F4A00080958093020180E090E0E0EDF7E03197F5
:10F4B000F1F70196883C9105C1F78091C00087FF64
:10F4C000EDCF1092020151C08FEF809304010FC065
:10F4D0008091050180958093050180E090E0E0ED4A
:10F4E000F7E03197F1F70196883C9105C1F78091DB
:10F4F000C00087FFEDCF1092050137C08FEF8093DA
:10F5000007010FC08091080180958093080180E079
:10F5100090E0E0EDF7E03197F1F70196883C910536
:10F52000C1F78091C00087FFEDCF109208011DC088
:10F530008FEF80930A010FC080910B01809580931B
:10F540000B0180E090E0E0EDF7E03197F1F70196F4
:10F55000883C9105C1F78091C00087FFEDCF1092E4
:10F560000B0103C085E292EEEEC98091C00087FFD7
:10F57000FCCF8091C600EAC988E392EEE4C98CE131
:10F5800091EEE1C988249924933011F1943028F444
:10F59000913089F09230B8F408C0953061F195301F
:10F5A000F0F0963009F048C043C02B3109F042C951
:10F5B00091E06BE13FC96227C15DDE4F2883CF52E6
:10F5C000D14092E037C9B22FA0E0622793E032C960
:10F5D000822F90E0A82BB92B622794E02BC92E3004
:10F5E00009F039C3622795E0C05DDE4F19821882A9
:10F5F000C053D1401FC9E1E0F0E0EC0FFD1FC05D3A
:10F60000DE4F08811981C053D140E00FF11F2083E4
:10F610000F5F1F4FC05DDE4F19830883C053D14079
:10F6200062270A171B0709F005C9D80196E002C92D
:10F63000261709F010C303C0973009F0FBC87724E0
:10F640009981933109F412C19431C8F4963009F4C8
:10F65000D8C0973050F4923009F406C1933009F4C1
:10F660006DC0913009F059C253C0913109F477C08F
:10F67000923108F0BBC0903109F04FC2F5C098310B
:10F6800009F487C0993150F4953109F4EFC09531F0
:10F6900008F4C6C1963109F040C2C2C19A3109F4DA
:10F6A0006CC09A3108F491C09B3109F45BC09D3164
:10F6B00009F033C29D81903359F48F81882311F46E
:10F6C0009EE11CC0813011F091E018C098E916C08D
:10F6D000892F807591F0903539F4E0E0F0E089E011
:10F6E0008093570094910AC0983539F4E3E0F0E034
:10F6F00089E080935700949101C090E01A821B82A8
:10F700008D818C831D829E831F8227E030E009C299
:10F710001A8288E08B8381E48C8386E58D8382E581
:10F720008E8389E48F8383E5888780E589878FE5E9
:10F730008A8782E38B872BE030E0F3C18A818139AD
:10F7400041F0823941F0803911F48FE005C080E04A
:10F7500003C082E001C08AE01A828B8344C0772410
:10F76000739482C08D81882311F48EE12CC0813086
:10F7700011F081E028C088E926C01A82E1E0F0E0BB
:10F7800089E08093570084918B831C8224E030E0D1
:10F79000C8C18B81803589F48C81883039F4E2E0EE
:10F7A000F0E089E08093570084910DC0E0E0F0E044
:10F7B00089E080935700849106C0E3E0F0E089E09F
:10F7C0008093570084911A82DFCF8D81836C99E0FA
:10F7D000E1E0F0E0082E90935700E89507B600FCB2
:10F7E000FDCF1A821B8223E030E09BC180EC8A832C
:10F7F000CE5CDE4F188219821A821B82C253D1401E
:10F800008EC18A8190E0A0E0B0E0582F44273327D2
:10F8100022278B8190E0A0E0B0E0DC0199278827C7
:10F82000282B392B4A2B5B2B8D8190E0A0E0B0E098
:10F83000282B392B4A2B5B2B8C8190E0A0E0B0E089
:10F84000BA2FA92F982F8827282B392B4A2B5B2BCF
:10F85000220F331F441F551FC05EDE4F288339839C
:10F860004A835B83C052D1401A8259C13A81C95C34
:10F87000DE4F3883C753D140CA5CDE4F1882C6536F
:10F88000D1408B81C82EDD24CA5CDE4F488159816E
:10F89000C653D140C42AD52A933109F082C0CE5C28
:10F8A000DE4F88819981AA81BB81C253D1408050AB
:10F8B000904CA340B04030F583E0CE5CDE4FE88052
:10F8C000F9800A811B81C253D140F70100935B008C
:10F8D00080935700E89507B600FCFDCFCE5CDE4F65
:10F8E000088119812A813B81C253D14000501F4FAA
:10F8F0002F4F3F4FCE5CDE4F088319832A833B8313
:10F90000C253D140C05EDE4F488159816A817B81FC
:10F91000C052D140DE011B9631E08C9111962C91A2
:10F9200011971296C75CDE4F2883C953D140C85C3B
:10F93000DE4F1882C853D14090E0C85CDE4FE881AA
:10F94000F981C853D1408E2B9F2B0C01FA01609393
:10F950005B0030935700E89511244E5F5F4F6F4F67
:10F960007F4F0EEFE02E0FEFF02ECE0CDF1CC114F8
:10F97000D10499F685E0C05EDE4F088119812A81A5
:10F980003B81C052D140F80120935B008093570027
:10F99000E89507B600FCFDCF81E180935700E8951C
:10F9A00035C0C05EDE4F88819981AA81BB81C0527B
:10F9B000D140B695A795979587957C018601ABE0D8
:10F9C000AA2EB12CAC0EBD1E0BC0D5016D915D01F0
:10F9D000C7010F947FFE0894E11CF11C01501040F8
:10F9E0000115110591F7A60160E070E0440F551F65
:10F9F000661F771FC05EDE4FE880F9800A811B8199
:10FA0000C052D1404E0D5F1D601F711F1A82C05E33
:10FA1000DE4F488359836A837B83C052D1407FC0C5
:10FA2000FA80C55CDE4FF882CB53D140C65CDE4F16
:10FA30001882CA53D1408B81C82EDD24C65CDE4FAC
:10FA400008811981CA53D140C02AD12A1A828981DA
:10FA5000BE016D5F7F4F843121F59601C05EDE4FA0
:10FA6000E880F9800A811B81C052D1400BBFF701A9
:10FA700087919691DB018C9311969C936E5F7F4FDB
:10FA8000D801C7010296A11DB11DC05EDE4F88835B
:10FA90009983AA83BB83C052D14022503040F1F6F3
:10FAA00036C0C05EDE4F288139814A815B81C052F9
:10FAB000D1400894C108D108760100E010E0089414
:10FAC000C11CD11C0894E11CF11C011D111DE20E8A
:10FAD000F31E041F151F21BDBB27A52F942F832FB5
:10FAE00082BD2F5F3F4F4F4F5F4FF89A80B5DB01CC
:10FAF0008D93BD012E153F054007510761F7C05E8C
:10FB0000DE4F288339834A835B83C052D1409601FC
:10FB10002D5F3F4FFB01108204C080EC8A8322E0FE
:10FB200030E08BE18093C6008091C00086FFFCCF5F
:10FB30008091C00080648093C000C15DDE4FF88179
:10FB4000CF52D140F093C6008091C00086FFFCCF19
:10FB50008091C00080648093C000432F3093C60022
:10FB60008091C00086FFFCCF8091C00080648093AC
:10FB7000C000922F2093C6008091C00086FFFCCF6A
:10FB80008091C00080648093C0008EE08093C600A6
:10FB90008091C00086FFFCCF8091C000806480937C
:10FBA000C00065E1C15DDE4FE880CF52D1406E25D7
:10FBB00069276427FE01319610C090819093C6009A
:10FBC0008091C00086FFFCCF31968091C000806498
:10FBD0008093C0006927215030402115310569F715
:10FBE0006093C6008091C00086FFFCCF8091C0006A
:10FBF00080648093C00085B1805885B9772081F4F6
:10FC0000C15DDE4F0881CF52D1400F5FC15DDE4F35
:10FC10000883CF52D14090E0A0E0B0E00D941AF4F8
:10FC200027982F9880E090E020ED37E0F901319798
:10FC3000F1F7019684369105C9F700008091C00064
:10FC40008D7F8093C00081E180935700E895EE2777
:10FC5000FF270994FFCF90E00D941AF497FB092E2B
:10FC600007260AD077FD04D02ED006D000201AF443
:10FC7000709561957F4F0895F6F7909581959F4F08
:10FC80000895A1E21A2EAA1BBB1BFD010DC0AA1FDD
:10FC9000BB1FEE1FFF1FA217B307E407F50720F0F5
:10FCA000A21BB30BE40BF50B661F771F881F991F70
:10FCB0001A9469F760957095809590959B01AC01B9
:10FCC000BD01CF010895AA1BBB1B51E107C0AA1FAC
:10FCD000BB1FA617B70710F0A61BB70B881F991FED
:10FCE0005A95A9F780959095BC01CD010895F99991
:10FCF000FECF92BD81BDF89A992780B50895262F31
:10FD0000F999FECF1FBA92BD81BD20BD0FB6F89400
:0EFD1000FA9AF99A0FBE01960895F894FFCF63
:040000033000E000E9
:00000001FF