:10000000DFC00000C6C4000099C400006CC400003A
:100010003FC4000012C40000E5C30000B8C30000E4
:100020008BC30000E1C40000DFC40000DDC4000099
:10003000F7C00000F5C00000F3C00000F1C00000F0
:10004000EFC00000EDC00000EBC00000E9C0000000
:10005000E7C00000E5C00000E3C0000023C30000CB
:10006000DFC00000E9C20000BEC20000D9C000002D
:10007000D7C00000D5C00000D3C00000D1C0000030
:10008000CFC00000CDC00000CBC00000C9C0000040
:10009000C7C00000C5C00000C3C00000C1C0000050
:1000A000BFC00000BDC00000BBC00000B9C0000060
:1000B000B7C00000B5C00000B3C00000B1C0000070
:1000C000AFC00000ADC00000ABC0000056C20000D1
:1000D0002BC20000A5C00000A3C00000A1C000000A
:1000E0009FC00000000020002300260029002C00F3
:1000F0002F00320000010000030106010901000089
:100100002200250028002B002E00310034000201BF
:100110000000050108010B01000021002400270058
:100120002A002D0030003300010100000401070106
:100130000A0105050505070508080808020202026C
:100140000A0A080804040404010101010101010173
:100150000303030303030303040707070C0C0C0C3E
:100160000C0C0C0C02020202060606060606060627
:100170000B0B0B0B0B0B0B0B0102102020080810B4
:100180002040102040800201020108040201010207
:1001900004081020408080402010080402018004E0
:1001A000020180402010080402010804020101023B
:1001B0000408102040800102040810204080EC0850
:1001C00011241FBECFEFD1E2DEBFCDBF00E00CBFD8
:1001D00024E0ACE5B2E001C01D92A938B207E1F716
:1001E00012E0A0E0B2E0E0E8F4E100E00BBF02C002
:1001F00007900D92AC35B107D9F710E0C0EED0E012
:1002000000E006C021970109802FFE010E94320AFA
:10021000CF3DD10780E00807A9F755D50C943E0AD9
:10022000EFCEFC01538D448D252F30E0842F90E0DC
:10023000821B930B541710F0CF96089501970895E1
:10024000FC01918D828D981761F0828DDF01A80FDE
:10025000B11D5D968C91928D9F5F9F73928F90E000
:1002600008958FEF9FEF0895FC01918D828D98176F
:1002700031F0828DE80FF11D858D90E008958FEFAC
:100280009FEF0895FC01918D228D892F90E0805C75
:100290009F4F821B91098F73992708958CE593E0F6
:1002A000F1DF21E0892B09F420E0822F089587E710
:1002B00092E0E8DF21E0892B09F420E0822F089505
:1002C000FC01848DDF01A80FB11DA35ABF4F2C91F3
:1002D000848D90E001968F739927848FA689B789C2
:1002E0002C93A089B1898C91837080648C93938DB9
:1002F000848D981306C00288F389E02D80818F7D5C
:1003000080830895EF92FF920F931F93CF93DF9313
:10031000EC0181E0888F9B8D8C8D981305C0E88956
:10032000F989808185FD25C0F62E0B8D10E00F5FC9
:100330001F4F0F731127E02E8C8DE8120BC00FB6E4
:1003400007FCFACFE889F989808185FFF5CFCE01D6
:10035000B7DFF2CF8B8DFE01E80FF11DE35AFF4F9F
:10036000F0829FB7F8940B8FEA89FB8980818062C5
:100370000AC09FB7F894EE89FF896083E889F989FC
:1003800080818370806480839FBF81E090E0DF91F3
:10039000CF911F910F91FF90EF900895CF93DF932E
:1003A000EC01888D8823C1F0EA89FB89808185FD75
:1003B00005C0A889B9898C9186FD0EC00FB607FCCF
:1003C000F5CF808185FFF2CFA889B9898C9185FF0F
:1003D000EDCFCE0175DFE8CFDF91CF91089580E0BA
:1003E00090E0892B19F063DF811120C080E090E05C
:1003F000892B41F080E090E0892B21F00E940000E1
:10040000811117C080E090E0892B19F047DF81113E
:1004100013C080E090E0892BA1F080E090E0892B70
:1004200081F00E94000081110AC008950E9400001E
:10043000DDCF0E940000E6CF0E940000EACF0C94BE
:10044000000008952FB7F89460916F0270917002C8
:1004500080917102909172022FBF089508950895BE
:1004600080E090E00895DC01ED91FD918081ED91B7
:10047000FD919081ED91FD916C9163708E2309F057
:1004800064609F2309F06860E0E5F2E0E60FF11D8B
:10049000659565956D936D917D918D919D91099473
:1004A00023C01AC012C016C010C01EC009C014C09C
:1004B00013C006C019C009C00DC007C00DC014C0CC
:1004C00062507040804090400BC06150704080404E
:1004D000904006C06E5F01C06F5F7F4F8F4F9F4F90
:1004E0009E938E937E936E93089580916602909171
:1004F0006702B9CF8091640290916502B4CF809178
:10050000620290916302AFCF80916002909161028C
:10051000AACF80915E0290915F02A5CF80915C028C
:1005200090915D02A0CFA6D71F920F920FB60F92A7
:1005300011240BB60F922F933F934F935F936F93BA
:100540007F938F939F93AF93BF93EF93FF938CE52C
:1005500093E0B6DEFF91EF91BF91AF919F918F91A4
:100560007F916F915F914F913F912F910F900BBEB3
:100570000F900FBE0F901F9018951F920F920FB6FD
:100580000F9211240BB60F922F938F939F93EF939B
:10059000FF93E0916C03F0916D038081E091720311
:1005A000F091730382FD12C09081809175038F5F7B
:1005B0008F7320917603821751F0E0917503F0E07C
:1005C000E45AFC4F958F8093750301C08081FF91A1
:1005D000EF919F918F912F910F900BBE0F900FBEB7
:1005E0000F901F9018951F920F920FB60F92112423
:1005F0000BB60F922F933F934F935F936F937F931D
:100600008F939F93AF93BF93EF93FF9387E792E00E
:1006100057DEFF91EF91BF91AF919F918F917F91A5
:100620006F915F914F913F912F910F900BBE0F9063
:100630000FBE0F901F9018951F920F920FB60F923A
:1006400011240BB60F922F938F939F93EF93FF93E9
:10065000E0918702F09188028081E0918D02F09113
:100660008E0282FD12C09081809190028F5F8F7305
:1006700020919102821751F0E0919002F0E0E95848
:10068000FD4F958F8093900201C08081FF91EF9183
:100690009F918F912F910F900BBE0F900FBE0F90D7
:1006A0001F9018951F920F920FB60F9211242F933F
:1006B0003F938F939F93AF93BF9380916F029091DD
:1006C0007002A0917102B091720230916E0223E02B
:1006D000230F2D3720F40196A11DB11D05C026E87A
:1006E000230F0296A11DB11D20936E0280936F020D
:1006F00090937002A0937102B093720280916A028B
:1007000090916B02A0916C02B0916D020196A11DB7
:10071000B11D80936A0290936B02A0936C02B09318
:100720006D02BF91AF919F918F913F912F910F904B
:100730000FBE0F901F9018951F920F920FB60F9239
:1007400011240BB60F922F933F934F935F936F93A8
:100750007F938F939F93AF93BF93EF93FF93E0911A
:100760000E02F0910F021995FF91EF91BF91AF9199
:100770009F918F917F916F915F914F913F912F91B9
:100780000F900BBE0F900FBE0F901F9018951F92E9
:100790000F920FB60F9211240BB60F922F933F9327
:1007A0004F935F936F937F938F939F93AF93BF9379
:1007B000EF93FF93E0910C02F0910D021995FF91D8
:1007C000EF91BF91AF919F918F917F916F915F91C9
:1007D0004F913F912F910F900BBE0F900FBE0F9036
:1007E0001F9018951F920F920FB60F9211240BB6FF
:1007F0000F922F933F934F935F936F937F938F93BA
:100800009F93AF93BF93EF93FF93E0910202F09118
:1008100003021995FF91EF91BF91AF919F918F9135
:100820007F916F915F914F913F912F910F900BBEF0
:100830000F900FBE0F901F9018951F920F920FB63A
:100840000F9211240BB60F922F933F934F935F9308
:100850006F937F938F939F93AF93BF93EF93FF9388
:10086000E0910002F09101021995FF91EF91BF9183
:10087000AF919F918F917F916F915F914F913F9138
:100880002F910F900BBE0F900FBE0F901F901895D9
:100890001F920F920FB60F9211240BB60F922F9347
:1008A0003F934F935F936F937F938F939F93AF93F8
:1008B000BF93EF93FF93E0910A02F0910B02199519
:1008C000FF91EF91BF91AF919F918F917F916F9128
:1008D0005F914F913F912F910F900BBE0F900FBEE4
:1008E0000F901F9018951F920F920FB60F92112420
:1008F0000BB60F922F933F934F935F936F937F931A
:100900008F939F93AF93BF93EF93FF93E091080270
:10091000F09109021995FF91EF91BF91AF919F91CD
:100920008F917F916F915F914F913F912F910F9098
:100930000BBE0F900FBE0F901F9018951F920F9235
:100940000FB60F9211240BB60F922F933F934F9334
:100950005F936F937F938F939F93AF93BF93EF9327
:10096000FF93E0910602F09107021995FF91EF9134
:10097000BF91AF919F918F917F916F915F914F91B7
:100980003F912F910F900BBE0F900FBE0F901F90B5
:1009900018951F920F920FB60F9211240BB60F925B
:1009A0002F933F934F935F936F937F938F939F9377
:1009B000AF93BF93EF93FF93E0910402F091050290
:1009C0001995FF91EF91BF91AF919F918F917F9179
:1009D0006F915F914F913F912F910F900BBE0F90B0
:1009E0000FBE0F901F9018951F920F920FB60F9287
:1009F00011240F900FBE0F901F901895CF92DF9289
:100A0000EF92FF920F931F93CF93DF936C017A01C4
:100A10008B01C0E0D0E0CE15DF0581F0D8016D91EB
:100A20008D01D601ED91FC910190F081E02DC60180
:100A30001995892B11F02196EECF7E01C701DF9128
:100A4000CF911F910F91FF90EF90DF90CF9008957D
:100A5000CF92DF92EF92FF92CF93DF93EC016A0186
:100A60007B01E889F98982E080834115514E610557
:100A70007105A9F060E079E08DE390E0A7019601AF
:100A8000CFD4DA01C9010197A109B109B695A7959B
:100A9000979587959C01211580E13807A0F0E8899A
:100AA000F989108260E874E88EE190E0A701960170
:100AB000B7D4DA01C9010197A109B109B695A79583
:100AC000979587959C01EC85FD853083EE85FF85A4
:100AD0002083188EEC89FD8986E08083EA89FB8972
:100AE000808180618083EA89FB898081886080833E
:100AF000EA89FB89808180688083EA89FB8980811B
:100B00008F7D8083DF91CF91FF90EF90DF90CF902A
:100B100008956115710579F0FB0101900020E9F756
:100B20003197AF01461B570BDC01ED91FC91028020
:100B3000F381E02D199480E090E008958F929F92C8
:100B4000AF92BF92EF92FF920F931F93CF93DF93D9
:100B5000CDB7DEB7A1970FB6F894DEBF0FBECDBFFD
:100B60007C01FA01CB0119A2223008F42AE08E019F
:100B70000F5D1F4F822E912CA12CB12CBF01A5011E
:100B800094014ED4F901CA01015011096A3014F4DC
:100B9000605D01C0695CD8016C93232B242B252B4D
:100BA00069F7B801C701B5DFA1960FB6F894DEBFAB
:100BB0000FBECDBFDF91CF911F910F91FF90EF90AE
:100BC000BF90AF909F908F900895823109F466C0D6
:100BD000B8F4823069F1833009F073C070935F021A
:100BE00060935E0289E892E0909303028093020290
:100BF00080916A00837F846080936A00ED9A5FC071
:100C0000843141F1C8F1853109F05BC07093610214
:100C10006093600284E892E090930502809304025E
:100C2000809169008C7F816080936900E89A47C059
:100C300070935D0260935C028EE892E090930102F3
:100C40008093000280916A008C7F816080936A00AB
:100C5000EC9A35C070936302609362028FE792E072
:100C6000909307028093060280916900837F8460DD
:100C700080936900E99A23C07093650260936402CF
:100C80008AE792E0909309028093080280916900BC
:100C90008F7C806180936900EA9A11C0709367022B
:100CA0006093660285E792E090930B0280930A02BC
:100CB000809169008F73806480936900EB9A81E072
:100CC000089580E00895789484B5826084BD84B5E9
:100CD000816084BD85B5826085BD85B5816085BD37
:100CE00080916E00816080936E00109281008091EF
:100CF0008100826080938100809181008160809377
:100D00008100809180008160809380008091B1009B
:100D100084608093B1008091B00081608093B000C6
:100D20008091910082608093910080919100816018
:100D300080939100809190008160809390008091D9
:100D4000A10082608093A1008091A10081608093C6
:100D5000A1008091A00081608093A000809121017A
:100D60008260809321018091210181608093210123
:100D70008091200181608093200180917A008460BD
:100D800080937A0080917A00826080937A008091CB
:100D90007A00816080937A0080917A0080688093E5
:100DA0007A001092C10010925803109259031092C9
:100DB0005A0310925B0310921603109217031092BD
:100DC0001803109219033EDB6B017C014B015C019F
:100DD00028EB820E2BE0921EA11CB11C33DB6C159C
:100DE0007D058E059F0528F086169706A806B9068C
:100DF000A8F787E792E0909357038093560340E06B
:100E000056E960E070E024DE1DDB6093160370930A
:100E10001703809318039093190362E272E08091A4
:100E200056039091570375DE0DDB6B017C014B017E
:100E30005C013AE0830E911CA11CB11C03DB6C1514
:100E40007D058E059F0528F086169706A806B9062B
:100E5000A8F781E080932A0340E056E960E070E063
:100E600087E792E0F5DD40E855E260E070E08CE570
:100E700093E0EEDD64E372E087E792E04ADE61E34F
:100E800072E087E792E045DE84EF882E9924939400
:100E9000A12CB12CD7DA672B682B692B39F4D2DA65
:100EA000623071058105910508F4FBC0CBDAC09072
:100EB0007302D0907402E0907502F09076026C1587
:100EC0007D058E059F0540F4609373027093740254
:100ED0008093750290937602C0907302D090740252
:100EE000E0907502F09076029B01AC012C193D094F
:100EF0004E095F0969017A013AEFC316D104E10492
:100F0000F10408F4CEC0609373027093740280936E
:100F10007502909376028092220390922303A0920E
:100F20002403B092250310922603109227031092F7
:100F300028031092290380911A0390911B03A0911A
:100F40001C03B0911D0380931E0390931F03A09375
:100F50002003B093210376DA60931A0370931B0386
:100F600080931C0390931D036DDA609316037093B6
:100F70001703809318039093190364DA6B017C01C3
:100F800067E472E08091560390915703C2DD2AE036
:100F900041E050E060E070E080915603909157038B
:100FA000CDDD6EE472E08091560390915703B1DD80
:100FB0002AE0B701A6018091560390915703BEDD48
:100FC00060E572E08091560390915703A2DD809115
:100FD0001A0390911B03A0911C03B0911D03B7014C
:100FE000A601481B590B6A0B7B0B2AE08091560324
:100FF00090915703A3DD60E572E0809156039091D4
:10100000570387DD40911A0350911B0360911C0325
:1010100070911D0380911E0390911F03A0912003E6
:10102000B0912103481B590B6A0B7B0B2AE080917E
:1010300056039091570382DD62E572E0809156037A
:101040009091570366DDFED9AB01BC012AE0809187
:1010500056039091570372DDE0905603F0905703CA
:1010600064E572E0C70155DD61E372E0C70151DD5F
:10107000E9D96B017C012B013C0142E0440E511C7B
:10108000611C711CDFD96C157D058E059F0558F418
:10109000D9D960931A0370931B0380931C03909318
:1010A0001D039DD9F7CE461657066806790650F7F8
:1010B000EFCFCF93DF9390E0FC01E858FE4F2491EF
:1010C000FC01EE5CFE4F8491882361F190E0880F73
:1010D000991FFC01E85EFE4FC591D491FC01E250DE
:1010E000FF4FA591B491611109C09FB7F894888111
:1010F000209582238883EC912E230BC0623061F40B
:101100009FB7F8948881322F309583238883EC91A0
:101110002E2B2C939FBF06C08FB7F894E8812E2BFF
:1011200028838FBFDF91CF9108950F931F93CF93A3
:10113000DF93EC01062F142F62E0802FBADF62E00C
:10114000812FB7DF802F90E0FC01EE5CFE4FE49131
:10115000F0E0EE0FFF1FEC51FF4FA591B491B98362
:10116000A883FC01E858FE4F24912C83812F90E046
:10117000FC01EE5CFE4FE491F0E0EE0FFF1FEC513E
:10118000FF4F459154915B834A83FC01E858FE4F21
:1011900094919D831F82188619861A86EBE3FFE1DE
:1011A0003197F1F7EC91E22331E009F430E0DA0114
:1011B000EC91E92309F032603E83BE01802F05DD0A
:1011C0008B87BE01812F01DD9B85890F8B87DF9186
:1011D000CF911F910F9108950F931F93CF93DF939A
:1011E000CCE5D3E01B821A8248EE53E060E070E069
:1011F0004C835D836E837F8384E192E0998388834F
:1012000025ED30E03D872C8724ED30E03F872E87A9
:1012100020ED30E0398B288B21ED30E03B8B2A8BA1
:1012200022ED30E03D8B2C8B26ED30E03F8B2E8B7A
:10123000198E1A8E1B8E1C8EE7E7F2E01382128243
:1012400044835583668377839183808385EC90E024
:101250009587848784EC90E09787868780EC90E080
:10126000918B808B81EC90E0938B828B82EC90E071
:10127000958B848B86EC90E0978B868B118E128EEB
:10128000138E148EE4E1F3E0168217821086118625
:10129000128613861486158616861786108A118A7A
:1012A000128A138A148A158A8DE090E0909388043C
:1012B000809387048CE090E090938604809385046B
:1012C00061E086E0F6DE61E087E0F3DE61E08AE07F
:1012D000F0DE61E08BE0EDDE61E088E0EADE61E017
:1012E00089E0E7DE09E714E086E090E0F801918309
:1012F000808387E090E0938382838AE090E0958307
:1013000084838BE090E09783868388E090E09187E8
:10131000808789E090E093878287EFE6F4E08FEFA3
:10132000808312821182148217821682158281E0D4
:101330008383D187C08745E164E183E694E0F5DEED
:1013400042E163E187E594E0F0DEE9EFF3E0148643
:10135000158616861786108A118A128A138A148AAD
:10136000158A168A178A108E118E128E138E148E7D
:10137000158E168E178E10A211A212A213A214A2FD
:1013800015A216A217A210A611A612A613A614A69D
:1013900015A616A617A610AA11AA12AA13AA14AA6D
:1013A00015AA16AA17AA10AE11AE12AE13AE14AE3D
:1013B00015AE16AE17AE1092390410923A04109280
:1013C0003B0410923C041092450410924604109283
:1013D0004704109248041092490410924A04109253
:1013E0004B0410924C0410924D0410924E04109233
:1013F0004F041092500483E694E09093520480933B
:10140000510487E594E0909354048093530410931F
:10141000560400935504DF91CF911F910F910895C9
:10142000A1E21A2EAA1BBB1BFD010DC0AA1FBB1FE8
:10143000EE1FFF1FA217B307E407F50720F0A21B5A
:10144000B30BE40BF50B661F771F881F991F1A94C7
:1014500069F760957095809590959B01AC01BD01F1
:10146000CF010895EE0FFF1F881F8BBF0790F691E5
:10147000E02D199481E090E0F89400C0F894FFCF3B
:101480002E022E022E022E022E022E022E022E02DC
:10149000000000008201FE041101CE014201200182
:1014A0003401564D4450565F317C315F564D4450A7
:1014B000560D0A0043757272656E7420506F736921
:1014C00074696F6E3A2000564D4450455F003A32C1
:0C14D0003A007C005F564D44504500007F
:00000001FF
