:10000000DFC00000EEC40000C1C4000094C40000C2
:1000100067C400003AC400000DC40000E0C3000043
:10002000B3C30000FBC00000F9C00000F7C000002F
:10003000F5C00000F3C00000F1C00000EFC00000F8
:10004000EDC00000EBC00000E9C00000E7C0000008
:10005000E5C00000E3C00000E1C000004BC30000A9
:10006000DDC0000011C30000E6C20000D7C00000E0
:10007000D5C00000D3C00000D1C00000CFC0000038
:10008000CDC00000CBC00000C9C00000C7C0000048
:10009000C5C00000C3C00000C1C00000BFC0000058
:1000A000BDC00000BBC00000B9C00000B7C0000068
:1000B000B5C00000B3C00000B1C00000AFC0000078
:1000C000ADC00000ABC00000A9C00000A7C0000088
:1000D000A5C00000A3C00000A1C000009FC0000098
:1000E0009DC00000000020002300260029002C00F5
:1000F0002F00320000010000030106010901000089
:100100002200250028002B002E00310034000201BF
:100110000000050108010B01000021002400270058
:100120002A002D0030003300010100000401070106
:100130000A0105050505070508080808020202026C
:100140000A0A080804040404010101010101010173
:100150000303030303030303040707070C0C0C0C3E
:100160000C0C0C0C02020202060606060606060627
:100170000B0B0B0B0B0B0B0B0102102020080810B4
:100180002040102040800201020108040201010207
:1001900004081020408080402010080402018004E0
:1001A000020180402010080402010804020101023B
:1001B00004081020408001020408102040802D0611
:1001C00011241FBECFEFD1E2DEBFCDBF00E00CBFD8
:1001D00012E0A0E0B2E0E0E1F0E100E00BBF02C01D
:1001E00007900D92A437B107D9F723E0A4E7B2E056
:1001F00001C01D92AE34B207E1F710E0C0EED0E0CE
:1002000000E005C021970109802FFE01F3D6CF3D04
:10021000D10780E00807B1F78FD5F8C6F1CECF92AD
:10022000DF92EF92FF920F931F93CF93DF936C01B6
:100230007A018B01C0E0D0E0CE15DF0581F0D80156
:100240006D918D01D601ED91FC910190F081E02D31
:10025000C6011995892B11F02196EECF7E01C701B9
:10026000DF91CF911F910F91FF90EF90DF90CF9092
:100270000895089580E090E00895FC01538D448D29
:10028000252F30E0842F90E0821B930B541710F041
:10029000CF96089501970895FC01918D828D98174E
:1002A00061F0828DDF01A80FB11D5D968C91928D5A
:1002B0009F5F9F73928F90E008958FEF9FEF089557
:1002C000FC01918D828D981731F0828DE80FF11D20
:1002D000858D90E008958FEF9FEF0895FC01918D3B
:1002E000228D892F90E0805C9F4F821B91098F7334
:1002F0009927089589E892E0F1DF21E0892B09F43C
:1003000020E0822F0895FC01848DDF01A80FB11D2C
:10031000A35ABF4F2C91848D90E001968F7399273B
:10032000848FA689B7892C93A089B1898C91837019
:1003300080648C93938D848D981306C00288F38912
:10034000E02D80818F7D80830895EF92FF920F933F
:100350001F93CF93DF93EC0181E0888F9B8D8C8D71
:10036000981305C0E889F989808185FD25C0F62E9E
:100370000B8D10E00F5F1F4F0F731127E02E8C8D38
:10038000E8120BC00FB607FCFACFE889F989808123
:1003900085FFF5CFCE01B7DFF2CF8B8DFE01E80FE1
:1003A000F11DE35AFF4FF0829FB7F8940B8FEA8953
:1003B000FB89808180620AC09FB7F894EE89FF892B
:1003C0006083E889F98980818370806480839FBF1E
:1003D00081E090E0DF91CF911F910F91FF90EF901E
:1003E0000895CF93DF93EC01888D8823C1F0EA89CB
:1003F000FB89808185FD05C0A889B9898C9186FD1E
:100400000EC00FB607FCF5CF808185FFF2CFA8891B
:10041000B9898C9185FFEDCFCE0175DFE8CFDF91F3
:10042000CF91089580E090E0892B19F063DF81116E
:1004300025C080E090E0892B41F080E090E0892B9E
:1004400021F00E94000081111CC080E090E0892B07
:1004500041F080E090E0892B21F00E9400008111A2
:1004600013C080E090E0892BA1F080E090E0892B20
:1004700081F00E94000081110AC008950E940000CE
:10048000D8CF0E940000E1CF0E940000EACF0C9478
:10049000000008950895DC01ED91FD918081ED91BA
:1004A000FD919081ED91FD916C9163708E2309F027
:1004B00064609F2309F06860E8E6F2E0E60FF11D52
:1004C000659565956D936D917D918D919D91099443
:1004D00023C01AC012C016C010C01EC009C014C06C
:1004E00013C006C019C009C00DC007C00DC014C09C
:1004F00062507040804090400BC06150704080401E
:10050000904006C06E5F01C06F5F7F4F8F4F9F4F5F
:100510009E938E937E936E93089580917E02909128
:100520007F02B9CF80917C0290917D02B4CF8091FF
:100530007A0290917B02AFCF8091780290917902FC
:10054000AACF8091760290917702A5CF8091740214
:1005500090917502A0CF009761F0FC0101900020FE
:10056000E9F73197AF01481B590BBC0189E892E0CC
:1005700056CE80E090E008958F929F92AF92BF9206
:100580000F931F93CF93DF93CDB7DEB7A1970FB62D
:10059000F894DEBF0FBECDBF19A2423008F44AE086
:1005A0008E010F5D1F4F842E912CA12CB12CA50123
:1005B0009401FED4E62FB901CA0101501109EA30B5
:1005C00014F4E05D01C0E95CD801EC93232B242BEB
:1005D000252B69F7C801BFDFA1960FB6F894DEBFDF
:1005E0000FBECDBFDF91CF911F910F91BF90AF9004
:1005F0009F908F900895CF92DF92EF92FF92CF93CA
:10060000DF936B017C016DE289E892E09EDEEC01F4
:1006100066277727CB016C197D098E099F094AE06F
:10062000ABDF8C0F9D1FDF91CF91FF90EF90DF909C
:10063000CF900895E7D41F920F920FB60F92112416
:100640000BB60F922F933F934F935F936F937F93CC
:100650008F939F93AF93BF93EF93FF9389E892E0BB
:1006600052DEFF91EF91BF91AF919F918F917F915A
:100670006F915F914F913F912F910F900BBE0F9013
:100680000FBE0F901F9018951F920F920FB60F92EA
:1006900011240BB60F922F938F939F93EF93FF9399
:1006A000E0919902F0919A028081E0919F02F0918D
:1006B000A00282FD12C090818091A2028F5F8F7391
:1006C0002091A302821751F0E091A202F0E0E757D7
:1006D000FD4F958F8093A20201C08081FF91EF9121
:1006E0009F918F912F910F900BBE0F900FBE0F9087
:1006F0001F9018951F920F920FB60F9211242F93EF
:100700003F938F939F93AF93BF9380918502909176
:100710008602A0918702B09188023091840223E082
:10072000230F2D3720F40196A11DB11D05C026E829
:10073000230F0296A11DB11D209384028093850290
:1007400090938602A0938702B093880280918002E2
:1007500090918102A0918202B09183020196A11D25
:10076000B11D8093800290938102A0938202B09386
:100770008302BF91AF919F918F913F912F910F90E5
:100780000FBE0F901F9018951F920F920FB60F92E9
:1007900011240BB60F922F933F934F935F936F9358
:1007A0007F938F939F93AF93BF93EF93FF93E091CA
:1007B0000E02F0910F021995FF91EF91BF91AF9149
:1007C0009F918F917F916F915F914F913F912F9169
:1007D0000F900BBE0F900FBE0F901F9018951F9299
:1007E0000F920FB60F9211240BB60F922F933F93D7
:1007F0004F935F936F937F938F939F93AF93BF9329
:10080000EF93FF93E0910C02F0910D021995FF9187
:10081000EF91BF91AF919F918F917F916F915F9178
:100820004F913F912F910F900BBE0F900FBE0F90E5
:100830001F9018951F920F920FB60F9211240BB6AE
:100840000F922F933F934F935F936F937F938F9369
:100850009F93AF93BF93EF93FF93E0910202F091C8
:1008600003021995FF91EF91BF91AF919F918F91E5
:100870007F916F915F914F913F912F910F900BBEA0
:100880000F900FBE0F901F9018951F920F920FB6EA
:100890000F9211240BB60F922F933F934F935F93B8
:1008A0006F937F938F939F93AF93BF93EF93FF9338
:1008B000E0910002F09101021995FF91EF91BF9133
:1008C000AF919F918F917F916F915F914F913F91E8
:1008D0002F910F900BBE0F900FBE0F901F90189589
:1008E0001F920F920FB60F9211240BB60F922F93F7
:1008F0003F934F935F936F937F938F939F93AF93A8
:10090000BF93EF93FF93E0910A02F0910B021995C8
:10091000FF91EF91BF91AF919F918F917F916F91D7
:100920005F914F913F912F910F900BBE0F900FBE93
:100930000F901F9018951F920F920FB60F921124CF
:100940000BB60F922F933F934F935F936F937F93C9
:100950008F939F93AF93BF93EF93FF93E091080220
:10096000F09109021995FF91EF91BF91AF919F917D
:100970008F917F916F915F914F913F912F910F9048
:100980000BBE0F900FBE0F901F9018951F920F92E5
:100990000FB60F9211240BB60F922F933F934F93E4
:1009A0005F936F937F938F939F93AF93BF93EF93D7
:1009B000FF93E0910602F09107021995FF91EF91E4
:1009C000BF91AF919F918F917F916F915F914F9167
:1009D0003F912F910F900BBE0F900FBE0F901F9065
:1009E00018951F920F920FB60F9211240BB60F920B
:1009F0002F933F934F935F936F937F938F939F9327
:100A0000AF93BF93EF93FF93E0910402F09105023F
:100A10001995FF91EF91BF91AF919F918F917F9128
:100A20006F915F914F913F912F910F900BBE0F905F
:100A30000FBE0F901F901895CF93DF9390E0FC01AD
:100A4000E858FE4F2491FC01EE5CFE4F8491882310
:100A500061F190E0880F991FFC01E85EFE4FC5919F
:100A6000D491FC01E250FF4FA591B491611109C0EE
:100A70009FB7F8948881209582238883EC912E2358
:100A80000BC0623061F49FB7F8948881322F3095A3
:100A900083238883EC912E2B2C939FBF06C08FB7A6
:100AA000F894E8812E2B28838FBFDF91CF91089592
:100AB000823109F466C0B8F4823069F1833009F0FC
:100AC00073C0709377026093760281EA92E090930C
:100AD00003028093020280916A00837F8460809386
:100AE0006A00ED9A5FC0843141F1C8F1853109F0A7
:100AF0005BC070937902609378028CE992E09093E6
:100B0000050280930402809169008C7F816080934C
:100B10006900E89A47C0709375026093740286EA90
:100B200092E0909301028093000280916A008C7F92
:100B3000816080936A00EC9A35C070937B02609369
:100B40007A0287E992E090930702809306028091EF
:100B50006900837F846080936900E99A23C0709361
:100B60007D0260937C0282E992E090930902809377
:100B70000802809169008F7C806180936900EA9A05
:100B800011C070937F0260937E028DE892E0909393
:100B90000B0280930A02809169008F7380648093B6
:100BA0006900EB9A81E0089580E008950F931F9308
:100BB000CF93DF93EC01062F142F62E0802F3CDFF0
:100BC00062E0812F39DF802F90E0FC01EE5CFE4F68
:100BD000E491F0E0EE0FFF1FEC51FF4FA591B491AF
:100BE000B983A883FC01E858FE4F24912C83812F00
:100BF00090E0FC01EE5CFE4FE491F0E0EE0FFF1F91
:100C0000EC51FF4F459154915B834A83FC01E858B6
:100C1000FE4F94919D831F82188619861A86EBE3F6
:100C2000FFE13197F1F7EC91E22331E009F430E094
:100C3000DA01EC91E92309F032603E83BE01802F96
:100C400037DF8B87BE01812F33DF9B85890F8B8731
:100C5000DF91CF911F910F910895E9E8F2E013829F
:100C6000128288EE93E0A0E0B0E084839583A683AF
:100C7000B7838CE192E09183808385EC90E0958747
:100C8000848784EC90E09787868780EC90E0918B56
:100C9000808B81EC90E0938B828B82EC90E0958B43
:100CA000848B86EC90E0978B868B118E128E138E40
:100CB000148E45E164E182E493E078DF42E163E190
:100CC00086E393E073DF8DE090E0909335038093AB
:100CD00034038CE090E0909333038093320361E01F
:100CE00086E0AADE61E087E0A7DE61E08AE0A4DEBC
:100CF00061E08BE0A1DE61E088E09EDE61E089E0FA
:100D00009BDEE6E2F3E086E090E09183808387E07B
:100D100090E0938382838AE090E0958384838BE0E4
:100D200090E09783868388E090E09187808789E0D0
:100D300090E0938782870895789484B5826084BD1B
:100D400084B5816084BD85B5826085BD85B58160CF
:100D500085BD80916E00816080936E00109281004D
:100D60008091810082608093810080918100816008
:100D700080938100809180008160809380008091C9
:100D8000B10084608093B1008091B0008160809355
:100D9000B0008091910082608093910080919100D9
:100DA0008160809391008091900081608093900099
:100DB0008091A10082608093A1008091A100816058
:100DC0008093A1008091A00081608093A000809119
:100DD00021018260809321018091210181608093B3
:100DE00021018091200181608093200180917A000F
:100DF000846080937A0080917A00826080937A0088
:100E000080917A00816080937A0080917A00806876
:100E100080937A001092C100E0919902F0919A02B9
:100E200082E08083E0919502F09196021082E09139
:100E30009702F091980280E180831092A102E091E4
:100E40009D02F0919E0286E08083E0919B02F091EA
:100E50009C02808180618083E0919B02F0919C02E2
:100E6000808188608083E0919B02F0919C02808168
:100E700080688083E0919B02F0919C0280818F7D4D
:100E800080838AE292E067DB84E492E064DB809115
:100E90004D03823028F4F89482E493E0FCDA01C038
:100EA000F8948090490390904A03A0904B03B0902F
:100EB0004C03789480914103823028F4F89486E3BF
:100EC00093E0E9DA01C0F894C0903D03D0903E036E
:100ED000E0903F03F0904003789480911402909149
:100EE0001502A0911602B091170288159905AA055E
:100EF000BB0569F48091100290911102A091120239
:100F0000B09113028C159D05AE05BF0569F187E40C
:100F100092E021DBB7FE04C0C501B4016CDB04C064
:100F20004AE0C501B40128DB8FE492E014DBF7FE50
:100F300004C0C701B6015FDB04C04AE0C701B601C7
:100F40001BDB84E492E007DB80921402909215028E
:100F5000A0921602B0921702C0921002D092110213
:100F6000E0921202F092130289E892E0B7D9892B3D
:100F7000E9F089E892E090D98AE592E0ECDA84E43D
:100F800092E0E9DAF8941092490310924A03109221
:100F90004B0310924C037894F89410923D031092F6
:100FA0003E0310923F031092400378943BDA6FCFD8
:100FB000A1E21A2EAA1BBB1BFD010DC0AA1FBB1F5D
:100FC000EE1FFF1FA217B307E407F50720F0A21BCF
:100FD000B30BE40BF50B661F771F881F991F1A943C
:100FE00069F760957095809590959B01AC01BD0166
:100FF000CF010895EE0FFF1F881F8BBF0790F6915A
:10100000E02D199481E090E0F89400C0F894FFCFAF
:101010004A024A024A024A024A024A024A024A0270
:1010200019FCFFFF19FCFFFF00000000A5010F01E4
:101030003D01F1016E014C01600154776F2057684A
:1010400065656C7320456E636F64657220546573CB
:10105000743A20000D0A004C656674203D20002C77
:10106000205269676874203D2000526573657420C2
:10107000626F7468206B6E6F627320746F207A6584
:04108000726F00008B
:00000001FF
