:1000000035C1000072C5000045C5000018C50000DC
:10001000EBC40000BEC4000091C4000064C4000032
:1000200037C400008DC500008BC5000089C50000E5
:100030004EC100004CC100004AC1000048C1000090
:1000400046C1000044C1000042C1000040C10000A0
:100050003EC100003CC100003AC10000CFC3000017
:1000600036C100000C943E08E0C7000030C100001B
:100070002EC100002CC100002AC1000028C10000D0
:1000800026C1000024C1000022C1000020C10000E0
:100090001EC100001CC100001AC1000018C10000F0
:1000A00016C1000014C1000012C1000010C1000000
:1000B0000EC100000CC100000AC1000008C1000010
:1000C00006C1000004C1000002C1000078C70000A2
:1000D0004DC70000FCC00000FAC00000F8C00000DE
:1000E000F6C00000E401E701D601DA01E0011E02DA
:1000F000EB01EF01F501F901FD01030207020B021B
:100100001E0211021502190226032B0330033A03C3
:100110004403BD034E0356035E03680372037C036E
:100120008B039503BD039F03A903B30305A84CCD1F
:10013000B2D44EB93836A9020C50B9918688083C21
:10014000A6AAAA2ABE000000803F000021002400C9
:1001500027002A002D0030003300010100000401B7
:1001600007010A0100002200250028002B002E00B4
:100170003100340002010000050108010B010000FC
:1001800020002300260029002C002F00320000014F
:10019000000003010601090105050505070508081A
:1001A0000808020202020A0A080804040404010101
:1001B0000101010101010303030303030303040716
:1001C00007070C0C0C0C0C0C0C0C020202020606AD
:1001D0000606060606060B0B0B0B0B0B0B0B0102A0
:1001E0001020200808102040102040800201020149
:1001F0000804020101020408102040808040201001
:100200000804020180040201804020100804020159
:1002100008040201010204081020408001020408C1
:100220001020408000000A0B02090C0D0E08070385
:1002300004010000000000000000000000000000B9
:1002400000000000000000000000000000000000AE
:10025000121110000000000000000000000000006B
:10026000000000000000000000003C0F11241FBE31
:10027000CFEFD1E2DEBFCDBF00E00CBF12E0A0E0C7
:10028000B2E0ECE7F5E200E00BBF02C007900D9290
:10029000A639B107D9F724E0A6E9B2E001C01D9262
:1002A000A936B207E1F711E0C6E3D1E000E006C0ED
:1002B00021970109802FFE010E94B012C533D1079A
:1002C00080E00807A9F70E94E00A0C94BC1298CEBF
:1002D000FC01918D828D981761F0828DDF01A80F4E
:1002E000B11D5D968C91928D9F5F9F73928F90E070
:1002F00008958FEF9FEF0895FC01918D828D9817DF
:1003000031F0828DE80FF11D858D90E008958FEF1B
:100310009FEF0895FC01918D228D892F90E0805CE4
:100320009F4F821B91098F739927089580E090E079
:10033000892B19F0A5D5811120C080E090E0892B90
:1003400041F080E090E0892B21F00E9400008111B3
:1003500017C080E090E0892B19F089D5811113C076
:1003600080E090E0892BA1F080E090E0892B81F083
:100370000E94000081110AC008950E940000DDCF94
:100380000E940000E6CF0E940000EACF0C9400001B
:10039000089590E0FC013197E231F10508F04EC07C
:1003A0008827EE58FF4F8F4F0C94B0128091800039
:1003B0008F7703C0809180008F7D809380000895A7
:1003C00080918000877FF9CF84B58F7702C084B594
:1003D0008F7D84BD08958091B0008F7703C0809198
:1003E000B0008F7D8093B0000895809190008F774A
:1003F00007C0809190008F7D03C080919000877F1F
:100400008093900008958091A0008F7707C080911D
:10041000A0008F7D03C08091A000877F8093A00003
:100420000895809120018F7707C0809120018F7DF2
:1004300003C080912001877F809320010895CF938E
:10044000DF93282F30E0F901EC5DFD4F8491F90135
:10045000E252FE4FD491F901E856FE4FC491CC23ED
:1004600089F0811196DFEC2FF0E0EE0FFF1FE258CC
:10047000FE4FA591B491EC91ED2381E090E021F441
:1004800080E002C080E090E0DF91CF9108951F935B
:10049000CF93DF93282F30E0F901EC5DFD4F84917D
:1004A000F901E252FE4FD491F901E856FE4FC49192
:1004B000CC23B9F0162F81116CDFEC2FF0E0EE0F9A
:1004C000FF1FEC59FE4FA591B4919FB7F8941111FD
:1004D00004C08C91D095D82302C0EC91DE2BDC9324
:1004E0009FBFDF91CF911F9108953FB7F8948091FE
:1004F000B5029091B602A091B702B091B80226B5AC
:10050000A89B05C02F3F19F00196A11DB11D3FBF4B
:10051000BA2FA92F982F8827820F911DA11DB11DD9
:10052000BC01CD0142E0660F771F881F991F4A95D5
:10053000D1F708950895089580E090E008950E940D
:10054000B812FC01848DDF01A80FB11DA35ABF4F63
:100550002C91848D90E001968F739927848FA689C2
:10056000B7892C93A089B1898C91837080648C9316
:10057000938D848D981306C00288F389E02D8081C5
:100580008F7D80830895CF93DF9390E0FC01E2524A
:10059000FE4F2491FC01E856FE4F8491882361F1BF
:1005A00090E0880F991FFC01E65BFE4FC591D49146
:1005B000FC01EC59FE4FA591B491611109C09FB7A0
:1005C000F8948881209582238883EC912E230BC098
:1005D000623061F49FB7F8948881322F309583237D
:1005E0008883EC912E2B2C939FBF06C08FB7F89475
:1005F000E8812E2B28838FBFDF91CF9108951F9321
:10060000CF93DF93182FEB0161E0BDDF209711F44A
:1006100060E004C0CF3FD10531F461E0812FDF916C
:10062000CF911F9134CFE12FF0E0EC5DFD4FE491CD
:100630008E2F90E0FC013197E231F10508F09DC06A
:100640008827EC57FF4F8F4F0C94B01284B5806809
:1006500084BDC7BD97C084B5806284BDC8BD92C04B
:1006600080918000806880938000D0938900C0933F
:10067000880088C080918000806280938000D09341
:100680008B00C0938A007EC0809180008860809338
:100690008000D0938D00C0938C0074C08091B00016
:1006A00080688093B000C093B3006CC08091B000AC
:1006B00080628093B000C093B40064C080919000C9
:1006C000806880939000D0939900C09398005AC09E
:1006D00080919000806280939000D0939B00C093A3
:1006E0009A0050C080919000886080939000D093D1
:1006F0009D00C0939C0046C08091A00080688093BC
:10070000A0008091A0008F7B8093A000D093A900CF
:10071000C093A80037C08091A00080628093A000A1
:10072000D093AB00C093AA002DC08091A000886038
:100730008093A000D093AD00C093AC0023C0809103
:100740002001806880932001D0932901C093280163
:1007500019C080912001806280932001D0932B01E9
:10076000C0932A010FC080912001886080932001EE
:10077000D0932D01C0932C0105C0C038D1050CF0D9
:100780004CCF46CFDF91CF911F9108958F929F92CA
:10079000AF92BF92CF92DF92EF92FF926B017C01FA
:1007A000A4DE4B015C01C114D104E104F104E9F0C1
:1007B0009CDEDC01CB0188199909AA09BB09883E96
:1007C0009340A105B10578F321E0C21AD108E108F0
:1007D000F10888EE880E83E0981EA11CB11CC1149C
:1007E000D104E104F10421F7DECFFF90EF90DF9018
:1007F000CF90BF90AF909F908F9008951F920F92CF
:100800000FB60F9211242F933F938F939F93AF9323
:10081000BF938091B1029091B202A091B302B091C6
:10082000B4023091B00223E0230F2D3720F401965B
:10083000A11DB11D05C026E8230F0296A11DB11D03
:100840002093B0028093B1029093B202A093B302BE
:10085000B093B4028091B5029091B602A091B70214
:10086000B091B8020196A11DB11D8093B50290937D
:10087000B602A093B702B093B802BF91AF919F9117
:100880008F913F912F910F900FBE0F901F90189551
:100890001F920F920FB60F9211240BB60F922F9347
:1008A0003F934F935F936F937F938F939F93AF93F8
:1008B000BF93EF93FF93E0910E02F0910F02199511
:1008C000FF91EF91BF91AF919F918F917F916F9128
:1008D0005F914F913F912F910F900BBE0F900FBEE4
:1008E0000F901F9018951F920F920FB60F92112420
:1008F0000BB60F922F933F934F935F936F937F931A
:100900008F939F93AF93BF93EF93FF93E0910C026C
:10091000F0910D021995FF91EF91BF91AF919F91C9
:100920008F917F916F915F914F913F912F910F9098
:100930000BBE0F900FBE0F901F9018951F920F9235
:100940000FB60F9211240BB60F922F933F934F9334
:100950005F936F937F938F939F93AF93BF93EF9327
:10096000FF93E0910202F09103021995FF91EF913C
:10097000BF91AF919F918F917F916F915F914F91B7
:100980003F912F910F900BBE0F900FBE0F901F90B5
:1009900018951F920F920FB60F9211240BB60F925B
:1009A0002F933F934F935F936F937F938F939F9377
:1009B000AF93BF93EF93FF93E0910002F091010298
:1009C0001995FF91EF91BF91AF919F918F917F9179
:1009D0006F915F914F913F912F910F900BBE0F90B0
:1009E0000FBE0F901F9018951F920F920FB60F9287
:1009F00011240BB60F922F933F934F935F936F93F6
:100A00007F938F939F93AF93BF93EF93FF93E09167
:100A10000A02F0910B021995FF91EF91BF91AF91EE
:100A20009F918F917F916F915F914F913F912F9106
:100A30000F900BBE0F900FBE0F901F9018951F9236
:100A40000F920FB60F9211240BB60F922F933F9374
:100A50004F935F936F937F938F939F93AF93BF93C6
:100A6000EF93FF93E0910802F09109021995FF912D
:100A7000EF91BF91AF919F918F917F916F915F9116
:100A80004F913F912F910F900BBE0F900FBE0F9083
:100A90001F9018951F920F920FB60F9211240BB64C
:100AA0000F922F933F934F935F936F937F938F9307
:100AB0009F93AF93BF93EF93FF93E0910602F09162
:100AC00007021995FF91EF91BF91AF919F918F917F
:100AD0007F916F915F914F913F912F910F900BBE3E
:100AE0000F900FBE0F901F9018951F920F920FB688
:100AF0000F9211240BB60F922F933F934F935F9356
:100B00006F937F938F939F93AF93BF93EF93FF93D5
:100B1000E0910402F09105021995FF91EF91BF91C8
:100B2000AF919F918F917F916F915F914F913F9185
:100B30002F910F900BBE0F900FBE0F901F90189526
:100B40001F920F920FB60F9211240F900FBE0F90AD
:100B50001F901895CF93DF93EC0160E0888597DCB8
:100B600088856DDC61E068278A8591DC8A8167DC95
:100B7000892B39F560E470E08A8141DD64E170E041
:100B800080E090E003DE60E870E08A8138DD64E1B7
:100B900070E080E090E0FADD60EC70E08A812FDDAB
:100BA00062E070E080E090E0F1DD6FEF70E08A815C
:100BB00026DD62E070E080E090E0E8DD61E08A81BF
:100BC00066DC61E08A81DF91CF9161CCCF93DF93C6
:100BD000EC0160E08C815BDC8C8131DC61E06827BA
:100BE0008E8155DC88812BDC892B21F560E470E057
:100BF000888105DD64E170E080E090E0C7DD60E8B9
:100C000070E08881FCDC64E170E080E090E0BEDDB3
:100C100060EC70E08881F3DC62E070E080E090E0FE
:100C2000B5DD6FEF70E08881EADC62E070E080E0C3
:100C300090E0ACDD61E08881DF91CF9128CCCF934B
:100C4000DF93EC0161E0888522DC8885F8DB61E0D8
:100C500068278A851CDC8A81F2DB892B39F560E400
:100C600070E08A81CCDC64E170E080E090E08EDDB1
:100C700060E870E08A81C3DC64E170E080E090E0CD
:100C800085DD60EC70E08A81BADC62E070E080E0D3
:100C900090E07CDD6FEF70E08A81B1DC62E070E0B3
:100CA00080E090E073DD61E08A81F1DB61E08A81C0
:100CB000DF91CF91ECCBCF93DF93EC0161E08C819E
:100CC000E6DB8C81BCDB61E068278E81E0DB88811C
:100CD000B6DB892B21F560E470E0888190DC64E16B
:100CE00070E080E090E052DD60E870E0888187DCB1
:100CF00064E170E080E090E049DD60EC70E08881C4
:100D00007EDC62E070E080E090E040DD6FEF70E05C
:100D1000888175DC62E070E080E090E037DD61E0C2
:100D20008881DF91CF91B3CBCF92DF92EF92FF9288
:100D3000CF93DF93EC0161E0888125DC61E088815D
:100D4000A6DB8BE891E00197F1F7CFDB6B017C012B
:100D500060E0888118DC888172DB019761F0C5DB77
:100D60006C197D098E099F09DF91CF91FF90EF905B
:100D7000DF90CF900895B9DBDC01CB018C199D0980
:100D8000AE09BF09883E9340A105B10520F3E7CF26
:100D9000DC01ED91FD918081ED91FD919081ED91CE
:100DA000FD916C9163708E2309F064609F2309F0BC
:100DB0006860E5EEF6E0E60FF11D659565956D93CB
:100DC0006D917D918D919D91099423C01AC012C09F
:100DD00016C010C01EC009C014C013C006C019C080
:100DE00009C00DC007C00DC014C0625070408040E3
:100DF00090400BC0615070408040904006C06E5FD4
:100E000001C06F5F7F4F8F4F9F4F9E938E937E9356
:100E10006E9308958091AC029091AD02B9CF80910C
:100E2000AA029091AB02B4CF8091A8029091A9023E
:100E3000AFCF8091A6029091A702AACF8091A40281
:100E40009091A502A5CF8091A2029091A302A0CF7C
:100E5000FC01538D448D252F30E0842F90E0821BC0
:100E6000930B541710F0CF960895019708958AE9CF
:100E700093E050DA21E0892B09F420E0822F0895D5
:100E80008DEF92E047DA21E0892B09F420E0822FF0
:100E90000895EF92FF920F931F93CF93DF93EC018E
:100EA00081E0888F9B8D8C8D981305C0E889F98926
:100EB000808185FD25C0F62E0B8D10E00F5F1F4F42
:100EC0000F731127E02E8C8DE8120BC00FB607FCB4
:100ED000FACFE889F989808185FFF5CFCE0131DB32
:100EE000F2CF8B8DFE01E80FF11DE35AFF4FF08228
:100EF0009FB7F8940B8FEA89FB89808180620AC0D2
:100F00009FB7F894EE89FF896083E889F989808129
:100F10008370806480839FBF81E090E0DF91CF91F8
:100F20001F910F91FF90EF900895CF93DF93EC0105
:100F3000888D8823C1F0EA89FB89808185FD05C001
:100F4000A889B9898C9186FD0EC00FB607FCF5CF34
:100F5000808185FFF2CFA889B9898C9185FFEDCF7B
:100F6000CE01EFDAE8CFDF91CF9108951F920F9273
:100F70000FB60F9211240BB60F922F933F934F93FE
:100F80005F936F937F938F939F93AF93BF93EF93F1
:100F9000FF938AE993E0D5DAFF91EF91BF91AF918A
:100FA0009F918F917F916F915F914F913F912F9181
:100FB0000F900BBE0F900FBE0F901F9018951F92B1
:100FC0000F920FB60F9211240BB60F922F938F939F
:100FD0009F93EF93FF93E091AA03F091AB0380817D
:100FE000E091B003F091B10382FD12C09081809135
:100FF000B3038F5F8F732091B403821751F0E09198
:10100000B303F0E0E656FC4F958F8093B30301C025
:101010008081FF91EF919F918F912F910F900BBE47
:101020000F900FBE0F901F9018951F920F920FB642
:101030000F9211240BB60F922F933F934F935F9310
:101040006F937F938F939F93AF93BF93EF93FF9390
:101050008DEF92E076DAFF91EF91BF91AF919F9182
:101060008F917F916F915F914F913F912F910F9051
:101070000BBE0F900FBE0F901F9018951F920F92EE
:101080000FB60F9211240BB60F922F938F939F934D
:10109000EF93FF93E0910D03F0910E038081E091B7
:1010A0001303F091140382FD12C090818091160306
:1010B0008F5F8F7320911703821751F0E091160311
:1010C000F0E0E350FD4F958F8093160301C08081BF
:1010D000FF91EF919F918F912F910F900BBE0F90E9
:1010E0000FBE0F901F901895CF92DF92EF92FF9254
:1010F0000F931F93CF93DF936C017A018B01C0E0B4
:10110000D0E0CE15DF0581F0D8016D918D01D601BB
:10111000ED91FC910190F081E02DC6011995892B8C
:1011200011F02196EECF7E01C701DF91CF911F9183
:101130000F91FF90EF90DF90CF900895009761F0AE
:10114000FC0101900020E9F73197AF01481B590BD2
:10115000BC018DEF92E0C8CF80E090E00895CF937E
:10116000DF93CDB7DEB7C058D1090FB6F894DEBF14
:101170000FBECDBFFE01E557FF4F91F185E5898395
:101180008A8387E18B8383E08C8396E09D8398EE4E
:101190009E838F83DE011196CE018D559F4FBD0139
:1011A000208117962C9317973281238118963C93B0
:1011B000189719962C93199734961396E817F907F0
:1011C00079F780913F04909140044B8150E04E5F4D
:1011D0005F4FDC01ED91FC910280F381E02D1995C8
:1011E000C058DF4F0FB6F894DEBF0FBECDBFDF9102
:1011F000CF9108952F923F924F925F926F927F927C
:101200008F929F92AF92BF92CF92DF92EF92FF9216
:101210000F931F93CF93DF93CDB7DEB7A4970FB68D
:10122000F894DEBF0FBECDBF4B015C01F42E9B01D5
:10123000AC010E944612882319F089E892E026C08A
:1012400024013501E89477F82FEF3FEF4FE75FE790
:10125000C301B2010E94461281110CC02FEF3FEF73
:101260004FE75FE7C301B20119D718161CF48DE8E8
:1012700092E00CC02FEF3FEF4FE75FE4C501B401F0
:101280000E94D911181624F481E992E057DFAAC010
:101290002FEF3FEF4FE75FECC501B401FFD687FDAD
:1012A000F3CF20E030E0A901C501B401F7D687FFF4
:1012B0000AC06DE28DEF92E0ECDD3C01B7FAB0942C
:1012C000B7F8B09402C0612C712C10E060E070E0BF
:1012D00080E09FE3F11639F020E030E040E251E495
:1012E000E4D61F5FF7CFA501940174D64B015C01D2
:1012F00049D76AA3C72ED82EE92E19A2262F372F39
:10130000482F592F8E010F5D1F4F0BA31CA39AE08E
:10131000292E312C412C512CCA01B901A201910175
:101320000E948E12605DF80162938F0121153105D4
:101330004105510589F7CF0101DF8301080F191F0E
:10134000FF2009F44EC06AA17C2D8D2D9E2D46D71D
:101350009B01AC01C501B4013CD64B015C016EE2BE
:101360008DEF92E096DD080F191F8AE0282E312CB0
:10137000412C512C20E030E040E251E4C501B401A1
:101380000E94DD114B015C01FDD69B0140E050E065
:1013900019A2CBA0DCA0762E3AA3642EE52ECA01BA
:1013A000B901A20191010E948E12605DF601629363
:1013B0006F01211531054105510589F7CF01BEDEC9
:1013C000080F191F672D7AA1862D9E2D07D79B0127
:1013D000AC01C501B401FDD54B015C01FA94F110DB
:1013E000C9CFC801A4960FB6F894DEBF0FBECDBF1B
:1013F000DF91CF911F910F91FF90EF90DF90CF90F1
:10140000BF90AF909F908F907F906F905F904F9024
:101410003F902F900895823109F466C0B8F482306D
:1014200069F1833009F073C07093A5026093A40240
:101430008EE197E0909303028093020280916A000C
:10144000837F846080936A00ED9A5FC0843141F1AC
:10145000C8F1853109F05BC07093A7026093A602C2
:1014600089E197E0909305028093040280916900DE
:101470008C7F816080936900E89A47C07093A302D3
:101480006093A20283E297E09093010280930002AE
:1014900080916A008C7F816080936A00EC9A35C0ED
:1014A0007093A9026093A80284E197E090930702E9
:1014B0008093060280916900837F84608093690035
:1014C000E99A23C07093AB026093AA028FE097E081
:1014D0009093090280930802809169008F7C80615B
:1014E00080936900EA9A11C07093AD026093AC02D8
:1014F0008AE097E090930B0280930A028091690042
:101500008F73806480936900EB9A81E0089580E096
:1015100008950F931F93CF93DF93EC01062F142FA1
:1015200062E0802F30D862E0812F2DD8802F90E0AC
:10153000FC01E856FE4FE491F0E0EE0FFF1FE25889
:10154000FE4FA591B491B983A883FC01E252FE4FEE
:1015500024912C83812F90E0FC01E856FE4FE4910A
:10156000F0E0EE0FFF1FE258FE4F459154915B8370
:101570004A83FC01E252FE4F94919D831F8218869C
:1015800019861A86EBE3FFE13197F1F7EC91E2233C
:1015900031E009F430E0DA01EC91E92309F032603E
:1015A0003E83BE01802F37DF8B87BE01812F33DF63
:1015B0009B85890F8B87DF91CF911F910F910895A4
:1015C000CF93DF93CDB7DEB760970FB6F894DEBF49
:1015D0000FBECDBF789484B5826084BD84B5816030
:1015E00084BD85B5826085BD85B5816085BD8091EE
:1015F0006E00816080936E00109281008091810066
:10160000826080938100809181008160809381005D
:10161000809180008160809380008091B10084601F
:101620008093B1008091B00081608093B000809180
:1016300091008260809391008091910081608093FD
:101640009100809190008160809390008091A10032
:1016500082608093A1008091A10081608093A100AD
:101660008091A00081608093A00080912101826020
:1016700080932101809121018160809321018091DB
:10168000200181608093200180917A0084608093A2
:101690007A0080917A00826080937A0080917A004B
:1016A000816080937A0080917A00806880937A00CC
:1016B0001092C10080E090E0AAEFB3E48093BD02F5
:1016C0009093BE02A093BF02B093C0028093B90270
:1016D0009093BA02A093BB02B093BC02E0910D03B9
:1016E000F0910E0322E02083E0910903F0910A03B8
:1016F0001082E0910B03F0910C0383E3808310923E
:101700001503E0911103F091120396E09083E091AC
:101710000F03F0911003808180618083E0910F03BB
:10172000F0911003808188608083E0910F03F09135
:101730001003808180688083E0910F03F091100393
:1017400080818F7D8083E091AA03F091AB03208399
:10175000E091A603F091A7031082E091A803F09115
:10176000A9038FEC80831092B203E091AE03F09155
:10177000AF039083E091AC03F091AD038081806171
:101780008083E091AC03F091AD0380818860808319
:10179000E091AC03F091AD03808180688083E0919B
:1017A000AC03F091AD0380818F7D808382E292E073
:1017B000C5DC85E392E0C2DCAA24A394B12C13E03B
:1017C0005CE7352E66E0F62E75E0272EE7E3CE2E99
:1017D000E4E0DE2EF4E08F2E912C88E392E0AEDC84
:1017E0006091ED027091EE028091EF029091F00213
:1017F00020E030E040E251E458D442E0FBDC8CE4ED
:1018000092E09CDC6091E9027091EA028091EB0227
:101810009091EC0220E030E040E251E446D442E016
:10182000E9DC82E692E08ADC6091F5027091F602D2
:101830008091F7029091F80242E0DCDC85E392E0CF
:101840007DDC8DEF92E00E948A01892BF1F08DEF13
:1018500092E00E9468018DE692E070DC85E392E000
:101860006DDCF89410926404109265041092660482
:10187000109267047894F8941092580410925904C6
:1018800010925A0410925B0478948091680482301C
:1018900028F4F8948DE594E07BDA01C0F894809107
:1018A000640490916504A0916604B09167047894F3
:1018B0008093E5029093E602A093E702B093E802DA
:1018C00080915C04823028F4F89481E594E060DA39
:1018D00001C0F8948091580490915904A0915A0441
:1018E000B0915B0478948093E1029093E202A0931C
:1018F000E302B093E4028091E5029091E602A091A8
:10190000E702B091E8024091DD025091DE02609161
:10191000DF027091E002841B950BA60BB70B80933E
:10192000D9029093DA02A093DB02B093DC0280919B
:10193000E1029091E202A091E302B091E4024091B1
:10194000D5025091D6026091D7027091D802841BC3
:10195000950BA60BB70B8093D1029093D202A09364
:10196000D302B093D4028091E5029091E602A09157
:10197000E702B091E8028093DD029093DE02A0932B
:10198000DF02B093E0028091E1029091E202A09127
:10199000E302B091E4028093D5029093D602A09323
:1019A000D702B093D8026091D9027091DA02809187
:1019B000DB029091DC0214D428E431EE4AE951E4D0
:1019C00074D36093CD027093CE028093CF02909334
:1019D000D0026091D1027091D2028091D302909195
:1019E000D402FED32AE037ED49E951E45ED3609397
:1019F000C9027093CA028093CB029093CC0260918B
:101A0000CD027091CE028091CF029091D0022091B0
:101A1000C9023091CA024091CB025091CC02DAD275
:101A200020E030E040E05FE3C8D46093C5027093EB
:101A3000C6028093C7029093C8026091CD02709154
:101A4000CE028091CF029091D0022091C9023091B4
:101A5000CA024091CB025091CC024090C1025090FA
:101A6000C2026090C3027090C402B3D220E030E89A
:101A70004DE553E41AD3A3019201ACD26093C102A5
:101A80007093C2028093C3029093C4026091C1021A
:101A90007091C2028091C3029091C4024090C10231
:101AA0005090C2026090C3027090C4022BED3FE0E0
:101AB00049EC50E4FAD261D3072E000C880B990B45
:101AC0008FD32BED3FE049EC50E477D49B01AC0180
:101AD000C301B2017ED26093C1027093C2028093AF
:101AE000C3029093C4026091C1027091C2028091BE
:101AF000C3029091C40220E030E044E353E45DD49B
:101B00002BED3FE049E450E4D0D26093F5027093AE
:101B1000F6028093F7029093F8026091C1027091EF
:101B2000C2028091C3029091C402BCD22091C5022E
:101B30003091C6024091C7025091C8024090E9021C
:101B40005090EA026090EB027090EC0236D4A30150
:101B5000920140D26093E9027093EA028093EB0213
:101B60009093EC026091C1027091C2028091C30215
:101B70009091C40285D42091C5023091C602409153
:101B8000C7025091C8024090ED025090EE02609062
:101B9000EF027090F00211D4A30192011BD2609366
:101BA000ED027093EE028093EF029093F002809129
:101BB000F9029091FA02892B09F04FC16091F50268
:101BC0007091F6028091F7029091F80220E030E0E7
:101BD00044EB52E463D218160CF43FC181E494E064
:101BE0002ED881E494E00E94E6058091F90290915C
:101BF000FA02019709F036C16091F5027091F60280
:101C00008091F7029091F80220E030E0A901D1D351
:101C100087FD28C181E494E04ED881E494E00E94DD
:101C2000AA058091FB029091FC028130910509F494
:101C3000EFC008F498C08230910509F40BC10397F6
:101C400009F004C11F933F921F92FF9202E00F938D
:101C50008FEA8F931F922F921F9399E59F931F9264
:101C600024E02F931F9284E88F931F921F931F935A
:101C70008DE6682E6F921F920F930F938FED8F93C7
:101C80001F92EE24E394EF921F9398EE792E7F92A9
:101C9000FF92DF92CF9263DA68EE73E080E090E02B
:101CA0000E94C6031F933F921F92FF920F9399E6E3
:101CB0009F931F922F921F9326E4422E4F921F92C2
:101CC00024E02F931F9232E2532E5F921F921F93B4
:101CD0001F936F921F920F930F938FED8F931F920D
:101CE000EF921F937F92FF92DF92CF9238DA0FB676
:101CF000F894DEBF0FBECDBF68EE73E080E090E0E9
:101D00000E94C6031F933F921F92FF920F9399E682
:101D10009F931F922F921F934F921F9224E02F9315
:101D20001F925F921F921F931F936F921F920F93A8
:101D3000EF9282EC8F931F92EF921F937F92FF920C
:101D4000DF92CF920CDA68EE73E080E090E00E94C0
:101D5000C6039092FC028092FB020FB6F894DEBF9D
:101D60000FBECDBF77C08CE0E1E4F4E0DE01119658
:101D700001900D928A95E1F780914F049091500463
:101D8000988B8F8780914D0490914E049E878D870C
:101D9000CE010F960E9494066C3271408105910528
:101DA00048F4CE0101960E945B06CE0101960E9486
:101DB000AA051AC0CE010D960E9494066C3271409D
:101DC0008105910548F4CE0101960E941F06CE01BF
:101DD00001960E94E60508C0CE0101960E945B06AE
:101DE000CE0101960E941F066091F1027091F202ED
:101DF0008091F3029091F40220E030E04AE753E44E
:101E0000D8D287FD27C0B092FC02A092FB0222C06C
:101E10008091F9029091FA02892B49F56091F502BF
:101E20007091F6028091F7029091F80220E030E084
:101E300044EB52E433D11816D4F081E494E00E94CC
:101E40001F0681E494E00E94E60504C01092FC02A3
:101E50001092FB020E949601C0CCB092FA02A092AE
:101E6000F902C3CE1092FA021092F902DACEB092C1
:101E7000FA02A092F902EECFCF93DF93CAE9D3E042
:101E80001B821A8248EE53E060E070E04C835D8371
:101E90006E837F8384E192E09983888325ED30E02F
:101EA0003D872C8724ED30E03F872E8720ED30E002
:101EB000398B288B21ED30E03B8B2A8B22ED30E0F3
:101EC0003D8B2C8B26ED30E03F8B2E8B198E1A8E9E
:101ED0001B8E1C8EEDEFF2E0138212824483558339
:101EE000668377839183808385EC90E095878487F0
:101EF00084EC90E09787868780EC90E0918B808BD4
:101F000081EC90E0938B828B82EC90E0958B848BBC
:101F100086EC90E0978B868B118E128E138E148E2A
:101F200045E164E18DE594E0F4DA42E163E181E5C5
:101F300094E0EFDA8DE090E09093500480934F04AA
:101F40008CE090E090934E0480934D0461E086E035
:101F50000E94C30261E087E00E94C30261E08AE060
:101F60000E94C30261E08BE00E94C30261E088E04E
:101F70000E94C30261E089E00E94C302E1E4F4E050
:101F800086E090E09183808387E090E09383828372
:101F90008AE090E0958384838BE090E0978386834A
:101FA00088E090E09187808789E090E0938782873E
:101FB000E7E3F4E08FEF80831282118214821782AC
:101FC0001682158281E08383D187C087DF91CF910C
:101FD00008955058BB27AA270ED0A0C169D130F070
:101FE0006ED120F031F49F3F11F41EF45EC10EF467
:101FF000E095E7FB54C1E92FB3D180F3BA1762072C
:1020000073078407950718F071F49EF5CBC10EF4A1
:10201000E0950B2EBA2FA02D0B01B90190010C01F8
:10202000CA01A0011124FF27591B99F0593F50F410
:10203000503E68F11A16F040A22F232F342F442768
:10204000585FF3CF469537952795A795F040539560
:10205000C9F77EF41F16BA0B620B730B840BBAF030
:102060009150A1F0FF0FBB1F661F771F881FC2F79B
:102070000EC0BA0F621F731F841F48F487957795AF
:102080006795B795F7959E3F08F0B3CF9395880F66
:1020900008F09927EE0F979587950895DCD008F4FE
:1020A00081E0089514D1E3954AC10CD037C107D11E
:1020B00040F0FED030F021F45F3F19F0F0C0511134
:1020C00072C1F3C04DD198F39923C9F35523B1F3ED
:1020D000951B550BBB27AA2762177307840738F097
:1020E0009F5F5F4F220F331F441FAA1FA9F333D0F6
:1020F0000E2E3AF0E0E830D091505040E695001CAA
:10210000CAF729D0FE2F27D0660F771F881FBB1F65
:10211000261737074807AB07B0E809F0BB0B802D3F
:10212000BF01FF2793585F4F2AF09E3F510568F08B
:10213000B6C039C15F3FECF3983EDCF386957795E6
:102140006795B795F7959F5FC9F7880F911D96958D
:10215000879597F90895E1E0660F771F881FBB1FE9
:10216000621773078407BA0720F0621B730B840B96
:10217000BA0BEE1F88F7E095089504D06894B1116A
:1021800012C10895F5D088F09F5790F0B92F992784
:10219000B751A0F0D1F0660F771F881F991F1AF072
:1021A000BA95C9F712C0B13081F0FCD0B1E0089502
:1021B000F9C0672F782F8827B85F39F0B93FCCF383
:1021C000869577956795B395D9F73EF49095809568
:1021D000709561957F4F8F4F9F4F0895E89409C088
:1021E00097FB3EF490958095709561957F4F8F4F4A
:1021F0009F4F9923A9F0F92F96E9BB279395F69560
:10220000879577956795B795F111F8CFFAF4BB0FDD
:1022100011F460FF1BC06F5F7F4F8F4F9F4F16C041
:10222000882311F096E911C0772321F09EE8872FCB
:10223000762F05C0662371F096E8862F70E060E087
:102240002AF09A95660F771F881FDAF7880F969500
:10225000879597F90895990F0008550FAA0BE0E8A4
:10226000FEEF16161706E807F907C0F01216130658
:10227000E407F50798F0621B730B840B950B39F498
:102280000A2661F0232B242B252B21F408950A26FE
:1022900009F4A140A6958FEF811D811D089597F93E
:1022A0009F6780E870E060E008959FEF80EC0895FC
:1022B00000240A9416161706180609060895002425
:1022C0000A9412161306140605060895EECF50D090
:1022D000E8F3E894E0E0BB279F57F0F02AED3FE0F9
:1022E00049EC06C0EE0FBB0F661F771F881F28F052
:1022F000B23A62077307840728F0B25A620B730B75
:10230000840BE3959A9572F7803830F49A95BB0F59
:10231000661F771F881FD2F79048BEC0092E03940E
:10232000000C11F4882352F0BB0F40F4BF2B11F4C2
:1023300060FF04C06F5F7F4F8F4F9F4F0895EF93F3
:10234000E0FF06C0A2EA2AED3FE049EC5FEB53DE76
:10235000E5DF0F90039401FC9058ECE2F1E0A8C097
:1023600057FD9058440F551F59F05F3F71F0479546
:10237000880F97FB991F61F09F3F79F0879508952B
:10238000121613061406551FF2CF4695F1DF08C04A
:10239000161617061806991FF1CF86957105610567
:1023A00008940895E894BB2766277727CB0197F90F
:1023B000089551DF08F48FEF08950BD0AFCF78DF89
:1023C00028F07DDF18F0952309F069CF6ECF112436
:1023D000EACFC6DFA0F3959FD1F3950F50E0551FCC
:1023E000629FF001729FBB27F00DB11D639FAA276A
:1023F000F00DB11DAA1F649F6627B00DA11D661FB9
:10240000829F2227B00DA11D621F739FB00DA11DD9
:10241000621F839FA00D611D221F749F3327A00D93
:10242000611D231F849F600D211D822F762F6A2F2F
:1024300011249F5750408AF0E1F088234AF0EE0FB4
:10244000FF1FBB1F661F771F881F91505040A9F7C1
:102450009E3F510570F023CFA6CF5F3FECF3983E2F
:10246000DCF3869577956795B795F795E7959F5F28
:10247000C1F7FE2B880F911D9695879597F90895C2
:102480009F9325DF0F9007FCEE5F59CFE4DE880BAA
:10249000990B08959F3F31F0915020F487957795DF
:1024A0006795B795880F911D9695879597F908952B
:1024B0009F938F937F936F93FF93EF939B01AC0157
:1024C0007CDFEF91FF9105D02F913F914F915F916C
:1024D00074CFDF93CF931F930F93FF92EF92DF920E
:1024E0007B018C01689405C0DA2EEF0172DFFE01DA
:1024F000E894A5912591359145915591AEF3EF0161
:102500007ADDFE019701A801DA9479F7DF90EF9068
:10251000FF900F911F91CF91DF910895A1E21A2EA4
:10252000AA1BBB1BFD010DC0AA1FBB1FEE1FFF1F77
:10253000A217B307E407F50720F0A21BB30BE40BC7
:10254000F50B661F771F881F991F1A9469F760950E
:102550007095809590959B01AC01BD01CF010895C8
:10256000EE0FFF1F881F8BBF0790F691E02D199487
:0C25700081E090E0F89400C0F894FFCFE8
:10257C009A029A029A029A029A029A029A029A026F
:10258C000000000049077408280795078A016801B4
:10259C007C0143757272656E7420506F7369746937
:1025AC006F6E3A20000D0A005820506F73697469E1
:1025BC006F6E20696E20636D203D20002C20592009
:1025CC00506F736974696F6E20696E20636D203D66
:1025DC0020002C205468657461203D2000526573E6
:1025EC00657420626F746820456E636F64657273E6
:1025FC0020746F207A65726F006E616E00696E6672
:06260C00006F766600007D
:00000001FF
