:1000000054C10000A0C5000073C5000046C5000033
:1000100019C50000ECC40000BFC4000092C4000079
:1000200065C40000BBC50000B9C50000B7C500002D
:100030006DC100006BC1000069C1000067C1000014
:1000400065C1000063C1000061C100005FC1000024
:100050005DC100005BC1000059C10000FDC300008C
:1000600055C100000C94CA080C94A1084FC10000AF
:100070004DC100004BC1000049C1000047C1000054
:1000800045C1000043C1000041C100003FC1000064
:100090003DC100003BC1000039C1000037C1000074
:1000A00035C1000033C1000031C100002FC1000084
:1000B0002DC100002BC1000029C1000027C1000094
:1000C00025C1000023C1000021C100000C946B0871
:1000D000D9C700001BC1000019C1000017C10000F2
:1000E00015C1000012021502040208020E024C02A1
:1000F00019021D02230227022B02310235023902A6
:100100004C023F0243024702540359035E03680353
:100110007203EB037C0384038C039603A003AA03FE
:10012000B903C303EB03CD03D703E1036810D71072
:100130003711C211881269127F13D313084AD73BB3
:100140003BCE016E84BCBFFDC12F3D6C74319ABDA6
:1001500056833DDA3D00C77F11BED9E4BB4C3E91CA
:100160006BAAAABE000000803F05A84CCDB2D44EB9
:10017000B93836A9020C50B9918688083CA6AAAABB
:100180002ABE000000803F0000002100240027005C
:100190002A002D0030003300010100000401070196
:1001A0000A0100002200250028002B002E0031004B
:1001B000340002010000050108010B0100002000CD
:1001C0002300260029002C002F003200000100002F
:1001D00003010601090105050505070508080808CA
:1001E000020202020A0A08080404040401010101CF
:1001F00001010101030303030303030304070707CA
:100200000C0C0C0C0C0C0C0C02020202060606066E
:10021000060606060B0B0B0B0B0B0B0B010210203B
:10022000200808102040102040800201020108042C
:1002300002010102040810204080804020100804C0
:100240000201800402018040201008040201080419
:10025000020101020408102040800102040810205D
:10026000408000000A0B02090C0D0E080703040170
:10027000000000000000000000000000000000007E
:10028000000000000000000000000000000012114B
:10029000100000000000000000000000000000004E
:1002A0000000000000000000FA1311241FBECFEF71
:1002B000D1E2DEBFCDBF00E00CBF24E0AEE3B2E090
:1002C00001C01D92A933B207E1F712E0A0E0B2E04D
:1002D000E2E9F0E300E00BBF02C007900D92AE33FD
:1002E000B107D9F711E0C5E5D1E000E006C02197DC
:1002F0000109802FFE010E943B18C435D10780E020
:100300000807A9F70E94CA0E0C94471879CEFC0181
:10031000538D448D252F30E0842F90E0821B930B6A
:10032000541710F0CF96089501970895FC01918D10
:10033000828D981761F0828DDF01A80FB11D5D9647
:100340008C91928D9F5F9F73928F90E008958FEFB5
:100350009FEF0895FC01918D828D981731F0828D69
:10036000E80FF11D858D90E008958FEF9FEF0895C0
:10037000FC01918D228D892F90E0805C9F4F821B24
:1003800091098F739927089580E090E0892B19F0E7
:1003900003D6811120C080E090E0892B41F080E0FD
:1003A00090E0892B21F00E940000811117C080E0AD
:1003B00090E0892B19F0E7D5811113C080E090E01F
:1003C000892BA1F080E090E0892B81F00E94000051
:1003D00081110AC008950E940000DDCF0E94000034
:1003E000E6CF0E940000EACF0C940000089590E050
:1003F000FC013197E231F10508F04EC08827EE5834
:10040000FF4F8F4F0C943B18809180008F7703C073
:10041000809180008F7D809380000895809180007E
:10042000877FF9CF84B58F7702C084B58F7D84BD77
:1004300008958091B0008F7703C08091B0008F7DC8
:100440008093B0000895809190008F7707C08091CD
:1004500090008F7D03C080919000877F80939000F3
:1004600008958091A0008F7707C08091A0008F7DB4
:1004700003C08091A000877F8093A00008958091A1
:1004800020018F7707C0809120018F7D03C080916C
:100490002001877F809320010895CF93DF93282F39
:1004A00030E0F901EE59FD4F8491F901E45EFD4F12
:1004B000D491F901EA52FE4FC491CC2389F0811105
:1004C00096DFEC2FF0E0EE0FFF1FE454FE4FA591F6
:1004D000B491EC91ED2381E090E021F480E002C042
:1004E00080E090E0DF91CF9108951F93CF93DF9349
:1004F000282F30E0F901EE59FD4F8491F901E45EB7
:10050000FD4FD491F901EA52FE4FC491CC23B9F0CA
:10051000162F81116CDFEC2FF0E0EE0FFF1FEE5570
:10052000FE4FA591B4919FB7F894111104C08C911E
:10053000D095D82302C0EC91DE2BDC939FBFDF91D6
:10054000CF911F9108953FB7F89480914D029091FB
:100550004E02A0914F02B091500226B5A89B05C053
:100560002F3F19F00196A11DB11D3FBFBA2FA92F32
:10057000982F8827820F911DA11DB11DBC01CD01AF
:1005800042E0660F771F881F991F4A95D1F708959B
:100590000895089580E090E008950E944318FC01BA
:1005A000848DDF01A80FB11DA35ABF4F2C91848DFC
:1005B00090E001968F739927848FA689B7892C9331
:1005C000A089B1898C91837080648C93938D848D84
:1005D000981306C00288F389E02D80818F7D808387
:1005E0000895CF93DF9390E0FC01E45EFD4F2491EA
:1005F000FC01EA52FE4F8491882361F190E0880F5C
:10060000991FFC01E857FE4FC591D491FC01EE55AE
:10061000FE4FA591B491611109C09FB7F8948881EC
:10062000209582238883EC912E230BC0623061F4E5
:100630009FB7F8948881322F309583238883EC917B
:100640002E2B2C939FBF06C08FB7F894E8812E2BDA
:1006500028838FBFDF91CF9108951F93CF93DF93AE
:10066000182FEB0161E0BDDF209711F460E004C0BA
:10067000CF3FD10531F461E0812FDF91CF911F9100
:1006800034CFE12FF0E0EE59FD4FE4918E2F90E052
:10069000FC013197E231F10508F09DC08827EC5745
:1006A000FF4F8F4F0C943B1884B5806884BDC7BD45
:1006B00097C084B5806284BDC8BD92C0809180001F
:1006C000806880938000D0938900C093880088C0A0
:1006D00080918000806280938000D0938B00C093D3
:1006E0008A007EC080918000886080938000D093D3
:1006F0008D00C0938C0074C08091B000806880939E
:10070000B000C093B3006CC08091B0008062809351
:10071000B000C093B40064C0809190008068809362
:100720009000D0939900C09398005AC08091900097
:10073000806280939000D0939B00C0939A0050C039
:1007400080919000886080939000D0939D00C0932A
:100750009C0046C08091A00080688093A00080919A
:10076000A0008F7B8093A000D093A900C093A80025
:1007700037C08091A00080628093A000D093AB002E
:10078000C093AA002DC08091A00088608093A00033
:10079000D093AD00C093AC0023C08091200180684D
:1007A00080932001D0932901C093280119C0809122
:1007B0002001806280932001D0932B01C0932A01F5
:1007C0000FC080912001886080932001D0932D017B
:1007D000C0932C0105C0C038D1050CF04CCF46CFDA
:1007E000DF91CF911F9108958F929F92AF92BF9208
:1007F000CF92DF92EF92FF926B017C01A4DE4B015E
:100800005C01C114D104E104F104E9F09CDEDC01D7
:10081000CB0188199909AA09BB09883E9340A10513
:10082000B10578F321E0C21AD108E108F10888EE99
:10083000880E83E0981EA11CB11CC114D104E104F0
:10084000F10421F7DECFFF90EF90DF90CF90BF90C3
:10085000AF909F908F9008951F920F920FB60F92B6
:1008600011242F933F938F939F93AF93BF938091C6
:10087000730290917402A0917502B091760230914A
:100880004C0223E0230F2D3720F40196A11DB11D4A
:1008900005C026E8230F0296A11DB11D20934C022E
:1008A0008093730290937402A0937502B0937602C2
:1008B00080914D0290914E02A0914F02B091500252
:1008C0000196A11DB11D80934D0290934E02A093FD
:1008D0004F02B0935002BF91AF919F918F913F9182
:1008E0002F910F900FBE0F901F9018951F920F928F
:1008F0000FB60F9211240BB60F922F933F934F9385
:100900005F936F937F938F939F93AF93BF93EF9377
:10091000FF93E0910E02F0910F021995FF91EF9174
:10092000BF91AF919F918F917F916F915F914F9107
:100930003F912F910F900BBE0F900FBE0F901F9005
:1009400018951F920F920FB60F9211240BB60F92AB
:100950002F933F934F935F936F937F938F939F93C7
:10096000AF93BF93EF93FF93E0910C02F0910D02D0
:100970001995FF91EF91BF91AF919F918F917F91C9
:100980006F915F914F913F912F910F900BBE0F9000
:100990000FBE0F901F9018951F920F920FB60F92D7
:1009A00011240BB60F922F933F934F935F936F9346
:1009B0007F938F939F93AF93BF93EF93FF93E091B8
:1009C0000202F09103021995FF91EF91BF91AF914F
:1009D0009F918F917F916F915F914F913F912F9157
:1009E0000F900BBE0F900FBE0F901F9018951F9287
:1009F0000F920FB60F9211240BB60F922F933F93C5
:100A00004F935F936F937F938F939F93AF93BF9316
:100A1000EF93FF93E0910002F09101021995FF918D
:100A2000EF91BF91AF919F918F917F916F915F9166
:100A30004F913F912F910F900BBE0F900FBE0F90D3
:100A40001F9018951F920F920FB60F9211240BB69C
:100A50000F922F933F934F935F936F937F938F9357
:100A60009F93AF93BF93EF93FF93E0910A02F091AE
:100A70000B021995FF91EF91BF91AF919F918F91CB
:100A80007F916F915F914F913F912F910F900BBE8E
:100A90000F900FBE0F901F9018951F920F920FB6D8
:100AA0000F9211240BB60F922F933F934F935F93A6
:100AB0006F937F938F939F93AF93BF93EF93FF9326
:100AC000E0910802F09109021995FF91EF91BF9111
:100AD000AF919F918F917F916F915F914F913F91D6
:100AE0002F910F900BBE0F900FBE0F901F90189577
:100AF0001F920F920FB60F9211240BB60F922F93E5
:100B00003F934F935F936F937F938F939F93AF9395
:100B1000BF93EF93FF93E0910602F09107021995BE
:100B2000FF91EF91BF91AF919F918F917F916F91C5
:100B30005F914F913F912F910F900BBE0F900FBE81
:100B40000F901F9018951F920F920FB60F921124BD
:100B50000BB60F922F933F934F935F936F937F93B7
:100B60008F939F93AF93BF93EF93FF93E091040212
:100B7000F09105021995FF91EF91BF91AF919F916F
:100B80008F917F916F915F914F913F912F910F9036
:100B90000BBE0F900FBE0F901F9018951F920F92D3
:100BA0000FB60F9211240F900FBE0F901F90189543
:100BB000CF93DF93EC0186E292E032D787E792E0B1
:100BC000D7DB181619060CF045C087E792E0C2DBA8
:100BD000CA9709F039C087E792E0A8DB87E792E07F
:100BE000C7DB18161906D4F72CD797FD17C08D321E
:100BF000910549F0C0970A9730F087E792E096DBBD
:100C0000F3CF019759F487E792E090DB1AD79C0164
:100C1000205331092A303105B0F3F3CF87E792E052
:100C2000A7DB18161906D4F74CD787E792E0A0DBAC
:100C300018161906D4F745D787E792E099DB1816FE
:100C40001906D4F73ED706C087E792E091DB181665
:100C50001906D4F3CE01DF91CF910895CF93DF939E
:100C6000EC0160E0888141DC60E08A813EDC60E08C
:100C70008C813BDC60E08E8138DC60E0888535DC8F
:100C800060E08A85DF91CF9130CCCF93DF93EC0188
:100C900060E088852ADC888500DC61E068278A8539
:100CA00024DC8A81FADB892B39F560E470E08A81E3
:100CB000D4DC64E170E080E090E096DD60E870E014
:100CC0008A81CBDC64E170E080E090E08DDD60EC57
:100CD00070E08A81C2DC62E070E080E090E084DD58
:100CE0006FEF70E08A81B9DC62E070E080E090E054
:100CF0007BDD61E08A81F9DB61E08A81DF91CF9160
:100D0000F4CBCF93DF93EC0160E08C81EEDB8C8140
:100D1000C4DB61E068278E81E8DB8881BEDB892B3C
:100D200021F560E470E0888198DC64E170E080E0A7
:100D300090E05ADD60E870E088818FDC64E170E06B
:100D400080E090E051DD60EC70E0888186DC62E05C
:100D500070E080E090E048DD6FEF70E088817DDC3E
:100D600062E070E080E090E03FDD61E08881DF914B
:100D7000CF91BBCBCF93DF93EC0161E08885B5DBEE
:100D800088858BDB61E068278A85AFDB8A8185DB1C
:100D9000892B39F560E470E08A815FDC64E170E002
:100DA00080E090E021DD60E870E08A8156DC64E15B
:100DB00070E080E090E018DD60EC70E08A814DDC4E
:100DC00062E070E080E090E00FDD6FEF70E08A811C
:100DD00044DC62E070E080E090E006DD61E08A8162
:100DE00084DB61E08A81DF91CF917FCBCF93DF936A
:100DF000EC0161E08C8179DB8C814FDB61E068275D
:100E00008E8173DB888149DB892B21F560E470E0FA
:100E1000888123DC64E170E080E090E0E5DC60E85C
:100E200070E088811ADC64E170E080E090E0DCDC56
:100E300060EC70E0888111DC62E070E080E090E0BE
:100E4000D3DC6FEF70E0888108DC62E070E080E066
:100E500090E0CADC61E08881DF91CF9146CBCF92F0
:100E6000DF92EF92FF92CF93DF93EC0161E08881F4
:100E7000B8DB61E0888139DB8BE891E00197F1F71D
:100E800062DB6B017C0160E08881ABDB888105DB84
:100E9000019761F058DB6C197D098E099F09DF917C
:100EA000CF91FF90EF90DF90CF9008954CDBDC0165
:100EB000CB018C199D09AE09BF09883E9340A1055D
:100EC000B10520F3E7CFDC01ED91FD918081ED913B
:100ED000FD919081ED91FD916C9163708E2309F0ED
:100EE00064609F2309F06860E0E8F7E0E60FF11D19
:100EF000659565956D936D917D918D919D91099409
:100F000023C01AC012C016C010C01EC009C014C031
:100F100013C006C019C009C00DC007C00DC014C061
:100F200062507040804090400BC0615070408040E3
:100F3000904006C06E5F01C06F5F7F4F8F4F9F4F25
:100F40009E938E937E936E93089580914802909124
:100F50004902B9CF8091460290914702B4CF809167
:100F6000440290914502AFCF80914202909143029A
:100F7000AACF8091400290914102A5CF80913E027C
:100F800090913F02A0CF8AE693E0F2D921E0892B2D
:100F900009F420E0822F089587E792E0E9D921E063
:100FA000892B09F420E0822F0895EF92FF920F938E
:100FB0001F93CF93DF93EC0181E0888F9B8D8C8D05
:100FC000981305C0E889F989808185FD25C0F62E32
:100FD0000B8D10E00F5F1F4F0F731127E02E8C8DCC
:100FE000E8120BC00FB607FCFACFE889F9898081B7
:100FF00085FFF5CFCE01D3DAF2CF8B8DFE01E80F5E
:10100000F11DE35AFF4FF0829FB7F8940B8FEA89E6
:10101000FB89808180620AC09FB7F894EE89FF89BE
:101020006083E889F98980818370806480839FBFB1
:1010300081E090E0DF91CF911F910F91FF90EF90B1
:101040000895CF93DF93EC01888D8823C1F0EA895E
:10105000FB89808185FD05C0A889B9898C9186FDB1
:101060000EC00FB607FCF5CF808185FFF2CFA889AF
:10107000B9898C9185FFEDCFCE0191DAE8CFDF9170
:10108000CF9108951F920F920FB60F9211240BB6B5
:101090000F922F933F934F935F936F937F938F9311
:1010A0009F93AF93BF93EF93FF938AE693E077DA32
:1010B000FF91EF91BF91AF919F918F917F916F9130
:1010C0005F914F913F912F910F900BBE0F900FBEEC
:1010D0000F901F9018951F920F920FB60F92112428
:1010E0000BB60F922F938F939F93EF93FF93E09103
:1010F0007A03F0917B038081E0918003F09181037A
:1011000082FD12C09081809183038F5F8F73209145
:101110008403821751F0E0918303F0E0E659FC4F1D
:10112000958F8093830301C08081FF91EF919F9100
:101130008F912F910F900BBE0F900FBE0F901F90AD
:1011400018951F920F920FB60F9211240BB60F92A3
:101150002F933F934F935F936F937F938F939F93BF
:10116000AF93BF93EF93FF9387E792E018DAFF9175
:10117000EF91BF91AF919F918F917F916F915F910F
:101180004F913F912F910F900BBE0F900FBE0F907C
:101190001F9018951F920F920FB60F9211240BB645
:1011A0000F922F938F939F93EF93FF93E09187027A
:1011B000F09188028081E0918D02F0918E0282FD93
:1011C00012C09081809190028F5F8F732091910265
:1011D000821751F0E0919002F0E0E958FD4F958FB1
:1011E0008093900201C08081FF91EF919F918F9138
:1011F0002F910F900BBE0F900FBE0F901F90189560
:10120000CF92DF92EF92FF920F931F93CF93DF93D2
:101210006C017A018B01C0E0D0E0CE15DF0581F0D2
:10122000D8016D918D01D601ED91FC910190F08175
:10123000E02DC6011995892B11F02196EECF7E0184
:10124000C701DF91CF911F910F91FF90EF90DF9039
:10125000CF9008954F925F926F927F928F929F925C
:10126000AF92BF92CF92DF92EF92FF920F931F93B4
:10127000CF93DF93C0916403D09165038B85823057
:1012800020F4F894CE011FDE01C0F8948F81988578
:10129000A985BA8578948093380390933903A093F5
:1012A0003A03B0933B03C0916603D09167038B85EB
:1012B000823020F4F894CE0106DE01C0F8944F800D
:1012C000588469847A84789440923C0350923D0318
:1012D00060923E0370923F03C0903803D090390370
:1012E000E0903A03F0903B0340914803509149034A
:1012F00060914A0370914B0397018601041B150B03
:10130000260B370BC901B80100934003109341032A
:10131000209342033093430380904C0390904D03FD
:10132000A0904E03B0904F03A301920128193909F0
:101330004A095B0949015A0120934403309345034C
:101340004093460350934703C0924803D092490309
:10135000E0924A03F0924B0340924C0350924D03AB
:1013600060924E0370924F030E940C1528E431EEF8
:101370004AE951E40E94C8166B017C016093300376
:10138000709331038093320390933303C501B4010A
:101390000E940C152AE037ED49E951E40E94C81675
:1013A0002B013C0160933403709335038093360323
:1013B000909337039B01AC01C701B6010E94391617
:1013C00020E030E040E05FE30E946B154B015C01E0
:1013D000A3019201C701B6010E94381620911002A4
:1013E0003091110240911202509113020E94C816CE
:1013F0002091200330912103409122035091230337
:101400000E9439166B017C012BED3FE049EC50E462
:101410000E94C8160E943017072E000C880B990BEB
:101420000E940C152BED3FE049EC50E40E946B1537
:101430009B01AC01C701B6010E9438166B017C010B
:1014400060932003709321038093220390932303DE
:1014500020E030E044E353E40E946B152BED3FE0C5
:1014600049E450E40E94C816609324037093250356
:101470008093260390932703C701B6010E94C516E7
:101480009B01AC01C501B4010E946B159B01AC012D
:1014900060912C0370912D0380912E0390912F0366
:1014A0000E94391660932C0370932D0380932E03B2
:1014B00090932F03C701B6010E94CA179B01AC018C
:1014C000C501B4010E946B159B01AC01609128031A
:1014D0007091290380912A0390912B030E94391661
:1014E000609328037093290380932A0390932B031E
:1014F000DF91CF911F910F91FF90EF90DF90CF90F0
:10150000BF90AF909F908F907F906F905F904F9023
:1015100008958F929F92AF92BF92CF92DF92EF92F7
:10152000FF92CF93DF934B015C01C12CD12C8AE752
:10153000E82E83E4F82E209118033091190340918E
:101540001A0350911B03C501B4010E9439169B0177
:10155000AC01609124037091250380912603909142
:1015600027030E940615181694F074DEC09210022C
:10157000D0921102E0921202F0921302C09168031D
:10158000D0916903CE01F6DBCE01BBDBD4CF80E086
:1015900090E8ADE5B3E48093100290931102A0931C
:1015A0001202B09313028091680390916903DF9156
:1015B000CF91FF90EF90DF90CF90BF90AF909F9032
:1015C0008F904CCB8F929F92AF92BF92CF92DF922F
:1015D000EF92FF92CF93DF934B015C01C12CD12C92
:1015E0008AE7E82E83E4F82E20911803309119033E
:1015F00040911A0350911B03C501B4010E94391692
:101600009B01AC0160912403709125038091260316
:10161000909127030E94BF1787FD12C01BDEC09266
:101620001002D0921102E0921202F0921302C091C5
:101630006803D0916903CE01D9DBCE0126DBD4CF7C
:1016400080E090E8ADE5B3E480931002909311023E
:10165000A0931202B09313028091680390916903E2
:10166000DF91CF91FF90EF90DF90CF90BF90AF9040
:101670009F908F90F3CA4F925F926F927F928F925A
:101680009F92AF92BF92CF92DF92EF92FF920F9311
:101690001F93CF93DF9300D01F92CDB7DEB7E982BF
:1016A000FA820B831C8360935003709351038093E1
:1016B0005203909353032093540330935503409364
:1016C0005603509357038091680390916903C6DADB
:1016D000209128033091290340912A0350912B0334
:1016E0006091500370915103809152039091530384
:1016F0000E9438166B017C0120912C0330912D0340
:1017000040912E0350912F03609154037091550323
:1017100080915603909157030E9438164B015C014B
:10172000A7019601C701B6010E946B152B013C0170
:10173000A5019401C501B4010E946B159B01AC0188
:10174000C301B2010E9439160E94D41760935C0352
:1017500070935D0380935E0390935F032CEA35ECF6
:1017600047E257E3C701B6010E94BF171816ACF451
:10177000A7019601C501B4010E94C8160E949D16DA
:1017800026EE3EE245E652E40E946B159B01AC0159
:1017900060E070E084EB92E424C02CEA35EC47E290
:1017A00057EBC701B6010E94061587FF24C0A701A9
:1017B0009601C501B4010E94C8160E949D1626EE2E
:1017C0003EE245E652E40E946B1520E030E044EB37
:1017D00052E40E9439169B01AC0160E070E084EB9A
:1017E00093E40E94381660935803709359038093D2
:1017F0005A0390935B038090580390905903A090F4
:101800005A03B0905B0340902403509025036090EE
:10181000260370902703A3019201C501B4010E9421
:1018200038166B017C0120E030E044E353E40E9471
:10183000BF1718164CF420E030E044EB53E4C70126
:10184000B6010E9438161BC020E030E044E353ECA0
:10185000C701B6010E94061587FD09C0C09260034A
:10186000D0926103E0926203F092630310C020E023
:1018700030E044EB53E4C701B6010E94391660938F
:101880006003709361038093620390936303A301E9
:101890009201C501B4010E94BF17181624F4C501B6
:1018A000B40137DE03C0C501B4018CDE20911C03F6
:1018B00030911D0340911E0350911F0369817A816D
:1018C0008B819C810E946B152B013C0120E030E054
:1018D000A901609128037091290380912A039091B6
:1018E0002B030E9438164B015C0120E030E0A90177
:1018F00060912C0370912D0380912E0390912F0302
:101900000E9438166B017C01A5019401C501B40148
:101910000E946B154B015C01A7019601C701B6013E
:101920000E946B159B01AC01C501B4010E943916E0
:101930000E94D4179B01AC01C301B2010E94BF17E2
:1019400087FD0AC087DCE0906803F0906903C70157
:101950004DDAC7010FDABACF80916803909169031D
:101960000F900F900F900F90DF91CF911F910F91DB
:10197000FF90EF90DF90CF90BF90AF909F908F90AF
:101980007F906F905F904F9069C9CF93DF93CDB7F1
:10199000DEB7C058D1090FB6F894DEBF0FBECDBF79
:1019A000FE01E557FF4F91F185E589838A8387E141
:1019B0008B8383E08C8396E09D8398EE9E838F8358
:1019C000DE011196CE018D559F4FBD0120811796E6
:1019D0002C9317973281238118963C931897199668
:1019E0002C93199734961396E817F90779F7809195
:1019F0000F04909110044B8150E04E5F5F4FDC016B
:101A0000ED91FC910280F381E02D1995C058DF4FD4
:101A10000FB6F894DEBF0FBECDBFDF91CF91089512
:101A2000009761F0FC0101900020E9F73197AF01C8
:101A3000481B590BBC0187E792E0E2CB80E090E0C5
:101A400008952FB7F8948091730290917402A09139
:101A50007502B09176022FBF80937F02909380022F
:101A6000A0938102B093820287E792E00E94AA01CC
:101A700097FF26C02FB7F89480917302909174025B
:101A8000A0917502B09176022FBF40917F025091D4
:101A900080026091810270918202841B950BA60BDB
:101AA000B70B40917B0250917C0260917D02709156
:101AB0007E0284179507A607B707B0F28FEF9FEF56
:101AC00008958F929F92AF92BF92CF92DF92EF9242
:101AD000FF92CF93DF93B5DFFC0197FD0EC08D32EF
:101AE000910579F0C0970A9760F0EE32F10549F060
:101AF00087E792E00E949601EECF60E070E0CB01B4
:101B000067C0812C912C80E8A82E8FE3B82EC12CC1
:101B1000D12C7601C0E0D0E0E130F10561F1ED3289
:101B2000F10531F1EE32F10529F1CF01C0970A97A5
:101B300010F5AAE0B0E0A70196010E941F166F0100
:101B4000FF0FEE08FF08C60ED71EE81EF91E80E341
:101B5000C81AD108E108F108CC2369F02DEC3CEC5F
:101B60004CEC5DE3C501B401B6D74B015C0103C089
:101B7000D1E001C0C1E087E792E00E94960161DFF9
:101B8000FC01C0970A9740F2EE32F10519F4C11139
:101B90001CC0C2CFE130F10509F4BECFDD2341F016
:101BA000F094E094D094C094C11CD11CE11CF11CB1
:101BB000CC2339F0C701B6012FD7A50194018BD7EB
:101BC00007C0C701B60128D703C0D111E9CFF2CFB2
:101BD000DF91CF91FF90EF90DF90CF90BF90AF90CB
:101BE0009F908F900895823109F466C0B8F48230D6
:101BF00069F1833009F073C0709341026093400231
:101C000089EB97E0909303028093020280916A002F
:101C1000837F846080936A00ED9A5FC0843141F1D4
:101C2000C8F1853109F05BC07093430260934202B2
:101C300084EB97E090930502809304028091690001
:101C40008C7F816080936900E89A47C070933F025F
:101C500060933E028EEB97E0909301028093000226
:101C600080916A008C7F816080936A00EC9A35C015
:101C700070934502609344028FEA97E090930702C5
:101C80008093060280916900837F8460809369005D
:101C9000E99A23C070934702609346028AEA97E06C
:101CA0009093090280930802809169008F7C806183
:101CB00080936900EA9A11C07093490260934802C8
:101CC00085EA97E090930B0280930A028091690065
:101CD0008F73806480936900EB9A81E0089580E0BF
:101CE00008950F931F93CF93DF93EC01062F142FCA
:101CF00062E0802F0E94F10262E0812F0E94F102D7
:101D0000802F90E0FC01EA52FE4FE491F0E0EE0FEC
:101D1000FF1FE454FE4FA591B491B983A883FC0141
:101D2000E45EFD4F24912C83812F90E0FC01EA5268
:101D3000FE4FE491F0E0EE0FFF1FE454FE4F45919B
:101D400054915B834A83FC01E45EFD4F94919D8333
:101D50001F82188619861A86EBE3FFE13197F1F7A7
:101D6000EC91E22331E009F430E0DA01EC91E9236F
:101D700009F032603E83BE01802F35DF8B87BE01C4
:101D8000812F31DF9B85890F8B87DF91CF911F9149
:101D90000F910895CF93DF93CDB7DEB7CF58D10918
:101DA0000FB6F894DEBF0FBECDBF789484B58260C5
:101DB00084BD84B5816084BD85B5826085BD85B5EF
:101DC000816085BD80916E00816080936E0010926D
:101DD00081008091810082608093810080918100E8
:101DE0008160809381008091800081608093800079
:101DF0008091B10084608093B1008091B0008160D7
:101E00008093B000809191008260809391008091D6
:101E10009100816080939100809190008160809317
:101E200090008091A10082608093A1008091A10028
:101E300081608093A1008091A00081608093A000C8
:101E40008091210182608093210180912101816034
:101E500080932101809120018160809320018091F5
:101E60007A00846080937A0080917A008260809307
:101E70007A0080917A00816080937A0080917A0064
:101E8000806880937A001092C100E0918702F091FF
:101E9000880202E00083E0918302F09184021082C4
:101EA000E0918502F091860283E3808310928F0295
:101EB000E0918B02F0918C0246E0F42EF082E091EA
:101EC0008902F0918A02808180618083E091890299
:101ED000F0918A02808188608083E0918902F0918C
:101EE0008A02808180688083E0918902F0918A0271
:101EF00080818F7D8083E0917A03F0917B03008362
:101F0000E0917603F09177031082E0917803F091ED
:101F100079038FEC808310928203E0917E03F0912D
:101F20007F03F082E0917C03F0917D0380818061EA
:101F30008083E0917C03F0917D03808188608083C1
:101F4000E0917C03F0917D03808180688083E09143
:101F50007C03F0917D0380818F7D808388E292E015
:101F60005FDD8BE392E05CDD1092720210927102F1
:101F70001092700210926F0213E01F935CE7752EAF
:101F80007F921F92FF920F938FEA8F931F9265E0CB
:101F9000862E8F921F9389E58F931F9274E0972E60
:101FA0009F921F9284E88F931F921F931F93EDE6D9
:101FB000AE2EAF921F920F930F93FFED3F2E3F92E5
:101FC0001F92EE24E394EF921F93A8EEBA2EBF92D5
:101FD000FF92B7E0CB2EB4E0DB2EDF92CF92D5DCC0
:101FE00068EE73E080E090E00E94F4031F937F921C
:101FF0001F92FF920F9389E6482E4F921F928F9265
:102000001F9396E4592E5F921F929F921F9222E295
:10201000622E6F921F921F931F93AF921F920F9386
:102020000F933F921F92EF921F93BF92FF92DF9206
:10203000CF92ABDC0FB6F894DEBF0FBECDBF68EE1B
:1020400073E080E090E00E94F4031F937F921F9260
:10205000FF920F934F921F928F921F935F921F9246
:102060009F921F926F921F921F931F93AF921F9286
:102070000F93EF9282EC8F931F92EF921F93BF9278
:10208000FF92DF92CF9281DC68EE73E080E090E017
:102090000E94F4030FB6F894DEBF0FBECDBFCE0191
:1020A0004396CA57DF4F99838883C658D04036E09D
:1020B000232E312CCFD8E0917102F0917202E830DA
:1020C000F10508F094C38827EA56FF4F8F4FD3C716
:1020D0008CE0E1E1F4E0DE01A859BF4F01900D92E0
:1020E0008A95E1F780911F0490912004E8969FAFB4
:1020F0008EAFE89780911D0490911E04E6969FAFE5
:102100008EAFE697CE018A589F4F0E942F076C3200
:1021100071408105910558F4CE0188599F4F0E9466
:10212000F606CE0188599F4F0E9445061FC0CE017A
:102130008C589F4F0E942F076C327140810591058A
:1021400058F4CE0188599F4F0E94BA06CE01885993
:102150009F4F0E9481060AC0CE0188599F4F0E945E
:10216000F606CE0188599F4F0E94BA06209134038B
:10217000309135034091360350913703609130031D
:1021800070913103809132039091330372D520E036
:1021900030E040E05FE39FD420E030E04FEA53E4DA
:1021A000EED618160CF05EC081E090E052C081E1DE
:1021B00094E00E942E06E0916403F0916503F89488
:1021C00017821086118612867894E0916603F0914A
:1021D0006703F894178210861186128678941092FD
:1021E00048031092490310924A0310924B03109235
:1021F0004C0310924D0310924E0310924F03109215
:10220000200310922103109222031092230360E016
:1022100070E084EB92E47DD960ED77E080E090E0BF
:102220000E94F403CE0188589F4F0E94D8058EE08B
:10223000FE01E858FF4FA3E6B2E001900D928A95A7
:10224000E1F780916F0290917002019739F482E07A
:1022500090E09093720280937102C9C260E070E0D6
:10226000CB0157D91092720210927102C0C2C09075
:102270002003D0902103E0902203F090230380916B
:10228000630290916402A0916502B0916602C85702
:10229000DF4F88839983AA83BB83C858D04080913D
:1022A0006B0290916C02A0916D02B0916E02C457C6
:1022B000DF4F88839983AA83BB83CC58D040C70162
:1022C000B60163D54B015C01C701B60163D66B0152
:1022D0007C01A5019401C857DF4F688179818A810B
:1022E0009B81C858D040F7D32B013C01A701960130
:1022F000C457DF4F688179818A819B81CC58D04057
:10230000EAD39B01AC01C301B201B3D420912C03E9
:1023100030912D0340912E0350912F03A9D42B010E
:102320003C01A5019401C457DF4F688179818A81FE
:102330009B81CC58D040CFD34B015C01A7019601C3
:10234000C857DF4F688179818A819B81C858D04006
:10235000C2D39B01AC01C501B4018AD420912803EA
:102360003091290340912A0350912B0381D413E328
:10237000E12EFE2C03E31FE3A30192017CD983E04D
:1023800090E067CF60ED77E080E090E00E94F4039A
:10239000CE0188589F4F0E94D8058EE0FE01E85874
:1023A000FF4FA3E6B2E001900D928A95E1F780918C
:1023B0006F0290917002892B09F4A7C0C09020038E
:1023C000D0902103E0902203F090230380916302D8
:1023D00090916402A0916502B0916602C857DF4FE8
:1023E00088839983AA83BB83C858D04080916B02AD
:1023F00090916C02A0916D02B0916E02C457DF4FB4
:1024000088839983AA83BB83CC58D040C701B60187
:10241000BCD44B015C01C701B601BCD56B017C018A
:10242000A5019401C857DF4F688179818A819B811A
:10243000C858D04050D32B013C01A7019601C45786
:10244000DF4F688179818A819B81CC58D04043D30A
:102450009B01AC01C301B2010CD420912C0330913B
:102460002D0340912E0350912F0302D42B013C01E8
:10247000A5019401C457DF4F688179818A819B81CE
:10248000CC58D04028D34B015C01A7019601C85716
:10249000DF4F688179818A819B81C858D0401BD3E6
:1024A0009B01AC01C501B401E3D320912803309115
:1024B000290340912A0350912B03DAD316E6E12E2B
:1024C000FE2C06E61FE3A3019201D5D884E090E03C
:1024D000C0CE60ED77E080E090E00E94F403CE0192
:1024E00088589F4F0E94D8058EE0FE01E858FF4FA4
:1024F000A3E6B2E001900D928A95E1F780916F0218
:1025000090917002892B09F06EC0A7E0B0E066C020
:1025100060ED77E080E090E00E94F403CE018858FF
:102520009F4F0E94D8058EE0FE01E858FF4FA3E6BA
:10253000B2E001900D928A95E1F780916F0290913F
:102540007002892B09F04FC020E030E0A9016091B2
:1025500028037091290380912A0390912B0388D33B
:102560004B015C0120E030E0A90160912C037091E7
:102570002D0380912E0390912F037AD36B017C0160
:10258000A5019401C501B401A6D24B015C01A701CC
:102590009601C701B6019FD29B01AC01C501B401F0
:1025A00068D302D520E030E040EA51E42FD218167B
:1025B0006CF00E942A090091680310916903C80118
:1025C0000E948106C8010E944506BECF8091680323
:1025D000909169030E942E06A5E0B0E0B0937202CC
:1025E000A093710204C1C0902003D0902103E09019
:1025F0002203F09023038091630290916402A091E2
:102600006502B0916602C857DF4F88839983AA8319
:10261000BB83C858D04080916B0290916C02A0910E
:102620006D02B0916E02C457DF4F88839983AA83ED
:10263000BB83CC58D040C701B601A7D34B015C0186
:10264000C701B601A7D46B017C01A5019401C8574D
:10265000DF4F688179818A819B81C858D0403BD205
:102660002B013C01A7019601C457DF4F6881798196
:102670008A819B81CC58D0402ED29B01AC01C301F2
:10268000B201F7D220912C0330912D0340912E03FB
:1026900050912F03EDD22B013C01A5019401C457A9
:1026A000DF4F688179818A819B81CC58D04013D2D9
:1026B0004B015C01A7019601C857DF4F6881798102
:1026C0008A819B81C858D04006D29B01AC01C501CC
:1026D000B401CED2209128033091290340912A03DE
:1026E00050912B03C5D2E12CF12C8701A30192015B
:1026F0000E943B0B309272022092710278C0A4E6D5
:10270000B0E0B0935302A09352028BE890E0909314
:102710005F0280935E02A5E1B3E0B0935C02A093F8
:102720005B028BE692E09093590280935802A4EFEB
:10273000B1E0B0936202A093610285E589838A8348
:1027400087E18B8383E08C8396E09D8398EE9E8364
:102750008F83A1E5B2E0FE013196BF018C918783A2
:1027600011969C91119712968C9112979087818760
:1027700013963396CA57DF4F88819981C658D04047
:102780008E179F0759F780910F04909110044B8189
:1027900050E04E5F5F4FDC01ED91FC910280F381D0
:1027A000E02D199524C0E12CF12C00E81FE320E076
:1027B00030E0A901CA01B9010E943B0B20E030E0E2
:1027C000A9016091240370912503809126039091C3
:1027D00027031CD187FF06C060E070E0CB010E9498
:1027E000890A05C060E070E0CB010E94E20A0E9405
:1027F000C40160CC0F931F93CF93DF93CAE6D3E05D
:102800001B821A8248EE53E060E070E04C835D83E7
:102810006E837F8388E192E09983888325ED30E0A1
:102820003D872C8724ED30E03F872E8720ED30E078
:10283000398B288B21ED30E03B8B2A8B22ED30E069
:102840003D8B2C8B26ED30E03F8B2E8B198E1A8E14
:102850001B8E1C8EE7E7F2E01382128244835583BD
:10286000668377839183808385EC90E09587848766
:1028700084EC90E09787868780EC90E0918B808B4A
:1028800081EC90E0938B828B82EC90E0958B848B33
:1028900086EC90E0978B868B118E128E138E148EA1
:1028A00083E090E09093200480931F0482E090E006
:1028B00090931E0480931D0461E086E00E94F10263
:1028C00061E087E00E94F10261E08AE00E94F1028B
:1028D00061E08BE00E94F10261E088E00E94F10279
:1028E00061E089E00E94F10201E114E086E090E0FD
:1028F000F8019183808387E090E0938382838AE06C
:1029000090E0958384838BE090E09783868388E0D2
:1029100090E09187808789E090E093878287E7E065
:10292000F4E08FEF80831282118214821782168264
:10293000158281E08383D187C08745E164E18DE220
:1029400094E0CFD942E163E181E294E0CAD9E4E1C5
:10295000F3E01486158616861786108A118A128A65
:10296000138A148A158A168A178A108E118E128E6F
:10297000138E148E158E168E178E10A211A212A20F
:1029800013A214A215A216A217A210A611A612A68F
:1029900013A614A615A616A617A610AA11AA12AA5F
:1029A00013AA14AA15AA16AA17AA10AE11AE12AE2F
:1029B00013AE109258031092590310925A031092BA
:1029C0005B0310925C0310925D0310925E03109201
:1029D0005F031092600310926103109262031092E1
:1029E00063038DE294E0909365038093640381E236
:1029F00094E09093670380936603109369030093B8
:102A00006803DF91CF911F910F91089540D008F492
:102A100081E00895E89409C097FB3EF49095809575
:102A2000709561957F4F8F4F9F4F9923A9F0F92F94
:102A300096E9BB279395F695879577956795B79512
:102A4000F111F8CFFAF4BB0F11F460FF1BC06F5FF8
:102A50007F4F8F4F9F4F16C0882311F096E911C00A
:102A6000772321F09EE8872F762F05C0662371F02B
:102A700096E8862F70E060E02AF09A95660F771F3F
:102A8000881FDAF7880F9695879597F90895990F1B
:102A90000008550FAA0BE0E8FEEF16161706E80728
:102AA000F907C0F012161306E407F50798F0621B49
:102AB000730B840B950B39F40A2661F0232B242B1E
:102AC000252B21F408950A2609F4A140A6958FEF3D
:102AD000811D811D08950BD078C069D028F06ED07B
:102AE00018F0952309F05AC05FC01124A2C07ED00F
:102AF000A0F3959FD1F3950F50E0551F629FF00111
:102B0000729FBB27F00DB11D639FAA27F00DB11D69
:102B1000AA1F649F6627B00DA11D661F829F2227F2
:102B2000B00DA11D621F739FB00DA11D621F839F79
:102B3000A00D611D221F749F3327A00D611D231F4F
:102B4000849F600D211D822F762F6A2F11249F579D
:102B500050408AF0E1F088234AF0EE0FFF1FBB1FC0
:102B6000661F771F881F91505040A9F79E3F51055F
:102B700070F014C05EC05F3FECF3983EDCF38695C6
:102B800077956795B795F795E7959F5FC1F7FE2B0A
:102B9000880F911D9695879597F9089597F99F67E6
:102BA00080E870E060E008959FEF80EC08950024D5
:102BB0000A941616170618060906089500240A94A2
:102BC00012161306140605060895092E0394000C28
:102BD00011F4882352F0BB0F40F4BF2B11F460FFB7
:102BE00004C06F5F7F4F8F4F9F4F089557FD9058E0
:102BF000440F551F59F05F3F71F04795880F97FBC1
:102C0000991F61F09F3F79F087950895121613067A
:102C10001406551FF2CF4695F1DF08C016161706A9
:102C20001806991FF1CF86957105610508940895DE
:102C3000E894BB2766277727CB0197F9089509D039
:102C4000A59F900DB49F900DA49F800D911D112400
:102C50000895A29FB001B39FC001A39F700D811D75
:102C60001124911DB29F700D811D1124911D089595
:102C70005058BB27AA270ED0A8CF99DF30F09EDF8F
:102C800020F031F49F3F11F41EF48ECF0EF4E09546
:102C9000E7FB84CFE92FAADF80F3BA176207730737
:102CA0008407950718F071F49EF5C2CF0EF4E095F5
:102CB0000B2EBA2FA02D0B01B90190010C01CA01F6
:102CC000A0011124FF27591B99F0593F50F4503EA1
:102CD00068F11A16F040A22F232F342F4427585F93
:102CE000F3CF469537952795A795F0405395C9F7AB
:102CF0007EF41F16BA0B620B730B840BBAF0915063
:102D0000A1F0FF0FBB1F661F771F881FC2F70EC001
:102D1000BA0F621F731F841F48F4879577956795D4
:102D2000B795F7959E3F08F0B3CF9395880F08F0BD
:102D30009927EE0F979587950895DF93DD27B92F93
:102D4000BF7740E85FE31616170648075B0710F4E5
:102D5000D92F19D19F938F937F936F9363D1ECE316
:102D6000F1E0AFD032DF2F913F914F915F91BFDE05
:102D7000DD2349F09058A2EA2AED3FE049EC5FE3F9
:102D8000D0785D2787DFDF9120CFC1D0E395E6C003
:102D90000CD01BCF13DF40F00ADF30F021F45F3F8F
:102DA00019F0FCCE511145CFFFCE20DF98F39923C7
:102DB000C9F35523B1F3951B550BBB27AA276217FF
:102DC0007307840738F09F5F5F4F220F331F441F44
:102DD000AA1FA9F333D00E2E3AF0E0E830D091507C
:102DE0005040E695001CCAF729D0FE2F27D0660F69
:102DF000771F881FBB1F261737074807AB07B0E8A8
:102E000009F0BB0B802DBF01FF2793585F4F2AF0BD
:102E10009E3F510568F0C2CE0CCF5F3FECF3983E69
:102E2000DCF3869577956795B795F7959F5FC9F71A
:102E3000880F911D9695879597F90895E1E0660FA3
:102E4000771F881FBB1F621773078407BA0720F01C
:102E5000621B730B840BBA0BEE1F88F7E095089585
:102E600004D06894B111E5CE0895C8DE88F09F576C
:102E700090F0B92F9927B751A0F0D1F0660F771FC6
:102E8000881F991F1AF0BA95C9F712C0B13081F0A6
:102E9000CFDEB1E00895CCCE672F782F8827B85FBA
:102EA00039F0B93FCCF3869577956795B395D9F707
:102EB0003EF490958095709561957F4F8F4F9F4F11
:102EC0000895DF93CF931F930F93FF92EF92DF92BA
:102ED0007B018C01689405C0DA2EEF0108DEFE014B
:102EE000E894A5912591359145915591AEF3EF0167
:102EF000D1DEFE019701A801DA9479F7DF90EF9017
:102F0000FF900F911F91CF91DF9108954DCE76DE06
:102F1000E8F3E894E0E0BB279F57F0F02AED3FE0AC
:102F200049EC06C0EE0FBB0F661F771F881F28F005
:102F3000B23A62077307840728F0B25A620B730B28
:102F4000840BE3959A9572F7803830F49A95BB0F0D
:102F5000661F771F881FD2F7904869C0EF93E0FF84
:102F600006C0A2EA2AED3FE049EC5FEB93DE2DDEDE
:102F70000F90039401FC9058E9E6F1E06BC087DD07
:102F800008F48FEF08959B01AC0160E070E080E8E9
:102F90009FE3FECE9F93BBDF0F9007FCEE5FDECF7B
:102FA00011F40EF401CE41C029DED0F39923D9F3F8
:102FB000CEF39F57550B87FF46D00024A0E640EA8A
:102FC000900180585695979528F4805C660F771F7E
:102FD000881F20F026173707480730F4621B730B51
:102FE000840B202931294A2BA69517940794202574
:102FF00031254A2758F7660F771F881F20F02617BC
:103000003707480730F4620B730B840B200D311D1A
:10301000411DA09581F7B901842F9158880F96958D
:10302000879508959B01AC0156CD9F3F31F091509B
:1030300020F4879577956795B795880F911D96959C
:10304000879597F9089591505040660F771F881F14
:10305000D2F708959F938F937F936F93FF93EF938E
:103060009B01AC0138DDEF91FF912BDF2F913F9158
:103070004F915F9130CDEE0FFF1F881F8BBF0790E0
:10308000F691E02D199481E090E0F89400C0F89456
:02309000FFCF70
:10309200C802C802C802C802C802C802C802C802DE
:1030A20000805D4300000000D50700098701210868
:1030B200B8019601AA01530043757272656E7420BD
:0E30C200506F736974696F6E3A20000D0A003A
:00000001FF
